:020000040800F2
:1000000038090020ED010008433400088B2E000859
:1000100041340008E10B00089D3D0008000000008D
:10002000000000000000000000000000473400084D
:10003000DD0C0008000000004534000849340008C9
:10004000070200080702000807020008070200086C
:10005000070200080702000807020008070200085C
:10006000070200080702000807020008E50B000865
:10007000F10B0008FD0B000807020008070200084A
:10008000070200080000000007020008070200083D
:10009000070200080702000807020008070200081C
:1000A00007020008C534000807020008070200081C
:1000B00007020008070200080702000807020008FC
:1000C00007020008070200080702000807020008EC
:1000D00007020008693D000807020008070200083F
:1000E00007020008070200080702000807020008CC
:1000F00007020008070200080702000800000000CD
:1001000000000000070200080000000007020008CD
:1001100007020008000000000702000807020008AC
:10012000070200080702000807020008070200088B
:10013000070200080000000000000000070200089D
:10014000070200080702000800000000000000008D
:10015000000000000000000000000000000000009F
:10016000000000000000000000000000070200087E
:10017000070200080000000000000000000000006E
:10018000000000000702000800000000000000005E
:10019000000000000000000000000000000000005F
:1001A000000000000000000007020008070200082D
:1001B000070200080702000807020008000000000C
:1001C000000000000702000800000000000000001E
:1001D0000702000807020008DFF80CD000F03EFB21
:1001E00000480047B15200083809002006488047FF
:1001F00006480047FEE7FEE7FEE7FEE7FEE7FEE70C
:10020000FEE7FEE7FEE7FEE7B5340008D901000887
:100210002DE9F05F0546002092469B46884606463B
:10022000814640241BE0284641464746224600F0CE
:10023000BDF953465A46C01A914110D3114618468B
:10024000224600F0A4F92D1A67EB01084F4622461A
:100250000120002100F09BF917EB00094E41201E00
:10026000A4F10104DFDC484631462A464346BDE896
:10027000F09FD2B201E000F8012B491EFBD270477B
:100280000022F6E710B513460A4604461946FFF762
:10029000F0FF204610BD2DE9FE4F804681EA0300A5
:1002A000C00F0C46009021F0004123F00045B8EB50
:1002B0000200A94105D24046214690461C460B4605
:1002C000024623F00040104347D0270DC7F30A0031
:1002D000C3F30A510290401A019040286BDAC3F32D
:1002E000130040F4801B0098924620B10023D2EB0B
:1002F000030A63EB0B0B01985946C0F140025046CC
:1003000000F045F906460D4650465946019A00F060
:100310005DF910EB08006141002487EA115284EA7C
:10032000E7731A4340D0009A62B3019A012A4FEA58
:10033000075215DC001B61EB02014FF0004202EA9C
:100340000752CDE90042001C41F5801132462B4690
:1003500000F094F903B0BDE8F08F40462146F9E77C
:10036000001B61EB0201001C41F5801300185B418A
:100370002018A2F5001747EB030140EAD570B61923
:100380006D4111E06D084FEA360645EAC0754FEA47
:100390000752001B61EB0201001C41F58011490866
:1003A0004FEA30000019514132462B4603B0BDE8F8
:1003B000F04F00F054B90098012240000023D0EB28
:1003C000020263EBE073009821464FEAE074B8EB59
:1003D000000061EB0401E9E783F000435BE781F093
:1003E000004158E72DE9FE4F81EA030404F0004480
:1003F00021F0004100944FF0000B23F0004350EA3D
:1004000001045ED052EA03045BD0C3F30A54C1F383
:100410000A552C44A4F2F3340194A0FB0254C1F316
:10042000130141F48011C3F3130343F4801301FB60
:10043000024400FB034E840A970A44EA815447EAC7
:100440008357A4FB076802958D0A05FB07854FEAD1
:10045000932C04FB0C542705029D4FEA065847EAEB
:100460001637B5EB08056EEB070C870E920E47EAC0
:10047000811742EA8312A7FB0201B6EB0B0164EB82
:1004800000042B0D43EA0C335E1844EB1C50DA4693
:100490005146E7FB0201C5F313044FEA0B3343EA6D
:1004A00014534FEA0432019C43EA0603A4F10C04FE
:1004B0000294009CCDE900B400F0E0F803B0BDE880
:1004C000F08F00200146F9E70EB5C10F80EAE07019
:1004D0000844CA07002140F233438DE80E000A4663
:1004E0000B4600F0CBF803B000BD0EB540F233412F
:1004F00002910021CDE900110A460B4600F0BEF83A
:1005000003B000BD00F0004230F000400AD0C10D41
:1005100001F56071C0F3160042EA0151C2084007BC
:100520001143704700200146704701F0004330B48A
:1005300021F0004150EA010206D00A0DA2F56072D6
:10054000C1F31301002A02DC30BC00207047440FC5
:1005500044EAC104C100E01830BC00EBC25000F016
:1005600047B830B50B46014600202022012409E09F
:1005700021FA02F59D4205D303FA02F5491B04FA5C
:1005800002F52844151EA2F10102F1DC30BD202A3B
:1005900004DB203A00FA02F1002070479140C2F1DA
:1005A000200320FA03F3194390407047202A04DB0C
:1005B000203A21FA02F00021704721FA02F3D040DC
:1005C000C2F120029140084319467047202A06DBF9
:1005D000CB17203A41FA02F043EAE07306E041FA11
:1005E00002F3D040C2F120029140084319467047FF
:1005F0000029A8BF7047401C490008BF20F0010037
:10060000704710B4B0FA80FC00FA0CF050EA010414
:1006100004BF10BC704749B1CCF1200421FA04F4A6
:1006200011FA0CF118BF012121430843A3EB0C017F
:10063000CB1D4FEA00614FEA102042BF002010BCE2
:10064000704700EBC35010440029A4BF10BC704792
:10065000401C490008BF20F0010010BC704710B5D5
:10066000141E73F1000408DA401C41F100019218D5
:100670005B411A4301D120F0010010BD2DE9F04D7E
:1006800092469B4611B1B1FA81F202E0B0FA80F2D3
:1006900020329046FFF77BFF04460F4640EA0A00EF
:1006A00041EA0B0153465A46084313D0114653EA18
:1006B000010019D0C8F140025046FFF777FF054608
:1006C0000E46504659464246FFF761FF084305D0A3
:1006D000012004E020463946BDE8F08D00200543A6
:1006E00046EAE0762C4337430A986305E40AA0EB18
:1006F00008000022FD0A44EA47540A3002D50020CF
:100700000146E9E7010510196941DDE908450019CD
:100710006941BDE8F04DA2E72DE9F04D81EA0304FF
:1007200004F0004B21F0004514464FF0000A23F07E
:10073000004150EA050220D054EA01021DD0C5F361
:100740000A570246C5F31303C1F31300C1F30A5657
:1007500040F4801543F48013A7EB0608101BD6461F
:1007600008F2FD3873EB050002D308F1010801E03F
:1007700092185B41B8F1000F03DA00200146BDE892
:10078000F08D00204FF48011064684460EE0171BC2
:1007900073EB050705D3121B63EB050306434CEA15
:1007A000010C49084FEA300092185B4150EA0107FA
:1007B000EDD152EA030012D082EA040083EA050177
:1007C000084305D0101BAB4106D20122002306E0EE
:1007D00000224FF0004302E06FF0010253101AEBC9
:1007E00006004CEB085110EB0A0041EB0B01BDE891
:1007F000F04DFFF734BFC1F30A52C1F3130140F2C9
:10080000FF3341F480119A4202DA0020014670471A
:1008100040F233439A42A2F2334202DC5242FFF7E3
:10082000C5BEFFF7B4BE000030B5041E71F1000470
:1008300004DB4FF00044404264EB0101141E73F1ED
:10084000000405DB1C464FF00043524263EB0403F7
:10085000994208BF904230BD00207047064C074DBA
:1008600006E0E06840F0010394E807009847103480
:10087000AC42F6D3FFF7B4FCB4580008D4580008D3
:100880002DE9FF4104462E4888460078A0B1B4B156
:10089000B8F1000F13D02B49022004F022FC050010
:1008A00010D029A003F07CFA4FF47A7004F097FC82
:1008B000284604B0BDE8F0816FF00200F9E74FF080
:1008C000FF30F6E7322004F08AFC1D491D4A891CDE
:1008D00002A804F025FB070030D19DED020A27494C
:1008E00010EE100A88420BDA10EE100AFFF70AFE2B
:1008F00041EC100B224853EC102B03F051FA1DE091
:100900009FED201AC0EE010A10EE900AFFF7FAFDE3
:1009100005460E460398FFF7F5FD41EC100BCDE9B7
:10092000005653EC102B18A003F03AFA9DED030A81
:1009300084ED000A9DED020A88ED000A3846B8E70A
:10094000280000201C0500204572726F723A204674
:1009500061696C656420746F207472696767657281
:10096000206120666F72636564206D6561737572C6
:10097000656D656E742E0D0A0000000000007A445B
:10098000245700080000C84254656D706572617498
:100990007572653A20252E326620646567432C20E7
:1009A00050726573737572653A20252E3266206821
:1009B00050610D0A000000002DE9F041314C002685
:1009C000607818B130A003F0EBF9667035A003F041
:1009D000E7F9DFF8088140490125C8F808104049C7
:1009E000C8F80C103F49C8F8101088F815503EA000
:1009F00003F0D6F9404604F0D5FB010002D04A4886
:100A000003F0CEF9052004F0EAFB344804F0F0FAD4
:100A1000070002D00146454827E098F8001044A09E
:100A200003F0BEF917482D49801C04F0E2F90100DB
:100A300001D04D480BE013480321801C0570417024
:100A40008570264904F016FB010003D0474803F0E7
:100A5000A7F902E046A003F0A3F92049002004F022
:100A600040FB070007D001464CA003F099F926701F
:100A70003846BDE8F081594803F092F9257000200E
:100A8000F7E70000280000200D0A2D2D2D20424DF3
:100A90005035383020447269766572202D2D2D0D29
:100AA0000A000000424D503538305F496E69743A93
:100AB000205374617274696E6720696E697469612C
:100AC0006C697A6174696F6E2070726F636573739D
:100AD0002E2E2E0D0A000000A14F00081C0500203C
:100AE000C94F0008974D0008424D503538305F49D6
:100AF0006E69743A20506572666F726D696E672018
:100B00006120736F667420726573657420746F2042
:100B1000656E7375726520636C65616E20737461B8
:100B200074652E2E2E0D0A0074570008C457000855
:100B3000424D503538305F496E69743A20626D70AD
:100B4000355F696E69742073756363657373667569
:100B50006C2E20436869702049443A203078253053
:100B600032580D0A000000001C58000868580008A0
:100B7000424D503538305F496E69743A2053657480
:100B8000204F535220636F6E6669672073756363ED
:100B900065737366756C2E0D0A000000424D50356A
:100BA00038305F496E69743A20464154414C202DDB
:100BB000204661696C656420746F207365742053EE
:100BC00054414E444259206D6F64652077697468C2
:100BD00020636F64652025640D0A0000DC56000860
:100BE000FEE70000014800F0EDB800005C020020C4
:100BF000014800F0E7B8000068010020014800F05B
:100C0000E1B80000BC0200200D4902688A4201D20E
:100C10000C4901E00B492031D2B21423083AB2FB4F
:100C2000F3F2436C02F01F0223F0030319448164C2
:100C300004498031C1640121914001657047000081
:100C400008040240000802400179074A02EB8102D1
:100C50004265054A4432491E826501F01F020121A6
:100C60009140C16570470000FC08024030B5D0E9F2
:100C700013456560446D14B1D0E91645656090F880
:100C8000444004F01F050124AC40056C6C6004680E
:100C900063608368102B036803D099600068C260AA
:100CA00030BD9A600068C16030BD0000094801682D
:100CB00041F080710160084800214160016841F005
:100CC000010101600068C00701D0002070470120C9
:100CD00070470000FCED00E0001000E0704772B6C5
:100CE000FEE710B590F8253000210122022B03D039
:100CF0000421C163012122E003681C6824F00E0472
:100D00001C60836C1C6824F480741C6003681C687D
:100D100024F001041C6090F84430046C03F01F03BD
:100D200002FA03F36360D0E913345C60436D33B1BE
:100D30001C6824F480741C60D0E916345C6080F870
:100D40002520002280F82420084610BD70B590F8B8
:100D50002520002401212346022A07D00422C26351
:100D600080F8251080F82430012429E002681568F5
:100D700025F00E0515600268156825F0010515605F
:100D8000826C156825F48075156090F84420056C18
:100D900002F01F0201FA02F26A60D0E913255560E1
:100DA000426D32B1156825F480751560D0E91625BD
:100DB000556080F8251080F82430816B01B1884798
:100DC000204670BDF0B4016C0C6801680D6890F8A5
:100DD000442002F01F06042202FA06F3234211D037
:100DE0006B070FD50B689B0603D40B6823F0040335
:100DF0000B6090F8441001F01F018A40016C4A60BA
:100E0000016B1DE0022303FA06F727424FF0000CA6
:100E10004FF0010218D0AF0716D50C68A40605D410
:100E20000C6824F00A040C6080F8252090F8441027
:100E300001F01F018B40016C4B6080F824C0C16A37
:100E400000291AD0F0BC08470823B340234214D02D
:100E50002B0712D50B6823F00E030B6090F844109B
:100E6000036C01F01F0102FA01F15960C26380F8BE
:100E7000252080F824C0416BE2E7F0BC70470000F9
:100E800070B504000CD02B4A21681420914209D27D
:100E9000294A0A44B2FBF0F08000606427480AE067
:100EA000012070BD234A52420A44B2FBF0F0800098
:100EB0006064204808382064022084F825000A680D
:100EC00047F6F0708243D4E902031843D4E90435AD
:100ED0002B431843A3691843E3691843236A184353
:100EE000104308602046FFF78FFEA0680025B0F58C
:100EF000804F00D16560A16C20790860D4E91301AE
:100F000041606068401E032808D82046FFF79CFE19
:100F1000606D0560D4E91601416002E06565A56574
:100F2000E565E563012084F8250084F8245000205D
:100F300070BD000008040240F8FFFDBF0000024041
:100F400070B5044690F82400002501280CD001203B
:100F500084F8240094F825600020012E06D084F83F
:100F600024000225284670BD022070BD022684F8A8
:100F70002560E0632068066826F0010606602046CA
:100F8000FFF774FE206B00282068016802D041F052
:100F90000E0106E021F0040101602068016841F0C3
:100FA0000A010160A06C0168C90303D5016841F41E
:100FB00080710160606D18B1016841F48071016059
:100FC0002068016841F001010160CBE770B504467B
:100FD00000F038F90546601C02D00448406804441B
:100FE00000F030F9401BA042FAD370BD0800002089
:100FF0002DE9F04FDFF82092002301260324A9F108
:10100000040B85B00F2709F1040AABF1040EFAE0D6
:1010100006FA03F52A407CD091F804C00CF0030CCA
:10102000BCF1010F02D0BCF1020F26D1D0F808C0EC
:10103000CDF800C04FEA430C04FA0CF8CDF810C00C
:10104000DDF800C02CEA080CCDF800C0D1F80C8007
:10105000DDF810C008FA0CF8DDF800C048EA0C080A
:10106000C0F80880D0F804C02CEA050C0D79C5F34F
:1010700000159D4045EA0C0545600D79ED43AD072F
:101080000ED0C5684FEA430804FA08FC25EA0C05AF
:10109000D1F808C00CFA08FC4CEA050CC0F80CC0EA
:1010A0000D7905F00305022D16D1DD0800EB850C46
:1010B000CDF808C0DCF820805D074FEAD56C07FA50
:1010C0000CF528EA05080D6905FA0CF5DDF808C0ED
:1010D00045EA0805CCF8205005684FEA430CCDF8E6
:1010E00008C004FA0CFC25EA0C0591F804C00CF0C9
:1010F0000308DDF808C008FA0CF848EA0508C0F84B
:1011000000804D6815F4403F7CD0444DD5F860C058
:1011100000E077E04CF0010CC5F860C02D6E23F0C4
:10112000030C05F0010500953D4D65440295AD6841
:101130004FEA837C4FEA1C7807FA08FC25EA0C0585
:10114000B0F1904F06D0DFF8DCC0604505D14FF01C
:10115000010C20E04FF0000C1DE0DFF8CCC0604532
:1011600002D14FF0020C16E0DFF8C0C0604502D19A
:101170004FF0030C0FE0DFF8B8C0604502D14FF02C
:10118000040C08E0DFF8ACC0604502D14FF0050C5C
:1011900001E04FF0060C0CFA08FC4CEA050C029D2D
:1011A000C5F808C0D9F80050CC46D1F80480954362
:1011B0005FEAC82800D51543CCF80050DAF8005093
:1011C000D446D1F8048095435FEA882800D51543BA
:1011D000CCF80050DBF80050DC46D1F80480954391
:1011E0005FEA883800D51543CCF80050DEF800508F
:1011F000F446D1F8048095435FEAC83800D515431A
:10120000CCF800505B1C0A6832FA03F57FF400AF9B
:1012100005B0BDE8F08F0000080401400010024056
:10122000000001400004004800080048000C00488D
:1012300000100048001400480AB1816170478162C3
:1012400070470000014880687047000008000020D7
:1012500090F84120202A24D190F84020012A20D063
:10126000012280F84020242280F84120026813687F
:1012700023F0010313600268136823F480531360A2
:10128000026813680B43136001680A6842F00102A8
:101290000A60202180F84110002180F840100846A3
:1012A00070470220704790F84120202A22D190F800
:1012B0004020012A1ED0012280F84020242280F8FC
:1012C00041200268136823F0010313600268136869
:1012D00023F4706343EA0121116001680A6842F057
:1012E00001020A60202180F84110002180F840109E
:1012F000084670470220704770B5040004D094F887
:101300004100002510B106E0012070BD84F8405076
:10131000204600F0ADF9242084F8410020680168DF
:1013200021F0010101606068216820F070600861AF
:101330002068816821F400418160E0680128A0688C
:1013400030D040F4044021688860E06802282068BA
:1013500041682AD021F40061416020684168144A44
:10136000114341602068C16821F40041C160D4E9A3
:1013700004010843A16940EA01202168C860D4E95A
:1013800007010843216808602068016841F00101F5
:1013900001606564202084F84100256384F8425090
:1013A000002070BD40F40040CDE741F40061D3E778
:1013B000008000022DE9FF4F83B00446DDE910876D
:1013C00090F84100DDF848909A469346202874D161
:1013D0005FEA080014D09FB194F8400001286CD057
:1013E000012084F84000FFF72DFF064601220090FF
:1013F0001923D103204601F05DFE002871D103E0DE
:101400004FF4007060646CE0222084F841004020BA
:1014100084F8420000256564C4F82480678565630C
:10142000CDE9009653465A462046049901F0C6FD80
:1014300010B184F8405054E0618D3548FF274FF0DB
:1014400080784FF0007AFF2904D927853A46434631
:10145000009005E0618D2185009094F82820534686
:101460002046049901F00EFE4B460022042120463E
:10147000009601F01FFEA0BB2068406A616A0870F8
:10148000606A401C6062208D401E81B22185608DA3
:10149000401E6085608DD8B1D1B94B4600228021B5
:1014A0002046009601F006FED8B9608DFF2805D9C8
:1014B00027853A464346009506E026E0608D208564
:1014C000009594F8282053462046049901F0DAFD4F
:1014D000608D0028C8D132464946204601F027FEDB
:1014E00018B1012007B0BDE8F08F21682020C86145
:1014F00021684A68074B1A404A6084F8410084F822
:10150000425084F840500020ECE70220EAE7000057
:101510000024008000E800FE2DE9FF4F83B0044660
:10152000DDE9108790F84100DDF848909A4693462F
:10153000202871D15FEA080014D09FB194F84000D0
:10154000012869D0012084F84000FFF77BFE0646A1
:10155000012200901923D103204601F0ABFD0028A1
:101560006ED103E04FF40070606469E0212084F8DC
:101570004100402084F8420000256564C4F82480BE
:1015800067856563CDE9009653465A46204604991F
:1015900001F046FD10B184F8405051E0608DFF2706
:1015A0004FF080784FF0007AFF2804D927853A461B
:1015B0004346009505E0608D2085009594F828202D
:1015C00053462046049901F05DFD324649462046C7
:1015D00001F0D8FDA0BB606A216800788862606A6B
:1015E000401C6062608D401E6085208D401E80B270
:1015F0002085618DD9B1D0B94B460022802120468B
:10160000009601F057FDD8B9608DFF2805D92785D0
:101610003A464346009506E026E0608D2085009519
:1016200094F8282053462046049901F02BFD608D44
:101630000028CAD132464946204601F078FD18B14B
:10164000012007B0BDE8F08F20682021C16120682B
:101650004268064B1A40426084F8411084F84250B8
:1016600084F840500020ECE70220EAE700E800FEA2
:101670002DE9F04397B0044614216846FEF700FEBA
:10168000442105A8FEF7FCFD3E4920683E4C122689
:10169000042700254FF090494FF08008884235D14B
:1016A000402005900B9505A800F06EF908B1FFF7F2
:1016B00016FBE06C40F00100E064E06C00F001001B
:1016C0001690E06C40F00200E064E06C694600F0C7
:1016D000020016904FF400400090CDE90165CDE97D
:1016E00003574846FFF784FCCDF80080CDE901653B
:1016F000CDE9035769462548FFF77AFCA06D40F411
:101700000010A065A06D00F4001037E02049884269
:1017100035D105A8CDF814800C9500F035F908B145
:10172000FFF7DDFAE06C40F00400E064E06C00F0EC
:1017300004001690E06C40F00100E064E06C694643
:1017400000F00100169010200090CDE90165CDE970
:1017500003571048FFF74CFC4FF480700090CDE920
:101760000165CDE9035769464846FFF741FCA06D86
:1017700040F48000A065A06D00F48000169017B0C2
:10178000BDE8F0830054004000100240000400480F
:10179000005800400008004802488168426811442F
:1017A000816070470800002010B50024032000F07D
:1017B00073F80F2000F008F808B1012401E000F0F0
:1017C00025F8204610BD000070B50E4E05460024D9
:1017D000706898B14FF47A71B1FBF0F00A4909686A
:1017E000B1FBF0F000F05EFD40B9102D06D20022F2
:1017F0002946501E00F030F8356000E001242046F4
:1018000070BD000008000020140000200A4882B0CB
:10181000016E41F001010166016E01F001010091CC
:10182000816D41F080518165806D00F080500090A5
:1018300002B000F0A1B8000000100240002809DB4F
:1018400000F01F02012191404009800000F1E020DA
:10185000C0F8001170470000F0B40E4B1B680C4636
:10186000C3F30223C3F10705042D00D90425191D74
:10187000072901D2002300E0DB1E012606FA05F14C
:10188000491E214099409E40761E16403143F0BCCF
:1018900002F0A9BA0CED00E0064900F00702086862
:1018A0004FF6FF03184040EA0220034A1043086045
:1018B000704700000CED00E00000FA052B492C4BAE
:1018C0000A6832214A432B4940B1B0F5007F0868CD
:1018D00029D020F4C06040F480602CE00868C0F398
:1018E0004120022804D051F8800F20F4807022E0BB
:1018F000D1F8800020F48070C1F88000086820F4DE
:10190000C06040F400700860B2FBF3F0401C00E0DF
:10191000401E4A69520501D50028F9D148694005A1
:101920000AD503207047C0F34120022806D051F8A1
:10193000800F40F48070086000207047D1F880006C
:1019400040F48070C1F88000086820F4C06040F462
:1019500000700860B2FBF3F0401C00E0401E4A69D2
:101960005205DBD50028F9D1D8E70000140000208B
:1019700040420F00007000400248816841F48041FD
:1019800081607047007000402DE9F843044600680C
:1019900000269D4D00035ED5A86D0027C00008D429
:1019A000A86D40F08050A865A86D012700F0805018
:1019B0000090DFF85892D9F8001041F48071C9F80E
:1019C0000010FFF73FFC804606E000BFFFF73AFC3F
:1019D000A0EB080002282BD8D9F80000C005F5D5E7
:1019E000D5F8900010F4407014D0216C814211D0D1
:1019F000D5F89000D5F8901020F4407041F4803173
:101A0000C5F89010D5F8901021F48031C5F89010E9
:101A1000C5F89000C00711D0FFF714FC804641F2D2
:101A2000883907E0FFF70EFCA0EB0801494501D912
:101A300003260BE0D5F890008007F3D5D5F8900089
:101A4000216C20F440700843C5F890001FB1A86DC8
:101A500020F08050A8652078C00707D0D5F888000E
:101A6000616820F003000843C5F8880020788007EB
:101A700007D5D5F88800A16820F00C000843C5F808
:101A800088002078400707D5D5F88800E16820F065
:101A900030000843C5F888002078000707D5D5F83E
:101AA0008800216920F0C0000843C5F8880020782C
:101AB000800607D5D5F88800616920F440600843A6
:101AC000C5F888002078400607D5D5F88800A169B8
:101AD00020F440500843C5F888002078000607D558
:101AE000D5F88800E16920F440400843C5F8880033
:101AF0002088C00507D5D5F88800216A20F4403039
:101B00000843C5F888002088800507D5D5F88800E7
:101B1000616A20F440200843C5F888002088400509
:101B20000FD5D5F88800A16A20F440100843C5F805
:101B30008800A06AB0F5801F03D1E86840F48010E7
:101B4000E860208800050FD5D5F88800E16A20F408
:101B500040000843C5F88800E06AB0F5800F03D163
:101B6000E86840F48010E8602088C0040FD5D5F8FC
:101B70008800216B20F040700843C5F88800206B76
:101B8000B0F1807F03D1E86840F48010E8602088DD
:101B90004FF0006180040ED5D5F88800626B20F00C
:101BA00040601043C5F88800606B884203D1E86844
:101BB00040F48010E860208840040ED5D5F88800F5
:101BC000A26B20F040601043C5F88800A06B8842EB
:101BD00003D1E86840F48010E860208800040FD545
:101BE000D5F88800E16B20F040500843C5F8880024
:101BF000E06BB0F1805F03D1E86840F48030E860CA
:101C00003046BDE8F883000000100240007000403C
:101C10002DE9F0470E4605004FF0000725D0DFF80C
:101C2000AC81D8F8000000F00F00B0420CD2D8F818
:101C3000001021F00F013143C8F80010D8F800005F
:101C400000F00F00B04210D12968614CC80741F282
:101C5000883A5AD06868DFF87C91032808D00228B7
:101C600020682DD0400500282CDB0120BDE8F0873E
:101C700020688001F9D5E06800F00302E068C0F355
:101C80000310401C032A19D0534A00BFB2FBF0F0E6
:101C9000E268C2F306225043E268C2F34162521C7A
:101CA0005200B0FBF2F0484517D9A06810F0F00FD1
:101CB0000CD0880711D5A86840B10EE0474AE5E787
:101CC0008003D0E700F0B6F8484506D9A06820F0B8
:101CD000F00040F08000A0608027A068696820F0D4
:101CE00003000843A060FFF7ADFA814606E000BF9D
:101CF000FFF7A8FAA0EB090151453AD8A068696836
:101D000000F00C00B0EB810FF2D12868810714D5E8
:101D1000400703D5A06840F4E060A0602878000781
:101D200005D5A06820F4605040F4E060A060A06891
:101D3000A96820F0F000084304E0802F03D1A068D8
:101D400020F0F000A060D8F80010404601F00F012C
:101D5000B14216D9016821F00F0131430160FFF74C
:101D600071FA074607E000BFFFF76CFAC11B514547
:101D700001D903207AE7D8F8000000F00F00B04244
:101D8000F2D12878400705D5A068E96820F4E06022
:101D90000843A0602878000706D5A068296920F4C8
:101DA000605040EAC100A06000F044F8A1680C4A0D
:101DB000C1F30311515C01F01F01C84009490860DB
:101DC00009480068BDE8F047FFF7FEBC002002406C
:101DD0000010024000B4C4040024F40000127A0091
:101DE000345500081400002008000020054806496A
:101DF00000688968054AC1F30221515C01F01F01A6
:101E0000C8407047140000200010024044550008EC
:101E10000548064900688968054AC1F3C221515C3A
:101E200001F01F01C840704714000020001002405C
:101E300044550008184910B58868C0F38102174856
:101E4000012A0BD08A684310C2F38102022A06D00D
:101E50008A68C2F38102032A03D0002010BD18460D
:101E600010BDCA6802F00304CA68C2F30312521C10
:101E7000032C02D0B0FBF2F001E0B3FBF2F0CA6831
:101E8000C968C2F306225043C1F34161491C4900AD
:101E9000B0FBF1F010BD0000001002400024F4007F
:101EA0002DE9F84304007AD02078F84DC00747D0D8
:101EB000A868E96800F00C0001F003010C2802D0CA
:101EC000082817D001E0032914D06068B0F5803FDE
:101ED00017D0B0F5A02F286817D020F480302860E4
:101EE000286820F4802028606068E0B1FFF7AAF934
:101EF000064614E02868800322D560680028D2D006
:101F00001EE0286840F48030EDE740F4802028602F
:101F1000F7E700BFFFF796F9801B642870D82868A0
:101F20008003F7D50CE0FFF78DF9064605E000BF0A
:101F3000FFF788F9801B6428F0D828688003F7D45D
:101F4000207880074CD5A868E96800F00C0001F003
:101F500003010C2802D004280DD001E002290AD088
:101F6000E068002828682BD040F480702860FFF7D4
:101F700069F9064619E02868400502D5E06800289E
:101F800091D06868217C20F0FE4040EA01606860E2
:101F9000BF480068FFF718FC002800D120E072E17C
:101FA000FFF750F9801B0228B8D828684005F7D5FC
:101FB0006868217C20F0FE4040EA016068600FE024
:101FC00020F480702860FFF73DF9064605E000BF69
:101FD000FFF738F9801B0228A0D828684005F7D4FD
:101FE0002078000729D560690028D5F8940013D01F
:101FF00040F00100C5F89400FFF724F9064606E01A
:1020000090E000BFFFF71EF9801B022886D8D5F8A4
:1020100094008007F6D510E020F00100C5F8940088
:10202000FFF710F9064604E0FFF70CF9801B0228C1
:1020300078D8D5F894008007F6D42078400761D589
:10204000A86D0026C00008D4A86D40F08050A86597
:10205000A86D012600F0805000908E480168C905E7
:1020600011D40168804641F480710160FFF7EAF8FD
:10207000074604E0FFF7E6F8C01B022852D8D8F85C
:102080000000C005F6D5A068012815D00528D5F8B0
:10209000900016D020F00100C5F89000D5F890000F
:1020A00020F00400C5F89000A06841F28838B8B16B
:1020B000FFF7C8F807460EE0D5F8900040F00100A1
:1020C000F0E740F00400C5F89000F5E7FFF7BAF834
:1020D000C11B414526D8D5F890008007F6D50CE005
:1020E000FFF7B0F8074604E0FFF7ACF8C11B414525
:1020F00018D8D5F890008007F6D41EB1A86D20F04E
:102100008050A8652078800629D5A0690028D5F8D8
:10211000980013D040F00100C5F89800FFF792F83E
:10212000064606E075E000BFFFF78CF8801B02282A
:102130006FD8D5F898008007F6D510E020F00100A0
:10214000C5F89800FFF77EF8064604E0FFF77AF836
:10215000801B02285DD8D5F898008007F6D4E06986
:10216000F0B3A968C1F3810103295DD00228286872
:1021700020F08070286003D0FFF764F804464BE03D
:10218000FFF760F8064604E0FFF75CF8801B0228C2
:102190003FD828688001F7D4F4E908016FF00F02F6
:1021A00002EB01110843218A5204490802EB415114
:1021B000A26841EA02210843217D4FF07E4249088E
:1021C00002EB41610843217B40EAC160E968324A81
:1021D00011400843E860286840F08070286000E003
:1021E0005EE0E86840F08070E860FFF72BF8044696
:1021F00005E000BFFFF726F8001B022809D8286871
:102200008001F7D54CE000BFFFF71CF8001B022847
:1022100002D90320BDE8F88328688001F4D4E86877
:102220001E490840E8603BE00128F3D0E868226AD4
:1022300000F00301914226D1616A00F0F002090129
:10224000103991421FD1A26A00F4FE41B1EB022F76
:1022500019D194F82C2000F07841B1EBC26F12D163
:10226000218E00F4C00249084905A1F500119142F0
:1022700009D194F8341000F0C06049084906A1F172
:10228000007181420CD00120C4E700000010024020
:1022900008000020007000400C809F01FCFFEEFE53
:1022A0000020B7E710B5401EB0F1807F01D30120B8
:1022B00010BD4FF0E02460610F21601701F093FD25
:1022C0000020A06107202061002010BD70477047EA
:1022D0007047704770477047F0B590F83C20012A6E
:1022E0003AD0012580F83C50022280F83D20036856
:1022F0005A689C68194E1A4FB34201D0BB4204D1B0
:1023000022F4700C4A6842EA0C02DFF858C002EA74
:102310000C02D1F800C04CEA020CC3F804C00268F9
:10232000B2420DD0B2F1804F0AD00F4B9A4207D083
:102330000E4B9A4204D0BA4202D00D4B9A4204D1BD
:10234000896824F080031943916080F83D50002192
:1023500080F83C100846F0BD0220F0BD002C014082
:10236000003401408FFFFFFD0004004000080040E2
:1023700000400140704710B5040003D094F83D00C0
:1023800010B107E0012010BD002084F83C00204679
:1023900000F022F8022084F83D00211D206801F0A1
:1023A00097F8012084F8480084F83E0084F83F0044
:1023B00084F8400084F8410084F8420084F8430027
:1023C00084F8440084F8450084F8460084F8470007
:1023D00084F83D00002010BD38B505460068184956
:1023E00088422BD11748016E41F400610166006EEE
:1023F000164C00F400600090134820602E206060AE
:1024000000208021A060C4E90301490061618900C6
:10241000C4E90610880020622046FEF731FD08B1AD
:10242000FEF75DFC2C62002211461920A562FFF721
:1024300013FABDE838401920FFF700BA38BD000094
:10244000002C0140001002401C00024068010020E6
:1024500090F83D10012901D001207047022180F839
:102460003D100168CA6842F00102CA600068104964
:1024700088420ED0B0F1804F0BD00E49884208D070
:102480000D49884205D00D49884202D00C49884246
:1024900007D181680B4A1140062906D0B1F5803F6B
:1024A00003D0016841F00101016000207047000085
:1024B000002C0140000400400008004000340140AE
:1024C000004001400700010070B5044690F83C0050
:1024D0000025012814D0012684F83C60022084F8ED
:1024E0003D0022689068364B184020F47F40906091
:1024F000086870282ED010DC10F00F0F03D021E0F8
:102500004FF0020070BD4FEA2012072A1AD2DFE80E
:1025100002F0525252524A3840002A4BC21A984294
:1025200049D009DCB0F5805F0DD0B0F5005F1CD05C
:10253000B0F1101F06D13EE0102A3CD0202A3AD03C
:10254000502A38D0012584F83D60002084F83C00F2
:10255000284670BDCB68D1E90121206801F016F84A
:102560002068816841F0770109E0CB68D1E9012159
:10257000206801F00BF82068816841F48041816097
:10258000E1E7CA684968206801F014F85021206822
:1025900006E0CA684968206801F01DF860212068DB
:1025A00000F0FEFFCFE7CA684968206801F002F832
:1025B00040212068F4E7226801461046F0E7000059
:1025C00088FFCEFF2000100070472DE9F04104463F
:1025D0000068C66805694FF00007A90713D5B10761
:1025E00011D5F91E016101202077206880698007DC
:1025F000204602D0FFF7E8FF04E000F0B7F82046DD
:1026000000F0B5F82777680716D5700714D521684C
:102610006FF004000861022020772068806910F4C0
:10262000407F204602D0FFF7CFFF04E000F09EF885
:10263000204600F09CF82777280715D5300713D5DA
:1026400021686FF008000861042020772068C069C5
:102650008007204602D0FFF7B7FF04E000F086F8BD
:10266000204600F084F82777E80616D5F00614D542
:1026700021686FF010000861082020772068C06989
:1026800010F4407F204602D0FFF79EFF04E000F0E8
:102690006DF8204600F06BF82777E80708D0F007C0
:1026A00006D021686FF001000861204600F060F854
:1026B000280601D4A80408D5300606D521686FF491
:1026C000025008612046FFF702FEE80508D53006F3
:1026D00006D521686FF4807008612046FFF7F6FD8B
:1026E000680608D5700606D521686FF040000861BD
:1026F000204600F03EF8A80608D5B00606D52168A9
:102700006FF0200008612046FFF7E2FDE80208D5DF
:10271000F00206D521686FF4801008612046FFF7AB
:10272000D9FDA80208D5B00206D521686FF40010C3
:1027300008612046FFF7CDFD680208D5700206D576
:1027400021686FF4800008612046FFF7C4FD28026D
:102750000AD5300208D521686FF4000008612046D0
:10276000BDE8F041FFF706BEBDE8F0817047704755
:102770007047704790F88410012918D0012180F823
:1027800084102421C0F8881001680A680B6823F0BF
:1027900001030B6022F000510022426603681960B9
:1027A0002021C0F8881080F884201046704702204D
:1027B00070477047704770B5044690F88400012850
:1027C0001DD0012084F884002420C4F888002068EB
:1027D0000568026822F0010202602068826822F027
:1027E00060620A438260204600F01CFF206805609A
:1027F0002020C4F88800002084F8840070BD0220E6
:1028000070BD70B5044690F8840001281DD00120E9
:1028100084F884002420C4F88800206805680268D1
:1028200022F0010202602068826822F060420A43BE
:102830008260204600F0F6FE206805602020C4F883
:102840008800002084F8840070BD022070BD7047AD
:10285000704770472DE9F04103680446D86919684C
:102860009A6840F60F0528424FF000054FF0020627
:102870000AD187067ED501F0200702F0805C57EA76
:102880000C0777D0616F42E1B64FDFF8DCC217402A
:1028900001EA0C0C57EA0C0C6CD05FEAC07C0CD03F
:1028A0005FEAC15C09D54FF0010CC3F820C0D4F831
:1028B000903043F00103C4F89030830709D5D30763
:1028C00007D023681E62D4F8903043F00403C4F8A4
:1028D000903043070AD5D30708D026680423336213
:1028E000D4F8903043F00203C4F8903003070CD5BD
:1028F00001F020033B4308D0266808233362D4F854
:10290000903043F00803C4F8903003050BD54B0119
:1029100009D526684FF400633362D4F8903043F051
:102920002003C4F89030D4F89030002B3DD08006BE
:1029300009D501F0200002F08051084303D0616FF7
:1029400009B120468847D4F8900021688968490673
:1029500002D410F0280F2AD0204600F0EBFF2068A8
:10296000806840061ED52068083050E8001F21F01E
:10297000400100E021E040E80012002AF3D1D4F841
:10298000800078B179498163D4F88000FEF7DEF9E0
:1029900000280AD0D4F88000816B00E02046BDE812
:1029A000F04108472046FFF754FFBDE8F08120467C
:1029B000FFF74FFFC4F89050F7E7D4F86CC020271A
:1029C000BCF1010F7ED15FEAC06C7BD55FEAC16CC0
:1029D00078D51020186220688068400651D5D4F858
:1029E00080100A6850680004000C3ED0B4F85C30D7
:1029F00083423AD9A4F85E000868006880062CD4A7
:102A0000216851E8000F20F4807041E80002002A9C
:102A1000F6D12068083050E8001F21F0010140E89D
:102A20000012002AF5D12068083050E8001F21F07C
:102A3000400140E80012002AF5D1C4F88C70E56628
:102A4000216851E8000F20F0100041E80002002A40
:102A5000F6D1D4F88000FEF744F92667B4F85C009C
:102A6000B4F85E10401A81B207E0B4F85C108142FD
:102A70009BD11068800698D526672046FFF799FEFF
:102A800093E7B4F85C00B4F85E10401A81B2B4F871
:102A90005E00002889D0002987D0226852E8000F04
:102AA00020F4907042E80003002BF6D12D4BDB435D
:102AB0002068083050E8002F1A4040E8002CBCF194
:102AC000000F00E00EE0F3D1C4F88C70E566656796
:102AD000206850E8002F22F0100240E80023002B6D
:102AE000F6D1C9E7C60209D5560207D54FF48010C2
:102AF00018622046BDE8F041FFF7AABE03060AD5DA
:102B000001F0800302F40002134304D0A16F0029F6
:102B10007FF444AF49E7420611D54A060FD5204657
:102B2000016851E8002F22F0400241E80023002B09
:102B3000F6D1C0F88870856700F094F935E7020295
:102B400006D54A0004D52046BDE8F041FFF77FBE18
:102B5000C00195D5002993DA2046BDE8F041FFF782
:102B600029BE00000100001020010004DD3700082C
:102B700010B5040003D0D4F8880010B107E001209C
:102B800010BD002084F88400204600F027F824209F
:102B9000C4F888002068016821F001010160A06A82
:102BA00010B1204600F060FD204600F005FF01282E
:102BB000E6D02068416821F4904141602068816836
:102BC00021F02A0181602068016841F00101016063
:102BD0002046BDE8104000F0ABBD00002DE9F041FB
:102BE00098B00646142111A8FDF74AFB4421684617
:102BF000FDF746FB34493068884261D1012000244A
:102C0000CDE900046846FEF7BFFE08B1FEF767F89D
:102C10002E48016E41F480410166016E01F480414D
:102C20001691C16C41F00101C164C06C11A900F0A2
:102C3000010016904FF4C06011900220CDE91204FB
:102C40000720CDE914404FF09040FEF7D1F9214D17
:102C50001F484FF0800828601820C5E90104C5E925
:102C600003486C614FF48057AC61C5E907472846BB
:102C7000FEF706F908B1FEF732F8C6F88050AE62EA
:102C8000144D13486035283028601920686005F11C
:102C90000801102081E811016C61AC61C5E90747AA
:102CA0002846FEF7EDF808B1FEF719F8F56700229F
:102CB00011462520AE62FEF7CFFD2520FEF7BEFDB2
:102CC00018B0BDE8F081000000380140001002405B
:102CD000080002405C02002030B4D0F88C30202B79
:102CE00002D0022030BC7047A9B1A2B10023C36654
:102CF0000A4C0368A3420BD05B681B0208D504682A
:102D000054E8003F43F0806344E80035002DF6D1DD
:102D100030BC00F08BBF0120E4E7000000800040E1
:102D2000704770472DE9F8430446D0F8880098466C
:102D300016460D46202802D00220BDE8F883A5B132
:102D40009EB10020C4F890002120C4F888001834F7
:102D5000FEF778FAA6878146E68754F8100C2027FC
:102D6000183CB0F5805F02D003E00120E5E7206960
:102D700010B12E46002510E000260EE080212046EE
:102D800000F0A8FFC0B9DEB116F8010B2168886217
:102D9000B4F85600401EA4F85600B4F856004B464E
:102DA0004FF00002CDF800800028E7D14FF040013D
:102DB000204600F08FFF40B1C4F888700320BCE7C4
:102DC00035F8020BC0F30800E0E7C4F88870002073
:102DD000B3E7000070B50446D0F88800202801D081
:102DE000022070BD39B332B32165A4F85420A4F891
:102DF00056200021C4F890102120C4F88800E06F0C
:102E0000D8B1154BC362E36F14481863E36F1448DD
:102E10005863E06F134681632068E56F00F1280274
:102E20002846216DFEF78CF838B11020C4F89000C8
:102E30002020C4F88800012070BD2168402008626D
:102E40002068083050E8001F41F0800140E800127F
:102E5000002AF5D1002070BDE738000829390008A4
:102E6000F137000807498A68904209D18888CA88E2
:102E70001044C0F3080088800020087002F018BBDE
:102E800070470000180000207047FEE701688A695B
:102E9000D243920701D400228A6200688169C94343
:102EA000C90703D0816941F00101816170470000C9
:102EB0002DE9F047044600688946002681693546B9
:102EC0001746C9064FF0200841D51021C1612FE0F7
:102ED000B9F1FF3F2CD0FEF7B5F9C11B494502D827
:102EE000B9F1000F24D12068416894F8422001F420
:102EF00080418369DB431B0415D4B1F5804F12D0A8
:102F0000202A10D0416841F480414160FEF79AF9CF
:102F1000074608E0FEF796F9C01B192803D945F0CB
:102F20002005012604E020688069C0438006F1D4B2
:102F300020688069C043800602D5002EC8D003E017
:102F400016B92168C1F81C8045F0040501262168E6
:102F50008869C20505D54FF4807245F00105CA6144
:102F60000126410509D522684FF4806145F0080526
:102F7000D1610126800502D40AE0800507D52168C9
:102F80004FF4007045F00205C861012600E086B1EB
:102F90002046FFF77BFF54F8240B4168064A114096
:102FA0004160206A2843206284F81D800020A077B9
:102FB00020773046BDE8F08700E800FE2DE9F843B1
:102FC00004461646DDE9089714489846DAB20090A0
:102FD0000023204600F056F83A464946204600F0C5
:102FE000D1F8B8B9F5B2B8F1010F08D02168300AAC
:102FF00088623A464946204600F0C4F850B9206835
:1030000085624B46002240212046009700F052F88E
:10301000002800D00120BDE8F883000000200080D7
:103020002DE9F8430446164615489846DDE9089709
:10303000DAB2C3020090204600F024F83A4649462E
:10304000204600F09FF8B8B9F5B2B8F1010F08D0EA
:103050002168300A88623A464946204600F092F8D4
:1030600050B9206885624B46002280212046009797
:1030700000F020F8002800D00120BDE8F88300000F
:103080000020008010B5C1F3090141EA0241026845
:10309000029C19432143506821F000414FF48063A2
:1030A00003EA5453024C234398430843506010BD35
:1030B000FF63FF032DE9F0411D4617460E46044607
:1030C000DDF8188027E0424629462046FFF7F0FE4B
:1030D00010B10120BDE8F081681C1CD0FEF7B2F8E9
:1030E000A0EB0800A84200D8ADB92068806936EA94
:1030F00000000ED00020B8420DD154F8440F40F02B
:10310000200044F80409202060700020A070207086
:10311000DFE70120EFE72068806936EA000004D08D
:103120000020B842CFD00020D4E70120F9E770B5E5
:1031300016460D4604461EE0324629462046FFF755
:10314000B7FE08B1012070BDFEF77CF8801BA842D5
:1031500000D885B920688069C04380060BD554F833
:10316000440F40F0200044F8040920206070002043
:10317000A0702070E6E720688069C0438006DBD439
:10318000002070BD70B516460D46044620E032465C
:1031900029462046FFF78CFE08B1012070BD681C4F
:1031A00016D0FEF74FF8801BA84200D885B92068DA
:1031B0008069C04380070BD554F8440F40F02000CD
:1031C00044F80409202060700020A0702070E4E71B
:1031D00020688069C0438007D9D4002070BD0000FA
:1031E000154808B5816C41F004018164816C01F0DF
:1031F00004010091816C41F001018164806C002226
:1032000000F00100009011460B20FEF725FB0B207B
:10321000FEF714FB002211460C20FEF71DFB0C20CC
:10322000FEF70CFB002211460D20FEF715FBBDE852
:1032300008400D20FEF702BB0010024010B586B01A
:1032400014216846FDF71CF81948C16C41F02001B3
:10325000C164C16C01F020010591C16C41F0040111
:10326000C164C16C01F004010591C16C41F0010120
:10327000C164C16C01F001010591C16C41F0020112
:10328000C164C06C0B4C00F002000590002240218C
:103290002046FDF7D1FF4020009001200021CDE91C
:1032A0000101039169462046FDF7A2FE06B010BD5C
:1032B0000010024000080048134810B51149016091
:1032C0001249416000210122C0E9021201614161FD
:1032D0008161C1610162FEF70FF808B1FDF7FFFCE3
:1032E00000210948FDF7B4FF08B1FDF7F8FC002103
:1032F0000548FDF7D8FF002803D0BDE81040FDF7D2
:10330000EEBC10BD0054004074000020C285B240E5
:10331000134810B511490160124941600021012292
:10332000C0E90212016141618161C1610162FDF781
:10333000E3FF08B1FDF7D3FC00210948FDF788FF42
:1033400008B1FDF7CCFC00210548FDF7ACFF0028D3
:1033500003D0BDE81040FDF7C2BC10BD00580040CE
:10336000C8000020C285B24010B588B000241948BA
:1033700005940694039404940094019414490294CF
:10338000016044F26721C0E9011442F20F71C0E903
:10339000031444618461FEF7EEFF08B1FDF79FFC62
:1033A0004FF48050039003A90A48FFF78DF808B145
:1033B000FDF795FC00940194694606480294FEF7D7
:1033C0008BFF002801D0FDF78AFC08B010BD00007B
:1033D000002C01401C010020184810B5164901605E
:1033E0004FF4E1314160002181600C22C160C0E9ED
:1033F00004128161C161016241628162FFF7B8FB21
:1034000008B1FDF76CFC00210C48FFF7FAF908B190
:10341000FDF765FC00210948FFF7CDF908B1FDF77C
:103420005EFC0648FFF7A6F9002803D0BDE810406F
:10343000FDF755BC10BD000000380140C801002058
:10344000FEE7FEE770477047FEF7A6B900B593B0F8
:1034500038216846FCF714FF14210EA8FCF710FF72
:103460000020FEF72BFA0220C101039140210491B4
:103470000421CDE9080100905521CDE90A100790FB
:103480000C900D906846FEF70BFD08B172B6FEE792
:103490000F200E9003200F9000201090119012909A
:1034A00004210EA8FEF7B4FB002801D072B6FEE797
:1034B00013B000BD0248016841F47001016070471B
:1034C00088ED00E00148FFF780B800001C010020F3
:1034D0002DE9F0430268264B264D274E274C4FF02E
:1034E0008049984207D0484505D0A84203D0B04251
:1034F00001D0A04203D122F070074A683A43204F1E
:10350000DFF880C0DFF8808098420DD048450BD0AE
:10351000A84209D0B04207D0A04205D0B84203D09B
:10352000604501D0404503D122F44075CA682A4362
:103530004D6922F080022A4302608A68C2620A68EA
:103540008262984207D0A04205D0B84203D06045BD
:1035500001D0404501D1096901630121416101693F
:10356000C90703D0016921F001010161BDE8F083C1
:10357000002C0140000400400008004000340140DD
:1035800000400140004401400048014010B58468FB
:1035900042EA032224F47F440A432243826010BD9E
:1035A0008268034B1A400A4342F00701816070476A
:1035B0008FFFCFFF10B5036A046A24F00104046290
:1035C000846924F0F00444EA021423F00A020A4356
:1035D0008461026210BD10B5036A046A24F010040D
:1035E0000462846923F0A00324F4704444EA0232A4
:1035F00043EA01118261016210BD000010B500288C
:103600000BD00246642305490548FFF78BFBBDE854
:10361000104040210148FCF733BE10BD34000020AB
:10362000C801002030B5416EB9B102689168926856
:10363000C1F342610B4B520F9C5CE50003F108049F
:10364000A25CB5FBF2F2A0F86A205A5C615CD20081
:10365000B2FBF1F1A0F8681030BD0121A0F86A10AA
:10366000F8E700002455000890F82810090706D54F
:1036700001684A68836B22F400421A434A6090F85A
:103680002810C90706D001684A68C36A22F40032CC
:103690001A434A6090F82810890706D501684A68DD
:1036A000036B22F480321A434A6090F828104907CD
:1036B00006D501684A68436B22F480221A434A60A7
:1036C00090F82810C90606D501688A68C36B22F4F1
:1036D00080521A438A6090F82810890606D501683E
:1036E0008A68036C22F400521A438A6090F828100A
:1036F000490611D501684A68436C22F480121A43C6
:103700004A60416CB1F5801F06D101684A68836C3C
:1037100022F4C0021A434A6090F82810090606D520
:1037200001684A68C06C22F4002202434A60704774
:103730002DE9F84300260446C0F89060FDF782FDAD
:103740008046206800684FF0200500076FF07E4734
:1037500013D54346002229042046009700F0BAFA08
:1037600058B1216851E8000F20F0800041E80002C4
:10377000002AF6D1C4F8885021E02068006840078C
:1037800022D5434600224FF480012046009700F0E6
:10379000A1FAC8B1216851E8000F20F4907041E807
:1037A0000002002AF6D12068083050E8001F21F0FE
:1037B000010140E80012002AF5D1C4F88C5084F8C9
:1037C00084600320BDE8F883C4F88850C4F88C50A6
:1037D00044F86C6F666026760020F3E710B5806AC7
:1037E0000021A0F85E10A0F85610FFF732F810BDC7
:1037F00070B5846AD4F88800D4F88C502168896840
:103800004FF00006090606D5212804D1A4F8566019
:10381000204600F0B9F820688068400606D5222DC1
:1038200004D1A4F85E60204600F084F8D4F890003B
:1038300040F01000C4F890002046FFF70AF870BD71
:1038400010B50146806A096809684FF000028906D0
:103850002DD4A0F85E20036853E8001F21F4807186
:1038600043E80014002CF6D10168083151E8003F0C
:1038700023F0010341E80034002CF5D10168083140
:1038800051E8003F23F0400341E80034002CF5D11B
:103890002021C0F88C10C16E012908D1016851E8BF
:1038A000003F23F0100341E80034002CF6D10267FA
:1038B000C16E012902D0FFF733FA10BDB0F85C10D9
:1038C000FEF777FF10BD10B5806A01210167C16E58
:1038D000012902D0FFF725FA10BDB0F85C104908A5
:1038E000FEF767FF10BD10B50146806A09680968D8
:1038F000890616D40021A0F856100168083151E855
:10390000002F22F0800241E80023002BF5D102684D
:1039100052E8001F41F0400142E80013002BF6D1AD
:1039200010BDFFF79FFA10BD10B5806AFFF7ACFA23
:1039300010BD000010B5026852E8001F21F490711C
:1039400042E80013002BF6D10E4B0268083252E811
:10395000001F194042E80014002CF6D1C16E012965
:1039600008D1016851E8002F22F0100241E800233D
:10397000002BF6D12021C0F88C100021C1664167D0
:1039800010BD0000FEFFFFEF026852E8001F21F0AB
:10399000C00142E80013002BF6D10168083151E85C
:1039A000002F22F4000241E80023002BF5D1202152
:1039B000C0F88810704700002DE9F0410446016806
:1039C00080682269E3691043626900251A43104345
:1039D000DFF82CC20A688B4B1A4002430A60206849
:1039E0004168E26821F44051114341602168A069B7
:1039F000614501D0226A10438A68834B1A40024312
:103A00008A602068C16A626A21F00F011143C162B5
:103A10007E4923687E488B420DD1D0F8880010F093
:103A2000030006D0012855D0022842D003283FD1F8
:103A300052E001203DE077498B420BD1D0F888005D
:103A400010F00C0035D0042833D0082840D00C28C2
:103A50002ED141E070498B420BD1D0F8880010F094
:103A6000300026D0102835D0202831D030281FD162
:103A700032E06A498B420BD1D0F8880010F0C000C8
:103A800017D0402826D0802822D0C02810D123E08B
:103A900063450DD1D0F8880010F4406009D0B0F52E
:103AA000806F17D0B0F5006F12D0B0F5406F13D013
:103AB00010205B495B4F00264FF4004263453BD129
:103AC00060B1022813D004280BD0082872D10DE071
:103AD0000220EEE70420ECE70820EAE7FEF786F98B
:103AE00001E0FEF7A7F9010001D17CE01146606A10
:103AF00037F810206768B1FBF2F007EB4703834209
:103B000070D8B0EB073F6DD8002308461946FCF784
:103B10007FFB090241EA1061020278081018714126
:103B20003A460023FCF774FB3F4AA0F540719142EE
:103B300058D82168C86056E0E3694FF6EF789342A1
:103B40002CD109284ED2DFE800F00508114D0D4DAB
:103B50004D4D1000FEF74AF901E0FEF759F901005A
:103B600004D140E0FEF766F9F9E71146606A37F8DC
:103B70001000B1FBF0F04100606801EB5001B1FBB7
:103B8000F0F0A0F1100141452CD84FF6F071014042
:103B9000C0F3420001432068C16024E0092821D21B
:103BA000DFE800F0050912200E2020201100FEF7AA
:103BB0001DF902E016E0FEF72BF9010004D112E036
:103BC000FEF738F9F9E71146606A37F81000B1FBE3
:103BD000F0F1606801EB5001B1FBF0F0A0F11001D1
:103BE00041450AD901250120A4F86A0024F8680F8C
:103BF0002846E6602661BDE8F08180B299E70000C2
:103C000000800040F369FFCFFFF4FF11003801404E
:103C1000001002400044004000480040004C0040BA
:103C20000024F4000C550008FFFC0F0070B58165FE
:103C3000A0F85C2000210446C0F890102220C4F8AF
:103C40008C00D4F88000F0B11F4BC362D4F88030F0
:103C50001E481863D4F880301D485863D4F880009B
:103C600013468163A56D21682A462431D4F880006B
:103C7000FDF766F938B11020C4F890002020C4F890
:103C80008C00012070BD206940B1216851E8000F0F
:103C900040F4807041E80002002AF6D12068083024
:103CA00050E8001F41F0010140E80012002AF5D160
:103CB0002068083050E8001F41F0400140E8001241
:103CC000002AF5D1002070BD41380008C73800082F
:103CD000F13700082DE9F047994617460D4604468E
:103CE0004FF00008089E33E0701C31D0FDF7AAFAAF
:103CF000A0EB0900B04218D8BEB12068016849079E
:103D000026D5802D24D0402D22D0C169C943090772
:103D10000DD4082505622046FFF70CFEC4F890502C
:103D200084F884800120BDE8F0870320FBE7C069A8
:103D3000C04300050CD421684FF40060086220469F
:103D4000FFF7F8FD2020C4F8900084F88480ECE7A9
:103D50002068C06935EA000004D00020B842C3D012
:103D60000020E0E70120F9E710B50B48FEF772FDEF
:103D700009490868C269D243D2060CD410220262F3
:103D8000D1F8800000684068BDE81040C0F14000F4
:103D900080B2FFF733BC10BDC8010020FEE7000071
:103DA0000FB4054B10B503A9044A029800F05CFC5F
:103DB00010BC5DF814FB00001D5200082400002018
:103DC0004100080218BF04200A0E18BF40F001008D
:103DD0004FF07F4232EA010108BF40F002000128A3
:103DE00008BF052070470907090E002804DB00F111
:103DF000E02080F80014704700F00F0000F1E02090
:103E000080F8141D7047000010B510EE100A2DED5B
:103E1000068BB7EE001A10EE901AB0EE418A00221F
:103E2000A0F5000CDFEDFE9A4FF00073BCF1FE4FE1
:103E30004FF07F4403EB410C80F0B481BCF1804F24
:103E4000C0F02082F74901449FEDF73AB1F5005FD9
:103E500040F2D48200F58021CB0C03F00F0101EE7B
:103E6000901AC3F307137F3BA0EBC350B8EEE12ACF
:103E700000EE100A1A44DFEDED2AF0EE411A42EE90
:103E8000221AF0EE613A70EE232A30EE632A12EE27
:103E9000900A00F500606FF30B0001EE900A73EEDC
:103EA000E13A33EE804AC1EE223A22EE230A10EEC6
:103EB000100A00F500606FF30B0000EE100A00EE30
:103EC000612A00EE442A62EE232A70EE221A21EEC5
:103ED000A12ADFEDD73A02EE233A23EE023A20EE92
:103EE000012A22EE811A03EE211A32EE010A10EEA7
:103EF000100A00F500606FF30B0000EE100A72EE7E
:103F0000401A31EE812A9FEDCB1A60EE011A9FED27
:103F1000CA1A20EE011A9FEDC90A02EE001A31EE0C
:103F2000810A10EE100A00F500606FF30B0000EE3E
:103F3000100AC34871EEC01A31EE812A784400EBB2
:103F4000C10090ED003AD0ED011A100101EE100A07
:103F5000F8EEC12A32EE211A31EE001A31EE031AC0
:103F600031EE221A11EE100A00F500606FF30B001B
:103F700009EE100A39EE621A31EE431A31EE400AA8
:103F800030EE610A32EE40AA10EE900A002100F5F0
:103F900000606FF30B0008EE900A084670EEE8AA86
:103FA000FCF75AFC29EE280A00F00C01F0EEC00ADA
:103FB00010EE900AB0F18B4F0DDD10EE900AB4EBCD
:103FC000400F08D310EE100A4FF08B4262F31E0030
:103FD00008EE900A13E069EE2A0A38EEAA1A4AEEB1
:103FE000010A30EE201A11EE100A00F500606FF39E
:103FF0000B0008EE900A30EE680A70EE209A0C2052
:10400000FCF72AFC38EEA90AB5EEC00AF1EE10FA68
:1040100034BFFEEE000AF6EE000A30EE800ABDEE76
:10402000C00A10EE100A011100EE101AF8EEC00AD4
:1040300000EE100AB8EEC00A38EEC00A30EE290AC7
:10404000DFED801A9FED801A00EE211ADFED7F1A56
:104050007F4900F00F0040EE011A21EE800A7944FA
:1040600001EB800191ED001A7A49794401EB80015E
:10407000D1ED001A784901EE801A794401EB8000F5
:10408000764990ED000A31EE001AB0EEE00A10EE2B
:10409000100A884215DA10EE100AB4EB400F10D364
:1040A0009FED6F0A30EE800ADFED6E0A20EE200AE7
:1040B00068EE010ABDEC068BBCEEC00A20EE200AB9
:1040C00010BD10EE100A6849884243DA10EE100A5B
:1040D000B4EB400F3ED3BDEEE00A68EE010A10EEED
:1040E000100A00EBD0725110C90501F17E5100EEAB
:1040F000101AA0EB6200C00560EE200A00F17E50AD
:1041000000EE100A60EE808A18EE900AB4EB400FC1
:104110000FD1022000F0E0F900F0BEF910EE101A05
:1041200018EE100ABDEC068B61F31E0000EE100ABB
:1041300010BD18EE900A400011D018EE900AFFF75B
:104140003FFE042808BF00F0AFF9B0EE680ABDECEE
:10415000068B10BDF5EEC00AF1EE10FA0FD2022068
:1041600000F0BAF900F0A0F910EE101A18EE100ADB
:10417000BDEC068B61F31E0000EE100A10BD02209C
:1041800000F0AAF900F088F910EE101AB0EE480A13
:1041900010EE100ABDEC068B61F31E0000EE100A53
:1041A00010BD00BFBCF1804F6CD300BF00F1FF43D6
:1041B000B3F1FE4F24D200BFB0EEC00A10EE100AD9
:1041C000C1F3C7537F2B0DDB972BBFF63BAEC3F17B
:1041D00096034FF0010C0CFA03F3A3F1010C1CEA57
:1041E000010F08D0012000F077F9BDEC068BBDE887
:1041F000104000F049B90B4218BFBFEE008A21E61B
:1042000043001CBF4FF08073B3EB400F34D96FF005
:104210001A02DFED161A20EE210A10EE100A27E02E
:1042200000000000001080C0ABAAAA3E0000803D44
:104230007EE24C3E00B03842D49AB8BB3BAA38422A
:104240000C160000FC596337C9FF753A1872313DEE
:10425000AA150000DE1500004E1500000000FC420B
:104260000000FE420000004B000040430000004DF3
:1042700010F0004FA0D1E5E5A0F50003B3F1FE4F2B
:1042800021D2DFE503EB4103B3F1007F11D3F5EE5B
:10429000C00AF1EE10FA05D1430018BFB4EB400F8D
:1042A00076D883E701F0004141F0FC5100EE901A0E
:1042B0007CE7B3F1807F06D210EE903AA3F50003BD
:1042C00000EE903A72E720F000426FF0FF4C604C35
:1042D00002EB0C03A34210D321F000439C44A445FD
:1042E0000BD3B0F17E5F18BF5FEA410C50D0B2F142
:1042F000FF4F98BFB3F1FF4F05D9BDEC068BBDE86A
:10430000104000F0BDB8B0F1FF4F0FD0C1F3C7525D
:104310007F2A09DB972A11DAC2F19602012303FAF8
:1043200002F2531E0B4205D0002208E011F0004FAC
:1043300055D128E00A4218BF012200D1022210F50F
:10434000000F13D028B3B0F1004F26D010F1814FE9
:104350004FD04FF0FE42B2EB400F94BF012000203F
:10436000012202EBE171884239D10CE011F0004FDB
:1043700002D0012A38D032E0012A02BF9FED350A6F
:10438000BDEC068B10BD9FED340ABDEC068B10BD55
:104390002FE011F0004F0CD121E0B1F1FF4F1ED002
:1043A00011F5000F05D011F0004F15D00AB1012A08
:1043B00008D0022000F090F8BDEC068BBDE810405C
:1043C00000F054B8022000F087F800F04FF8BDEC80
:1043D000068BB1EE400A10BD0AB1012A04D0B0EE3E
:1043E000690ABDEC068B10BDBDEC068B9FED1B0A68
:1043F00010BDBDEC068BB7EE000A10BD30EE410AD1
:10440000B5EE001A9FED172A00EE413AB6EE001AFB
:1044100060EE001A00EE431A61EEC11A9FED101A09
:1044200020EE011A20EE020A9FED0F2A01EE820A09
:1044300071EE001A11EE900A00F500606FF30B00A8
:1044400009EE100A31EE491A31EE00AA9CE500008F
:10445000FFFF3F00000080FF0000807F0000008021
:1044600000B0B841D49A38BB3BAAB841DFED030A8B
:10447000B7EE001A81EE200A70470000000000002D
:1044800030EE200A70470000DFED020A80EEA00A3D
:1044900070470000000000009FED020A20EE000AB5
:1044A00070470000000000709FED020A20EE000A35
:1044B000704700000000001002E008C8121F08C189
:1044C000002AFAD170477047002001E001C1121F95
:1044D000002AFBD1704700000149086070470000C6
:1044E000300000202DE9FF5F82B00021DDE90430BB
:1044F000020DDDF840B0034318D044F61050A2F28C
:10450000FF3242431514119801281FD0A5EB0B0070
:10451000401C5FEA000A4FF000064E4FDFF838916A
:10452000B046504615D5CAF1000413E01198012495
:104530004AA3012801D16FEA0B010298119AC0E940
:104540000031C0E9024206B0BDE8F09FCBF10000A7
:10455000DFE704460021404A491842EB0450CDE908
:10456000001012E0E00707D032463B46404649467D
:10457000FBF738FF8046894632463B4610461946CF
:10458000FBF730FF06460F466410002CEAD1DDE948
:104590000401DDE90023BAF1000F06DAFBF722FF80
:1045A00042464B46FBF71EFF05E0FCF7B5F84246D6
:1045B0004B46FCF7B1F804460E460022284BFCF7A8
:1045C00033F903D84FF0FF30014607E00022254BB6
:1045D00020463146FBF75FFEFCF70DF9102409E099
:1045E000002C0ADB0A220023FBF712FE039B303269
:1045F0001A55641E50EA0102F2D1641C039AC4F1F8
:1046000011031444119A012A03D0012208430DD149
:104610000AE0084304D000204FF0110B119072E71C
:10462000A3EB0B056D1E0DE05B4504DD4FF00002B2
:1046300005F1010504E003DA4FF00002A5F10105E0
:10464000002AECD002981199C0E90231C0E9004576
:1046500079E70000000014400000F03F3000000047
:104660000000F0430000E03F2DE9FF4F95B09B466E
:104670008946064600250FE2252877D100242746E3
:10468000F84A0121059400E0044316F8013F203B5D
:1046900001FA03F01042F7D130782A2811D06FF0D8
:1046A0002F033078A0F13002092A16D8059A44F079
:1046B000020402EB820203EB42021044761C0590D6
:1046C000EFE759F8042B0592002A03DA504244F42C
:1046D0000054059044F00204761C30782E2816D140
:1046E00016F8010F44F004042A280DD06FF02F02B1
:1046F0003078A0F13003092B09D807EB870302EBD0
:104700004303C718761CF3E759F8047B761C30780E
:104710006C280FD006DC4C2817D068280DD06A28EA
:1047200014D104E0742810D07A280FD10DE044F49D
:1047300000140AE044F4801401E044F44014727858
:10474000824202D104F58014761C761C30786628EB
:104750000BD013DC582877D009DC002875D0452809
:10476000F6D04628F4D047281AD19DE118E06328F6
:1047700035D0642879D0652812D195E1702873D09E
:1047800008DC6728F1D069286FD06E280DD06F281B
:1047900006D1B5E073282CD0752875D0782874D050
:1047A0005A46179990476D1C75E1C4F302500228D0
:1047B00009D003280DD0D9F8001004280DD00D60C1
:1047C00009F1040967E1D9F80010EA17C1E90052BC
:1047D000F6E7D9F800100D80F2E70D70F0E719F850
:1047E000041B8DF8001000208DF80100EA4601201E
:1047F00003E059F804AB4FF0FF3061074FF00001C0
:1048000002D40DE008F101018846B9420FDA804573
:10481000F8DB1AF808100029F4D108E008F10101CA
:1048200088468142FADB1AF808100029F6D105986B
:104830005B46A0EB080721463846179A00F094FA29
:10484000284400EB080507E04DE029E10DE01AF8E7
:10485000010B5A4617999047B8F10108F7D25B4609
:1048600021463846179A13E142E00A220092C4F327
:1048700002524FF0000A022A08D059F804CB032A4A
:104880004FEAEC710AD00DE029E02AE009F10701B6
:1048900021F00702F2E802C1914609E00FFA8CFC10
:1048A0004FEAEC71042A03D14FFA8CFC4FEAEC7109
:1048B000002907DA0A460021DCF1000C61EB020155
:1048C0002D2202E0220504D52B228DF8042001229E
:1048D00003E0E20701D02022F7E7904659E00A21E1
:1048E00002E010220DE010214FF0000A00910BE0D1
:1048F00010224FF0000A44F004040827009203E05D
:1049000008224FF0000A0092C4F30252022A05D096
:1049100059F804CB0021032A08D009E009F1070166
:1049200021F00702F2E802C1914605E01FFA8CFC73
:10493000042A01D10CF0FF0C4FF00008220728D503
:10494000702806D0009B83F0100353EA0A0305D0B9
:104950000EE040228DF80420012208E05CEA01020A
:1049600006D030228DF804208DF8050002229046F2
:10497000009B83F0080353EA0A030AD15CEA0102B0
:1049800001D1620705D530228DF804204FF00108CF
:104990007F1E582804D034A003900EA802900DE08A
:1049A00036A0F9E753466046009AFBF731FC84468F
:1049B0000398825C0298401E029002705CEA01003B
:1049C000F0D1029806A9081A00F1200A600702D562
:1049D00024F4803400E00127574502DDA7EB0A00EC
:1049E00000E0002000EB0A01009005984144401AC5
:1049F0000590E00306D45B462146179A059800F01F
:104A0000B3F90544002706E001A85A46C05D17998E
:104A100090476D1C7F1C4745F6DBE0030CD55B46D9
:104A20002146179A059800F09FF9054404E03020CC
:104A30005A46179990476D1C0099481E009000290E
:104A4000F5DC08E0029802995A460078491C029168
:104A5000179990476D1CBAF10001AAF1010AF1DC27
:104A600065E1000009280100303132333435363732
:104A700038396162636465660000000030313233AA
:104A8000343536373839414243444546000000004A
:104A900000F058F90544761C307800287FF4ECAD1E
:104AA00019B02846BDE8F08F620700D4062709F147
:104AB000070222F0070CFCE80223E14603F000485D
:104AC0005FEA080C02D00FF2702C0DE05FEA045C84
:104AD00002D50FF2682C07E05FEAC47C02D00FF227
:104AE000602C01E0AFF2700C4FF0FF3823F0004370
:104AF000CDF850C065280CD006DC452809D04628E2
:104B00001DD047283DD13DE0662818D067287ED1CA
:104B100038E00021112F01DB112000E0781CCDE9E5
:104B2000000106A90EA8FFF7DDFCDDE90F010E9AD2
:104B300003910021009207F1010A04914DE04FF02A
:104B400000400097CDE9011006A90EA8FFF7CAFCA6
:104B5000DDE90F0203920E9B11990022DDF80CA0F3
:104B60000093049211B9791C00EB010AB7EB0A001B
:104B700004D4C0F1FF3007F1010A0490AAEB07004A
:104B8000019044E0012F00DA01270021112F01DDFF
:104B9000112000E03846CDE9000106A90EA8FFF774
:104BA000A1FCDDE90F010E9A03910021049100920E
:104BB000BA4621070CD40399514500DA8A46BAF166
:104BC000010F05DD009AAAF10101515C302908D0DE
:104BD000B84202DA10F1040F06DA0121CDE9011022
:104BE00015E0AAF10101E9E7002805DC0499014478
:104BF0000491AAEB000102E0411C514500DD8A4608
:104C00000499401A401C01904FF000400290200788
:104C100004D40198504501DBCDF8048000208DF8C4
:104C20004F0002980DF14F07B0F1004F25D02B2017
:104C30000E9002984FF0020800280CDA40420290D1
:104C40002D200E9007E00A210298FBF78AFC3031F4
:104C5000029007F8011DB8F10001A8F10108F2DC8B
:104C600002980028EFD1791E0E980870307800F075
:104C7000200040F0450007F8020D12A8C01B00F10B
:104C800007081498007800B1012000EB0A01019890
:104C900001EBE07105984144401A401E0590E00385
:104CA00006D45B462146179A059800F05DF8054446
:104CB0001498007818B15A46179990476D1CE00374
:104CC00024D55B462146179A059800F04DF8054417
:104CD0001CE00498002807DBDDE90301884203DDBE
:104CE0000098405C179901E0179930205A46904788
:104CF000049805F10105401C04900198401E0190A4
:104D000004D12E205A46179990476D1CBAF1000124
:104D1000AAF1010ADDDC05E017F8010B5A461799E4
:104D200090476D1CB8F10001A8F10108F4DC5B4666
:104D30002146179A0598ABE62D0000002B000000D5
:104D4000200000002DE9F041044600251E461746CC
:104D5000880404D405E039462020B0476D1C641E49
:104D6000F9D52846BDE8F0812DE9F041044600253B
:104D70001E469046C80301D5302700E0202788044E
:104D800004D505E041463846B0476D1C641EF9D590
:104D90002846BDE8F08100F02DBA38B504001BD0DC
:104DA0000B4602226946302000F09AF89DF8001068
:104DB000C1F3C002A270C1F34012E270C1F38001DE
:104DC00021719DF8011001F0070121709DF801107B
:104DD000C1F3C201617038BD4FF0FF3038BD28B15A
:104DE0000B4601220146272000F07AB84FF0FF3031
:104DF000704738B504001CD00B46022269463620A5
:104E000000F06EF8002813D19DF8001001F00701A2
:104E100021709DF80010C1F3C20161709DF800106F
:104E2000C1F38011A1709DF80110C1F38401E170FC
:104E300038BD4FF0FF3038BD30B587B004000D46A7
:104E40004BD00B46012206A9372000F049F8002874
:104E50000BD19DF8181011F0030208D0012A36D0AA
:104E6000022A36D0032A36D0C01F07B030BDCA0987
:104E70004FF0000129D10091019105912B460122AB
:104E800002A9182000F02CF89DF8081001F0030189
:104E90008DF8081040B9294605A8FFF7AAFF18B9F0
:104EA00029466846FFF779FF9DF817101829DCD9C5
:104EB0009DF808100029D8D19DF800100029D4D100
:104EC0009DF801100029D0D104212170CDE70121E6
:104ED000FBE70221F9E70321F7E74FF0FF30C4E7D2
:104EE0002DE9F041064690460F461C46184600F054
:104EF00063FA05000FD177B1607D08B946F08006EE
:104F0000D4E9013C424639463046E047207520B19D
:104F10006FF0010501E04FF0FF352846BDE8F08154
:104F20007CB5044600200E460090134601900622F0
:104F300069461D20FFF7D4FF050014D1009820F02A
:104F40007F40FBF7C1FA9FED111B53EC112BFBF7D0
:104F500049FAFBF7EAFA6060B078012805D09FEDC6
:104F60000D0A84ED000A28467CBDDDF8030020F020
:104F70007F40FBF7BAFA9FED081B53EC112BFBF7B0
:104F800031FAFBF7D2FA2060EDE7000000000000E4
:104F90000000F03E00000000000000000000903F14
:104FA0000EB54FF0FF3392B28DE80E00024601239A
:104FB0008E210448FCF7FEF9002801D06FF00100B3
:104FC0000EBD0000C80000200EB54FF0FF3392B2B6
:104FD0008DE80E00024601238E210448FCF79CFA5E
:104FE000002801D06FF001000EBD0000C8000020B5
:104FF0007FB5044600F0E0F9002831D1607D38B972
:105000000122234603A91046FFF76AFF002827D193
:105010000122234669461046FFF762FF00281FD190
:105020009DF8000000B3214601A800F037F90028E0
:1050300016D19DF804006FF00405810712D54007D2
:1050400010D4214602A8FFF7CAFE002808D19DF817
:105050000800C00606D59DF80000502807D068104B
:1050600004B070BD2846FBE76FF00300F8E720703E
:105070000020F5E738B504004FF000000D46009021
:105080002CD0E078182804D2084600F000FA002856
:1050900023D12B46022269463620FFF721FF002844
:1050A0001BD121789DF800002B4661F302008DF89A
:1050B00000006178022261F3C500A17861F38610D7
:1050C0008DF80000E1789DF8010061F386008DF80D
:1050D00001006946362000F02FF838BD4FF0FF3050
:1050E00038BDF8B506460D466846FFF7A5FE040034
:1050F00020D19DF8000050B12946002000F0ADF904
:10510000040017D12A6940F6C41069689047052E3B
:105110000ED2DFE806F00F0707070300284600F06D
:1051200057F903E02946304600F097F9044601E0BC
:105130006FF006042046F8BD2DE9F0478146904601
:105140000F461C460025184600F036F9060024D10B
:105150001FB3607D20B1012813D0022811D017E0C1
:10516000791909EB0500D4F80CC0C0B201226368BC
:10517000E0476D1CEDB22075454509D20028EFD0FF
:1051800008E0E5684246394648466368A847207506
:10519000207D20B16FF0010601E04FF0FF36304670
:1051A000BDE8F0877CB50446B6208DF800002346A4
:1051B000012269467E20FFF7BFFF05000DD122695D
:1051C0004FF4FA6061689047607D30B90122234650
:1051D00001A91046FFF784FE054628467CBD30B580
:1051E00004464FF47A7502E0284600F003F8641E86
:1051F000FAD230BD0649074A0968B1FBF2F1064A06
:105200004143506853681B1A8B42FBD37047000020
:105210001400002040420F00001000E0F8B51D4CC3
:105220000646A068C8B10027EFF3108572B6F1B248
:105230006088A288401CC0F30800904210D0164A33
:105240006388D15460800A2E1ED06088A18888426D
:1052500011D36088A188401A12E04FF0FF30F8BDEA
:1052600000F026F985F3108800970098401C009004
:105270006428FADBD8E7A0886188C0F5007008448C
:1052800080B2B0F5C07F01D900F012F985F3108823
:105290003046F8BD180000201C03002028B10B4642
:1052A000012201462820FFF71BBE4FF0FF30704758
:1052B0002DED028B82B0FCF777FAFEF7C7F827A036
:1052C000FEF76EFD4FF4FA70FBF780FEFDF7B6FFB8
:1052D000FDF786FFFEF780F8FEF746F8FDF7ECFFD6
:1052E000FEF716F840222C492C48FDF7F5FC2C4817
:1052F000FDF7AEF829480068016841F0100101602F
:10530000FBF7D4FC254800F0F7F89FED260A8DED59
:10531000010A8DED000AFBF74FFB10B12248FEF7A2
:105320003FFD224D224C9FED238A0126694601A8AC
:10533000FBF7A6FA0028F9D1207820B90098A842F6
:10534000F4DD60602670DDED000A94ED011A80EE58
:10535000810AF0EE480AFEF757FDE7E7506F7765E0
:10536000722D6F6E2064656C61792E2E2E20776110
:105370006974696E6720666F722070657269706803
:105380006572616C7320746F2073746162696C69FB
:105390007A652E0D0A00000034000020C8010020AC
:1053A0001C010020000000008C56000800409C47B3
:1053B00000000020B1DC423E38B1816829B1C168EB
:1053C00019B1006908B1002070474FF0FF307047F5
:1053D00038B504460346012269463720FFF780FDB1
:1053E000002839D19DF80000234620F0FC0040F051
:1053F00070008DF80000012269463720FFF79CFEFF
:10540000002829D12346012269463120FFF768FD93
:10541000002821D19DF80000234600F0C0008DF83F
:105420000000012269463120FFF786FE002813D1D3
:105430002346012269461820FFF752FD00280BD1B0
:105440009DF80000234620F003008DF800000122A3
:1054500069461820FFF770FE38BD38B504460D4682
:105460000B46012269463720FFF73AFD00280DD18F
:105470009DF800002B4640F0800064F301008DF899
:105480000000012269463720FFF756FE38BD38B5C7
:10549000044601466846FFF7CFFC002806D19DF878
:1054A0000010042902D12146FFF71BFE38BD000081
:1054B0000F49087800281AD148888A88904216D067
:1054C0008868002813D04A888B889A4203D34A8878
:1054D0008B88D21A02E08A88C2F5007292B2CA8022
:1054E00001230B70034B89881944FDF773BC704787
:1054F000180000201C030020034988600020488019
:105500008880087070470000180000200100020029
:105510000400060008000A000C00100020004000F3
:1055200080000001010101030701000008040204DA
:105530000801010100000000000000000102030456
:105540000607080900000000010203040000000033
:10555000000000000000B33FB2BE7D3A00002E40C4
:10556000DFCF513800007E40BF51FABA00E0A440BE
:1055700019DAC3BA00E0C840C2ED8AB90040EB4076
:10558000CD1F2CBA001006412AFFFABA00C01541FF
:10559000DFCFD13700D024419A97703A0050334181
:1055A00089478E3600404141E75B9D3800B04E414F
:1055B000C00A98B900A05B41558F943A0030684109
:1055C000DA92C0BA0040744162B3C63A0000803F2C
:1055D00000A0853F00908B3F00C0913F0030983F76
:1055E00000F09E3F00F0A53F0050AD3F0000B53FEA
:1055F0000000BD3F0060C53F0020CE3F0040D73FC8
:1056000000C0E03F00C0EA3F0020F53F000000007E
:105610007D36AC397D3C3839EBDCF438320A7E39E2
:10562000124C26399B6AED39A4EE83397F661E3908
:10563000F6398A392B426539A48211395B991F39B1
:10564000C3EECD39DDE7C637A5A22F390000803F74
:10565000C3AA853FC2958B3FD3C3913FF037983F94
:1056600032F59E3FD7FEA53F3F58AD3FF304B53F0F
:10567000A408BD3F2A67C53F8C24CE3FFD44D73FD9
:10568000DFCCE03FC7C0EA3F7D25F53F46415441AE
:105690004C3A20424D50353830206D6F64756C6542
:1056A000206661696C656420746F20696E69746935
:1056B000616C697A652E20416C746974756465202B
:1056C000646174612077696C6C20626520756E611D
:1056D0007661696C61626C652E0D0A00424D503531
:1056E00038305F496E69743A20496E697469616C3B
:1056F000697A6174696F6E20636F6D706C65746533
:105700002C2073656E736F7220697320696E20534D
:1057100054414E444259206D6F64652E0D0A0D0AA6
:10572000000000005761726E696E673A2050726522
:1057300073737572652072656164696E6720697341
:1057400020252E32662050612C20776869636820FE
:10575000697320696E76616C69642E2043686563A5
:105760006B696E6720636F6E6669672E2E2E0D0A59
:1057700000000000424D503538305F496E69743A80
:10578000205761726E696E67202D20536F667420FA
:10579000726573657420636F6D6D616E64207265F0
:1057A0007475726E6564206572726F722025642E46
:1057B00020436F6E74696E75696E672E2E2E0D0A0A
:1057C00000000000424D503538305F496E69743A30
:1057D00020464154414C202D20626D70355F696E2A
:1057E0006974206661696C656420776974682063F8
:1057F0006F64652025642E20436865636B206861B3
:1058000072647761726520616E6420636F6E6E658D
:105810006374696F6E732E0D0A000000424D50359F
:1058200038305F496E69743A205761726E696E67ED
:10583000202D20626D70355F6765745F6F73725FD6
:105840006F64725F70726573735F636F6E666967B2
:10585000206661696C6564207769746820636F6491
:10586000652025640D0A0000424D503538305F49EF
:105870006E69743A205761726E696E67202D2062DE
:105880006D70355F7365745F6F73725F6F64725FA5
:1058900070726573735F636F6E66696720666169B6
:1058A0006C6564207769746820636F646520256483
:1058B0000D0A0000D4580008000000203400000049
:1058C000B84400080859000834000020040900000A
:1058D000C84400080000000080E6C5471000000032
:1058E00001000000000000000024F400000000009F
:1058F00000000000000000000000000000010000A7
:0859000000000000000000009F
:04000005080001D915
:00000001FF
