:020000040800F2
:10000000980C0020ED010008E73E0008732B000863
:10001000E53E0008710E0008694800080000000075
:10002000000000000000000000000000EB3E00089F
:100030006D0F000800000000E93E0008153F0008B1
:10004000070200080702000807020008070200086C
:10005000070200080702000807020008070200085C
:10006000070200080702000807020008750E0008D2
:10007000810E00088D0E0008070200080702000824
:10008000070200080000000007020008070200083D
:10009000070200080702000807020008070200081C
:1000A00007020008913F0008070200080702000845
:1000B00007020008070200080702000807020008FC
:1000C00007020008070200080702000807020008EC
:1000D0000702000835480008070200080702000868
:1000E00007020008070200080702000807020008CC
:1000F00007020008070200080702000800000000CD
:1001000000000000070200080000000007020008CD
:1001100007020008000000000702000807020008AC
:10012000070200080702000807020008070200088B
:10013000070200080000000000000000070200089D
:10014000070200080702000800000000000000008D
:10015000000000000000000000000000000000009F
:10016000000000000000000000000000070200087E
:10017000070200080000000000000000000000006E
:10018000000000000702000800000000000000005E
:10019000000000000000000000000000000000005F
:1001A000000000000000000007020008070200082D
:1001B000070200080702000807020008000000000C
:1001C000000000000702000800000000000000001E
:1001D0000702000807020008DFF80CD000F0C6FB99
:1001E0000048004765920008980C002006488047A8
:1001F00006480047FEE7FEE7FEE7FEE7FEE7FEE70C
:10020000FEE7FEE7FEE7FEE7813F0008D9010008B0
:100210002DE9F05F0546002092469B46884606463B
:10022000814640241BE0284641464746224600F0CE
:10023000EAF953465A46C01A914110D3114618465E
:10024000224600F0D1F92D1A67EB01084F462246ED
:100250000120002100F0C8F917EB00094E41201ED3
:10026000A4F10104DFDC484631462A464346BDE896
:10027000F09F40EA01039B0703D009E008C9121F61
:1002800008C0042AFAD203E011F8013B00F8013B50
:10029000521EF9D27047D2B201E000F8012B491E7C
:1002A000FBD270470022F6E710B513460A46044613
:1002B0001946FFF7F0FF204610BD30B505462A4627
:1002C0000B4612F8010B13F8014B08B1A042F8D00D
:1002D0001CB1002802D06D1CF1E7284630BD034652
:1002E00011F8012B00F8012B002AF9D118467047AC
:1002F0002DE9FE4F804681EA0300C00F0C460090B6
:1003000021F0004123F00045B8EB0200A94105D2DD
:100310004046214690461C460B46024623F00040CC
:10032000104347D0270DC7F30A00C3F30A510290C8
:10033000401A019040286BDAC3F3130040F4801B8D
:100340000098924620B10023D2EB030A63EB0B0B1B
:1003500001985946C0F14002504600F045F9064662
:100360000D4650465946019A00F05DF910EB080021
:100370006141002487EA115284EAE7731A4340D0AE
:10038000009A62B3019A012A4FEA075215DC001B5A
:1003900061EB02014FF0004202EA0752CDE9004250
:1003A000001C41F5801132462B4600F0BDF903B028
:1003B000BDE8F08F40462146F9E7001B61EB0201E2
:1003C000001C41F5801300185B412018A2F50017AE
:1003D00047EB030140EAD570B6196D4111E06D0895
:1003E0004FEA360645EAC0754FEA0752001B61EB3B
:1003F0000201001C41F5801149084FEA3000001944
:10040000514132462B4603B0BDE8F04F00F07DB9B4
:100410000098012240000023D0EB020263EBE0735E
:10042000009821464FEAE074B8EB000061EB04014C
:10043000E9E783F000435BE781F0004158E72DE9ED
:10044000FE4F81EA030404F0004421F000410094CF
:100450004FF0000B23F0004350EA01045ED052EA53
:1004600003045BD0C3F30A54C1F30A552C44A4F22D
:10047000F3340194A0FB0254C1F3130141F4801141
:10048000C3F3130343F4801301FB024400FB034E48
:10049000840A970A44EA815447EA8357A4FB076811
:1004A00002958D0A05FB07854FEA932C04FB0C543B
:1004B0002705029D4FEA065847EA1637B5EB0805AF
:1004C0006EEB070C870E920E47EA811742EA831201
:1004D000A7FB0201B6EB0B0164EB00042B0D43EA12
:1004E0000C335E1844EB1C50DA465146E7FB020120
:1004F000C5F313044FEA0B3343EA14534FEA0432B3
:10050000019C43EA0603A4F10C040294009CCDE98B
:1005100000B400F009F903B0BDE8F08F00200146F7
:10052000F9E70EB5C10F80EAE0700844CA07002160
:1005300040F233438DE80E000A460B4600F0F4F813
:1005400003B000BD0EB540F2334102910021CDE968
:1005500000110A460B4600F0E7F803B000BD00F0BA
:10056000004230F000400AD0C10D01F56071C0F3C7
:10057000160042EA0151C2084007114370470020AB
:100580000146704701F0004330B421F0004150EAC9
:10059000010206D00A0DA2F56072C1F31301002A10
:1005A00002DC30BC00207047440F44EAC104C100A3
:1005B000E01830BC00EBC25000F047B830B50B4635
:1005C000014600202022012409E021FA02F59D4283
:1005D00005D303FA02F5491B04FA02F52844151E57
:1005E000A2F10102F1DC30BD202A04DB203A00FA3E
:1005F00002F1002070479140C2F1200320FA03F37A
:10060000194390407047202A04DB203A21FA02F077
:100610000021704721FA02F3D040C2F1200291403C
:10062000084319467047202A06DBCB17203A41FAC7
:1006300002F043EAE07306E041FA02F3D040C2F16F
:10064000200291400843194670470029A8BF70470F
:10065000401C490008BF20F00100704710B4B0FAF8
:1006600080FC00FA0CF050EA010404BF10BC704793
:1006700049B1CCF1200421FA04F411FA0CF118BFAD
:10068000012121430843A3EB0C01CB1D4FEA00617C
:100690004FEA102042BF002010BC704700EBC3504F
:1006A00010440029A4BF10BC7047401C490008BF7B
:1006B00020F0010010BC7047F0B400F0004221F0BF
:1006C000004120F00040CE0DC30DC1F3160141F4EE
:1006D0000001C0F316004C42154640F40000761E9F
:1006E00009E010EB440002D582F00042404288420B
:1006F000F7D840005B1EB342F9DA18B1F0BC002114
:10070000FFF7ACBF2846F0BC704710B5141E73F15C
:10071000000408DA401C41F1000192185B411A43C1
:1007200001D120F0010010BD2DE9F04D92469B460D
:1007300011B1B1FA81F202E0B0FA80F220329046B3
:10074000FFF752FF04460F4640EA0A0041EA0B0158
:1007500053465A46084313D0114653EA010019D0B4
:10076000C8F140025046FFF74EFF05460E46504680
:1007700059464246FFF738FF084305D0012004E000
:1007800020463946BDE8F08D0020054346EAE07674
:100790002C4337430A986305E40AA0EB08000022C3
:1007A000FD0A44EA47540A3002D500200146E9E731
:1007B000010510196941DDE9084500196941BDE8E5
:1007C000F04DA2E72DE9F04D81EA030404F0004B5F
:1007D00021F0004514464FF0000A23F0004150EA92
:1007E000050220D054EA01021DD0C5F30A57024683
:1007F000C5F31303C1F31300C1F30A5640F4801587
:1008000043F48013A7EB0608101BD64608F2FD3808
:1008100073EB050002D308F1010801E092185B4177
:10082000B8F1000F03DA00200146BDE8F08D00208A
:100830004FF48011064684460EE0171B73EB050744
:1008400005D3121B63EB050306434CEA010C490870
:100850004FEA300092185B4150EA0107EDD152EAAD
:10086000030012D082EA040083EA0501084305D0A0
:10087000101BAB4106D20122002306E000224FF0FC
:10088000004302E06FF0010253101AEB06004CEB3C
:10089000085110EB0A0041EB0B01BDE8F04DFFF7EA
:1008A00034BF70B521F0004303430CD0C1F30A55A7
:1008B0000024D5EB040564EB0403D617AD1AB3414D
:1008C00002DB0020014670BD201841EB025170BDD3
:1008D000C1F30A52C1F3130140F2FF3341F4801116
:1008E0009A4202DA00200146704740F233439A42AE
:1008F000A2F2334202DC5242FFF785BEFFF774BE1C
:1009000030B5041E71F1000404DB4FF00044404296
:1009100064EB0101141E73F1000405DB1C464FF06B
:100920000043524263EB0403994208BF904230BD3A
:10093000002801DBC0F10040002901DBC1F10041CA
:10094000814202D24FF0004004E04FF0005001D14C
:100950004FF0C0404FEA2062EFF3008162F31F6165
:1009600081F300887047002070470000064C074D57
:1009700006E0E06840F0010394E80700984710346F
:10098000AC42F6D3FFF72CFC6CEE00088CEE0008AE
:100990002DE9F04D00231A461B1A8A4103DB002083
:1009A0000146BDE8F08DC1F30A52C1F3130141F4D1
:1009B00080154FF0000BD10702D100186D41521E77
:1009C0000027044640F2FF11384601EB620A3E461A
:1009D0008046024600204FF48011FFF714FEC21932
:1009E0007141BB1846EB0100B4EB030C75EB000C36
:1009F00004D3E41A65EB000517460E46241908F1E6
:100A000001006D4180463428E3DDF91946EB06000C
:100A1000091BA84103D24FF0FF32134601E0002228
:100A200013461BEB070046EB0A51BDE8F04DFFF7FC
:100A30006CBE00002DE9FC411646DDE90824AB2719
:100A400027706070951DA170E6702271100AADB21A
:100A5000607123B11AB11946A01DFFF70AFC0021ED
:100A60006E4601AB0A46084606E0275C401C394446
:100A7000C9B20A44D2B280B22F46A842F5D331702F
:100A80001A709DF80000605561199DF804004870C7
:100A9000BD1CAAB264232146024801F0B7FFBDE89D
:100AA000FC810000E0010020DFED191A00B520EE06
:100AB000210A89B004A902ABBDEEC00A032210EEE0
:100AC000100A20EEA10A8DF80800000A8DF809002E
:100AD000BDEEC00A10EE100A21EE210A8DF80A00C0
:100AE000000A8DF80B00BDEEC00A10EE100A8DF85A
:100AF0000C00000A8DF80D0001208DF80E00072073
:100B0000CDE90001FE21DD20FFF794FF09B000BD13
:100B10000000C84270B58CB00DF1400C9CE870002C
:100B20008DF80800000A8DF809008DF80A10080AEF
:100B30008DF80B008DF80C20100A8DF80D008DF843
:100B40000E30180A8DF80F008DF81040200A8DF82D
:100B500011008DF81250280A8DF813008DF81460DA
:100B600006A90D20CDE9000102AB0122FE21DD2006
:100B7000FFF760FF0CB070BD10B58AB00C9C8DF80B
:100B80000800000A8DF809008DF80A10080A8DF88F
:100B90000B008DF80C20100A8DF80D008DF80E302A
:100BA000180A8DF80F0005A90920CDE900018DF87C
:100BB000104002AB0222FE21DD20FFF73BFF0AB00E
:100BC00010BDFEB54FF0000EDDE90B54DDE909C69E
:100BD000089F8DE88050FFF79DFF01200090FA23C9
:100BE000224629463046FFF7C7FFFEBDDFED232A28
:100BF00000B520EE220A8BB005A902ABBDEEC00AFB
:100C0000F12210EE100A20EEA20A8DF80800000A68
:100C10008DF80900BDEEC00A10EE100A21EE220A7E
:100C20008DF80A00000A8DF80B00BDEEC00A10EE28
:100C3000100A21EEA20A8DF80C00000A8DF80D00B2
:100C4000BDEEC00A10EE100A22EE220A8DF80E0048
:100C5000000A8DF80F00BDEEC00A10EE100A8DF8E4
:100C60001000000A8DF811000A20CDE90001FE21D4
:100C7000DD20FFF7DFFE0BB000BD00000000C84222
:100C80002DE9F0412AA003F0F1FD01F09DFF2E4C6B
:100C900001252E486575A0602D48E0602D48206133
:100CA0002D486060204607F041FC2B4F7F1E48B165
:100CB00047207870204607F039FC060002D0014634
:100CC00026A009E00A2007F061FD1F4807F054FB49
:100CD000060006D001462BA003F0C8FD3046BDE853
:100CE000F08121782FA003F0C1FD1B480321401C97
:100CF00001700421417085701421C170124907F000
:100D00007DFB040002D0014631A007E00E4901201E
:100D100007F0ABFB040005D0014634A003F0A6FDAC
:100D20002046DCE73D703AA003F0A0FD0020D6E7A6
:100D30000A2D2D2D20424D503538302044726976D1
:100D40006572202D2D2D0A00340500203D810008FC
:100D5000578100083981000865000020424D503558
:100D6000383020736F667420726573657420666115
:100D7000696C65642E204572726F723A2025640A90
:100D800000000000424D5035383020696E697420F3
:100D90006661696C65642E204572726F723A202517
:100DA000640A0000424D5035383020696E69742065
:100DB0007375636365737366756C2E204368697021
:100DC0002049443A203078253032580A000000008B
:100DD000536574204F5352206661696C65642E2000
:100DE0004572726F723A2025640A000053657420C0
:100DF000706F776572206D6F6465206661696C65E0
:100E0000642E204572726F723A2025640A00000039
:100E1000424D5035383020696E697469616C697A69
:100E20006174696F6E20636F6D706C6574652E0AF6
:100E3000000000007CB505460B480C46007880B1E8
:100E400009490A4A891C684607F056FA002807D162
:100E50009DED010A85ED000A9DED000A84ED000A72
:100E60007CBD6FF002007CBD6400002034050020D2
:100E7000FEE70000014800F0EDB800007402002019
:100E8000014800F0E7B8000080010020014800F0B0
:100E9000E1B80000D40200200D4902688A4201D264
:100EA0000C4901E00B492031D2B21423083AB2FBBD
:100EB000F3F2436C02F01F0223F003031944816430
:100EC00004498031C16401219140016570470000EF
:100ED00008040240000802400179074A02EB81023F
:100EE0004265054A4432491E826501F01F02012114
:100EF0009140C16570470000FC08024030B5D0E960
:100F000013456560446D14B1D0E91645656090F8ED
:100F1000444004F01F050124AC40056C6C6004687B
:100F200063608368102B036803D099600068C26017
:100F300030BD9A600068C16030BD0000094801689A
:100F400041F080710160084800214160016841F072
:100F5000010101600068C00701D000207047012036
:100F600070470000FCED00E0001000E0704772B632
:100F7000FEE710B590F8253000210122022B03D0A6
:100F80000421C163012122E003681C6824F00E04DF
:100F90001C60836C1C6824F480741C6003681C68EB
:100FA00024F001041C6090F84430046C03F01F032B
:100FB00002FA03F36360D0E913345C60436D33B12C
:100FC0001C6824F480741C60D0E916345C6080F8DE
:100FD0002520002280F82420084610BD70B590F826
:100FE0002520002401212346022A07D00422C263BF
:100FF00080F8251080F82430012429E00268156863
:1010000025F00E0515600268156825F001051560CC
:10101000826C156825F48075156090F84420056C85
:1010200002F01F0201FA02F26A60D0E9132555604E
:10103000426D32B1156825F480751560D0E916252A
:10104000556080F8251080F82430816B01B1884705
:10105000204670BDF0B4016C0C6801680D6890F812
:10106000442002F01F06042202FA06F3234211D0A4
:101070006B070FD50B689B0603D40B6823F00403A2
:101080000B6090F8441001F01F018A40016C4A6027
:10109000016B1DE0022303FA06F727424FF0000C14
:1010A0004FF0010218D0AF0716D50C68A40605D47E
:1010B0000C6824F00A040C6080F8252090F8441095
:1010C00001F01F018B40016C4B6080F824C0C16AA5
:1010D00000291AD0F0BC08470823B340234214D09B
:1010E0002B0712D50B6823F00E030B6090F8441009
:1010F000036C01F01F0102FA01F15960C26380F82C
:10110000252080F824C0416BE2E7F0BC7047000066
:1011100070B504000CD02B4A21681420914209D2EA
:10112000294A0A44B2FBF0F08000606427480AE0D4
:10113000012070BD234A52420A44B2FBF0F0800005
:101140006064204808382064022084F825000A687A
:1011500047F6F0708243D4E902031843D4E904351A
:101160002B431843A3691843E3691843236A1843C0
:10117000104308602046FFF78FFEA0680025B0F5F9
:10118000804F00D16560A16C20790860D4E913011B
:1011900041606068401E032808D82046FFF79CFE87
:1011A000606D0560D4E91601416002E06565A565E2
:1011B000E565E563012084F8250084F824500020CB
:1011C00070BD000008040240F8FFFDBF00000240AF
:1011D00070B5044690F82400002501280CD00120A9
:1011E00084F8240094F825600020012E06D084F8AD
:1011F00024000225284670BD022070BD022684F816
:101200002560E0632068066826F001060660204637
:10121000FFF774FE206B00282068016802D041F0BF
:101220000E0106E021F0040101602068016841F030
:101230000A010160A06C0168C90303D5016841F48B
:1012400080710160606D18B1016841F480710160C6
:101250002068016841F001010160CBE770B50446E8
:1012600000F044F90546601C02D00448406804447C
:1012700000F03CF9401BA042FAD370BD30000020C2
:101280002DE9F04FDFF82092002301260324A9F175
:10129000040B85B00F2709F1040AABF1040EFAE044
:1012A00006FA03F52A407CD091F804C00CF0030C38
:1012B000BCF1010F02D0BCF1020F26D1D0F808C05A
:1012C000CDF800C04FEA430C04FA0CF8CDF810C07A
:1012D000DDF800C02CEA080CCDF800C0D1F80C8075
:1012E000DDF810C008FA0CF8DDF800C048EA0C0878
:1012F000C0F80880D0F804C02CEA050C0D79C5F3BD
:1013000000159D4045EA0C0545600D79ED43AD079C
:101310000ED0C5684FEA430804FA08FC25EA0C051C
:10132000D1F808C00CFA08FC4CEA050CC0F80CC057
:101330000D7905F00305022D16D1DD0800EB850CB3
:10134000CDF808C0DCF820805D074FEAD56C07FABD
:101350000CF528EA05080D6905FA0CF5DDF808C05A
:1013600045EA0805CCF8205005684FEA430CCDF853
:1013700008C004FA0CFC25EA0C0591F804C00CF036
:101380000308DDF808C008FA0CF848EA0508C0F8B8
:1013900000804D6815F4403F7CD0444DD5F860C0C6
:1013A00000E077E04CF0010CC5F860C02D6E23F032
:1013B000030C05F0010500953D4D65440295AD68AF
:1013C0004FEA837C4FEA1C7807FA08FC25EA0C05F3
:1013D000B0F1904F06D0DFF8DCC0604505D14FF08A
:1013E000010C20E04FF0000C1DE0DFF8CCC06045A0
:1013F00002D14FF0020C16E0DFF8C0C0604502D108
:101400004FF0030C0FE0DFF8B8C0604502D14FF099
:10141000040C08E0DFF8ACC0604502D14FF0050CC9
:1014200001E04FF0060C0CFA08FC4CEA050C029D9A
:10143000C5F808C0D9F80050CC46D1F804809543CF
:101440005FEAC82800D51543CCF80050DAF8005000
:10145000D446D1F8048095435FEA882800D5154327
:10146000CCF80050DBF80050DC46D1F804809543FE
:101470005FEA883800D51543CCF80050DEF80050FC
:10148000F446D1F8048095435FEAC83800D5154387
:10149000CCF800505B1C0A6832FA03F57FF400AF09
:1014A00005B0BDE8F08F00000804014000100240C4
:1014B000000001400004004800080048000C0048FB
:1014C00000100048001400480069084000D00120C6
:1014D0007047426921EA02030A4043EA02418161FE
:1014E00070470AB181617047816270470148806826
:1014F00070470000300000200248816842681144B3
:10150000816070473000002010B50024032000F0F7
:1015100073F80F2000F008F808B1012401E000F092
:1015200025F8204610BD000070B50E4E054600247B
:10153000706898B14FF47A71B1FBF0F00A4909680C
:10154000B1FBF0F000F05EFD40B9102D06D2002294
:101550002946501E00F030F8356000E00124204696
:1015600070BD0000300000203C0000200A4882B01E
:10157000016E41F001010166016E01F0010100916F
:10158000816D41F080518165806D00F08050009048
:1015900002B000F0A1B8000000100240002809DBF2
:1015A00000F01F02012191404009800000F1E0207D
:1015B000C0F8001170470000F0B40E4B1B680C46D9
:1015C000C3F30223C3F10705042D00D90425191D17
:1015D000072901D2002300E0DB1E012606FA05F1EF
:1015E000491E214099409E40761E16403143F0BC72
:1015F00003F08BB90CED00E0064900F00702086823
:101600004FF6FF03184040EA0220034A10430860E7
:10161000704700000CED00E00000FA052B492C4B50
:101620000A6832214A432B4940B1B0F5007F08686F
:1016300029D020F4C06040F480602CE00868C0F33A
:101640004120022804D051F8800F20F4807022E05D
:10165000D1F8800020F48070C1F88000086820F480
:10166000C06040F400700860B2FBF3F0401C00E082
:10167000401E4A69520501D50028F9D14869400544
:101680000AD503207047C0F34120022806D051F844
:10169000800F40F48070086000207047D1F880000F
:1016A00040F48070C1F88000086820F4C06040F405
:1016B00000700860B2FBF3F0401C00E0401E4A6975
:1016C0005205DBD50028F9D1D8E700003C00002006
:1016D00040420F00007000400248816841F48041A0
:1016E00081607047007000402DE9F84304460068AF
:1016F00000269D4D00035ED5A86D0027C00008D4CC
:10170000A86D40F08050A865A86D012700F08050BA
:101710000090DFF85892D9F8001041F48071C9F8B0
:101720000010FFF7E3FE804606E000BFFFF7DEFE95
:10173000A0EB080002282BD8D9F80000C005F5D589
:10174000D5F8900010F4407014D0216C814211D073
:10175000D5F89000D5F8901020F4407041F4803115
:10176000C5F89010D5F8901021F48031C5F890108C
:10177000C5F89000C00711D0FFF7B8FE804641F2CF
:10178000883907E0FFF7B2FEA0EB0801494501D90F
:1017900003260BE0D5F890008007F3D5D5F890002C
:1017A000216C20F440700843C5F890001FB1A86D6B
:1017B00020F08050A8652078C00707D0D5F88800B1
:1017C000616820F003000843C5F88800207880078E
:1017D00007D5D5F88800A16820F00C000843C5F8AB
:1017E00088002078400707D5D5F88800E16820F008
:1017F00030000843C5F888002078000707D5D5F8E1
:101800008800216920F0C0000843C5F888002078CE
:10181000800607D5D5F88800616920F44060084348
:10182000C5F888002078400607D5D5F88800A1695A
:1018300020F440500843C5F888002078000607D5FA
:10184000D5F88800E16920F440400843C5F88800D5
:101850002088C00507D5D5F88800216A20F44030DB
:101860000843C5F888002088800507D5D5F888008A
:10187000616A20F440200843C5F8880020884005AC
:101880000FD5D5F88800A16A20F440100843C5F8A8
:101890008800A06AB0F5801F03D1E86840F480108A
:1018A000E860208800050FD5D5F88800E16A20F4AB
:1018B00040000843C5F88800E06AB0F5800F03D106
:1018C000E86840F48010E8602088C0040FD5D5F89F
:1018D0008800216B20F040700843C5F88800206B19
:1018E000B0F1807F03D1E86840F48010E860208880
:1018F0004FF0006180040ED5D5F88800626B20F0AF
:1019000040601043C5F88800606B884203D1E868E6
:1019100040F48010E860208840040ED5D5F8880097
:10192000A26B20F040601043C5F88800A06B88428D
:1019300003D1E86840F48010E860208800040FD5E7
:10194000D5F88800E16B20F040500843C5F88800C6
:10195000E06BB0F1805F03D1E86840F48030E8606C
:101960003046BDE8F88300000010024000700040DF
:101970002DE9F0470E4605004FF0000725D0DFF8AF
:10198000AC81D8F8000000F00F00B0420CD2D8F8BB
:10199000001021F00F013143C8F80010D8F8000002
:1019A00000F00F00B04210D12968614CC80741F225
:1019B000883A5AD06868DFF87C91032808D002285A
:1019C00020682DD0400500282CDB0120BDE8F087E1
:1019D00020688001F9D5E06800F00302E068C0F3F8
:1019E0000310401C032A19D0534A00BFB2FBF0F089
:1019F000E268C2F306225043E268C2F34162521C1D
:101A00005200B0FBF2F0484517D9A06810F0F00F73
:101A10000CD0880711D5A86840B10EE0474AE5E729
:101A20008003D0E700F0B6F8484506D9A06820F05A
:101A3000F00040F08000A0608027A068696820F076
:101A400003000843A060FFF751FD814606E000BF98
:101A5000FFF74CFDA0EB090151453AD8A068696831
:101A600000F00C00B0EB810FF2D12868810714D58B
:101A7000400703D5A06840F4E060A0602878000724
:101A800005D5A06820F4605040F4E060A060A06834
:101A9000A96820F0F000084304E0802F03D1A0687B
:101AA00020F0F000A060D8F80010404601F00F01CF
:101AB000B14216D9016821F00F0131430160FFF7EF
:101AC00015FD074607E000BFFFF710FDC11B51459C
:101AD00001D903207AE7D8F8000000F00F00B042E7
:101AE000F2D12878400705D5A068E96820F4E060C5
:101AF0000843A0602878000706D5A068296920F46B
:101B0000605040EAC100A06000F044F8A1680C4AAF
:101B1000C1F30311515C01F01F01C840094908607D
:101B200009480068BDE8F047FFF7FEBC002002400E
:101B30000010024000B4C4040024F40000127A0033
:101B400034BB00083C000020300000200548064956
:101B500000688968054AC1F30221515C01F01F0148
:101B6000C84070473C0000200010024044BB000801
:101B70000548064900688968054AC1F3C221515CDD
:101B800001F01F01C84070473C00002000100240D7
:101B900044BB0008184910B58868C0F38102174893
:101BA000012A0BD08A684310C2F38102022A06D0B0
:101BB0008A68C2F38102032A03D0002010BD1846B0
:101BC00010BDCA6802F00304CA68C2F30312521CB3
:101BD000032C02D0B0FBF2F001E0B3FBF2F0CA68D4
:101BE000C968C2F306225043C1F34161491C490050
:101BF000B0FBF1F010BD0000001002400024F40022
:101C00002DE9F84304007AD02078F84DC00747D07A
:101C1000A868E96800F00C0001F003010C2802D06C
:101C2000082817D001E0032914D06068B0F5803F80
:101C300017D0B0F5A02F286817D020F48030286086
:101C4000286820F4802028606068E0B1FFF74EFC2F
:101C5000064614E02868800322D560680028D2D0A8
:101C60001EE0286840F48030EDE740F480202860D2
:101C7000F7E700BFFFF73AFC801B642870D828689C
:101C80008003F7D50CE0FFF731FC064605E000BF06
:101C9000FFF72CFC801B6428F0D828688003F7D459
:101CA000207880074CD5A868E96800F00C0001F0A6
:101CB00003010C2802D004280DD001E002290AD02B
:101CC000E068002828682BD040F480702860FFF777
:101CD0000DFC064619E02868400502D5E06800289A
:101CE00091D06868217C20F0FE4040EA0160686085
:101CF000BF480068FFF718FC002800D120E072E11F
:101D0000FFF7F4FB801B0228B8D828684005F7D5F8
:101D10006868217C20F0FE4040EA016068600FE0C6
:101D200020F480702860FFF7E1FB064605E000BF65
:101D3000FFF7DCFB801B0228A0D828684005F7D4F9
:101D40002078000729D560690028D5F8940013D0C1
:101D500040F00100C5F89400FFF7C8FB064606E016
:101D600090E000BFFFF7C2FB801B022886D8D5F8A1
:101D700094008007F6D510E020F00100C5F894002B
:101D8000FFF7B4FB064604E0FFF7B0FB801B022818
:101D900078D8D5F894008007F6D42078400761D52C
:101DA000A86D0026C00008D4A86D40F08050A8653A
:101DB000A86D012600F0805000908E480168C9058A
:101DC00011D40168804641F480710160FFF78EFBF9
:101DD000074604E0FFF78AFBC01B022852D8D8F858
:101DE0000000C005F6D5A068012815D00528D5F853
:101DF000900016D020F00100C5F89000D5F89000B2
:101E000020F00400C5F89000A06841F28838B8B10D
:101E1000FFF76CFB07460EE0D5F8900040F001009C
:101E2000F0E740F00400C5F89000F5E7FFF75EFB2F
:101E3000C11B414526D8D5F890008007F6D50CE0A7
:101E4000FFF754FB074604E0FFF750FBC11B414579
:101E500018D8D5F890008007F6D41EB1A86D20F0F0
:101E60008050A8652078800629D5A0690028D5F87B
:101E7000980013D040F00100C5F89800FFF736FB3A
:101E8000064606E075E000BFFFF730FB801B022826
:101E90006FD8D5F898008007F6D510E020F0010043
:101EA000C5F89800FFF722FB064604E0FFF71EFB8B
:101EB000801B02285DD8D5F898008007F6D4E06929
:101EC000F0B3A968C1F3810103295DD00228286815
:101ED00020F08070286003D0FFF708FB04464BE039
:101EE000FFF704FB064604E0FFF700FB801B022817
:101EF0003FD828688001F7D4F4E908016FF00F0299
:101F000002EB01110843218A5204490802EB4151B6
:101F1000A26841EA02210843217D4FF07E42490830
:101F200002EB41610843217B40EAC160E968324A23
:101F300011400843E860286840F08070286000E0A5
:101F40005EE0E86840F08070E860FFF7CFFA044692
:101F500005E000BFFFF7CAFA001B022809D828686D
:101F60008001F7D54CE000BFFFF7C0FA001B022844
:101F700002D90320BDE8F88328688001F4D4E8681A
:101F80001E490840E8603BE00128F3D0E868226A77
:101F900000F00301914226D1616A00F0F0020901CC
:101FA000103991421FD1A26A00F4FE41B1EB022F19
:101FB00019D194F82C2000F07841B1EBC26F12D106
:101FC000218E00F4C00249084905A1F50011914293
:101FD00009D194F8341000F0C06049084906A1F115
:101FE000007181420CD00120C4E7000000100240C3
:101FF00030000020007000400C809F01FCFFEEFECE
:102000000020B7E710B5401EB0F1807F01D301205A
:1020100010BD4FF0E02460610F21601702F075FCE5
:102020000020A06107202061002010BD704770478C
:102030007047704770477047F0B590F83C20012A10
:102040003AD0012580F83C50022280F83D200368F8
:102050005A689C68194E1A4FB34201D0BB4204D152
:1020600022F4700C4A6842EA0C02DFF858C002EA17
:102070000C02D1F800C04CEA020CC3F804C002689C
:10208000B2420DD0B2F1804F0AD00F4B9A4207D026
:102090000E4B9A4204D0BA4202D00D4B9A4204D160
:1020A000896824F080031943916080F83D50002135
:1020B00080F83C100846F0BD0220F0BD002C014025
:1020C000003401408FFFFFFD000400400008004085
:1020D00000400140704710B5040003D094F83D0063
:1020E00010B107E0012010BD002084F83C0020461C
:1020F00000F022F8022084F83D00211D206801F044
:102100004DFF012084F8480084F83E0084F83F0029
:1021100084F8400084F8410084F8420084F84300C9
:1021200084F8440084F8450084F8460084F84700A9
:1021300084F83D00002010BD38B5054600681849F8
:1021400088422BD11748016E41F400610166006E90
:10215000164C00F400600090134820602E20606050
:1021600000208021A060C4E9030149006161890069
:10217000C4E90610880020622046FEF7C9FF08B1B6
:10218000FEF7F5FE2C62002211461920A562FFF72A
:1021900013FABDE838401920FFF700BA38BD000037
:1021A000002C0140001002401C0002408001002071
:1021B00070B5044690F83C000025012814D0012693
:1021C00084F83C60022084F83D0022689068364B19
:1021D000184020F47F409060086870282ED010DCF2
:1021E00010F00F0F03D021E04FF0020070BD4FEA56
:1021F0002012072A1AD2DFE802F0525252524A380D
:1022000040002A4BC21A984249D009DCB0F5805FE1
:102210000DD0B0F5005F1CD0B0F1101F06D13EE02C
:10222000102A3CD0202A3AD0502A38D0012584F8F0
:102230003D60002084F83C00284670BDCB68D1E9A1
:102240000121206801F008FF2068816841F07701D2
:1022500009E0CB68D1E90121206801F0FDFE20688A
:10226000816841F480418160E1E7CA68496820687B
:1022700001F006FF5021206806E0CA68496820681E
:1022800001F00FFF6021206801F0F0FECFE7CA687F
:102290004968206801F0F4FE40212068F4E72268D4
:1022A00001461046F0E7000088FFCEFF2000100036
:1022B00070472DE9F04104460068C66805694FF093
:1022C0000007A90713D5B10711D5F91E0161012037
:1022D0002077206880698007204602D0FFF7E8FF5A
:1022E00004E000F0B7F8204600F0B5F8277768075B
:1022F00016D5700714D521686FF00400086102201C
:1023000020772068806910F4407F204602D0FFF7D4
:10231000CFFF04E000F09EF8204600F09CF82777FD
:10232000280715D5300713D521686FF0080008611C
:10233000042020772068C0698007204602D0FFF77C
:10234000B7FF04E000F086F8204600F084F8277715
:10235000E80616D5F00614D521686FF01000086164
:10236000082020772068C06910F4407F204602D002
:10237000FFF79EFF04E000F06DF8204600F06BF8D8
:102380002777E80708D0F00706D021686FF0010032
:102390000861204600F060F8280601D4A80408D59A
:1023A000300606D521686FF4025008612046FFF719
:1023B0003EFEE80508D5300606D521686FF480702A
:1023C00008612046FFF732FE680608D5700606D57C
:1023D00021686FF040000861204600F03EF8A80632
:1023E00008D5B00606D521686FF0200008612046A8
:1023F000FFF71EFEE80208D5F00206D521686FF44B
:10240000801008612046FFF715FEA80208D5B0022B
:1024100006D521686FF4001008612046FFF709FE19
:10242000680208D5700206D521686FF48000086143
:102430002046FFF700FE28020AD5300208D52168A1
:102440006FF4000008612046BDE8F041FFF742BE8E
:10245000BDE8F081704770477047704790F884106E
:10246000012918D0012180F884102421C0F8881097
:1024700001680A680B6823F001030B6022F0005129
:1024800000224266036819602021C0F8881080F895
:10249000842010467047022070477047704770B51F
:1024A000044690F8840001281DD0012084F884009F
:1024B0002420C4F8880020680568026822F0010220
:1024C00002602068826822F060620A4382602046CF
:1024D00001F00EFE206805602020C4F8880000206E
:1024E00084F8840070BD022070BD70B5044690F879
:1024F000840001281DD0012084F884002420C4F821
:10250000880020680568026822F0010202602068E5
:10251000826822F060420A438260204601F0E8FDB2
:10252000206805602020C4F88800002084F884001A
:1025300070BD022070BD7047704770472DE9F041B3
:1025400003680446D86919689A6840F60F0528425E
:102550004FF000054FF002060AD187067ED501F044
:10256000200702F0805C57EA0C0777D0616F42E1E8
:10257000B64FDFF8DCC2174001EA0C0C57EA0C0C2E
:102580006CD05FEAC07C0CD05FEAC15C09D54FF02B
:10259000010CC3F820C0D4F8903043F00103C4F814
:1025A0009030830709D5D30707D023681E62D4F87B
:1025B000903043F00403C4F8903043070AD5D307A2
:1025C00008D0266804233362D4F8903043F0020325
:1025D000C4F8903003070CD501F020033B4308D02A
:1025E000266808233362D4F8903043F00803C4F817
:1025F000903003050BD54B0109D526684FF40063D5
:102600003362D4F8903043F02003C4F89030D4F80B
:102610009030002B3DD0800609D501F0200002F05B
:102620008051084303D0616F09B120468847D4F830
:10263000900021688968490602D410F0280F2AD03A
:10264000204601F0DDFE2068806840061ED5206827
:10265000083050E8001F21F0400100E021E040E890
:102660000012002AF3D1D4F8800078B1794981634F
:10267000D4F88000FEF7B2FC00280AD0D4F880001D
:10268000816B00E02046BDE8F04108472046FFF797
:1026900054FFBDE8F0812046FFF74FFFC4F890508B
:1026A000F7E7D4F86CC02027BCF1010F7ED15FEAB8
:1026B000C06C7BD55FEAC16C78D5102018622068A9
:1026C0008068400651D5D4F880100A68506800042C
:1026D000000C3ED0B4F85C3083423AD9A4F85E00D6
:1026E0000868006880062CD4216851E8000F20F4A7
:1026F000807041E80002002AF6D12068083050E8D6
:10270000001F21F0010140E80012002AF5D12068E5
:10271000083050E8001F21F0400140E80012002A74
:10272000F5D1C4F88C70E566216851E8000F20F0FF
:10273000100041E80002002AF6D1D4F88000FEF72C
:1027400018FC2667B4F85C00B4F85E10401A81B239
:1027500007E0B4F85C1081429BD11068800698D5E0
:1027600026672046FFF799FE93E7B4F85C00B4F8BB
:102770005E10401A81B2B4F85E00002889D00029AA
:1027800087D0226852E8000F20F4907042E80003DE
:10279000002BF6D12D4BDB432068083050E8002F8A
:1027A0001A4040E8002CBCF1000F00E00EE0F3D12D
:1027B000C4F88C70E5666567206850E8002F22F049
:1027C000100240E80023002BF6D1C9E7C60209D564
:1027D000560207D54FF4801018622046BDE8F0413C
:1027E000FFF7AABE03060AD501F0800302F4000237
:1027F000134304D0A16F00297FF444AF49E7420698
:1028000011D54A060FD52046016851E8002F22F065
:10281000400241E80023002BF6D1C0F8887085679C
:1028200000F094F935E7020206D54A0004D52046A7
:10283000BDE8F041FFF77FBEC00195D5002993DACE
:102840002046BDE8F041FFF729BE0000010000105E
:1028500020010004A942000810B5040003D0D4F8F8
:10286000880010B107E0012010BD002084F884002A
:10287000204600F027F82420C4F88800206801686A
:1028800021F001010160A06A10B1204601F052FC64
:10289000204601F0F7FD0128E6D02068416821F4C8
:1028A000904141602068816821F02A0181602068A0
:1028B000016841F0010101602046BDE8104001F0CF
:1028C0009DBC00002DE9F04198B00646142111A8E6
:1028D000FDF7E8FC44216846FDF7E4FC3449306824
:1028E000884261D101200024CDE900046846FEF74A
:1028F000FBFE08B1FEF73BFB2E48016E41F4804120
:102900000166016E01F480411691C16C41F0010134
:10291000C164C06C11A900F0010016904FF4C060B2
:1029200011900220CDE912040720CDE914404FF0A8
:102930009040FEF7A5FC214D1F484FF0800828600D
:102940001820C5E90104C5E903486C614FF48057BC
:10295000AC61C5E907472846FEF7DAFB08B1FEF788
:1029600006FBC6F88050AE62144D1348603528301F
:1029700028601920686005F10801102081E8110124
:102980006C61AC61C5E907472846FEF7C1FB08B199
:10299000FEF7EDFAF567002211462520AE62FEF73C
:1029A0000BFE2520FEF7FAFD18B0BDE8F08100000F
:1029B000003801400010024008000240740200206C
:1029C00030B4D0F88C30202B02D0022030BC7047BD
:1029D000A9B1A2B10023C3660A4C0368A3420BD07D
:1029E0005B681B0208D5046854E8003F43F080632D
:1029F00044E80035002DF6D130BC01F07DBE012049
:102A0000E4E7000000800040704770472DE9F8437C
:102A10000446D0F88800984616460D46202802D075
:102A20000220BDE8F883A5B19EB10020C4F8900053
:102A30002120C4F888001834FEF758FDA687814687
:102A4000E68754F8100C2027183CB0F5805F02D0C0
:102A500003E00120E5E7206910B12E46002510E0D3
:102A600000260EE08021204601F09AFEC0B9DEB1BA
:102A700016F8010B21688862B4F85600401EA4F8CD
:102A80005600B4F856004B464FF00002CDF80080D7
:102A90000028E7D14FF04001204601F081FE40B10F
:102AA000C4F888700320BCE735F8020BC0F30800B7
:102AB000E0E7C4F888700020B3E7000070B5044672
:102AC000D0F88800202801D0022070BD39B332B37D
:102AD0002165A4F85420A4F856200021C4F89010D1
:102AE0002120C4F88800E06FD8B1154BC362E36FB2
:102AF00014481863E36F14485863E06F134681630A
:102B00002068E56F00F128022846216DFEF760FB82
:102B100038B11020C4F890002020C4F888000120AB
:102B200070BD2168402008622068083050E8001F0E
:102B300041F0800140E80012002AF5D1002070BD6C
:102B4000B3430008F5430008BD42000807498A68FE
:102B5000904209D18888CA881044C0F30800888050
:102B60000020087008F0D6BD704700005400002017
:102B70007047FEE710B5134C002210212046FEF7E7
:102B8000B0FC4FF09040016821F4403101600168D1
:102B900041F48031016000224FF48071FEF7A1FC06
:102BA000022005F0FFFD012210212046FEF799FCCE
:102BB000022005F0F7FD20460022BDE8104010215C
:102BC000FEF78FBC0008004870B586B01421684637
:102BD000FDF768FB1948C16C41F00401C164C16C88
:102BE00001F004010591C16C41F00101C164C06CA8
:102BF000134D00F00100059010200090112001906D
:102C0000012002900220039069462846FEF738FB17
:102C10004FF480744FF09046694630460094FEF7BA
:102C20002FFB012210212846FEF75BFC01222146E2
:102C30003046FEF756FC06B070BD000000100240A2
:102C40000008004810B5134C002210212046FEF762
:102C500048FC4FF09040016821F440310160016868
:102C600041F48031016001221102FEF73AFC02209A
:102C700005F098FD012210212046FEF732FC0220CB
:102C800005F090FD20460022BDE810401021FEF71F
:102C900028BC0000000800482DE9F04706464FF028
:102CA00090400024016821F440310160154F254611
:102CB00080464FF48079002210213846FEF711FC3F
:102CC000022005F06FFD012210213846FEF709FCB5
:102CD0006006040E49464046FEF7F6FB08B1641C48
:102CE000E4B2012005F05EFD6D1CEDB2082DE2D3CB
:102CF00026B1FFF73FFF2046BDE8F087FFF7A2FFB0
:102D0000F9E70000000800482DE9F0411D4614468F
:102D10000F46064600F06AF87006000E00F02AF82A
:102D200000F0BCF880B9384600F024F800F0B6F89E
:102D300050B900F05BF8012000EB4600C0B200F093
:102D400019F800F0ABF868B100F07CF80120BDE89C
:102D5000F081012C0CD00120FFF79EFF641E05F8C6
:102D6000010BA4B2002CF4D100F06CF80020EEE7C7
:102D70000020F1E72DE9F0414FF09044064620682D
:102D800020F440302060206840F480302060164FEE
:102D9000002210213846FEF7A4FB00254FF480786E
:102DA000300601D5012200E0002241462046FEF710
:102DB00098FB7006060E022005F0F4FC012210219B
:102DC0003846FEF78EFB022005F0ECFC00221021B5
:102DD0003846FEF786FB022005F0E4FC6D1CEDB2E0
:102DE000082DDDD3BDE8F0810008004870B54FF034
:102DF0009044206820F440302060206840F4803007
:102E000020600122150229462046FEF76AFB0C4E7F
:102E1000012210213046FEF764FB042005F0C2FCBD
:102E2000002229462046FEF75CFB042005F0BAFC90
:102E30003046BDE8704000221021FEF752BB000072
:102E40000008004870B54FF09044206820F44030EE
:102E50002060206840F4803020600F4D0022102157
:102E60002846FEF73EFB4FF480760022314620468E
:102E7000FEF737FB042005F095FC012210212846BF
:102E8000FEF72FFB012231462046FEF72AFBBDE864
:102E90007040042005F086BC000800482DE9F04190
:102EA0004FF0904500242968284621F440312960DC
:102EB000012216023146FEF714FB012005F072FCD8
:102EC0000F4F012210213846FEF70BFB012005F0C1
:102ED00069FC08E0641CE4B2FA2C04D9FFF7B2FFE5
:102EE0000120BDE8F08131462846FEF7EDFA0028C2
:102EF000F0D1002210213846FEF7F3FA0020F0E767
:102F0000000800482DE9F0411C4615460F460646CC
:102F1000FFF76CFF7006000EFFF72CFFFFF7BEFFF8
:102F200048B9384602E000BF14F8010BFFF722FF52
:102F3000FFF7B4FF20B1FFF785FF0120BDE8F08166
:102F40006D1EADB2F0D2FFF77DFF0020F6E7000066
:102F500010B5002000F0CAFF0C48016821F4404180
:102F60000160016841F480410160002000F0C8FF69
:102F7000022005F017FC012000F0B8FF022005F048
:102F800011FCBDE81040002000F0B0BF0004004874
:102F900070B5164886B0C16C41F00101C164C16CC6
:102FA00001F001010591C16C41F00201C164C06CE6
:102FB000112400F0020005904FF400400125022684
:102FC0008DE8710069464FF09040FEF759F9802076
:102FD0008DE8710069460648FEF752F9012000F0BD
:102FE0008FFF012000F082FF06B070BD001002408C
:102FF0000004004810B5002000F078FF0C4801687C
:1030000021F440410160016841F4804101600120E8
:1030100000F076FF022005F0C5FB012000F066FFFE
:10302000022005F0BFFBBDE81040002000F05EBFAD
:10303000000400482DE9F0410646154800240168C7
:1030400021F44041016001680160114F25461037AD
:10305000002000F04BFF022005F0A4FB012000F04F
:1030600045FF6006040E3868000601D5641CE4B212
:10307000012005F097FB6D1CEDB2082DE8D326B1B9
:10308000FFF766FF2046BDE8F081FFF7B3FFF9E7E1
:10309000000400482DE9F0411D4614460F4606463F
:1030A00000F05CF87006000E00F02AF800F096F8C8
:1030B00020B100F073F80120BDE8F081384600F03F
:1030C0001FF800F08BF800F049F8012000EB4600F3
:1030D000C0B200F015F800F081F809E0012C0DD025
:1030E0005FF00100FFF7A6FF641E05F8010BA4B214
:1030F000002CF3D100F052F80020DDE70020F1E7CA
:1031000070B505461448016821F44041016001682A
:1031100041F480410160002000F0E8FE0024280610
:1031200001D5012000E0002000F0EAFE6806050E4F
:10313000022005F037FB012000F0D8FE022005F048
:1031400031FB002000F0D2FE022005F02BFB641CB6
:10315000E4B2082CE3D370BD000400480E4810B55B
:10316000016821F440410160016841F4804101603F
:10317000012000F0C5FE012000F0B8FE042005F09B
:1031800011FB002000F0BCFE042005F00BFBBDE8A5
:103190001040002000F0AABE000400480E4810B500
:1031A000016821F440410160016841F480410160FF
:1031B000002000F09BFE002000F0A2FE042005F09D
:1031C000F1FA012000F092FE012000F099FEBDE826
:1031D0001040042005F0E6BA00040048134810B57A
:1031E0000168002421F44041016001680160012070
:1031F00000F086FE012005F0D5FA012000F076FEF1
:10320000012005F0CFFA0948103007E0641CE4B251
:10321000FA2C03D9FFF7C2FF012010BD016809068F
:10322000F4D4002000F062FE002010BD000400482D
:103230002DE9F0411C4615460F460646FFF78EFF66
:103240007006000EFFF75CFFFFF7C8FF20B1FFF725
:10325000A5FF0120BDE8F081384601E014F8010B1C
:10326000FFF74EFFFFF7BAFF6D1EADB2F6D2FFF7C4
:1032700095FF0020EEE700001CB537A00068019024
:1032800036A001F0F3FA01213E4804F0A7F804004B
:1032900001D03DA00FE03B483A49B03801604349B6
:1032A00081604349C16043490161B03003F05CFC77
:1032B000040006D040A001F0D9FA204603F0A6FD94
:1032C0001EE002208DF800002E4B01226946682086
:1032D00004F026FA040001D03FA0ECE7294803F0EF
:1032E0007DFC040001D044A008E0264A0820A2F199
:1032F000B00103F0A9FC040004D048A001F0B6FA24
:1033000020461CBD1F4A032101A804F0C3F9040094
:1033100001D04CA0CFE71B4A0121042004F0AAF8F9
:10332000040001D04EA0C6E7164CB03C21793329E9
:1033300005D054A001F09AFA6FF002001CBD5D495F
:10334000012008705CA001F091FA217962A001F0DF
:103350008DFA00201CBD000000010200496E697456
:1033600069616C697A696E6720494D552077697487
:10337000682049324320496E746572666163650A4C
:1033800000000000000600204661696C656420743E
:103390006F20696E697469616C697A65204932438E
:1033A00020696E746572666163650A00FD6D0008D0
:1033B000036E0008F96D00084661696C656420744D
:1033C0006F20696E697469616C697A6520424D4944
:1033D0003237300A000000004661696C6564207471
:1033E0006F207365742070756C6C2D75702072651C
:1033F000736973746F720A004661696C6564207446
:103400006F20636F6E6669677572652061636365BF
:103410006C20616E64206779726F0A004661696C86
:10342000656420746F20636F6E66696775726520CE
:10343000617578696C696172792073656E736F72FA
:103440000A0000004661696C656420746F20656E37
:1034500061626C652073656E736F72730A000000A1
:103460004661696C656420746F206D6170206461D1
:10347000746120726561647920696E746572727519
:1034800070740A000A496E76616C696420424D4D81
:103490003335302028417578292073656E736F723B
:1034A000202D2043686970204944203A2030782537
:1034B000780A00006A0000200A494D5520696E69AB
:1034C0007469616C697A656420737563636573738D
:1034D00066756C6C790A0000424D493237302061C4
:1034E0006E6420424D4D333530202843686970208A
:1034F00049443A2030782578292061726520726528
:103500006164790A0000000030B504462DED028B9D
:103510008FB028216846FCF7C5FE4C48007800288B
:1035200068D0002C6CD034212046FCF7BBFE484903
:10353000684603F007FF00285ED19DF8240084F858
:1035400030009DF82400424D000623D5BDF8000050
:10355000A084BDF80200E084BDF804002085297B2A
:10356000BDF90000B0EE000A05F044FE84ED000A4B
:10357000297BBDF90200B0EE000A05F03BFE84EDA8
:10358000010A297BBDF90400B0EE000A05F032FE05
:1035900084ED020A9DF82400400625D5BDF80C00F4
:1035A0006085BDF80E00A085BDF810009FED298A4A
:1035B000E085297BBDF90C00B0EE480A05F0E8FD76
:1035C00084ED030A297BBDF90E00B0EE480A05F030
:1035D000DFFD84ED040A297BBDF91000B0EE480A36
:1035E00005F0D6FD84ED050A1948B0380079332876
:1035F00009D017E06FF014000FB0BDEC028B30BDA6
:103600004FF0FF30F8E712490AA8B03904F098FAF1
:1036100070B19FED110A84ED060A84ED070A00BF20
:1036200084ED080A9DF8240080090CD00020E3E70F
:103630009DED0A0A84ED060A9DED0B0A84ED070A4A
:103640009DED0C0AECE70120D6E700006A0000209F
:10365000000600200000FA4400000000154808B5EC
:10366000816C41F004018164816C01F004010091DE
:10367000816C41F001018164806C002200F0010046
:10368000009011460B20FDF797FF0B20FDF786FFFA
:10369000002211460C20FDF78FFF0C20FDF77EFF66
:1036A000002211460D20FDF787FFBDE808400D20E0
:1036B000FDF774BF0010024030B587B01421684692
:1036C000FCF7F0FD1A48C16C41F00401C164C16C03
:1036D00001F004010591C16C41F02001C164C16C8D
:1036E00001F020010591C16C41F00101C164C06C81
:1036F000104D00F001000590002240212846FDF702
:10370000F0FE4FF400500024CDE9000402200290A6
:1037100069462846FDF7B4FD402000900120CDE920
:103720000104694628460394FDF7AAFD07B030BDA1
:10373000001002400008004810B588B00024194865
:1037400005940694039404940094019414490294FB
:10375000016044F26721C0E9011442F20F71C0E92F
:10376000031444618461FEF7B6FC08B1FDF7FFFB6A
:103770004FF48050039003A90A48FEF719FD08B1E1
:10378000FDF7F5FB00940194694606480294FEF7A4
:1037900053FC002801D0FDF7EAFB08B010BD000083
:1037A000002C014034010020184810B51649016072
:1037B0004FF4E1314160002181600C22C160C0E919
:1037C00004128161C161016241628162FFF744F8C4
:1037D00008B1FDF7CCFB00210C48FEF786FE08B1CE
:1037E000FDF7C5FB00210948FEF759FE08B1FDF7BA
:1037F000BEFB0648FEF732FE002803D0BDE81040AD
:10380000FDF7B5BB10BD000000380140E00100200D
:1038100010B52DED0A0B2DED108BF0EE43AAB0EE96
:1038200064DAF5EEC0AAF0EE448AB0EE638AB0EE38
:10383000629AF0EE429AB0EE61AAF1EE10FA9EB0F2
:1038400009D1B5EEC08AF1EE10FA04D1F5EEC08AC6
:10385000F1EE10FA0ED0B5EEC0AAF1EE10FA19D1C1
:10386000F5EEC09AF1EE10FA14D1B5EEC09AF1EE71
:1038700010FA0FD11EB0B0EE4D3AF0EE492AB0EE7C
:10388000692AF0EE4A1ABDEC108B0AB0BDE8104070
:1038900000F0F8B9F94CF6EE00DAD4ED011AD4EDE7
:1038A000023A94ED032A61EEC02A43EEE02A42EE8A
:1038B000412A62EEAD2ACDED0D2A94ED004A64EE68
:1038C000002A43EE812A42EE602A22EEAD3A64EEEF
:1038D000202A8DED0C3A41EEC12A24EE011A01EEA8
:1038E000A01A42EE002A03EEC01A22EEAD2A8DED98
:1038F0000E2A21EE2D0A8DED0B0A2AEE0A0A09EE98
:10390000A90A09EE090A05F00DFC6AEE004A29EE43
:10391000803A69EE007A2AEEAA0ACDED314A8DEDA1
:10392000323ACDED337A08EE080A08EEA80A05F01F
:10393000F9FB28EE009A94ED002AB0EE008A6AEEB8
:10394000809A22EE08AA68EE808A22EE02CA2AEE47
:10395000293A6AEE281A8DED033A2AEE093A8DEDDE
:10396000053A94ED011A61EE08BA61EE01CA62EE01
:1039700001FA2BEEA93A8DED063AD4ED020A94ED48
:10398000030A20EE88BA60EE085A6AEE202A22EE78
:10399000007ACDED125ACDED112A6BEE002A21EE00
:1039A000206A22EE20FACDED0F2A8DED177A8DEDEB
:1039B0001A6A20EE806A69EE8C2A2BEE892A8DED38
:1039C000196A9DED053A60EEA0AA20EE00EA43EEEA
:1039D000402A9DED033A61EE00EA41EEA02A49EE4D
:1039E000AC2A42EE202A2BEEA82A42EE002A20EE34
:1039F000032A9DED063A09EE0C2A49EEEA2A01EE69
:103A0000C12A49EECE2A03EE202A6BEE280A09EEDF
:103A10006C2A09EE2A2A00EE802A22EEA20A09EE7A
:103A20004E2A02EE020A02F015FB94ED012A9DEDEA
:103A3000053AD4ED021A94ED031A62EE030A9DEDE5
:103A4000033A6BEE092ADDED314A43EE610A9DED42
:103A5000063A9DED1A6A9DED177A3EEECF5ADDEDDE
:103A6000337A48EE8C0A36EE476A60EE083A26EE64
:103A7000007A43EE010A9DED323A9DED196A3FEE60
:103A8000866A48EEEC0A42EE810ADDED0F2A4FEE1F
:103A9000882A48EEEA0A32EEC33ADDED112A48EEF2
:103AA0008E0A5EEE882A23EE2BCA61EEA06A00EE33
:103AB000867A72EEE42A7DEEEA4A20EE884A0BEE20
:103AC00062CA74EECE4A37EE496A3DEEEC7A21EED8
:103AD000809A64EE804A37EE6A7A40EE854A22EE9A
:103AE000205AF0EE455A74EEE94A40EE415A06EE8D
:103AF000E4CA05EE86CA7FEE2E5A65EE805A40EE85
:103B0000875A35EEE87ADDED125A62EEA58AF7EEB5
:103B1000005A09EE07CA4CEEC85A4AEE038A4AEE2A
:103B2000C85AF1EE00AA75EEE79A62EE2A5AD4ED71
:103B3000007A45EEE98A61EE205A00EEA79A45EE3A
:103B4000A48A61EE005A44EE425A49EE068A45EED6
:103B5000878ADDED125A22EE002A22EEAB9A23EE7E
:103B6000258A61EEAA5A03EEC15A0BEE039A0AEEB9
:103B7000628A40EE676A05EE249A05EEE98A63EEF2
:103B8000E15A40EEE75A06EE869A05EEA48AF0EE78
:103B9000425A02EE079A40EE815A67EE800A2CEEF6
:103BA0000C0A44EE610A05EE868A08EEA80A00EEC9
:103BB000878A08EE080A09EE090A05F0B3FAA4F1AB
:103BC00020002CEE003A28EE802A28EE001A69EE3A
:103BD000001A90ED000ADFED2A0ADDED0D2AD4ED82
:103BE000003A60EE200A9DED0B0A40EEC32A9DEDDF
:103BF0000C3A00EEE10A00EEC23A9DED0E2A42EECA
:103C00008D3A00EEC12AC4ED003A94ED011A03EE9C
:103C10000D1A84ED011AD4ED020A42EE0D0AC4ED2C
:103C2000020AD4ED031A40EE0D1A23EEA30A01EEA8
:103C3000010AC4ED031A00EEA00A01EEA10A05F084
:103C400071FAD4ED000A60EE800AC4ED000AD4EDEA
:103C5000010A60EE800AC4ED010AD4ED020A60EEAA
:103C6000800AC4ED020AD4ED030A20EE800A84ED36
:103C7000030A1EB0BDEC108B0AB010BD8C000020F2
:103C8000CDCCCC3D10B5964CB6EE005A2DED0C8B3C
:103C9000F0EE439AB0EE61BAB0EE62AAB5EEC0BAE9
:103CA000F0EE42AAD4ED005A94ED023A94ED034AA4
:103CB00065EE803A65EEA04A43EE013A44EE603A82
:103CC00023EE859AD4ED013A43EEC14A44EE004A10
:103CD00064EE858A65EE814A43EEA04A43EE404A8F
:103CE00024EE858AF1EE10FA2AD1F5EEC0AAF1EEA3
:103CF00010FA25D1B5EEC0AAF1EE10FA20D123EECC
:103D0000C00A49EE293A03EE600A08EEA93A04EE29
:103D1000410A08EE294A20EE050A40EE295AC4ED70
:103D2000005A25EEA50AC4ED013A84ED023A84ED6D
:103D3000034A03EEA30A03EE030A04EE040AB1E009
:103D400023EEC00A03EE600A04EE410A20EE05CA23
:103D50002BEE0B0A0AEEAA0A0AEE0A0A05F0E2F9AD
:103D60006BEE003A2AEE803A6AEE007AB0EE000A74
:103D7000D4ED001AD4ED015AD4ED024A94ED036A51
:103D800061EE800A25EE805A24EE802A26EE001A83
:103D9000B1EE000A21EEA1AA61EE80CA64EEA41A77
:103DA00025EE807A66EE06AA25EEA54A6CEEA1BA4B
:103DB000F2EE002A27EE2ADA25EEA2BA42EE23BA64
:103DC00064EE806A01EE63DA64EEA22A4CEE84BAF5
:103DD0006AEE00CA0CEEA5DA6CEEA44A45EE43BAD0
:103DE00040EEA34A00EEC3DA64EE000A21EE800A38
:103DF00046EEAA4A3DEE47AA0BEE04AA41EE434A1C
:103E00000BEE21AA74EEE6AA20EE86BA42EE84AA50
:103E100005EE63BA07EE27AA42EEA1AA00EE06BAA3
:103E20002BEEAB0A46EEA7AA0AEE0A0A02EE43BA46
:103E30000AEEAA0A0BEE0B0A05F074F928482BEEDD
:103E4000802A20386AEE001A2AEE801A6BEE000AE9
:103E500090ED000A00EE42CA00EE619A40EE418AFF
:103E600000EE608A94ED000A0CEE290A84ED000A47
:103E7000D4ED010A20EE000A49EE290AC4ED010A38
:103E800094ED021A00EEA00A08EEA91A84ED021AB7
:103E9000D4ED031A01EE010A48EE291AC4ED031A03
:103EA00001EEA10A05F03EF9D4ED000A60EE800AA9
:103EB000C4ED000AD4ED010A60EE800AC4ED010AE7
:103EC000D4ED020A60EE800AC4ED020AD4ED030AC2
:103ED00020EE800A84ED030ABDEC0C8B10BD0000BF
:103EE0008C000020FEE7FEE7704770474FF400416A
:103EF0004FF0904208B191617047916270470000A5
:103F0000802108B1024801E001481030016070478B
:103F100018040048FDF7F0BA00B593B038216846A0
:103F2000FCF7C0F914210EA8FCF7BCF90020FDF73E
:103F300075FB0220C1010391402104910421CDE9C8
:103F4000080100905521CDE90A1007900C900D90C2
:103F50006846FDF755FE08B172B6FEE70F200E90D9
:103F600003200F90002010901190129004210EA8B1
:103F7000FDF7FEFC002801D072B6FEE713B000BDCD
:103F80000248016841F470010160704788ED00E06B
:103F90000148FEF78EB90000340100202DE9F043FE
:103FA0000268264B264D274E274C4FF080499842F9
:103FB00007D0484505D0A84203D0B04201D0A04266
:103FC00003D122F070074A683A43204FDFF880C0DF
:103FD000DFF8808098420DD048450BD0A84209D028
:103FE000B04207D0A04205D0B84203D0604501D00E
:103FF000404503D122F44075CA682A434D6922F036
:1040000080022A4302608A68C2620A688262984219
:1040100007D0A04205D0B84203D0604501D040454A
:1040200001D109690163012141610169C90703D017
:10403000016921F001010161BDE8F083002C01401C
:1040400000040040000800400034014000400140EE
:10405000004401400048014010B5846842EA032250
:1040600024F47F440A432243826010BD8268034BDC
:104070001A400A4342F00701816070478FFFCFFF6B
:1040800010B5036A046A24F001040462846924F010
:10409000F00444EA021423F00A020A438461026233
:1040A00010BD10B5036A046A24F010040462846928
:1040B00023F0A00324F4704444EA023243EA0111DD
:1040C0008261016210BD000010B500280BD00246CD
:1040D000642305490548FEF799FCBDE810404021DE
:1040E0000148FCF7DFB810BDF4000020E00100201B
:1040F00030B5416EB9B1026891689268C1F342610E
:104100000B4B520F9C5CE50003F10804A25CB5FB6D
:10411000F2F2A0F86A205A5C615CD200B2FBF1F1C5
:10412000A0F8681030BD0121A0F86A10F8E700007F
:1041300024BB000890F82810090706D501684A68D2
:10414000836B22F400421A434A6090F82810C90792
:1041500006D001684A68C36A22F400321A434A60F2
:1041600090F82810890706D501684A68036B22F485
:1041700080321A434A6090F82810490706D5016832
:104180004A68436B22F480221A434A6090F8281050
:10419000C90606D501688A68C36B22F480521A43A7
:1041A0008A6090F82810890606D501688A68036C31
:1041B00022F400521A438A6090F82810490611D55B
:1041C00001684A68436C22F480121A434A60416CC9
:1041D000B1F5801F06D101684A68836C22F4C002E1
:1041E0001A434A6090F82810090606D501684A6803
:1041F000C06C22F4002202434A6070472DE9F84364
:1042000000260446C0F89060FDF770F980462068EB
:1042100000684FF0200500076FF07E4713D5434636
:10422000002229042046009700F0BAFA58B121680C
:1042300051E8000F20F0800041E80002002AF6D18A
:10424000C4F8885021E020680068400722D5434622
:1042500000224FF480012046009700F0A1FAC8B177
:10426000216851E8000F20F4907041E80002002A14
:10427000F6D12068083050E8001F21F0010140E825
:104280000012002AF5D1C4F88C5084F88460032011
:10429000BDE8F883C4F88850C4F88C5044F86C6FBB
:1042A000666026760020F3E710B5806A0021A0F84A
:1042B0005E10A0F85610FEF740F910BD70B5846A84
:1042C000D4F88800D4F88C50216889684FF0000633
:1042D000090606D5212804D1A4F85660204600F02E
:1042E000B9F820688068400606D5222D04D1A4F8CC
:1042F0005E60204600F084F8D4F8900040F0100092
:10430000C4F890002046FEF718F970BD10B50146BC
:10431000806A096809684FF0000289062DD4A0F868
:104320005E20036853E8001F21F4807143E8001405
:10433000002CF6D10168083151E8003F23F0010359
:1043400041E80034002CF5D10168083151E8003F04
:1043500023F0400341E80034002CF5D12021C0F8BF
:104360008C10C16E012908D1016851E8003F23F08B
:10437000100341E80034002CF6D10267C16E012918
:1043800002D0FEF741FB10BDB0F85C10FEF785F8D7
:1043900010BD10B5806A01210167C16E012902D0EC
:1043A000FEF733FB10BDB0F85C104908FEF775F856
:1043B00010BD10B50146806A09680968890616D4DF
:1043C0000021A0F856100168083151E8002F22F0B2
:1043D000800241E80023002BF5D1026852E8001F5B
:1043E00041F0400142E80013002BF6D110BDFEF76A
:1043F000ADFB10BD10B5806AFEF7BAFB10BD000022
:1044000010B5026852E8001F21F4907142E80013D1
:10441000002BF6D10E4B0268083252E8001F1940FB
:1044200042E80014002CF6D1C16E012908D10168C0
:1044300051E8002F22F0100241E80023002BF6D1B2
:104440002021C0F88C100021C166416710BD00001A
:10445000FEFFFFEF026852E8001F21F0C00142E8B2
:104460000013002BF6D10168083151E8002F22F427
:10447000000241E80023002BF5D12021C0F888106C
:10448000704700002DE9F041044601688068226908
:10449000E3691043626900251A431043DFF82CC218
:1044A0000A688B4B1A4002430A6020684168E26840
:1044B00021F44051114341602168A069614501D058
:1044C000226A10438A68834B1A4002438A6020683C
:1044D000C16A626A21F00F011143C1627E492368FB
:1044E0007E488B420DD1D0F8880010F0030006D032
:1044F000012855D0022842D003283FD152E00120A4
:104500003DE077498B420BD1D0F8880010F00C00C9
:1045100035D0042833D0082840D00C282ED141E0D3
:1045200070498B420BD1D0F8880010F0300026D0B3
:10453000102835D0202831D030281FD132E06A49E8
:104540008B420BD1D0F8880010F0C00017D0402863
:1045500026D0802822D0C02810D123E063450DD179
:10456000D0F8880010F4406009D0B0F5806F17D003
:10457000B0F5006F12D0B0F5406F13D010205B493A
:104580005B4F00264FF4004263453BD160B10228E7
:1045900013D004280BD0082872D10DE00220EEE7DA
:1045A0000420ECE70820EAE7FDF7D0FA01E0FDF788
:1045B000F1FA010001D17CE01146606A37F8102061
:1045C0006768B1FBF2F007EB4703834270D8B0EBAA
:1045D000073F6DD8002308461946FBF719FE09026C
:1045E00041EA106102027808101871413A4600232E
:1045F000FBF70EFE3F4AA0F54071914258D8216862
:10460000C86056E0E3694FF6EF7893422CD1092851
:104610004ED2DFE800F00508114D0D4D4D4D100054
:10462000FDF794FA01E0FDF7A3FA010004D140E0A0
:10463000FDF7B0FAF9E71146606A37F81000B1FBF0
:10464000F0F04100606801EB5001B1FBF0F0A0F127
:10465000100141452CD84FF6F0710140C0F34200E3
:1046600001432068C16024E0092821D2DFE800F07E
:10467000050912200E2020201100FDF767FA02E044
:1046800016E0FDF775FA010004D112E0FDF782FA99
:10469000F9E71146606A37F81000B1FBF0F1606885
:1046A00001EB5001B1FBF0F0A0F1100141450AD936
:1046B00001250120A4F86A0024F8680F2846E66066
:1046C0002661BDE8F08180B299E7000000800040DB
:1046D000F369FFCFFFF4FF110038014000100240E2
:1046E0000044004000480040004C00400024F4001A
:1046F0000CBB0008FFFC0F0070B58165A0F85C20C2
:1047000000210446C0F890102220C4F88C00D4F890
:104710008000F0B11F4BC362D4F880301E4818638C
:10472000D4F880301D485863D4F880001346816364
:10473000A56D21682A462431D4F88000FCF748FD95
:1047400038B11020C4F890002020C4F88C0001205B
:1047500070BD206940B1216851E8000F40F48070BD
:1047600041E80002002AF6D12068083050E8001F16
:1047700041F0010140E80012002AF5D1206808301C
:1047800050E8001F41F0400140E80012002AF5D136
:10479000002070BD0D43000893430008BD4200088F
:1047A0002DE9F047994617460D4604464FF000089C
:1047B000089E33E0701C31D0FCF798FEA0EB090096
:1047C000B04218D8BEB120680168490726D5802DAF
:1047D00024D0402D22D0C169C94309070DD4082532
:1047E00005622046FFF70CFEC4F8905084F88480E0
:1047F0000120BDE8F0870320FBE7C069C043000546
:104800000CD421684FF4006008622046FFF7F8FDE1
:104810002020C4F8900084F88480ECE72068C06908
:1048200035EA000004D00020B842C3D00020E0E701
:104830000120F9E710B50B48FDF780FE094908682B
:10484000C269D243D2060CD410220262D1F8800091
:1048500000684068BDE81040C0F1400080B2FFF73A
:1048600033BC10BDE0010020FEE700000FB4054B93
:1048700010B503A9044A029801F0DAFD10BC5DF8F6
:1048800014FB00005D880008600000200FB4084B96
:1048900010B504A902AA039801F0CAFD044602A9B2
:1048A000002002F05CF9204610BC5DF814FB00000B
:1048B0005F6B000803B401984100009850EAC120E2
:1048C00018BF04204A0D18BF40F0010040F2FF72EB
:1048D000B2EB515F08BF40F00200012808BF05207D
:1048E00002B070474100080218BF04200A0E18BF2A
:1048F00040F001004FF07F4232EA010108BF40F072
:104900000200012808BF052070470907090E00288A
:1049100004DB00F1E02080F80014704700F00F0085
:1049200000F1E02080F8141D7047000010B54FF032
:104930000E402DED028BB0EE408A18EE104A00EBCF
:104940004400B0F1506F4AD84FF0FC40B0EB440F38
:1049500022D2B0EEC80AF7EE000A30EEC00AF6EE38
:10496000000A60EE208A18EE900A06F0B4FE01EE0E
:10497000100A14F0004F1DBFDFED2D0A9FED2D0A28
:10498000B1EE411ADFED2C0A08BF9FED2C0AF8EEBC
:10499000001A21EE218A05E0DFED290A68EE088A77
:1049A000B0EE600A9FED271ADFED271A30EE080AF5
:1049B00048EE811A9FED251A08EEA11ADFED241AA0
:1049C00048EE811A9FED231A08EEA11A68EE281A04
:1049D000BDEC028B01EE810A30EE200A10BD4FF0D3
:1049E000E440B0EB440F0CD918EE100AFFF77AFF41
:1049F000042808BF01F03CFCB0EE480ABDEC028B75
:104A000010BD4FF07F40B0EB440F07D2B0EE480A24
:104A1000BDEC028BBDE8104001F014BC012001F098
:104A20003FFCBDEC028BBDE8104001F011BC000062
:104A30000000C9BF22AAFDB90000C93F22AAFD3962
:104A40000000000024FE1C3DC78AD83C1E67383D8C
:104A50001B93993DAFAA2A3E10EE100A10B510EE36
:104A6000901A4FF0684202EB40032DED028BB3F138
:104A7000654F3CBF02EB4102B2F1654F7CD200BFF3
:104A8000C0F3C753C1F3C7529A1A1B2A09DD10F0AD
:104A9000004F14BF9FED6E0A9FED6E0ABDEC028BB6
:104AA00010BD12F11A0F1BDA11F0004F09D010F0EF
:104AB000004F0CBF9FED680A9FED680ABDEC028BAA
:104AC00010BD80EE208A18EE100AFFF70BFF0428B5
:104AD00008BF01F0CDFBB0EE480ABDEC028B10BD63
:104AE0004200B2EB410F37D910F0004F19BFDFED94
:104AF0005C1A9FED5C1ADFED5C1A9FED5C1AB0EE5C
:104B0000602A0A46F1EE400A80F00041B0EE420A07
:104B100010460A1A5200B2F1807F34D2484010F099
:104B2000004FDFED532A9FED533A1DBFBEEE002A22
:104B300071EEE21A31EE431AB6EE002A04BF71EEAE
:104B4000A21A31EE031AF0EE402A42EE602A40EE3D
:104B5000020A82EEA02A18E011F0004F04BF9FED78
:104B6000461AF0EE411AD4D010F0004F1CBFDFED12
:104B7000431A9FED431A00E026E004BFDFED411A1F
:104B80009FED411AC5E780EE202A22EE020ADFEDF2
:104B90003F0ADFED3F2ABDEC028B40EE202ADFED1D
:104BA0003D0A40EE220ADFED3C2A40EE202ADFEDEE
:104BB0003B0A40EE220A22EE000A00EE201A31EEF5
:104BC000020A30EE210A10BD4FF07F42B2EB400FD7
:104BD00028BFB2EB410F05D2BDEC028BBDE81040FF
:104BE00001F033BB40EA01035B0008BF41F0FF4125
:104BF0000BD0B2EB400F08BFB2EB410F08D120F051
:104C0000804000EE100A21F0804100EE901A37E754
:104C1000B2EB400F12BF5FEA410240F0FF4001F0EB
:104C200000413FF42DAF4A0092EA40033FF528AF20
:104C3000002AACBF9FED1A1A9FED1A1A20EE010A46
:104C400060EE810A10EE100A10EE901A18E70000CC
:104C5000DB0FC9BFDB0FC93FDB0F4940DB0F49C08A
:104C60000000C9BF22AAFDB90000C93F22AAFD3930
:104C70000060ED3EC30ACE3700000000000049C0CE
:104C800022AA7DBA0000494022AA7D3A2DAD65BD19
:104C90008FB8D53D0FB511BE61C84C3EA8AAAABEBB
:104CA0000000804F0000802F10B52DED028BB0EE7C
:104CB000608AF0EE408A18EE101A18EE900AFBF7A0
:104CC00037FE00F07040B0F1004F0CD018EE100A23
:104CD00020F00040C0F1FF40C00F02BFB0EE480A14
:104CE000BDEC028B10BDB0EE680ABDEC028B10BDAE
:104CF00010B52DED028BF0EE408A18EE900AB0EE62
:104D0000608A20F00040C0F1FF40C00F07D118EECC
:104D1000100A20F00040C0F1FF40C00F2BD018EE69
:104D2000101A18EE900AFBF7C7FC00EE100A10EEFE
:104D3000100A6FEAD05010F0FF0F04BFBDEC028BD9
:104D400010BD18EE900A00F0004110EE100A00F0BD
:104D50000040814204BFBDEC028B10BD18EE101A5A
:104D600010EE100ABDEC028B61F31E0000EE900AFB
:104D700030EE600A10BD18EE900A4FF07F41B1EBA3
:104D8000400F1CBF18EE100A5FEA4000C7D1012097
:104D900001F086FABDEC028BBDE8104001F058BA74
:104DA0002DE9F04D2DED040B2DED0E8B96B0DDE9C8
:104DB0002550279CDDF890A025F0004624F00048FF
:104DC000BAF1000F14BF0121002101EB4502FC499B
:104DD00053184A1093422AD3002814BF01230023FA
:104DE00003EB44030B44F7498B4220D358EA0001FC
:104DF0009FEDF59B76D0DFF8D8B35D4503D1BAF1CE
:104E0000000F05D188E0BAF1000F08BF002100D0E3
:104E1000012101EB450111F5001F08D8002814BF3E
:104E20000121002101EB440111F5001F0BD99DED7B
:104E3000261B9DED240B16B0BDEC0E8B04B0BDE817
:104E4000F04D01F0B9B90027002DBCBFE1498845FC
:104E500021DAE1498845A8BF02271CDAC3451ADCDC
:104E6000DE4901EB2851142908DDC1F1340220FA92
:104E700002F101FA02F282420DD108E058B9C1F103
:104E8000140228FA02F101FA02F2424503D101F0BC
:104E90000101C1F1020756EA0A0124D1002C22DAED
:104EA000002D18BF022F01D0012F0AD0022001F0DF
:104EB000F7F916B0BDEC0E8B04B0BDE8F04D01F073
:104EC00063B9022001F0ECF901F05EF951EC100B2E
:104ED00081F0004141EC100B16B0BDEC0E8B04B01C
:104EE000BDE8F08D18E09FEDBEAB9FEDBF8B0028B5
:104EF00071D1B848804522D105F1804010F580106D
:104F000008BFBAF1000F07D0B3450ADC002CA8BFD8
:104F10009DED260BE0DA0DE0B0EE490AF0EE690AED
:104F2000DAE7002C06DA9DED260B51EC100B81F030
:104F300000416FE0AE48784490ED000BCCE7D845D7
:104F40004DD1002C48DA2EB186423AD1BAF1000F89
:104F500042D126E0BAF1000F13D0022001F0A0F9EF
:104F600001F046F98DED020B9DED240B8DED000B4C
:104F700010EE900A039961F31E0003909DED020B61
:104F8000AAE78DED02AB9DED240B1AEE901A10EE00
:104F9000900A8DED000B61F31E0003909DED020B56
:104FA0009AE78DED028B9DED240B18EE901A10EE12
:104FB000900A8DED000B61F31E0003909DED020B36
:104FC0008AE709DA9DED240B51EC190B53EC102BF9
:104FD000FBF7F8FB1EE020E09DED240B7CE786420A
:104FE0001BDAB4F1804F0DD0A4F10050B0F1FF50A6
:104FF00013D1002D11DB9DED240B51EC100B06F0AD
:1050000033FB07E09DED240B53EC102B51EC100B00
:1050100000F0C2BC41EC100B5EE79DED240B51EC9F
:10502000100B03F0EEFBBAF1000FCDE90E0142D1F7
:105030009FED710B46B3A6F1E040B0F17F600CD05C
:105040005E4538D1002D00DAA7B3022F0CBF012036
:105050004FF0FF30FBF765FADCE7002D01DD002C97
:105060000DDA002D01DD002C1FDB002D16DA002CDF
:1050700014DB012F08BF9FED620B3FF42DAFB0EEA4
:105080004A0AF0EE6A0A27E7022F18BF002D0CD05B
:10509000012F0AD1002DFFF61FAF06E0002DB8BF8B
:1050A000002C08DA012F3FF417AFB0EE480AF0EEFB
:1050B000680A11E71BE0012000EBE57050EA0701E8
:1050C00015D0791EB0EE498AF0EE698A084308BF10
:1050D0009FED4D8B4E480025804570DD4D494E4873
:1050E000884514DDB0420DDB002C19DB2FE00120D8
:1050F00001F0D6F816B0BDEC0E8B04B0BDE8F04D53
:1051000001F066B8B34502DC002C09DC1FE08642E2
:1051100002DA002C1BDA03E05E452BDD002C16DDE5
:10512000022001F0BDF801F063F88DED020B53ECA5
:105130001A2B51EC180BFBF782F9CDE9000103990A
:10514000019861F31E0003909DED020BC4E602205E
:1051500001F0A6F801F05CF810EE901A18EE900A33
:105160008DED020B8DED008B61F31E0003909DED24
:10517000020BB1E69DED0E0B53EC192B51EC100B0D
:10518000FBF757F99FED260BCDE9080153EC102BE7
:105190009DED080B51EC100BFBF751F99FED221B15
:1051A00053EC112BFBF748F99DED081B53EC112B29
:1051B000FBF745F99FED1E1B53EC112B3CE08CE0F7
:1051C000FFFF1F00FFFF0F00000000000000F03F86
:1051D0000000F03F0000F07F0000404301FCFFFFB3
:1051E000000000000000F07F000000000000000050
:1051F000DE8E0000000000000000000000000080C3
:10520000000000000000F0FF000000000000F0BF00
:105210000000E0410000F043FFFFEF3F000000000E
:10522000000000000000D03F555555555555D53F5D
:10523000000000000000E03FFBF7FEF89DED080BCA
:1052400041EC1A0B53EC102B51EC100BFBF7F7F859
:1052500053EC1A2BFBF7F3F841EC1A0B9FEDFE0B06
:1052600053EC102B9DED080B51EC100BFBF7E7F8FE
:1052700041EC1B0B9FEDFA0B51EC1A0B53EC102B6E
:10528000FBF7DDF841EC1A0B9FEDF70B53EC102BFD
:105290009DED080B51EC100BFBF7D1F853EC1A2BDA
:1052A000FBF7C7F841EC1A0B51EC1B0B53EC1A2B14
:1052B000FBF71EF80690CDE906519DED060B53EC69
:1052C0001B2B51EC100BFBF7B4F853EC1A2BFBF72C
:1052D000B3F841EC100B00F0A1B90020B6F5801F27
:1052E0000EDA9FEDE30B53EC102B9DED0E0B51EC02
:1052F000100BFBF7A4F8CDE90E016FF034000E4659
:1053000000EB2650A0F2FF37C6F31300DA4940F055
:105310007F6646F040568842D8BF002408DDD74952
:105320008142C8BF012403DC0024A6F580167F1C3F
:10533000D348784400EBC4000F9690ED00CB9DED70
:105340000E0B53EC1C2B51EC100BFBF772F89DED80
:105350000E0B41EC1B0B53EC1C2B51EC100BFAF712
:10536000C7FF41EC100B51EC190B53EC102BFBF762
:1053700029FA41EC1D0B51EC1B0B53EC1D2BFBF7D9
:105380005EF841EC1A0BBF488DED10AB78441095D8
:1053900090ED000B4FF0005040EA660000EB8440B7
:1053A0008DED080B00F5002009909DED080B53ECE6
:1053B0001C2B51EC100BFBF73CF89DED0E1B53EC36
:1053C000112BFBF739F841EC100B53EC102B9DED32
:1053D000100B51EC100BFBF732F89DED080B41EC74
:1053E0001C0B53EC102B9DED100B51EC100BFBF72D
:1053F00026F853EC1B2BFBF71FF853EC1C2BFBF789
:1054000018F853EC1D2BFBF71AF841EC1C0B53EC6E
:105410001A2B51EC1A0BFBF712F841EC1B0B9A48B4
:105420000621B0EE4B0AF0EE6B0A784400F02FFE36
:10543000B0EE401AF0EE601AB0EE41DAF0EE61DA4A
:1054400053EC1B2B51EC1B0BFAF7F9FF53EC1D2B04
:10545000FAF7F5FF9DED100B41EC1B0B53EC1A2BEB
:1054600051EC100BFAF744FF53EC1C2BFAF7E7FF53
:1054700053EC1B2BFAF73CFF9DED100B41EC1B0B83
:1054800053EC102B51EC100BFAF7D9FF41EC1D0B2C
:105490009FED7FEB53EC1E2BFAF72AFF53EC1B2BEF
:1054A000FAF726FF0890CDE908519DED080B53EC63
:1054B0001E2B51EC100BFAF7BCFF53EC1D2BFAF727
:1054C000B8FF53EC1B2BFAF7B7FF9DED080B41EC2F
:1054D0001D0B53EC102B9DED100B51EC100BFAF73C
:1054E000AEFF41EC1B0B53EC1A2B51EC1D0BFAF7E2
:1054F000A6FF9DED080B41EC1A0B53EC102B51EC61
:105500001C0BFAF79CFF53EC1A2BFAF7F1FE41EC57
:105510001A0B51EC1B0B53EC1A2BFAF7E9FE0C900B
:10552000CDE90C519DED0C0B53EC1B2B51EC100BEA
:10553000FAF77FFF53EC1A2BFAF77EFF41EC1B0BB7
:105540009FED550B53EC102B9DED0C0B51EC100BFC
:10555000FAF775FF41EC1A0B9FED510B51EC1B0B49
:1055600053EC102BFAF76BFF41EC1B0B9FED4E0B2E
:1055700053EC102B9DED0C0B51EC100BFAF75FFF69
:1055800053EC1B2BFAF7B4FE41EC100B484878445F
:1055900000EBC40090ED001B51EC100B53EC112BF1
:1055A000FAF7A6FE41EC1B0B3846FAF7BAFFCDE935
:1055B000080153EC1B2B51EC1A0BFAF799FE41EC46
:1055C000100B3C48784400EBC40090ED00CB51EC4C
:1055D000100B53EC1C2BFAF78BFE9DED081B53ECC4
:1055E000112BFAF785FE0690CDE906519DED080BCB
:1055F00053EC102B9DED060B51EC100BFAF719FF35
:1056000053EC1C2BFAF715FF53EC1A2BFAF711FF8A
:1056100053EC1B2BFAF710FF41EC100B9DED261BF2
:1056200053EC102B8DED001B00959DED260B51ECDE
:10563000100BFAF704FF9DED000B41EC1A0B53EC35
:10564000102B9DED260B51EC100BFAF7F2FE9DEDA1
:10565000061B53EC112B2FE0000000604715F73FAD
:10566000FE822B654715F73F44DF5DF80BAE543ED5
:1056700000000000000040438E9803007AB60B0043
:105680001A890000888A000052880000000000008B
:105690000000000000000840000000E009C7EE3FE5
:1056A000FD033ADC09C7EE3FF5015B14E02F3EBE77
:1056B000DE86000098860000FAF7C1FE53EC1A2B34
:1056C000FAF716FE9DED060B41EC1A0B53EC102B6E
:1056D0009DED000B51EC100BFAF7B1FECDE90C017A
:1056E0009DED0C0B51EC1A0B53EC102BFAF700FE4E
:1056F000CDE902010C46AA498C422FDB611A08430E
:1057000018D19DED0C0B53EC102B9DED020B51ECC1
:10571000100BFAF78EFE41EC1B0B9FEDA30B51EC27
:105720001A0B53EC102BFAF7E3FD53EC1B2BFBF792
:10573000E7F82DD2022000F0B3FD00F059FD10EE85
:10574000901A18EE900A8DED020B8DED008B61F32F
:105750001E0003909DED020BFFF7BEBB944A24F0A0
:105760000041914214D39349214408437FF4EFACA4
:105770009DED0C0B53EC102B9DED020B51EC100B1F
:10578000FAF757FE53EC1A2BFBF7BAF87FF6DFACAB
:1057900024F000408849894A002601EB20518242CA
:1057A0002BDA481C4FF4801121FA00F02044844A7F
:1057B000C0F30A517A44A1F2FF3192ED000B814A05
:1057C0008DED080BCA4020EA0202C0F3130040F43A
:1057D0008010C1F1140120FA01F60992002CB8BF23
:1057E00076429DED080B53EC102B9DED0C0B51EC0C
:1057F000100BFAF71EFECDE90C019DED0C0B51ECE0
:105800001A0B53EC102BFAF773FD9FED6F0B0890FA
:10581000CDE9085153EC102B9DED080B51EC100B0A
:10582000FAF70DFE41EC1B0B9FED690B53EC102BAF
:105830009DED080B51EC100BFAF701FE9DED0C0BE2
:1058400041EC1C0B53EC102B9DED080B51EC100B95
:10585000FAF7EFFD53EC1A2BFAF7EEFD9FED5E1B06
:1058600053EC112BFAF7EBFD53EC1C2BFAF740FD30
:1058700041EC1A0B51EC1B0B53EC1A2BFAF738FDC9
:10588000CDE902019DED020B53EC1B2B51EC100BEB
:10589000FAF7CFFD53EC1A2BFAF7CEFD9DED020B74
:1058A00041EC1A0B53EC102B51EC100BFAF7C7FD1F
:1058B000CDE908014A489DED080B0521784400F028
:1058C000E6FB9DED081B51EC100B53EC112BFAF786
:1058D000B6FD9DED021B53EC112BFAF7ADFDCDE9A2
:1058E00006019DED020B53EC1A2B51EC100BFAF74D
:1058F000A6FD53EC1A2BFAF7FBFC9FED3B0B41EC9A
:105900001A0B53EC102B9DED060B51EC100BFAF714
:1059100090FD9DED060B41EC1B0B53EC102B9DED08
:10592000020B51EC100BFAF78AFD53EC1B2BFAF724
:1059300049FF53EC1A2BFAF77CFD9DED021B53EC4B
:10594000112BFAF776FD53EC192BFAF775FDCDE91B
:10595000020101EB065001150029C8BF039015DCB8
:105960009DED020B324651EC100BFAF79AFFFEF751
:10597000A1FF042808BF00F04BFC32469DED020B4E
:1059800051EC100BFAF78DFFCDE902019DED020BF2
:1059900051EC180B53EC102BFAF751FDFFF73ABB03
:1059A0000000904000000000FE822B654715973CE8
:1059B00000CC904000346F3F01FCFFFF0000E03F4F
:1059C00060860000FFFF0F0000000000432EE63F4E
:1059D000396CA80C615C20BEEF39FAFE422EE63F1E
:1059E000F083000000000000000000000000004004
:1059F00010B510EE100A2DED068BB7EE001A10EE62
:105A0000901AB0EE418A0022A0F5000CDFEDFE9A5C
:105A10004FF00073BCF1FE4F4FF07F4403EB410C9D
:105A200080F0B481BCF1804FC0F02082F74901447E
:105A30009FEDF73AB1F5005F40F2D48200F5802186
:105A4000CB0C03F00F0101EE901AC3F307137F3B59
:105A5000A0EBC350B8EEE12A00EE100A1A44DFEDC5
:105A6000ED2AF0EE411A42EE221AF0EE613A70EEA3
:105A7000232A30EE632A12EE900A00F500606FF3DD
:105A80000B0001EE900A73EEE13A33EE804AC1EE6C
:105A9000223A22EE230A10EE100A00F500606FF39E
:105AA0000B0000EE100A00EE612A00EE442A62EEBE
:105AB000232A70EE221A21EEA12ADFEDD73A02EE58
:105AC000233A23EE023A20EE012A22EE811A03EE57
:105AD000211A32EE010A10EE100A00F500606FF391
