:020000040800F2
:10000000B0090020ED010008BB3400082F280008CB
:10001000B93400083D0B00083D3E00080000000018
:10002000000000000000000000000000BF340008D5
:10003000390C000800000000BD340008E934000855
:10004000070200080702000807020008070200086C
:10005000070200080702000807020008070200085C
:10006000070200080702000807020008410B000809
:100070004D0B0008590B0008070200080702000892
:10008000070200080000000007020008070200083D
:10009000070200080702000807020008070200081C
:1000A000070200086535000807020008070200087B
:1000B00007020008070200080702000807020008FC
:1000C00007020008070200080702000807020008EC
:1000D00007020008093E000807020008070200089E
:1000E00007020008070200080702000807020008CC
:1000F00007020008070200080702000800000000CD
:1001000000000000070200080000000007020008CD
:1001100007020008000000000702000807020008AC
:10012000070200080702000807020008070200088B
:10013000070200080000000000000000070200089D
:10014000070200080702000800000000000000008D
:10015000000000000000000000000000000000009F
:10016000000000000000000000000000070200087E
:10017000070200080000000000000000000000006E
:10018000000000000702000800000000000000005E
:10019000000000000000000000000000000000005F
:1001A000000000000000000007020008070200082D
:1001B000070200080702000807020008000000000C
:1001C000000000000702000800000000000000001E
:1001D0000702000807020008DFF80CD000F052FB0D
:1001E0000048004711760008B00900200648804703
:1001F00006480047FEE7FEE7FEE7FEE7FEE7FEE70C
:10020000FEE7FEE7FEE7FEE755350008D9010008E6
:100210002DE9F05F0546002092469B46884606463B
:10022000814640241BE0284641464746224600F0CE
:10023000BDF953465A46C01A914110D3114618468B
:10024000224600F0A4F92D1A67EB01084F4622461A
:100250000120002100F09BF917EB00094E41201E00
:10026000A4F10104DFDC484631462A464346BDE896
:10027000F09FD2B201E000F8012B491EFBD270477B
:100280000022F6E710B513460A4604461946FFF762
:10029000F0FF204610BD2DE9FE4F804681EA0300A5
:1002A000C00F0C46009021F0004123F00045B8EB50
:1002B0000200A94105D24046214690461C460B4605
:1002C000024623F00040104347D0270DC7F30A0031
:1002D000C3F30A510290401A019040286BDAC3F32D
:1002E000130040F4801B0098924620B10023D2EB0B
:1002F000030A63EB0B0B01985946C0F140025046CC
:1003000000F045F906460D4650465946019A00F060
:100310005DF910EB08006141002487EA115284EA7C
:10032000E7731A4340D0009A62B3019A012A4FEA58
:10033000075215DC001B61EB02014FF0004202EA9C
:100340000752CDE90042001C41F5801132462B4690
:1003500000F094F903B0BDE8F08F40462146F9E77C
:10036000001B61EB0201001C41F5801300185B418A
:100370002018A2F5001747EB030140EAD570B61923
:100380006D4111E06D084FEA360645EAC0754FEA47
:100390000752001B61EB0201001C41F58011490866
:1003A0004FEA30000019514132462B4603B0BDE8F8
:1003B000F04F00F054B90098012240000023D0EB28
:1003C000020263EBE073009821464FEAE074B8EB59
:1003D000000061EB0401E9E783F000435BE781F093
:1003E000004158E72DE9FE4F81EA030404F0004480
:1003F00021F0004100944FF0000B23F0004350EA3D
:1004000001045ED052EA03045BD0C3F30A54C1F383
:100410000A552C44A4F2F3340194A0FB0254C1F316
:10042000130141F48011C3F3130343F4801301FB60
:10043000024400FB034E840A970A44EA815447EAC7
:100440008357A4FB076802958D0A05FB07854FEAD1
:10045000932C04FB0C542705029D4FEA065847EAEB
:100460001637B5EB08056EEB070C870E920E47EAC0
:10047000811742EA8312A7FB0201B6EB0B0164EB82
:1004800000042B0D43EA0C335E1844EB1C50DA4693
:100490005146E7FB0201C5F313044FEA0B3343EA6D
:1004A00014534FEA0432019C43EA0603A4F10C04FE
:1004B0000294009CCDE900B400F0E0F803B0BDE880
:1004C000F08F00200146F9E70EB5C10F80EAE07019
:1004D0000844CA07002140F233438DE80E000A4663
:1004E0000B4600F0CBF803B000BD0EB540F233412F
:1004F00002910021CDE900110A460B4600F0BEF83A
:1005000003B000BD00F0004230F000400AD0C10D41
:1005100001F56071C0F3160042EA0151C2084007BC
:100520001143704700200146704701F0004330B48A
:1005300021F0004150EA010206D00A0DA2F56072D6
:10054000C1F31301002A02DC30BC00207047440FC5
:1005500044EAC104C100E01830BC00EBC25000F016
:1005600047B830B50B46014600202022012409E09F
:1005700021FA02F59D4205D303FA02F5491B04FA5C
:1005800002F52844151EA2F10102F1DC30BD202A3B
:1005900004DB203A00FA02F1002070479140C2F1DA
:1005A000200320FA03F3194390407047202A04DB0C
:1005B000203A21FA02F00021704721FA02F3D040DC
:1005C000C2F120029140084319467047202A06DBF9
:1005D000CB17203A41FA02F043EAE07306E041FA11
:1005E00002F3D040C2F120029140084319467047FF
:1005F0000029A8BF7047401C490008BF20F0010037
:10060000704710B4B0FA80FC00FA0CF050EA010414
:1006100004BF10BC704749B1CCF1200421FA04F4A6
:1006200011FA0CF118BF012121430843A3EB0C017F
:10063000CB1D4FEA00614FEA102042BF002010BCE2
:10064000704700EBC35010440029A4BF10BC704792
:10065000401C490008BF20F0010010BC704710B5D5
:10066000141E73F1000408DA401C41F100019218D5
:100670005B411A4301D120F0010010BD2DE9F04D7E
:1006800092469B4611B1B1FA81F202E0B0FA80F2D3
:1006900020329046FFF77BFF04460F4640EA0A00EF
:1006A00041EA0B0153465A46084313D0114653EA18
:1006B000010019D0C8F140025046FFF777FF054608
:1006C0000E46504659464246FFF761FF084305D0A3
:1006D000012004E020463946BDE8F08D00200543A6
:1006E00046EAE0762C4337430A986305E40AA0EB18
:1006F00008000022FD0A44EA47540A3002D50020CF
:100700000146E9E7010510196941DDE908450019CD
:100710006941BDE8F04DA2E72DE9F04D81EA0304FF
:1007200004F0004B21F0004514464FF0000A23F07E
:10073000004150EA050220D054EA01021DD0C5F361
:100740000A570246C5F31303C1F31300C1F30A5657
:1007500040F4801543F48013A7EB0608101BD6461F
:1007600008F2FD3873EB050002D308F1010801E03F
:1007700092185B41B8F1000F03DA00200146BDE892
:10078000F08D00204FF48011064684460EE0171BC2
:1007900073EB050705D3121B63EB050306434CEA15
:1007A000010C49084FEA300092185B4150EA0107FA
:1007B000EDD152EA030012D082EA040083EA050177
:1007C000084305D0101BAB4106D20122002306E0EE
:1007D00000224FF0004302E06FF0010253101AEBC9
:1007E00006004CEB085110EB0A0041EB0B01BDE891
:1007F000F04DFFF734BF70B521F0004303430CD038
:10080000C1F30A550024D5EB040564EB0403D617A5
:10081000AD1AB34102DB0020014670BD201841EB48
:10082000025170BDC1F30A52C1F3130140F2FF330C
:1008300041F480119A4202DA00200146704740F2EA
:1008400033439A42A2F2334202DC5242FFF7AEBE79
:10085000FFF79DBE30B5041E71F1000404DB4FF0BC
:100860000044404264EB0101141E73F1000405DBF7
:100870001C464FF00043524263EB0403994208BF09
:10088000904230BD064C074D06E0E06840F00103A1
:1008900094E8070098471034AC42F6D3FFF7A0FC69
:1008A0001CB800083CB800082DE9F04D00231A469A
:1008B0001B1A8A4103DB00200146BDE8F08DC1F31D
:1008C0000A52C1F3130141F480154FF0000BD10718
:1008D00002D100186D41521E0027044640F2FF115C
:1008E000384601EB620A3E468046024600204FF43D
:1008F0008011FFF75BFEC2197141BB1846EB010086
:10090000B4EB030C75EB000C04D3E41A65EB0005A3
:1009100017460E46241908F101006D41804634281F
:10092000E3DDF91946EB0600091BA84103D24FF09D
:10093000FF32134601E0002213461BEB070046EB93
:100940000A51BDE8F04DFFF78ABE00002DE9F041E5
:100950002AA003F075FA01F095FF2E4C01252E48D0
:100960006575A0602D48E0602D4820612D486060CD
:10097000204606F0E7FA2B4F7F1E48B147207870DB
:10098000204606F0DFFA060002D0014626A009E064
:100990000A2006F0B2FB1F4806F0FAF9060006D05E
:1009A00001462BA003F04CFA3046BDE8F0812178D7
:1009B0002FA003F045FA1B480321401C01700421BD
:1009C000417085701421C170124906F023FA0400A9
:1009D00002D0014631A007E00E49012006F051FA8D
:1009E000040005D0014634A003F02AFA2046DCE7D3
:1009F0003D703AA003F024FA0020D6E70A2D2D2DF1
:100A000020424D5035383020447269766572202D71
:100A10002D2D0A0080040020556B00086F6B000824
:100A2000516B000835000020424D5035383020739E
:100A30006F6674207265736574206661696C6564A5
:100A40002E204572726F723A2025640A0000000061
:100A5000424D5035383020696E6974206661696C8A
:100A600065642E204572726F723A2025640A000078
:100A7000424D5035383020696E6974207375636358
:100A800065737366756C2E20436869702049443A1B
:100A9000203078253032580A000000005365742059
:100AA0004F5352206661696C65642E204572726FE7
:100AB000723A2025640A000053657420706F7765D0
:100AC00072206D6F6465206661696C65642E2045D7
:100AD00072726F723A2025640A000000424D503550
:100AE000383020696E697469616C697A6174696F04
:100AF0006E20636F6D706C6574652E0A00000000D7
:100B00007CB505460B480C46007880B109490A4A75
:100B1000891C684606F0FCF8002807D19DED010A03
:100B200085ED000A9DED000A84ED000A7CBD6FF0A2
:100B300002007CBD3400002080040020FEE700009D
:100B4000014800F0EDB80000C0010020014800F0AD
:100B5000E7B80000CC000020014800F0E1B8000038
:100B6000200200200D4902688A4201D20C4901E0AE
:100B70000B492031D2B21423083AB2FBF3F2436C92
:100B800002F01F0223F003031944816404498031F9
:100B9000C1640121914001657047000008040240D2
:100BA000000802400179074A02EB81024265054ACA
:100BB0004432491E826501F01F0201219140C16546
:100BC00070470000FC08024030B5D0E9134565606D
:100BD000446D14B1D0E91645656090F8444004F0C6
:100BE0001F050124AC40056C6C6004686360836879
:100BF000102B036803D099600068C26030BD9A6012
:100C00000068C16030BD00000948016841F0807192
:100C10000160084800214160016841F00101016064
:100C20000068C00701D00020704701207047000015
:100C3000FCED00E0001000E0704772B6FEE710B572
:100C400090F8253000210122022B03D00421C1633A
:100C5000012122E003681C6824F00E041C60836CF0
:100C60001C6824F480741C6003681C6824F0010470
:100C70001C6090F84430046C03F01F0302FA03F385
:100C80006360D0E913345C60436D33B11C6824F4B5
:100C900080741C60D0E916345C6080F82520002246
:100CA00080F82420084610BD70B590F82520002457
:100CB00001212346022A07D00422C26380F82510AE
:100CC00080F82430012429E00268156825F00E051B
:100CD00015600268156825F001051560826C1568BD
:100CE00025F48075156090F84420056C02F01F0211
:100CF00001FA02F26A60D0E913255560426D32B103
:100D0000156825F480751560D0E91625556080F8C2
:100D1000251080F82430816B01B18847204670BDD2
:100D2000F0B4016C0C6801680D6890F8442002F082
:100D30001F06042202FA06F3234211D06B070FD5D7
:100D40000B689B0603D40B6823F004030B6090F838
:100D5000441001F01F018A40016C4A60016B1DE0E4
:100D6000022303FA06F727424FF0000C4FF001026E
:100D700018D0AF0716D50C68A40605D40C6824F06B
:100D80000A040C6080F8252090F8441001F01F013F
:100D90008B40016C4B6080F824C0C16A00291AD0D6
:100DA000F0BC08470823B340234214D02B0712D5C8
:100DB0000B6823F00E030B6090F84410036C01F0F5
:100DC0001F0102FA01F15960C26380F8252080F802
:100DD00024C0416BE2E7F0BC7047000070B504002E
:100DE0000CD02B4A21681420914209D2294A0A4486
:100DF000B2FBF0F08000606427480AE0012070BD7B
:100E0000234A52420A44B2FBF0F08000606420485A
:100E100008382064022084F825000A6847F6F0703C
:100E20008243D4E902031843D4E904352B43184321
:100E3000A3691843E3691843236A18431043086001
:100E40002046FFF78FFEA0680025B0F5804F00D147
:100E50006560A16C20790860D4E913014160606885
:100E6000401E032808D82046FFF79CFE606D0560F1
:100E7000D4E91601416002E06565A565E565E563B5
:100E8000012084F8250084F82450002070BD000063
:100E900008040240F8FFFDBF0000024070B50446A0
:100EA00090F82400002501280CD0012084F82400AB
:100EB00094F825600020012E06D084F82400022535
:100EC000284670BD022070BD022684F82560E063CC
:100ED0002068066826F0010606602046FFF774FECB
:100EE000206B00282068016802D041F00E0106E066
:100EF00021F0040101602068016841F00A010160ED
:100F0000A06C0168C90303D5016841F480710160D8
:100F1000606D18B1016841F480710160206801685A
:100F200041F001010160CBE770B5044600F03CF9E7
:100F30000546601C02D004484068044400F034F9BF
:100F4000401BA042FAD370BD000000202DE9F04FF5
:100F5000DFF82092002301260324A9F1040B85B0B9
:100F60000F2709F1040AABF1040EFAE006FA03F5C3
:100F70002A407CD091F804C00CF0030CBCF1010FA6
:100F800002D0BCF1020F26D1D0F808C0CDF800C0C5
:100F90004FEA430C04FA0CF8CDF810C0DDF800C09D
:100FA0002CEA080CCDF800C0D1F80C80DDF810C098
:100FB00008FA0CF8DDF800C048EA0C08C0F8088010
:100FC000D0F804C02CEA050C0D79C5F300159D403E
:100FD00045EA0C0545600D79ED43AD070ED0C568B7
:100FE0004FEA430804FA08FC25EA0C05D1F808C0CA
:100FF0000CFA08FC4CEA050CC0F80CC00D7905F0A1
:101000000305022D16D1DD0800EB850CCDF808C0D4
:10101000DCF820805D074FEAD56C07FA0CF528EA6A
:1010200005080D6905FA0CF5DDF808C045EA080564
:10103000CCF8205005684FEA430CCDF808C004FAFC
:101040000CFC25EA0C0591F804C00CF00308DDF84F
:1010500008C008FA0CF848EA0508C0F800804D6896
:1010600015F4403F7CD0444DD5F860C000E077E0F7
:101070004CF0010CC5F860C02D6E23F0030C05F098
:10108000010500953D4D65440295AD684FEA837CAE
:101090004FEA1C7807FA08FC25EA0C05B0F1904FDE
:1010A00006D0DFF8DCC0604505D14FF0010C20E030
:1010B0004FF0000C1DE0DFF8CCC0604502D14FF0CE
:1010C000020C16E0DFF8C0C0604502D14FF0030CFF
:1010D0000FE0DFF8B8C0604502D14FF0040C08E023
:1010E000DFF8ACC0604502D14FF0050C01E04FF0D5
:1010F000060C0CFA08FC4CEA050C029DC5F808C069
:10110000D9F80050CC46D1F8048095435FEAC8284E
:1011100000D51543CCF80050DAF80050D446D1F889
:10112000048095435FEA882800D51543CCF8005029
:10113000DBF80050DC46D1F8048095435FEA88383C
:1011400000D51543CCF80050DEF80050F446D1F835
:10115000048095435FEAC83800D51543CCF80050A9
:101160005B1C0A6832FA03F57FF400AF05B0BDE8F6
:10117000F08F000008040140001002400000014010
:101180000004004800080048000C00480010004817
:10119000001400480069084000D0012070470AB1DF
:1011A0008161704781627047014880687047000024
:1011B0000000002002488168426811448160704745
:1011C0000000002010B50024032000F073F80F2069
:1011D00000F008F808B1012401E000F025F82046ED
:1011E00010BD000070B50E4E05460024706898B121
:1011F0004FF47A71B1FBF0F00A490968B1FBF0F0E5
:1012000000F05EFD40B9102D06D200222946501E86
:1012100000F030F8356000E00124204670BD000089
:10122000000000200C0000200A4882B0016E41F04E
:1012300001010166016E01F001010091816D41F033
:1012400080518165806D00F08050009002B000F008
:10125000A1B8000000100240002809DB00F01F02C6
:10126000012191404009800000F1E020C0F8001108
:1012700070470000F0B40E4B1B680C46C3F302230A
:10128000C3F10705042D00D90425191D072901D232
:10129000002300E0DB1E012606FA05F1491E21406D
:1012A00099409E40761E16403143F0BC02F0F0BDDE
:1012B0000CED00E0064900F0070208684FF6FF0356
:1012C000184040EA0220034A1043086070470000BB
:1012D0000CED00E00000FA052B492C4B0A68322186
:1012E0004A432B4940B1B0F5007F086829D020F46B
:1012F000C06040F480602CE00868C0F34120022800
:1013000004D051F8800F20F4807022E0D1F88000E2
:1013100020F48070C1F88000086820F4C06040F4B8
:1013200000700860B2FBF3F0401C00E0401E4A6908
:10133000520501D50028F9D1486940050AD5032096
:101340007047C0F34120022806D051F8800F40F4C6
:101350008070086000207047D1F8800040F48070F1
:10136000C1F88000086820F4C06040F40070086094
:10137000B2FBF3F0401C00E0401E4A695205DBD589
:101380000028F9D1D8E700000C00002040420F00EF
:10139000007000400248816841F4804181607047DC
:1013A000007000402DE9F8430446006800269D4D7A
:1013B00000035ED5A86D0027C00008D4A86D40F0DA
:1013C0008050A865A86D012700F080500090DFF8DC
:1013D0005892D9F8001041F48071C9F80010FFF755
:1013E000E3FE804606E000BFFFF7DEFEA0EB08004C
:1013F00002282BD8D9F80000C005F5D5D5F8900003
:1014000010F4407014D0216C814211D0D5F89000B6
:10141000D5F8901020F4407041F48031C5F8901058
:10142000D5F8901021F48031C5F89010C5F89000DF
:10143000C00711D0FFF7B8FE804641F2883907E0B7
:10144000FFF7B2FEA0EB0801494501D903260BE0E6
:10145000D5F890008007F3D5D5F89000216C20F4E2
:1014600040700843C5F890001FB1A86D20F080506F
:10147000A8652078C00707D0D5F88800616820F0FB
:1014800003000843C5F888002078800707D5D5F801
:101490008800A16820F00C000843C5F88800207877
:1014A000400707D5D5F88800E16820F030000843F0
:1014B000C5F888002078000707D5D5F8880021698D
:1014C00020F0C0000843C5F888002078800607D5C2
:1014D000D5F88800616920F440600843C5F88800A9
:1014E0002078400607D5D5F88800A16920F440503F
:1014F0000843C5F888002078000607D5D5F888008D
:10150000E16920F440400843C5F888002088C00500
:1015100007D5D5F88800216A20F440300843C5F883
:1015200088002088800507D5D5F88800616A20F4F6
:1015300040200843C5F88800208840050FD5D5F81D
:101540008800A16A20F440100843C5F88800A06A0A
:10155000B0F5801F03D1E86840F48010E86020886F
:1015600000050FD5D5F88800E16A20F44000084353
:10157000C5F88800E06AB0F5800F03D1E86840F450
:101580008010E8602088C0040FD5D5F88800216B52
:1015900020F040700843C5F88800206BB0F1807FD0
:1015A00003D1E86840F48010E86020884FF00061C3
:1015B00080040ED5D5F88800626B20F0406010439F
:1015C000C5F88800606B884203D1E86840F4801059
:1015D000E860208840040ED5D5F88800A26B20F082
:1015E00040601043C5F88800A06B884203D1E868CA
:1015F00040F48010E860208800040FD5D5F88800FA
:10160000E16B20F040500843C5F88800E06BB0F172
:10161000805F03D1E86840F48030E8603046BDE880
:10162000F883000000100240007000402DE9F047F0
:101630000E4605004FF0000725D0DFF8AC81D8F842
:10164000000000F00F00B0420CD2D8F8001021F0DA
:101650000F013143C8F80010D8F8000000F00F0067
:10166000B04210D12968614CC80741F2883A5AD07B
:101670006868DFF87C91032808D0022820682DD004
:10168000400500282CDB0120BDE8F08720688001A0
:10169000F9D5E06800F00302E068C0F30310401CD5
:1016A000032A19D0534A00BFB2FBF0F0E268C2F33C
:1016B00006225043E268C2F34162521C5200B0FB62
:1016C000F2F0484517D9A06810F0F00F0CD0880749
:1016D00011D5A86840B10EE0474AE5E78003D0E79E
:1016E00000F0B6F8484506D9A06820F0F00040F0B8
:1016F0008000A0608027A068696820F0030008438C
:10170000A060FFF751FD814606E000BFFFF74CFDEA
:10171000A0EB090151453AD8A068696800F00C00B7
:10172000B0EB810FF2D12868810714D5400703D5AB
:10173000A06840F4E060A0602878000705D5A068A4
:1017400020F4605040F4E060A060A068A96820F038
:10175000F000084304E0802F03D1A06820F0F000DF
:10176000A060D8F80010404601F00F01B14216D930
:10177000016821F00F0131430160FFF715FD0746B5
:1017800007E000BFFFF710FDC11B514501D9032041
:101790007AE7D8F8000000F00F00B042F2D12878C4
:1017A000400705D5A068E96820F4E0600843A06020
:1017B0002878000706D5A068296920F4605040EA1F
:1017C000C100A06000F044F8A1680C4AC1F3031105
:1017D000515C01F01F01C8400949086009480068D0
:1017E000BDE8F047FFF7FEBC0020024000100240B9
:1017F00000B4C4040024F40000127A00AA86000891
:101800000C00002000000020054806490068896897
:10181000054AC1F30221515C01F01F01C840704725
:101820000C00002000100240BA8600080548064956
:1018300000688968054AC1F3C221515C01F01F01AB
:10184000C84070470C00002000100240BA86000813
:10185000184910B58868C0F381021748012A0BD0D7
:101860008A684310C2F38102022A06D08A68C2F352
:101870008102032A03D0002010BD184610BDCA689B
:1018800002F00304CA68C2F30312521C032C02D0F4
:10189000B0FBF2F001E0B3FBF2F0CA68C968C2F332
:1018A00006225043C1F34161491C4900B0FBF1F0ED
:1018B00010BD0000001002400024F4002DE9F843A0
:1018C00004007AD02078F84DC00747D0A868E968AE
:1018D00000F00C0001F003010C2802D0082817D0FA
:1018E00001E0032914D06068B0F5803F17D0B0F54F
:1018F000A02F286817D020F480302860286820F4B2
:10190000802028606068E0B1FFF74EFC064614E0D6
:101910002868800322D560680028D2D01EE028689D
:1019200040F48030EDE740F480202860F7E700BF06
:10193000FFF73AFC801B642870D828688003F7D52D
:101940000CE0FFF731FC064605E000BFFFF72CFC7A
:10195000801B6428F0D828688003F7D4207880079B
:101960004CD5A868E96800F00C0001F003010C28D0
:1019700002D004280DD001E002290AD0E068002836
:1019800028682BD040F480702860FFF70DFC0646D5
:1019900019E02868400502D5E068002891D0686801
:1019A000217C20F0FE4040EA01606860BF4800688A
:1019B000FFF718FC002800D120E072E1FFF7F4FBEC
:1019C000801B0228B8D828684005F7D56868217CB4
:1019D00020F0FE4040EA016068600FE020F4807073
:1019E0002860FFF7E1FB064605E000BFFFF7DCFBE0
:1019F000801B0228A0D828684005F7D4207800076B
:101A000029D560690028D5F8940013D040F0010072
:101A1000C5F89400FFF7C8FB064606E090E000BF5B
:101A2000FFF7C2FB801B022886D8D5F894008007F8
:101A3000F6D510E020F00100C5F89400FFF7B4FBE4
:101A4000064604E0FFF7B0FB801B022878D8D5F8E3
:101A500094008007F6D42078400761D5A86D002651
:101A6000C00008D4A86D40F08050A865A86D01267C
:101A700000F0805000908E480168C90511D40168BB
:101A8000804641F480710160FFF78EFB074604E059
:101A9000FFF78AFBC01B022852D8D8F80000C00507
:101AA000F6D5A068012815D00528D5F8900016D0E5
:101AB00020F00100C5F89000D5F8900020F0040057
:101AC000C5F89000A06841F28838B8B1FFF76CFB08
:101AD00007460EE0D5F8900040F00100F0E740F036
:101AE0000400C5F89000F5E7FFF75EFBC11B414518
:101AF00026D8D5F890008007F6D50CE0FFF754FB08
:101B0000074604E0FFF750FBC11B414518D8D5F844
:101B100090008007F6D41EB1A86D20F08050A86513
:101B20002078800629D5A0690028D5F8980013D020
:101B300040F00100C5F89800FFF736FB064606E0C6
:101B400075E000BFFFF730FB801B02286FD8D5F887
:101B500098008007F6D510E020F00100C5F8980045
:101B6000FFF722FB064604E0FFF71EFB801B02285E
:101B70005DD8D5F898008007F6D4E069F0B3A9687D
:101B8000C1F3810103295DD00228286820F080700C
:101B9000286003D0FFF708FB04464BE0FFF704FB87
:101BA000064604E0FFF700FB801B02283FD82868A8
:101BB0008001F7D4F4E908016FF00F0202EB011184
:101BC0000843218A5204490802EB4151A26841EAC4
:101BD00002210843217D4FF07E42490802EB41611A
:101BE0000843217B40EAC160E968324A114008435A
:101BF000E860286840F08070286000E05EE0E868F7
:101C000040F08070E860FFF7CFFA044605E000BFBF
:101C1000FFF7CAFA001B022809D828688001F7D507
:101C20004CE000BFFFF7C0FA001B022802D90320D6
:101C3000BDE8F88328688001F4D4E8681E490840AC
:101C4000E8603BE00128F3D0E868226A00F0030175
:101C5000914226D1616A00F0F002090110399142E7
:101C60001FD1A26A00F4FE41B1EB022F19D194F802
:101C70002C2000F07841B1EBC26F12D1218E00F41C
:101C8000C00249084905A1F50011914209D194F813
:101C9000341000F0C06049084906A1F1007181428A
:101CA0000CD00120C4E7000000100240000000201A
:101CB000007000400C809F01FCFFEEFE0020B7E7A3
:101CC00010B5401EB0F1807F01D3012010BD4FF050
:101CD000E02460610F21601702F0DAF80020A061B3
:101CE00007202061002010BD704770477047704783
:101CF00070477047F0B590F83C20012A3AD0012592
:101D000080F83C50022280F83D2003685A689C68A5
:101D1000194E1A4FB34201D0BB4204D122F4700CC9
:101D20004A6842EA0C02DFF858C002EA0C02D1F815
:101D300000C04CEA020CC3F804C00268B2420DD0E5
:101D4000B2F1804F0AD00F4B9A4207D00E4B9A4205
:101D500004D0BA4202D00D4B9A4204D1896824F0D3
:101D600080031943916080F83D50002180F83C10B9
:101D70000846F0BD0220F0BD002C014000340140B7
:101D80008FFFFFFD000400400008004000400140BC
:101D9000704710B5040003D094F83D0010B107E07F
:101DA000012010BD002084F83C00204600F022F8FD
:101DB000022084F83D00211D206801F0D9FB01209C
:101DC00084F8480084F83E0084F83F0084F840001E
:101DD00084F8410084F8420084F8430084F8440009
:101DE00084F8450084F8460084F8470084F83D00F4
:101DF000002010BD38B505460068184988422BD12F
:101E00001748016E41F400610166006E164C00F443
:101E100000600090134820602E2060600020802128
:101E2000A060C4E90301490061618900C4E90610AA
:101E3000880020622046FEF7D1FF08B1FEF7FDFEC4
:101E40002C62002211461920A562FFF713FABDE8A3
:101E500038401920FFF700BA38BD0000002C0140BF
:101E6000001002401C000240CC00002070B5044667
:101E700090F83C000025012814D0012684F83C602D
:101E8000022084F83D0022689068364B184020F408
:101E90007F409060086870282ED010DC10F00F0F83
:101EA00003D021E04FF0020070BD4FEA2012072A54
:101EB0001AD2DFE802F0525252524A3840002A4BFE
:101EC000C21A984249D009DCB0F5805F0DD0B0F558
:101ED000005F1CD0B0F1101F06D13EE0102A3CD0AC
:101EE000202A3AD0502A38D0012584F83D600020BD
:101EF00084F83C00284670BDCB68D1E901212068F8
:101F000001F094FB2068816841F0770109E0CB681B
:101F1000D1E90121206801F089FB2068816841F442
:101F200080418160E1E7CA684968206801F092FB5E
:101F30005021206806E0CA684968206801F09BFBD0
:101F40006021206801F07CFBCFE7CA6849682068FF
:101F500001F080FB40212068F4E72268014610462A
:101F6000F0E7000088FFCEFF2000100070472DE949
:101F7000F04104460068C66805694FF00007A907EC
:101F800013D5B10711D5F91E016101202077206812
:101F900080698007204602D0FFF7E8FF04E000F0E8
:101FA000B7F8204600F0B5F82777680716D5700710
:101FB00014D521686FF004000861022020772068A2
:101FC000806910F4407F204602D0FFF7CFFF04E085
:101FD00000F09EF8204600F09CF82777280715D5DA
:101FE000300713D521686FF00800086104202077BE
:101FF0002068C0698007204602D0FFF7B7FF04E0E1
:1020000000F086F8204600F084F82777E80616D519
:10201000F00614D521686FF01000086108202077C1
:102020002068C06910F4407F204602D0FFF79EFF71
:1020300004E000F06DF8204600F06BF82777E80721
:1020400008D0F00706D021686FF001000861204633
:1020500000F060F8280601D4A80408D5300606D59B
:1020600021686FF4025008612046FFF73EFEE80544
:1020700008D5300606D521686FF4807008612046C7
:10208000FFF732FE680608D5700606D521686FF0A6
:1020900040000861204600F03EF8A80608D5B006CA
:1020A00006D521686FF0200008612046FFF71EFE6C
:1020B000E80208D5F00206D521686FF480100861A7
:1020C0002046FFF715FEA80208D5B00206D5216804
:1020D0006FF4001008612046FFF709FE680208D57A
:1020E000700206D521686FF4800008612046FFF772
:1020F00000FE28020AD5300208D521686FF40000DE
:1021000008612046BDE8F041FFF742BEBDE8F0811E
:10211000704770477047704790F88410012918D0B5
:10212000012180F884102421C0F8881001680A6811
:102130000B6823F001030B6022F00051002242667D
:10214000036819602021C0F8881080F884201046A8
:102150007047022070477047704770B5044690F88A
:10216000840001281DD0012084F884002420C4F8B4
:10217000880020680568026822F001020260206879
:10218000826822F060620A438260204601F09AFA77
:10219000206805602020C4F88800002084F88400AE
:1021A00070BD022070BD70B5044690F8840001280F
:1021B0001DD0012084F884002420C4F88800206801
:1021C0000568026822F0010202602068826822F03D
:1021D00060420A438260204601F074FA206805607C
:1021E0002020C4F88800002084F8840070BD0220FC
:1021F00070BD7047704770472DE9F0410368044691
:10220000D86919689A6840F60F0528424FF0000512
:102210004FF002060AD187067ED501F0200702F0B2
:10222000805C57EA0C0777D0616F42E1B64FDFF868
:10223000DCC2174001EA0C0C57EA0C0C6CD05FEAC8
:10224000C07C0CD05FEAC15C09D54FF0010CC3F82B
:1022500020C0D4F8903043F00103C4F890308307D5
:1022600009D5D30707D023681E62D4F8903043F015
:102270000403C4F8903043070AD5D30708D0266872
:1022800004233362D4F8903043F00203C4F8903052
:1022900003070CD501F020033B4308D02668082330
:1022A0003362D4F8903043F00803C4F8903003054B
:1022B0000BD54B0109D526684FF400633362D4F87F
:1022C000903043F02003C4F89030D4F89030002BC5
:1022D0003DD0800609D501F0200002F0805108436E
:1022E00003D0616F09B120468847D4F89000216877
:1022F0008968490602D410F0280F2AD0204601F040
:1023000069FB2068806840061ED52068083050E8C8
:10231000001F21F0400100E021E040E80012002A07
:10232000F3D1D4F8800078B179498163D4F8800082
:10233000FEF7BAFC00280AD0D4F88000816B00E0D8
:102340002046BDE8F04108472046FFF754FFBDE8AE
:10235000F0812046FFF74FFFC4F89050F7E7D4F81C
:102360006CC02027BCF1010F7ED15FEAC06C7BD529
:102370005FEAC16C78D5102018622068806840063A
:1023800051D5D4F880100A6850680004000C3ED083
:10239000B4F85C3083423AD9A4F85E00086800685B
:1023A00080062CD4216851E8000F20F4807041E8A9
:1023B0000002002AF6D12068083050E8001F21F002
:1023C000010140E80012002AF5D12068083050E8E9
:1023D000001F21F0400140E80012002AF5D1C4F8A6
:1023E0008C70E566216851E8000F20F0100041E88C
:1023F0000002002AF6D1D4F88000FEF720FC266700
:10240000B4F85C00B4F85E10401A81B207E0B4F88A
:102410005C1081429BD11068800698D526672046C3
:10242000FFF799FE93E7B4F85C00B4F85E10401A29
:1024300081B2B4F85E00002889D0002987D02268D4
:1024400052E8000F20F4907042E80003002BF6D110
:102450002D4BDB432068083050E8002F1A4040E83D
:10246000002CBCF1000F00E00EE0F3D1C4F88C703A
:10247000E5666567206850E8002F22F0100240E80A
:102480000023002BF6D1C9E7C60209D5560207D5AD
:102490004FF4801018622046BDE8F041FFF7AABE55
:1024A00003060AD501F0800302F40002134304D0AE
:1024B000A16F00297FF444AF49E7420611D54A06CF
:1024C0000FD52046016851E8002F22F0400241E874
:1024D0000023002BF6D1C0F88870856700F094F9CE
:1024E00035E7020206D54A0004D52046BDE8F04192
:1024F000FFF77FBEC00195D5002993DA2046BDE8DD
:10250000F041FFF729BE0000010000102001000487
:102510007D38000810B5040003D0D4F8880010B14D
:1025200007E0012010BD002084F88400204600F060
:1025300027F82420C4F888002068016821F00101F0
:102540000160A06A10B1204601F0DEF8204601F0DB
:1025500083FA0128E6D02068416821F49041416067
:102560002068816821F02A0181602068016841F0BB
:10257000010101602046BDE8104001F029B90000CA
:102580002DE9F04198B00646142111A8FDF778FE18
:1025900044216846FDF774FE34493068884261D1B1
:1025A00001200024CDE900046846FEF7FBFE08B1D7
:1025B000FEF743FB2E48016E41F480410166016E37
:1025C00001F480411691C16C41F00101C164C06CFD
:1025D00011A900F0010016904FF4C0601190022084
:1025E000CDE912040720CDE914404FF09040FEF7EA
:1025F000ADFC214D1F484FF0800828601820C5E928
:102600000104C5E903486C614FF48057AC61C5E92A
:1026100007472846FEF7E2FB08B1FEF70EFBC6F8B7
:102620008050AE62144D1348603528302860192060
:10263000686005F10801102081E811016C61AC614E
:10264000C5E907472846FEF7C9FB08B1FEF7F5FACA
:10265000F567002211462520AE62FEF70BFE25200D
:10266000FEF7FAFD18B0BDE8F08100000038014027
:102670000010024008000240C001002030B4D0F831
:102680008C30202B02D0022030BC7047A9B1A2B1FF
:102690000023C3660A4C0368A3420BD05B681B028D
:1026A00008D5046854E8003F43F0806344E80035EF
:1026B000002DF6D130BC01F009BB0120E4E7000099
:1026C00000800040704770472DE9F8430446D0F879
:1026D0008800984616460D46202802D00220BDE804
:1026E000F883A5B19EB10020C4F890002120C4F861
:1026F00088001834FEF758FDA6878146E68754F80F
:10270000100C2027183CB0F5805F02D003E00120B8
:10271000E5E7206910B12E46002510E000260EE006
:102720008021204601F026FBC0B9DEB116F8010B6E
:1027300021688862B4F85600401EA4F85600B4F828
:1027400056004B464FF00002CDF800800028E7D13C
:102750004FF04001204601F00DFB40B1C4F88870F5
:102760000320BCE735F8020BC0F30800E0E7C4F82B
:1027700088700020B3E7000070B50446D0F88800E8
:10278000202801D0022070BD39B332B32165A4F8EE
:102790005420A4F856200021C4F890102120C4F839
:1027A0008800E06FD8B1154BC362E36F144818631B
:1027B000E36F14485863E06F134681632068E56F48
:1027C00000F128022846216DFEF768FB38B1102081
:1027D000C4F890002020C4F88800012070BD216852
:1027E000402008622068083050E8001F41F0800156
:1027F00040E80012002AF5D1002070BD873900089A
:10280000C93900089138000807498A68904209D1FF
:102810008888CA881044C0F30800888000200870A7
:1028200005F040BD70470000240000207047FEE71F
:1028300010B5134C002210212046FEF7B0FC4FF0DB
:102840009040016821F440310160016841F4803119
:10285000016000224FF48071FEF7A1FC022004F019
:1028600057FC012210212046FEF799FC022004F0BB
:102870004FFC20460022BDE810401021FEF78FBC1F
:102880000008004870B586B014216846FDF7F8FCD2
:102890001948C16C41F00401C164C16C01F004012C
:1028A0000591C16C41F00101C164C06C134D00F091
:1028B000010005901020009011200190012002904D
:1028C0000220039069462846FEF740FB4FF48074CF
:1028D0004FF09046694630460094FEF737FB0122E0
:1028E00010212846FEF75BFC012221463046FEF708
:1028F00056FC06B070BD0000001002400008004801
:1029000010B5134C002210212046FEF748FC4FF072
:102910009040016821F440310160016841F4803148
:10292000016001221102FEF73AFC022004F0F0FBE4
:10293000012210212046FEF732FC022004F0E8FBC1
:1029400020460022BDE810401021FEF728BC000000
:10295000000800482DE9F04706464FF0904000245B
:10296000016821F440310160154F254680464FF43F
:102970008079002210213846FEF711FC022004F075
:10298000C7FB012210213846FEF709FC6006040E41
:1029900049464046FEF7FEFB08B1641CE4B2012044
:1029A00004F0B6FB6D1CEDB2082DE2D326B1FFF7A3
:1029B0003FFF2046BDE8F087FFF7A2FFF9E70000E0
:1029C000000800482DE9F0411D4614460F46064612
:1029D00000F06AF87006000E00F02AF800F0BCF86B
:1029E00080B9384600F024F800F0B6F850B900F08D
:1029F0005BF8012000EB4600C0B200F019F800F0CF
:102A0000ABF868B100F07CF80120BDE8F081012C42
:102A10000CD00120FFF79EFF641E05F8010BA4B245
:102A2000002CF4D100F06CF80020EEE70020F1E774
:102A30002DE9F0414FF090440646206820F44030E4
:102A40002060206840F480302060164F0022102162
:102A50003846FEF7A4FB00254FF48078300601D5F8
:102A6000012200E0002241462046FEF798FB700656
:102A7000060E022004F04CFB012210213846FEF71E
:102A80008EFB022004F044FB002210213846FEF7A2
:102A900086FB022004F03CFB6D1CEDB2082DDDD35B
:102AA000BDE8F0810008004870B54FF09044206800
:102AB00020F440302060206840F480302060012203
:102AC000150229462046FEF76AFB0C4E0122102112
:102AD0003046FEF764FB042004F01AFB002229466E
:102AE0002046FEF75CFB042004F012FB3046BDE8F4
:102AF000704000221021FEF752BB00000008004881
:102B000070B54FF09044206820F440302060206879
:102B100040F4803020600F4D002210212846FEF73F
:102B20003EFB4FF48076002231462046FEF737FB0D
:102B3000042004F0EDFA012210212846FEF72FFBB5
:102B4000012231462046FEF72AFBBDE870400420F2
:102B500004F0DEBA000800482DE9F0414FF090453E
:102B600000242968284621F44031296001221602F8
:102B70003146FEF714FB012004F0CAFA0F4F012280
:102B800010213846FEF70BFB012004F0C1FA08E0E3
:102B9000641CE4B2FA2C04D9FFF7B2FF0120BDE8AF
:102BA000F08131462846FEF7F5FA0028F0D10022E0
:102BB00010213846FEF7F3FA0020F0E7000800483D
:102BC0002DE9F0411C4615460F460646FFF76CFFFF
:102BD0007006000EFFF72CFFFFF7BEFF48B938461E
:102BE00002E000BF14F8010BFFF722FFFFF7B4FF6C
:102BF00020B1FFF785FF0120BDE8F0816D1EADB269
:102C0000F0D2FFF77DFF0020F6E7000010B50020AE
:102C100000F056FC0C48016821F440410160016855
:102C200041F480410160002000F054FC022004F0D7
:102C30006FFA012000F044FC022004F069FABDE8BC
:102C40001040002000F03CBC0004004870B516485D
:102C500086B0C16C41F00101C164C16C01F0010199
:102C60000591C16C41F00201C164C06C112400F0F7
:102C7000020005904FF40040012502268DE8710006
:102C800069464FF09040FEF761F980208DE87100B1
:102C900069460648FEF75AF9012000F01BFC0120A6
:102CA00000F00EFC06B070BD0010024000040048A9
:102CB00010B5002000F004FC0C48016821F44041EC
:102CC0000160016841F480410160012000F002FCD4
:102CD000022004F01DFA012000F0F2FB022004F0B3
:102CE00017FABDE81040002000F0EABB00040048DD
:102CF0002DE9F041064615480024016821F44041C1
:102D0000016001680160114F25461037002000F076
:102D1000D7FB022004F0FCF9012000F0D1FB600693
:102D2000040E3868000601D5641CE4B2012004F0EA
:102D3000EFF96D1CEDB2082DE8D326B1FFF766FF61
:102D40002046BDE8F081FFF7B3FFF9E70004004833
:102D50002DE9F0411D4614460F46064600F05CF88A
:102D60007006000E00F02AF800F096F820B100F08E
:102D700073F80120BDE8F081384600F01FF800F03C
:102D80008BF800F049F8012000EB4600C0B200F0DB
:102D900015F800F081F809E0012C0DD05FF001007A
:102DA000FFF7A6FF641E05F8010BA4B2002CF3D1B7
:102DB00000F052F80020DDE70020F1E770B505468D
:102DC0001448016821F440410160016841F48041E8
:102DD0000160002000F074FB0024280601D50120CA
:102DE00000E0002000F076FB6806050E022004F0EB
:102DF0008FF9012000F064FB022004F089F9002023
:102E000000F05EFB022004F083F9641CE4B2082C9D
:102E1000E3D370BD000400480E4810B5016821F4EA
:102E200040410160016841F480410160012000F0EF
:102E300051FB012000F044FB042004F069F900205C
:102E400000F048FB042004F063F9BDE810400020C6
:102E500000F036BB000400480E4810B5016821F4AC
:102E600040410160016841F480410160002000F0B0
:102E700027FB002000F02EFB042004F049F901207C
:102E800000F01EFB012000F025FBBDE810400420EF
:102E900004F03EB900040048134810B5016800244E
:102EA00021F44041016001680160012000F012FB43
:102EB000012004F02DF9012000F002FB012004F0B4
:102EC00027F90948103007E0641CE4B2FA2C03D952
:102ED000FFF7C2FF012010BD01680906F4D40020ED
:102EE00000F0EEFA002010BD000400482DE9F0418A
:102EF0001C4615460F460646FFF78EFF7006000E6D
:102F0000FFF75CFFFFF7C8FF20B1FFF7A5FF012027
:102F1000BDE8F081384601E014F8010BFFF74EFFE1
:102F2000FFF7BAFF6D1EADB2F6D2FFF795FF002096
:102F3000EEE700001CB537A00068019036A000F055
:102F40007FFF01213E4802F055FF040001D03DA063
:102F50000FE03B483A49B03801604349816043493A
:102F6000C16043490161B03002F00AFB040006D0A1
:102F700040A000F065FF204602F054FC1EE0022055
:102F80008DF800002E4B01226946682003F0D4F82A
:102F9000040001D03FA0ECE7294802F02BFB04001D
:102FA00001D044A008E0264A0820A2F1B00102F0B6
:102FB00057FB040004D048A000F042FF20461CBD8F
:102FC0001F4A032101A803F071F8040001D04CA0AE
:102FD000CFE71B4A0121042002F058FF040001D072
:102FE0004EA0C6E7164CB03C2179332905D054A039
:102FF00000F026FF6FF002001CBD5D490120087043
:103000005CA000F01DFF217962A000F019FF0020F4
:103010001CBD000000010200496E697469616C69A1
:103020007A696E6720494D55207769746820493266
:103030004320496E746572666163650A0000000092
:10304000480500204661696C656420746F20696ED4
:10305000697469616C697A652049324320696E74CC
:103060006572666163650A00155800081B58000800
:10307000115800084661696C656420746F20696EA0
:10308000697469616C697A6520424D493237300A4A
:10309000000000004661696C656420746F207365F0
:1030A000742070756C6C2D75702072657369737403
:1030B0006F720A004661696C656420746F20636FEB
:1030C0006E66696775726520616363656C20616E09
:1030D00064206779726F0A004661696C65642074C8
:1030E0006F20636F6E6669677572652061757869B8
:1030F0006C696172792073656E736F720A000000EB
:103100004661696C656420746F20656E61626C65F0
:103110002073656E736F72730A0000004661696CFC
:10312000656420746F206D61702064617461207229
:103130006561647920696E746572727570740A00D5
:103140000A496E76616C696420424D4D33353020FA
:1031500028417578292073656E736F72202D204386
:10316000686970204944203A20307825780A0000A8
:103170003A0000200A494D5520696E697469616CF6
:10318000697A6564207375636365737366756C6CC7
:10319000790A0000424D4932373020616E64204286
:1031A0004D4D3335302028436869702049443A201A
:1031B0003078257829206172652072656164790A0A
:1031C0000000000030B504462DED028B8FB02821A1
:1031D0006846FDF755F84C480078002868D0002C68
:1031E0006CD034212046FDF74BF84849684602F080
:1031F000B5FD00285ED19DF8240084F830009DF8CC
:103200002400424D000623D5BDF80000A084BDF87F
:103210000200E084BDF804002085297BBDF9000090
:10322000B0EE000A04F0BCF984ED000A297BBDF978
:103230000200B0EE000A04F0B3F984ED010A297B24
:10324000BDF90400B0EE000A04F0AAF984ED020A08
:103250009DF82400400625D5BDF80C006085BDF81A
:103260000E00A085BDF810009FED298AE085297B1E
:10327000BDF90C00B0EE480A04F060F984ED030AD1
:10328000297BBDF90E00B0EE480A04F057F984ED31
:10329000040A297BBDF91000B0EE480A04F04EF98B
:1032A00084ED050A1948B0380079332809D017E0B1
:1032B0006FF014000FB0BDEC028B30BD4FF0FF304B
:1032C000F8E712490AA8B03903F046F970B19FED4A
:1032D000110A84ED060A84ED070A00BF84ED080A8E
:1032E0009DF8240080090CD00020E3E79DED0A0A38
:1032F00084ED060A9DED0B0A84ED070A9DED0C0A8C
:10330000ECE70120D6E700003A0000204805002045
:103310000000FA4400000000154808B5816C41F037
:1033200004018164816C01F004010091816C41F021
:1033300001018164806C002200F0010000901146C0
:103340000B20FDF797FF0B20FDF786FF00221146AB
:103350000C20FDF78FFF0C20FDF77EFF00221146A9
:103360000D20FDF787FFBDE808400D20FDF774BF75
:103370000010024010B586B014216846FCF780FFAB
:103380001548C16C41F02001C164C16C01F02001FD
:103390000591C16C41F00401C164C16C01F00401EC
:1033A0000591C16C41F00101C164C06C0B4C00F08F
:1033B00001000590002240212046FDF7F0FE40204C
:1033C000009001200021CDE90101039169462046CA
:1033D000FDF7BCFD06B010BD00100240000800481B
:1033E00010B588B0002419480594069403940494F9
:1033F0000094019414490294016044F26721C0E9E9
:10340000011442F20F71C0E9031444618461FEF7B4
:10341000C0FC08B1FDF711FC4FF48050039003A9E4
:103420000A48FEF723FD08B1FDF707FC009401945C
:10343000694606480294FEF75DFC002801D0FDF7BE
:10344000FCFB08B010BD0000002C014080000020F3
:10345000184810B5164901604FF4E1314160002170
:1034600081600C22C160C0E904128161C161016206
:1034700041628162FFF74EF808B1FDF7DEFB0021E3
:103480000C48FEF790FE08B1FDF7D7FB0021094874
:10349000FEF763FE08B1FDF7D0FB0648FEF73CFEE1
:1034A000002803D0BDE81040FDF7C7BB10BD0000E9
:1034B000003801402C010020FEE7FEE7704770470E
:1034C0004FF400414FF0904208B191617047916212
:1034D00070470000802108B1024801E00148103027
:1034E0000160704718040048FDF764BE00B593B052
:1034F00038216846FCF7C4FE14210EA8FCF7C0FE74
:103500000020FDF7E9FE0220C10103914021049152
:103510000421CDE9080100905521CDE90A1007905A
:103520000C900D906846FEF7C9F908B172B6FEE737
:103530000F200E9003200F900020109011901290F9
:1035400004210EA8FEF772F8002801D072B6FEE73B
:1035500013B000BD0248016841F47001016070477A
:1035600088ED00E00148FEF702BD00008000002069
:103570002DE9F0430268264B264D274E274C4FF08D
:103580008049984207D0484505D0A84203D0B042B0
:1035900001D0A04203D122F070074A683A43204F7D
:1035A000DFF880C0DFF8808098420DD048450BD00E
:1035B000A84209D0B04207D0A04205D0B84203D0FB
:1035C000604501D0404503D122F44075CA682A43C2
:1035D0004D6922F080022A4302608A68C2620A684A
:1035E0008262984207D0A04205D0B84203D060451D
:1035F00001D0404501D1096901630121416101699F
:10360000C90703D0016921F001010161BDE8F08320
:10361000002C01400004004000080040003401403C
:1036200000400140004401400048014010B584685A
:1036300042EA032224F47F440A432243826010BDFD
:103640008268034B1A400A4342F0070181607047C9
:103650008FFFCFFF10B5036A046A24F001040462EF
:10366000846924F0F00444EA021423F00A020A43B5
:103670008461026210BD10B5036A046A24F010046C
:103680000462846923F0A00324F4704444EA023203
:1036900043EA01118261016210BD000010B50028EB
:1036A0000BD00246642305490548FFF70DF8BDE835
:1036B000104040210148FCF7E3BD10BD4000002050
:1036C0002C01002030B5416EB9B102689168926852
:1036D000C1F342610B4B520F9C5CE50003F10804FF
:1036E000A25CB5FBF2F2A0F86A205A5C615CD200E1
:1036F000B2FBF1F1A0F8681030BD0121A0F86A100A
:10370000F8E700009A86000890F82810090706D507
:1037100001684A68836B22F400421A434A6090F8B9
:103720002810C90706D001684A68C36A22F400322B
:103730001A434A6090F82810890706D501684A683C
:10374000036B22F480321A434A6090F8281049072C
:1037500006D501684A68436B22F480221A434A6006
:1037600090F82810C90606D501688A68C36B22F450
:1037700080521A438A6090F82810890606D501689D
:103780008A68036C22F400521A438A6090F8281069
:10379000490611D501684A68436C22F480121A4325
:1037A0004A60416CB1F5801F06D101684A68836C9C
:1037B00022F4C0021A434A6090F82810090606D580
:1037C00001684A68C06C22F4002202434A607047D4
:1037D0002DE9F84300260446C0F89060FDF7E4FCAC
:1037E0008046206800684FF0200500076FF07E4794
:1037F00013D54346002229042046009700F0BAFA68
:1038000058B1216851E8000F20F0800041E8000223
:10381000002AF6D1C4F8885021E0206800684007EB
:1038200022D5434600224FF480012046009700F045
:10383000A1FAC8B1216851E8000F20F4907041E866
:103840000002002AF6D12068083050E8001F21F05D
:10385000010140E80012002AF5D1C4F88C5084F828
:1038600084600320BDE8F883C4F88850C4F88C5005
:1038700044F86C6F666026760020F3E710B5806A26
:103880000021A0F85E10A0F85610FEF7B4FC10BDA1
:1038900070B5846AD4F88800D4F88C50216889689F
:1038A0004FF00006090606D5212804D1A4F8566079
:1038B000204600F0B9F820688068400606D5222D21
:1038C00004D1A4F85E60204600F084F8D4F890009B
:1038D00040F01000C4F890002046FEF78CFC70BD4C
:1038E00010B50146806A096809684FF00002890630
:1038F0002DD4A0F85E20036853E8001F21F48071E6
:1039000043E80014002CF6D10168083151E8003F6B
:1039100023F0010341E80034002CF5D1016808319F
:1039200051E8003F23F0400341E80034002CF5D17A
:103930002021C0F88C10C16E012908D1016851E81E
:10394000003F23F0100341E80034002CF6D1026759
:10395000C16E012902D0FEF7B5FE10BDB0F85C10B3
:10396000FEF7F9FB10BD10B5806A01210167C16E39
:10397000012902D0FEF7A7FE10BDB0F85C1049087F
:10398000FEF7E9FB10BD10B50146806A09680968B9
:10399000890616D40021A0F856100168083151E8B4
:1039A000002F22F0800241E80023002BF5D10268AD
:1039B00052E8001F41F0400142E80013002BF6D10D
:1039C00010BDFEF721FF10BD10B5806AFEF72EFF77
:1039D00010BD000010B5026852E8001F21F490717C
:1039E00042E80013002BF6D10E4B0268083252E871
:1039F000001F194042E80014002CF6D1C16E0129C5
:103A000008D1016851E8002F22F0100241E800239C
:103A1000002BF6D12021C0F88C100021C16641672F
:103A200010BD0000FEFFFFEF026852E8001F21F00A
:103A3000C00142E80013002BF6D10168083151E8BB
:103A4000002F22F4000241E80023002BF5D12021B1
:103A5000C0F88810704700002DE9F0410446016865
:103A600080682269E3691043626900251A431043A4
:103A7000DFF82CC20A688B4B1A4002430A602068A8
:103A80004168E26821F44051114341602168A06916
:103A9000614501D0226A10438A68834B1A40024371
:103AA0008A602068C16A626A21F00F011143C16215
:103AB0007E4923687E488B420DD1D0F8880010F0F3
:103AC000030006D0012855D0022842D003283FD158
:103AD00052E001203DE077498B420BD1D0F88800BD
:103AE00010F00C0035D0042833D0082840D00C2822
:103AF0002ED141E070498B420BD1D0F8880010F0F4
:103B0000300026D0102835D0202831D030281FD1C1
:103B100032E06A498B420BD1D0F8880010F0C00027
:103B200017D0402826D0802822D0C02810D123E0EA
:103B300063450DD1D0F8880010F4406009D0B0F58D
:103B4000806F17D0B0F5006F12D0B0F5406F13D072
:103B500010205B495B4F00264FF4004263453BD188
:103B600060B1022813D004280BD0082872D10DE0D0
:103B70000220EEE70420ECE70820EAE7FDF744FE28
:103B800001E0FDF765FE010001D17CE01146606AAD
:103B900037F810206768B1FBF2F007EB4703834268
:103BA00070D8B0EB073F6DD8002308461946FCF7E4
:103BB0002FFB090241EA10610202780810187141D6
:103BC0003A460023FCF724FB3F4AA0F5407191429E
:103BD00058D82168C86056E0E3694FF6EF78934201
:103BE0002CD109284ED2DFE800F00508114D0D4D0B
:103BF0004D4D1000FDF708FE01E0FDF717FE010036
:103C000004D140E0FDF724FEF9E71146606A37F879
:103C10001000B1FBF0F04100606801EB5001B1FB16
:103C2000F0F0A0F1100141452CD84FF6F0710140A1
:103C3000C0F3420001432068C16024E0092821D27A
:103C4000DFE800F0050912200E2020201100FDF70A
:103C5000DBFD02E016E0FDF7E9FD010004D112E012
:103C6000FDF7F6FDF9E71146606A37F81000B1FB81
:103C7000F0F1606801EB5001B1FBF0F0A0F1100130
:103C800041450AD901250120A4F86A0024F8680FEB
:103C90002846E6602661BDE8F08180B299E7000021
:103CA00000800040F369FFCFFFF4FF1100380140AE
:103CB000001002400044004000480040004C00401A
:103CC0000024F40082860008FFFC0F0070B58165B7
:103CD000A0F85C2000210446C0F890102220C4F80F
:103CE0008C00D4F88000F0B11F4BC362D4F8803050
:103CF0001E481863D4F880301D485863D4F88000FB
:103D000013468163A56D21682A462431D4F88000CA
:103D1000FDF7C4F838B11020C4F890002020C4F892
:103D20008C00012070BD206940B1216851E8000F6E
:103D300040F4807041E80002002AF6D12068083083
:103D400050E8001F41F0010140E80012002AF5D1BF
:103D50002068083050E8001F41F0400140E80012A0
:103D6000002AF5D1002070BDE1380008673900084D
:103D7000913800082DE9F047994617460D4604464C
:103D80004FF00008089E33E0701C31D0FDF70CFAAC
:103D9000A0EB0900B04218D8BEB1206801684907FD
:103DA00026D5802D24D0402D22D0C169C9430907D2
:103DB0000DD4082505622046FFF70CFEC4F890508C
:103DC00084F884800120BDE8F0870320FBE7C06908
:103DD000C04300050CD421684FF4006008622046FF
:103DE000FFF7F8FD2020C4F8900084F88480ECE709
:103DF0002068C06935EA000004D00020B842C3D072
:103E00000020E0E70120F9E710B50B48FEF7F4F9D0
:103E100009490868C269D243D2060CD41022026252
:103E2000D1F8800000684068BDE81040C0F1400053
:103E300080B2FFF733BC10BD2C010020FEE700006C
:103E40000FB4054B10B503A9044A029801F000F81D
:103E500010BC5DF814FB0000C971000830000020A0
:103E600003B401984100009850EAC12018BF042013
:103E70004A0D18BF40F0010040F2FF72B2EB515FF3
:103E800008BF40F00200012808BF052002B07047BB
:103E90000907090E002804DB00F1E02080F8001477
:103EA000704700F00F0000F1E02080F8141D70470B
:103EB0002DE9F04D2DED040B2DED0E8B96B0DDE9C7
:103EC0002550279CDDF890A025F0004624F00048FE
:103ED000BAF1000F14BF0121002101EB4502FC499A
:103EE00053184A1093422AD3002814BF01230023F9
:103EF00003EB44030B44F7498B4220D358EA0001FB
:103F00009FEDF59B76D0DFF8D8B35D4503D1BAF1CC
:103F1000000F05D188E0BAF1000F08BF002100D0E2
:103F2000012101EB450111F5001F08D8002814BF3D
:103F30000121002101EB440111F5001F0BD99DED7A
:103F4000261B9DED240B16B0BDEC0E8B04B0BDE816
:103F5000F04D00F069BE0027002DBCBFE149884547
:103F600021DAE1498845A8BF02271CDAC3451ADCDB
:103F7000DE4901EB2851142908DDC1F1340220FA91
:103F800002F101FA02F282420DD108E058B9C1F102
:103F9000140228FA02F101FA02F2424503D101F0BB
:103FA0000101C1F1020756EA0A0124D1002C22DAEC
:103FB000002D18BF022F01D0012F0AD0022000F0DF
:103FC0007FFE16B0BDEC0E8B04B0BDE8F04D00F0E6
:103FD00013BE022000F074FE00F00EFE51EC100B38
:103FE00081F0004141EC100B16B0BDEC0E8B04B01B
:103FF000BDE8F08D18E09FEDBEAB9FEDBF8B0028B4
:1040000071D1B848804522D105F1804010F580106B
:1040100008BFBAF1000F07D0B3450ADC002CA8BFD7
:104020009DED260BE0DA0DE0B0EE490AF0EE690AEC
:10403000DAE7002C06DA9DED260B51EC100B81F02F
:1040400000416FE0AE48784490ED000BCCE7D845D6
:104050004DD1002C48DA2EB186423AD1BAF1000F88
:1040600042D126E0BAF1000F13D0022000F028FE62
:1040700000F0F6FD8DED020B9DED240B8DED000B98
:1040800010EE900A039961F31E0003909DED020B60
:10409000AAE78DED02AB9DED240B1AEE901A10EEFF
:1040A000900A8DED000B61F31E0003909DED020B55
:1040B0009AE78DED028B9DED240B18EE901A10EE11
:1040C000900A8DED000B61F31E0003909DED020B35
:1040D0008AE709DA9DED240B51EC190B53EC102BF8
:1040E000FCF71AFB1EE020E09DED240B7CE78642E6
:1040F0001BDAB4F1804F0DD0A4F10050B0F1FF50A5
:1041000013D1002D11DB9DED240B51EC100B04F0AD
:1041100091F807E09DED240B53EC102B51EC100BA4
:1041200000F0C2BC41EC100B5EE79DED240B51EC9E
:10413000100B03F01CF8BAF1000FCDE90E0142D1CB
:104140009FED710B46B3A6F1E040B0F17F600CD05B
:104150005E4538D1002D00DAA7B3022F0CBF012035
:104160004FF0FF30FCF7B0F9DCE7002D01DD002C4B
:104170000DDA002D01DD002C1FDB002D16DA002CDE
:1041800014DB012F08BF9FED620B3FF42DAFB0EEA3
:104190004A0AF0EE6A0A27E7022F18BF002D0CD05A
:1041A000012F0AD1002DFFF61FAF06E0002DB8BF8A
:1041B000002C08DA012F3FF417AFB0EE480AF0EEFA
:1041C000680A11E71BE0012000EBE57050EA0701E7
:1041D00015D0791EB0EE498AF0EE698A084308BF0F
:1041E0009FED4D8B4E480025804570DD4D494E4872
:1041F000884514DDB0420DDB002C19DB2FE00120D7
:1042000000F05EFD16B0BDEC0E8B04B0BDE8F04DC5
:1042100000F016BDB34502DC002C09DC1FE086422D
:1042200002DA002C1BDA03E05E452BDD002C16DDE4
:10423000022000F045FD00F013FD8DED020B53EC64
:104240001A2B51EC180BFCF7CDF8CDE900010399BE
:10425000019861F31E0003909DED020BC4E602205D
:1042600000F02EFD00F00CFD10EE901A18EE900AF2
:104270008DED020B8DED008B61F31E0003909DED23
:10428000020BB1E69DED0E0B53EC192B51EC100B0C
:10429000FCF7A2F89FED260BCDE9080153EC102B9B
:1042A0009DED080B51EC100BFCF79CF89FED221BC9
:1042B00053EC112BFCF793F89DED081B53EC112BDD
:1042C000FCF790F89FED1E1B53EC112B3CE08CE0AB
:1042D000FFFF1F00FFFF0F00000000000000F03F85
:1042E0000000F03F0000F07F0000404301FCFFFFB2
:1042F000000000000000F07F00000000000000004F
:104300007667000000000000000000000000008050
:10431000000000000000F0FF000000000000F0BFFF
:104320000000E0410000F043FFFFEF3F000000000D
:10433000000000000000D03F555555555555D53F5C
:10434000000000000000E03FFCF749F89DED080B7D
:1043500041EC1A0B53EC102B51EC100BFCF742F80C
:1043600053EC1A2BFCF73EF841EC1A0B9FEDFE0BB9
:1043700053EC102B9DED080B51EC100BFCF732F8B1
:1043800041EC1B0B9FEDFA0B51EC1A0B53EC102B6D
:10439000FCF728F841EC1A0B9FEDF70B53EC102BB0
:1043A0009DED080B51EC100BFCF71CF853EC1A2B8D
:1043B000FCF712F841EC1A0B51EC1B0B53EC1A2BC7
:1043C000FBF769FF0690CDE906519DED060B53EC16
:1043D0001B2B51EC100BFBF7FFFF53EC1A2BFBF7D9
:1043E000FEFF41EC100B00F0A1B90020B6F5801FD4
:1043F0000EDA9FEDE30B53EC102B9DED0E0B51EC01
:10440000100BFBF7EFFFCDE90E016FF034000E4605
:1044100000EB2650A0F2FF37C6F31300DA4940F054
:104420007F6646F040568842D8BF002408DDD74951
:104430008142C8BF012403DC0024A6F580167F1C3E
:10444000D348784400EBC4000F9690ED00CB9DED6F
:104450000E0B53EC1C2B51EC100BFBF7BDFF9DED2D
:104460000E0B41EC1B0B53EC1C2B51EC100BFBF710
:1044700012FF41EC100B51EC190B53EC102BFCF715
:104480004BF941EC1D0B51EC1B0B53EC1D2BFBF7B7
:10449000A9FF41EC1A0BBF488DED10AB7844109585
:1044A00090ED000B4FF0005040EA660000EB8440B6
:1044B0008DED080B00F5002009909DED080B53ECE5
:1044C0001C2B51EC100BFBF787FF9DED0E1B53ECE3
:1044D000112BFBF784FF41EC100B53EC102B9DEDDF
:1044E000100B51EC100BFBF77DFF9DED080B41EC21
:1044F0001C0B53EC102B9DED100B51EC100BFBF72C
:1045000071FF53EC1B2BFBF76AFF53EC1C2BFBF7E3
:1045100063FF53EC1D2BFBF765FF41EC1C0B53ECC9
:104520001A2B51EC1A0BFBF75DFF41EC1B0B9A4861
:104530000621B0EE4B0AF0EE6B0A784400F0E0FA88
:10454000B0EE401AF0EE601AB0EE41DAF0EE61DA49
:1045500053EC1B2B51EC1B0BFBF744FF53EC1D2BB7
:10456000FBF740FF9DED100B41EC1B0B53EC1A2B9E
:1045700051EC100BFBF78FFE53EC1C2BFBF732FFBB
:1045800053EC1B2BFBF787FE9DED100B41EC1B0B37
:1045900053EC102B51EC100BFBF724FF41EC1D0BDF
:1045A0009FED7FEB53EC1E2BFBF775FE53EC1B2BA3
:1045B000FBF771FE0890CDE908519DED080B53EC17
:1045C0001E2B51EC100BFBF707FF53EC1D2BFBF7D9
:1045D00003FF53EC1B2BFBF702FF9DED080B41EC97
:1045E0001D0B53EC102B9DED100B51EC100BFBF73A
:1045F000F9FE41EC1B0B53EC1A2B51EC1D0BFBF796
:10460000F1FE9DED080B41EC1A0B53EC102B51EC15
:104610001C0BFBF7E7FE53EC1A2BFBF73CFE41ECBF
:104620001A0B51EC1B0B53EC1A2BFBF734FE0C90BE
:10463000CDE90C519DED0C0B53EC1B2B51EC100BE9
:10464000FBF7CAFE53EC1A2BFBF7C9FE41EC1B0B20
:104650009FED550B53EC102B9DED0C0B51EC100BFB
:10466000FBF7C0FE41EC1A0B9FED510B51EC1B0BFD
:1046700053EC102BFBF7B6FE41EC1B0B9FED4E0BE2
:1046800053EC102B9DED0C0B51EC100BFBF7AAFE1D
:1046900053EC1B2BFBF7FFFD41EC100B4848784413
:1046A00000EBC40090ED001B51EC100B53EC112BF0
:1046B000FBF7F1FD41EC1B0B3846FBF705FFCDE99D
:1046C000080153EC1B2B51EC1A0BFBF7E4FD41ECFA
:1046D000100B3C48784400EBC40090ED00CB51EC4B
:1046E000100B53EC1C2BFBF7D6FD9DED081B53EC78
:1046F000112BFBF7D0FD0690CDE906519DED080B7F
:1047000053EC102B9DED060B51EC100BFBF764FEE8
:1047100053EC1C2BFBF760FE53EC1A2BFBF75CFEF3
:1047200053EC1B2BFBF75BFE41EC100B9DED261BA6
:1047300053EC102B8DED001B00959DED260B51ECDD
:10474000100BFBF74FFE9DED000B41EC1A0B53ECE9
:10475000102B9DED260B51EC100BFBF73DFE9DED54
:10476000061B53EC112B2FE0000000604715F73FAC
:10477000FE822B654715F73F44DF5DF80BAE543ED4
:1047800000000000000040438E9803007AB60B0042
:10479000F2620000206300002A62000000000000B6
:1047A0000000000000000840000000E009C7EE3FE4
:1047B000FD033ADC09C7EE3FF5015B14E02F3EBE76
:1047C000B660000070600000FBF70CFE53EC1A2B83
:1047D000FBF761FD9DED060B41EC1A0B53EC102B22
:1047E0009DED000B51EC100BFBF7FCFDCDE90C012E
:1047F0009DED0C0B51EC1A0B53EC102BFBF74BFD02
:10480000CDE902010C46AA498C422FDB611A08430C
:1048100018D19DED0C0B53EC102B9DED020B51ECC0
:10482000100BFBF7D9FD41EC1B0B9FEDA30B51ECDB
:104830001A0B53EC102BFBF72EFD53EC1B2BFCF744
:1048400009F82DD2022000F03BFA00F009FA10EE30
:10485000901A18EE900A8DED020B8DED008B61F32E
:104860001E0003909DED020BFFF7BEBB944A24F09F
:104870000041914214D39349214408437FF4EFACA3
:104880009DED0C0B53EC102B9DED020B51EC100B1E
:10489000FBF7A2FD53EC1A2BFBF7DCFF7FF6DFAC36
:1048A00024F000408849894A002601EB20518242C9
:1048B0002BDA481C4FF4801121FA00F02044844A7E
:1048C000C0F30A517A44A1F2FF3192ED000B814A04
:1048D0008DED080BCA4020EA0202C0F3130040F439
:1048E0008010C1F1140120FA01F60992002CB8BF22
:1048F00076429DED080B53EC102B9DED0C0B51EC0B
:10490000100BFBF769FDCDE90C019DED0C0B51EC93
:104910001A0B53EC102BFBF7BEFC9FED6F0B0890AE
:10492000CDE9085153EC102B9DED080B51EC100B09
:10493000FBF758FD41EC1B0B9FED690B53EC102B63
:104940009DED080B51EC100BFBF74CFD9DED0C0B96
:1049500041EC1C0B53EC102B9DED080B51EC100B94
:10496000FBF73AFD53EC1A2BFBF739FD9FED5E1B6D
:1049700053EC112BFBF736FD53EC1C2BFBF78BFC98
:1049800041EC1A0B51EC1B0B53EC1A2BFBF783FC7D
:10499000CDE902019DED020B53EC1B2B51EC100BEA
:1049A000FBF71AFD53EC1A2BFBF719FD9DED020BDB
:1049B00041EC1A0B53EC102B51EC100BFBF712FDD2
:1049C000CDE908014A489DED080B0521784400F027
:1049D00097F89DED081B51EC100B53EC112BFBF7D6
:1049E00001FD9DED021B53EC112BFBF7F8FCCDE90B
:1049F00006019DED020B53EC1A2B51EC100BFBF74B
:104A0000F1FC53EC1A2BFBF746FC9FED3B0B41EC02
:104A10001A0B53EC102B9DED060B51EC100BFBF712
:104A2000DBFC9DED060B41EC1B0B53EC102B9DEDBD
:104A3000020B51EC100BFBF7D5FC53EC1B2BFBF7D7
:104A40006BFE53EC1A2BFBF7C7FC9DED021B53ECDE
:104A5000112BFBF7C1FC53EC192BFBF7C0FCCDE984
:104A6000020101EB065001150029C8BF039015DCB7
:104A70009DED020B324651EC100BFBF7BCFEFFF72D
:104A8000EFF9042808BF00F0FBF832469DED020B59
:104A900051EC100BFBF7AFFECDE902019DED020BCF
:104AA00051EC180B53EC102BFBF79CFCFFF73ABBB7
:104AB0000000904000000000FE822B654715973CE7
:104AC00000CC904000346F3F01FCFFFF0000E03F4E
:104AD000F85E0000FFFF0F0000000000432EE63FDD
:104AE000396CA80C615C20BEEF39FAFE422EE63F1D
:104AF000C85D000000000000000000000000004051
:104B000070B504462DED028B4D1E00EBC500B0EED6
:104B1000408AF0EE608A90ED000B35F0060017D069
:104B200053EC182B51EC100BFBF75CFC41EC100B19
:104B30006D1E04EBC50090ED001B51EC100B53EC07
:104B4000112BFBF7A8FB41EC100B35F00600E7D169
:104B5000022D36D0042D1CD0062D1CBFBDEC028BBF
:104B600070BD53EC182B51EC100BFBF73BFC94ED94
:104B70000A1B53EC112BFBF78EFB53EC182BFBF7A6
:104B800031FC94ED081B53EC112BFBF784FB41EC3B
:104B9000100B53EC182B51EC100BFBF723FC94ED8E
:104BA000061B53EC112BFBF776FB53EC182BFBF792
:104BB00019FC94ED040B53EC102BFBF76CFB41EC50
:104BC000100B53EC182B51EC100BFBF70BFC94ED76
:104BD000021B53EC112BFBF75EFB53EC182BFBF77E
:104BE00001FC94ED001B53EC112BFBF754FBBDECC7
:104BF000028B41EC100B70BD9FED070B10B553EC11
:104C0000102B9FED070B51EC100BFBF785FD41ECD2
:104C1000100B10BD000000000000000000000000AC
:104C2000000000000000F03F10B553EC112B51ECD8
:104C3000100BFBF730FB41EC100B10BD0000000027
:104C40009FED050B10B553EC102B51EC100BFBF73F
:104C500063FD41EC100B10BD0000000000000000DF
:104C60009FED050B10B553EC102B51EC100BFBF71F
:104C7000B9FB41EC100B10BD0000000000000070FB
:104C80009FED050B10B553EC102B51EC100BFBF7FF
:104C9000A9FB41EC100B10BD00000000000000104B
:104CA00002E008C8121F08C1002AFAD170477047F5
:104CB000002001E001C1121F002AFBD17047000053
:104CC00001490860704700003C0000202DE9FF5FAB
:104CD00082B00021DDE90430020DDDF840B003436D
:104CE00018D044F61050A2F2FF3242431514119826
:104CF00001281FD0A5EB0B00401C5FEA000A4FF013
:104D000000064E4FDFF83891B046504615D5CAF12F
:104D1000000413E0119801244AA3012801D16FEA8D
:104D20000B010298119AC0E90031C0E9024206B0B5
:104D3000BDE8F09FCBF10000DFE704460021404AC8
:104D4000491842EB0450CDE9001012E0E00707D00B
:104D500032463B4640464946FBF744FB804689467F
:104D600032463B4610461946FBF73CFB06460F46CB
:104D70006410002CEAD1DDE90401DDE90023BAF179
:104D8000000F06DAFBF72EFB42464B46FBF72AFBE9
:104D900005E0FBF7C1FC42464B46FBF7BDFC044671
:104DA0000E460022284BFBF755FD03D84FF0FF308D
:104DB000014607E00022254B20463146FBF76BFAFF
:104DC000FBF730FD102409E0002C0ADB0A22002347
:104DD000FBF71EFA039B30321A55641E50EA01029B
:104DE000F2D1641C039AC4F111031444119A012AEC
:104DF00003D0012208430DD10AE0084304D000206B
:104E00004FF0110B119072E7A3EB0B056D1E0DE037
:104E10005B4504DD4FF0000205F1010504E003DA13
:104E20004FF00002A5F10105002AECD0029811997B
:104E3000C0E90231C0E9004579E7000000001440F4
:104E40000000F03F300000000000F0430000E03FB1
:104E50002DE9FF4F95B09B468946064600250FE297
:104E6000252877D100242746F84A0121059400E03F
:104E7000044316F8013F203B01FA03F01042F7D13A
:104E800030782A2811D06FF02F033078A0F130024B
:104E9000092A16D8059A44F0020402EB820203EBB9
:104EA00042021044761C0590EFE759F8042B059256
:104EB000002A03DA504244F40054059044F00204FE
:104EC000761C30782E2816D116F8010F44F0040411
:104ED0002A280DD06FF02F023078A0F13003092B73
:104EE00009D807EB870302EB4303C718761CF3E7E7
:104EF00059F8047B761C30786C280FD006DC4C28DF
:104F000017D068280DD06A2814D104E0742810D076
:104F10007A280FD10DE044F400140AE044F4801420
:104F200001E044F440147278824202D104F5801406
:104F3000761C761C307866280BD013DC582877D086
:104F400009DC002875D04528F6D04628F4D047283B
:104F50001AD19DE118E0632835D0642879D06528FE
:104F600012D195E1702873D008DC6728F1D0692848
:104F70006FD06E280DD06F2806D1B5E073282CD0E5
:104F8000752875D0782874D05A46179990476D1CAB
:104F900075E1C4F30250022809D003280DD0D9F8D6
:104FA000001004280DD00D6009F1040967E1D9F85B
:104FB0000010EA17C1E90052F6E7D9F800100D8099
:104FC000F2E70D70F0E719F8041B8DF800100020CF
:104FD0008DF80100EA46012003E059F804AB4FF0D8
:104FE000FF3061074FF0000102D40DE008F101012C
:104FF0008846B9420FDA8045F8DB1AF80810002914
:10500000F4D108E008F1010188468142FADB1AF880
:1050100008100029F6D105985B46A0EB0807214649
:105020003846179A00F094FA284400EB080507E088
:105030004DE029E10DE01AF8010B5A461799904707
:10504000B8F10108F7D25B4621463846179A13E1BA
:1050500042E00A220092C4F302524FF0000A022AF0
:1050600008D059F804CB032A4FEAEC710AD00DE0BE
:1050700029E02AE009F1070121F00702F2E802C164
:10508000914609E00FFA8CFC4FEAEC71042A03D137
:105090004FFA8CFC4FEAEC71002907DA0A4600212E
:1050A000DCF1000C61EB02012D2202E0220504D5A7
:1050B0002B228DF80420012203E0E20701D02022F8
:1050C000F7E7904659E00A2102E010220DE0102196
:1050D0004FF0000A00910BE010224FF0000A44F05C
:1050E00004040827009203E008224FF0000A00920F
:1050F000C4F30252022A05D059F804CB0021032A36
:1051000008D009E009F1070121F00702F2E802C125
:10511000914605E01FFA8CFC042A01D10CF0FF0C2B
:105120004FF00008220728D5702806D0009B83F096
:10513000100353EA0A0305D00EE040228DF8042044
:10514000012208E05CEA010206D030228DF804203A
:105150008DF8050002229046009B83F0080353EA75
:105160000A030AD15CEA010201D1620705D53022A7
:105170008DF804204FF001087F1E582804D034A079
:1051800003900EA802900DE036A0F9E75346604662
:10519000009AFBF73DF884460398825C0298401E13
:1051A000029002705CEA0100F0D1029806A9081A88
:1051B00000F1200A600702D524F4803400E00127C2
:1051C000574502DDA7EB0A0000E0002000EB0A01D2
:1051D000009005984144401A0590E00306D45B46D0
:1051E0002146179A059800F0B3F90544002706E018
:1051F00001A85A46C05D179990476D1C7F1C474512
:10520000F6DBE0030CD55B462146179A059800F0C3
:105210009FF9054404E030205A46179990476D1CC9
:105220000099481E00900029F5DC08E002980299D8
:105230005A460078491C0291179990476D1CBAF1A3
:105240000001AAF1010AF1DC65E100000928010072
:1052500030313233343536373839616263646566EC
:1052600000000000303132333435363738394142AE
:10527000434445460000000000F058F90544761C00
:10528000307800287FF4ECAD19B02846BDE8F08FE7
:10529000620700D4062709F1070222F0070CFCE898
:1052A0000223E14603F000485FEA080C02D00FF247
:1052B000702C0DE05FEA045C02D50FF2682C07E069
:1052C0005FEAC47C02D00FF2602C01E0AFF2700CF8
:1052D0004FF0FF3823F00043CDF850C065280CD0C4
:1052E00006DC452809D046281DD047283DD13DE0A1
:1052F000662818D067287ED138E00021112F01DB05
:10530000112000E0781CCDE9000106A90EA8FFF7E6
:10531000DDFCDDE90F010E9A03910021009207F1F7
:10532000010A04914DE04FF000400097CDE90110D3
:1053300006A90EA8FFF7CAFCDDE90F0203920E9B37
:1053400011990022DDF80CA00093049211B9791C88
:1053500000EB010AB7EB0A0004D4C0F1FF3007F1FB
:10536000010A0490AAEB0700019044E0012F00DA43
:1053700001270021112F01DD112000E03846CDE981
:10538000000106A90EA8FFF7A1FCDDE90F010E9AA6
:105390000391002104910092BA4621070CD403998D
:1053A000514500DA8A46BAF1010F05DD009AAAF1EB
:1053B0000101515C302908D0B84202DA10F1040F23
:1053C00006DA0121CDE9011015E0AAF10101E9E7B2
:1053D000002805DC049901440491AAEB000102E0D5
:1053E000411C514500DD8A460499401A401C019039
:1053F0004FF000400290200704D40198504501DB93
:10540000CDF8048000208DF84F0002980DF14F0771
:10541000B0F1004F25D02B200E9002984FF00208DB
:1054200000280CDA404202902D200E9007E00A215D
:105430000298FBF796F83031029007F8011DB8F199
:105440000001A8F10108F2DC02980028EFD1791ED2
:105450000E980870307800F0200040F0450007F802
:10546000020D12A8C01B00F107081498007800B1C3
:10547000012000EB0A01019801EBE071059841441D
:10548000401A401E0590E00306D45B462146179A59
:10549000059800F05DF805441498007818B15A4654
:1054A000179990476D1CE00324D55B462146179A57
:1054B000059800F04DF805441CE00498002807DB2F
:1054C000DDE90301884203DD0098405C179901E0A3
:1054D000179930205A469047049805F10105401C61
:1054E00004900198401E019004D12E205A4617992D
:1054F00090476D1CBAF10001AAF1010ADDDC05E05C
:1055000017F8010B5A46179990476D1CB8F1000126
:10551000A8F10108F4DC5B462146179A0598ABE632
:105520002D0000002B000000200000002DE9F041BC
:10553000044600251E461746880404D405E0394673
:105540002020B0476D1C641EF9D52846BDE8F081C7
:105550002DE9F041044600251E469046C80301D5BA
:10556000302700E02027880404D505E0414638466E
:10557000B0476D1C641EF9D52846BDE8F0810000D7
:1055800010B5044602F014FA00282BD12420207014
:105590004FF40050A4F84A000320A4F84800607AB1
:1055A00020B10020E072606910B103E00120F9E74A
:1055B0000D486061204600F021FD002812D10B4803
:1055C0002062333060620820207611216176072145
:1055D000A1760749E16584F860002046BDE81040E7
:1055E00000F0BBBA10BD0000CA860008CAA60008B9
:1055F00010000020F0B59DB00746002501240246AA
:105600008DF800508DF838400221684600F01CFBF0
:10561000060004D000F006F930461DB0F0BD0820A9
:105620008DF806408DF805408DF804008DF83E4059
:105630008DF83D408DF807508DF83C008DF84150B5
:105640008DF840508DF83F403A460221684600F000
:10565000C1FD040001D000F0E5F82046DDE70000C0
:105660002DE9F04306468FB00220884691468DF81A
:1056700038000C2E32D2DFE806F0310606060606A8
:1056800008080A0C0E0E072506E0052504E004258F
:1056900002E0032500E002258DF8000001248DF8CA
:1056A000096014208DF804408DF80B008DF8064039
:1056B00003208DF805408DF808008DF80700312093
:1056C0008DF80C002146684600F084FD07000CD0E0
:1056D00000F0A8F838460FB0BDE8F083002129A0FB
:1056E000FEF7AEFB6FF01300F5E7002E2DD040461D
:1056F00001F074F8060005D0014630A000F0A0FECD
:105700003046E8E742460221284601F096F90500B6
:1057100002D001462CA009E0012243461146104662
:1057200000F068FE050004D001462EA000F088FEBF
:1057300026E04146012001F0BCF9050002D00146F7
:105740002DA0F3E78DF805401AE000208DF8040045
:105750008DF806008DF805404A460121684600F0A4
:1057600039FD040003D000F05DF82046B3E74A4657
:1057700001210EA800F07EFC050001D000F052F8D7
:105780002846A8E74572726F72203A20556E7375ED
:1057900070706F7274656420417578696C696172AC
:1057A00079204D61676E65746F6D65746572204F09
:1057B0004452203A2025750A00000000626D6D33C6
:1057C00035305F696E697400626D6D3335305F73BB
:1057D00065745F6F64725F706572666F726D616E23
:1057E00063650000626D6D3335305F656E61626CBC
:1057F000655F617865730000626D6D3335305F738E
:1058000065745F706F7765726D6F6465000000008E
:1058100001F07EBC92B200F0B3BB92B200F05DBD6D
:1058200001F076BC00F12201252976D2DFE801F0F3
:10583000716E6A7567757564615E5B5855524F4C41
:1058400049462543403D28753A372234312E2B1FD7
:105850001C1978131600014632A05CE0014638A0FE
:1058600059E001463F4856E001463F4853E00146B3
:105870003E4850E001463E484DE001463D484AE082
:1058800001463D4847E001463C4844E001463C486B
:1058900041E001463B483EE001463B483BE00146D3
:1058A0003A4838E001463A4835E00146394832E0A6
:1058B000014639482FE0014638482CE00146384877
:1058C00029E00146374826E00146374823E00146F3
:1058D000364820E0014636481DE0014635481AE0CA
:1058E0000146354817E00146344814E00146344883
:1058F00011E0014633480EE0014633480BE0014613
:10590000324808E00146324805E006E001463148E9
:1059100001E001463048FEF793BA01462FA0FAE7AE
:10592000704700005761726E696E67205B25645D89
:10593000203A204649464F20656D7074790D0A0063
:105940005761726E696E67205B25645D203A204660
:1059500049464F207061727469616C2072656164A0
:105960000D0A000030A8000814B20008D4AC0008EA
:10597000C8B0000834AD000818AB000898AB0008A8
:10598000C4A800085CAA000884A900081CB4000888
:105990004CB00008A8B3000874B6000860AC00085A
:1059A00020B3000804B5000874AF0008CCB50008A7
:1059B00074B50008A4AD0008F4AE0008A4B2000855
:1059C000B0B10008E0AF000820B6000878AE0008CB
:1059D00040B10008E8AD000898B400084572726F45
:1059E00072205B25645D203A20556E6B6E6F776E7A
:1059F000206572726F7220636F64650D0A0000008B
:105A0000F0B5044600231846557E11E0166A03EBF4
:105A10004307F65D8E4209D1106A03EB4301084447
:105A2000018821808078A0700120F0BD5B1CDBB272
:105A30009D42EBD8F0BD2DE9F7434FF00005144629
:105A40005FEA01094FF010064FF030082F4626D0CC
:105A50002CB3207E9DF80010884239D913460122CC
:105A600069462F2000F068FB00281AD1E089102831
:105A700027D2C10701D0401EE081E28909EB07016E
:105A8000B24223460FD8404600F09FF8A17BCA19C6
:105A9000D7B201EB080202F0FF08294408E04FF0FA
:105AA000FF30BDE8FE833246404600F08EF8A9196B
:105AB000CDB2C5F11001CEB20028F2D1002EDCD15A
:105AC000EFE7234610224946302000F07EF8E8E751
:105AD0006FF00900E5E72DE9F04706460F469146CD
