:020000040800F2
:10000000900B0020ED010008B3360008132A000809
:10001000B1360008110D000835400008000000004E
:10002000000000000000000000000000B7360008DB
:100030000D0E000800000000B5360008E13600088B
:10004000070200080702000807020008070200086C
:10005000070200080702000807020008070200085C
:10006000070200080702000807020008150D000833
:10007000210D00082D0D00080702000807020008E6
:10008000070200080000000007020008070200083D
:10009000070200080702000807020008070200081C
:1000A000070200085D370008070200080702000881
:1000B00007020008070200080702000807020008FC
:1000C00007020008070200080702000807020008EC
:1000D00007020008014000080702000807020008A4
:1000E00007020008070200080702000807020008CC
:1000F00007020008070200080702000800000000CD
:1001000000000000070200080000000007020008CD
:1001100007020008000000000702000807020008AC
:10012000070200080702000807020008070200088B
:10013000070200080000000000000000070200089D
:10014000070200080702000800000000000000008D
:10015000000000000000000000000000000000009F
:10016000000000000000000000000000070200087E
:10017000070200080000000000000000000000006E
:10018000000000000702000800000000000000005E
:10019000000000000000000000000000000000005F
:1001A000000000000000000007020008070200082D
:1001B000070200080702000807020008000000000C
:1001C000000000000702000800000000000000001E
:1001D0000702000807020008DFF80CD000F082FBDD
:1001E00000480047798F0008900B002006488047A0
:1001F00006480047FEE7FEE7FEE7FEE7FEE7FEE70C
:10020000FEE7FEE7FEE7FEE74D370008D9010008EC
:100210002DE9F05F0546002092469B46884606463B
:10022000814640241BE0284641464746224600F0CE
:10023000CFF953465A46C01A914110D31146184679
:10024000224600F0B6F92D1A67EB01084F46224608
:100250000120002100F0ADF917EB00094E41201EEE
:10026000A4F10104DFDC484631462A464346BDE896
:10027000F09F40EA01039B0703D009E008C9121F61
:1002800008C0042AFAD203E011F8013B00F8013B50
:10029000521EF9D27047D2B201E000F8012B491E7C
:1002A000FBD270470022F6E710B513460A46044613
:1002B0001946FFF7F0FF204610BD2DE9FE4F80469E
:1002C00081EA0300C00F0C46009021F0004123F0AA
:1002D0000045B8EB0200A94105D2404621469046B0
:1002E0001C460B46024623F00040104347D0270D22
:1002F000C7F30A00C3F30A510290401A0190402844
:100300006BDAC3F3130040F4801B0098924620B1CF
:100310000023D2EB030A63EB0B0B01985946C0F1A3
:100320004002504600F045F906460D4650465946F3
:10033000019A00F05DF910EB08006141002487EAA2
:10034000115284EAE7731A4340D0009A62B3019ACB
:10035000012A4FEA075215DC001B61EB02014FF046
:10036000004202EA0752CDE90042001C41F580112B
:1003700032462B4600F094F903B0BDE8F08F4046BA
:100380002146F9E7001B61EB0201001C41F58013D7
:1003900000185B412018A2F5001747EB030140EA63
:1003A000D570B6196D4111E06D084FEA360645EA81
:1003B000C0754FEA0752001B61EB0201001C41F5BA
:1003C000801149084FEA30000019514132462B464E
:1003D00003B0BDE8F04F00F054B90098012240008E
:1003E0000023D0EB020263EBE073009821464FEA52
:1003F000E074B8EB000061EB0401E9E783F000432F
:100400005BE781F0004158E72DE9FE4F81EA0304E4
:1004100004F0004421F0004100944FF0000B23F061
:10042000004350EA01045ED052EA03045BD0C3F3F8
:100430000A54C1F30A552C44A4F2F3340194A0FBEE
:100440000254C1F3130141F48011C3F3130343F4C5
:10045000801301FB024400FB034E840A970A44EA1E
:10046000815447EA8357A4FB076802958D0A05FB70
:1004700007854FEA932C04FB0C542705029D4FEA95
:10048000065847EA1637B5EB08056EEB070C870EE2
:10049000920E47EA811742EA8312A7FB0201B6EBEC
:1004A0000B0164EB00042B0D43EA0C335E1844EBA4
:1004B0001C50DA465146E7FB0201C5F313044FEA2C
:1004C0000B3343EA14534FEA0432019C43EA060318
:1004D000A4F10C040294009CCDE900B400F0E0F813
:1004E00003B0BDE8F08F00200146F9E70EB5C10F5B
:1004F00080EAE0700844CA07002140F233438DE8E7
:100500000E000A460B4600F0CBF803B000BD0EB556
:1005100040F2334102910021CDE900110A460B4619
:1005200000F0BEF803B000BD00F0004230F0004023
:100530000AD0C10D01F56071C0F3160042EA015105
:10054000C20840071143704700200146704701F080
:10055000004330B421F0004150EA010206D00A0DF8
:10056000A2F56072C1F31301002A02DC30BC002046
:100570007047440F44EAC104C100E01830BC00EBEE
:10058000C25000F047B830B50B460146002020228B
:10059000012409E021FA02F59D4205D303FA02F590
:1005A000491B04FA02F52844151EA2F10102F1DCF0
:1005B00030BD202A04DB203A00FA02F10020704707
:1005C0009140C2F1200320FA03F319439040704791
:1005D000202A04DB203A21FA02F00021704721FA98
:1005E00002F3D040C2F120029140084319467047FF
:1005F000202A06DBCB17203A41FA02F043EAE073E7
:1006000006E041FA02F3D040C2F1200291400843D3
:10061000194670470029A8BF7047401C490008BF11
:1006200020F00100704710B4B0FA80FC00FA0CF022
:1006300050EA010404BF10BC704749B1CCF120045A
:1006400021FA04F411FA0CF118BF012121430843E7
:10065000A3EB0C01CB1D4FEA00614FEA102042BF13
:10066000002010BC704700EBC35010440029A4BF09
:1006700010BC7047401C490008BF20F0010010BCAE
:10068000704710B5141E73F1000408DA401C41F1E4
:10069000000192185B411A4301D120F0010010BD06
:1006A0002DE9F04D92469B4611B1B1FA81F202E07C
:1006B000B0FA80F220329046FFF77BFF04460F46E7
:1006C00040EA0A0041EA0B0153465A46084313D058
:1006D000114653EA010019D0C8F140025046FFF715
:1006E00077FF05460E46504659464246FFF761FFE2
:1006F000084305D0012004E020463946BDE8F08DCE
:100700000020054346EAE0762C4337430A98630508
:10071000E40AA0EB08000022FD0A44EA47540A302C
:1007200002D500200146E9E7010510196941DDE91C
:10073000084500196941BDE8F04DA2E72DE9F04DEB
:1007400081EA030404F0004B21F0004514464FF009
:10075000000A23F0004150EA050220D054EA0102C9
:100760001DD0C5F30A570246C5F31303C1F31300A6
:10077000C1F30A5640F4801543F48013A7EB060832
:10078000101BD64608F2FD3873EB050002D308F1C2
:10079000010801E092185B41B8F1000F03DA002074
:1007A0000146BDE8F08D00204FF4801106468446D6
:1007B0000EE0171B73EB050705D3121B63EB050354
:1007C00006434CEA010C49084FEA300092185B419D
:1007D00050EA0107EDD152EA030012D082EA040088
:1007E00083EA0501084305D0101BAB4106D2012264
:1007F000002306E000224FF0004302E06FF0010208
:1008000053101AEB06004CEB085110EB0A0041EBB9
:100810000B01BDE8F04DFFF734BF70B521F0004388
:1008200003430CD0C1F30A550024D5EB040564EB57
:100830000403D617AD1AB34102DB0020014670BD98
:10084000201841EB025170BDC1F30A52C1F31301EC
:1008500040F2FF3341F480119A4202DA002001464F
:10086000704740F233439A42A2F2334202DC5242D2
:10087000FFF7AEBEFFF79DBE30B5041E71F1000458
:1008800004DB4FF00044404264EB0101141E73F19D
:10089000000405DB1C464FF00043524263EB0403A7
:1008A000994208BF904230BD002801DBC0F10040F2
:1008B000002901DBC1F10041814202D24FF000402A
:1008C00004E04FF0005001D14FF0C0404FEA2062E9
:1008D000EFF3008162F31F6181F30088704700200D
:1008E00070470000064C074D06E0E06840F0010349
:1008F00094E8070098471034AC42F6D3FFF770FC39
:1009000084EA0008A4EA00082DE9F04D00231A4605
:100910001B1A8A4103DB00200146BDE8F08DC1F3BC
:100920000A52C1F3130141F480154FF0000BD107B7
:1009300002D100186D41521E0027044640F2FF11FB
:10094000384601EB620A3E468046024600204FF4DC
:100950008011FFF73DFEC2197141BB1846EB010043
:10096000B4EB030C75EB000C04D3E41A65EB000543
:1009700017460E46241908F101006D4180463428BF
:10098000E3DDF91946EB0600091BA84103D24FF03D
:10099000FF32134601E0002213461BEB070046EB33
:1009A0000A51BDE8F04DFFF76CBE00002DE9FC4197
:1009B0001646DDE90824AB2727706070951DA170ED
:1009C000E6702271100AADB2607123B11AB11946F6
:1009D000A01DFFF74EFC00216E4601AB0A460846FB
:1009E00006E0275C401C3944C9B20A44D2B280B246
:1009F0002F46A842F5D331701A709DF8000060555B
:100A000061199DF804004870BD1CAAB264232146F8
:100A1000024801F04BFFBDE8FC810000EC01002022
:100A2000DFED191A00B520EE210A89B004A902AB46
:100A3000BDEEC00A032210EE100A20EEA10A8DF8C6
:100A40000800000A8DF80900BDEEC00A10EE100A79
:100A500021EE210A8DF80A00000A8DF80B00BDEE88
:100A6000C00A10EE100A8DF80C00000A8DF80D0077
:100A700001208DF80E000720CDE90001FE21DD20C8
:100A8000FFF794FF09B000BD0000C842DFED232A44
:100A900000B520EE220A8BB005A902ABBDEEC00A5C
:100AA000F12210EE100A20EEA20A8DF80800000ACA
:100AB0008DF80900BDEEC00A10EE100A21EE220AE0
:100AC0008DF80A00000A8DF80B00BDEEC00A10EE8A
:100AD000100A21EEA20A8DF80C00000A8DF80D0014
:100AE000BDEEC00A10EE100A22EE220A8DF80E00AA
:100AF000000A8DF80F00BDEEC00A10EE100A8DF846
:100B00001000000A8DF811000A20CDE90001FE2135
:100B1000DD20FFF74BFF0BB000BD00000000C84216
:100B20002DE9F0412AA003F087FA01F09DFF2E4C39
:100B300001252E486575A0602D48E0602D48206194
:100B40002D486060204607F09BFA2B4F7F1E48B16E
:100B500047207870204607F093FA060002D001463D
:100B600026A009E00A2007F0F5FD1F4807F0AEF9BE
:100B7000060006D001462BA003F05EFA3046BDE821
:100B8000F08121782FA003F057FA1B480321401C65
:100B900001700421417085701421C170124907F061
:100BA000D7F9040002D0014631A007E00E49012028
:100BB00007F005FA040005D0014634A003F03CFA22
:100BC0002046DCE73D703AA003F036FA0020D6E775
:100BD0000A2D2D2D20424D50353830204472697633
:100BE0006572202D2D2D0A0040050020917C000803
:100BF000AB7C00088D7C00085D000020424D503524
:100C0000383020736F667420726573657420666176
:100C1000696C65642E204572726F723A2025640AF1
:100C200000000000424D5035383020696E69742054
:100C30006661696C65642E204572726F723A202578
:100C4000640A0000424D5035383020696E697420C6
:100C50007375636365737366756C2E204368697082
:100C60002049443A203078253032580A00000000EC
:100C7000536574204F5352206661696C65642E2061
:100C80004572726F723A2025640A00005365742021
:100C9000706F776572206D6F6465206661696C6541
:100CA000642E204572726F723A2025640A0000009B
:100CB000424D5035383020696E697469616C697ACB
:100CC0006174696F6E20636F6D706C6574652E0A58
:100CD000000000007CB505460B480C46007880B14A
:100CE00009490A4A891C684607F0B0F8002807D16C
:100CF0009DED010A85ED000A9DED000A84ED000AD4
:100D00007CBD6FF002007CBD5C000020400500202F
:100D1000FEE70000014800F0EDB80000800200206E
:100D2000014800F0E7B800008C010020014800F005
:100D3000E1B80000E00200200D4902688A4201D2B9
:100D40000C4901E00B492031D2B21423083AB2FB1E
:100D5000F3F2436C02F01F0223F003031944816491
:100D600004498031C1640121914001657047000050
:100D700008040240000802400179074A02EB8102A0
:100D80004265054A4432491E826501F01F02012175
:100D90009140C16570470000FC08024030B5D0E9C1
:100DA00013456560446D14B1D0E91645656090F84F
:100DB000444004F01F050124AC40056C6C600468DD
:100DC00063608368102B036803D099600068C26079
:100DD00030BD9A600068C16030BD000009480168FC
:100DE00041F080710160084800214160016841F0D4
:100DF000010101600068C00701D000207047012098
:100E000070470000FCED00E0001000E0704772B693
:100E1000FEE710B590F8253000210122022B03D007
:100E20000421C163012122E003681C6824F00E0440
:100E30001C60836C1C6824F480741C6003681C684C
:100E400024F001041C6090F84430046C03F01F038C
:100E500002FA03F36360D0E913345C60436D33B18D
:100E60001C6824F480741C60D0E916345C6080F83F
:100E70002520002280F82420084610BD70B590F887
:100E80002520002401212346022A07D00422C26320
:100E900080F8251080F82430012429E002681568C4
:100EA00025F00E0515600268156825F0010515602E
:100EB000826C156825F48075156090F84420056CE7
:100EC00002F01F0201FA02F26A60D0E913255560B0
:100ED000426D32B1156825F480751560D0E916258C
:100EE000556080F8251080F82430816B01B1884767
:100EF000204670BDF0B4016C0C6801680D6890F874
:100F0000442002F01F06042202FA06F3234211D005
:100F10006B070FD50B689B0603D40B6823F0040303
:100F20000B6090F8441001F01F018A40016C4A6088
:100F3000016B1DE0022303FA06F727424FF0000C75
:100F40004FF0010218D0AF0716D50C68A40605D4DF
:100F50000C6824F00A040C6080F8252090F84410F6
:100F600001F01F018B40016C4B6080F824C0C16A06
:100F700000291AD0F0BC08470823B340234214D0FC
:100F80002B0712D50B6823F00E030B6090F844106A
:100F9000036C01F01F0102FA01F15960C26380F88D
:100FA000252080F824C0416BE2E7F0BC70470000C8
:100FB00070B504000CD02B4A21681420914209D24C
:100FC000294A0A44B2FBF0F08000606427480AE036
:100FD000012070BD234A52420A44B2FBF0F0800067
:100FE0006064204808382064022084F825000A68DC
:100FF00047F6F0708243D4E902031843D4E904357C
:101000002B431843A3691843E3691843236A184321
:10101000104308602046FFF78FFEA0680025B0F55A
:10102000804F00D16560A16C20790860D4E913017C
:1010300041606068401E032808D82046FFF79CFEE8
:10104000606D0560D4E91601416002E06565A56543
:10105000E565E563012084F8250084F8245000202C
:1010600070BD000008040240F8FFFDBF0000024010
:1010700070B5044690F82400002501280CD001200A
:1010800084F8240094F825600020012E06D084F80E
:1010900024000225284670BD022070BD022684F877
:1010A0002560E0632068066826F001060660204699
:1010B000FFF774FE206B00282068016802D041F021
:1010C0000E0106E021F0040101602068016841F092
:1010D0000A010160A06C0168C90303D5016841F4ED
:1010E00080710160606D18B1016841F48071016028
:1010F0002068016841F001010160CBE770B504464A
:1011000000F044F90546601C02D0044840680444DD
:1011100000F03CF9401BA042FAD370BD280000202B
:101120002DE9F04FDFF82092002301260324A9F1D6
:10113000040B85B00F2709F1040AABF1040EFAE0A5
:1011400006FA03F52A407CD091F804C00CF0030C99
:10115000BCF1010F02D0BCF1020F26D1D0F808C0BB
:10116000CDF800C04FEA430C04FA0CF8CDF810C0DB
:10117000DDF800C02CEA080CCDF800C0D1F80C80D6
:10118000DDF810C008FA0CF8DDF800C048EA0C08D9
:10119000C0F80880D0F804C02CEA050C0D79C5F31E
:1011A00000159D4045EA0C0545600D79ED43AD07FE
:1011B0000ED0C5684FEA430804FA08FC25EA0C057E
:1011C000D1F808C00CFA08FC4CEA050CC0F80CC0B9
:1011D0000D7905F00305022D16D1DD0800EB850C15
:1011E000CDF808C0DCF820805D074FEAD56C07FA1F
:1011F0000CF528EA05080D6905FA0CF5DDF808C0BC
:1012000045EA0805CCF8205005684FEA430CCDF8B4
:1012100008C004FA0CFC25EA0C0591F804C00CF097
:101220000308DDF808C008FA0CF848EA0508C0F819
:1012300000804D6815F4403F7CD0444DD5F860C027
:1012400000E077E04CF0010CC5F860C02D6E23F093
:10125000030C05F0010500953D4D65440295AD6810
:101260004FEA837C4FEA1C7807FA08FC25EA0C0554
:10127000B0F1904F06D0DFF8DCC0604505D14FF0EB
:10128000010C20E04FF0000C1DE0DFF8CCC0604501
:1012900002D14FF0020C16E0DFF8C0C0604502D169
:1012A0004FF0030C0FE0DFF8B8C0604502D14FF0FB
:1012B000040C08E0DFF8ACC0604502D14FF0050C2B
:1012C00001E04FF0060C0CFA08FC4CEA050C029DFC
:1012D000C5F808C0D9F80050CC46D1F80480954331
:1012E0005FEAC82800D51543CCF80050DAF8005062
:1012F000D446D1F8048095435FEA882800D5154389
:10130000CCF80050DBF80050DC46D1F8048095435F
:101310005FEA883800D51543CCF80050DEF800505D
:10132000F446D1F8048095435FEAC83800D51543E8
:10133000CCF800505B1C0A6832FA03F57FF400AF6A
:1013400005B0BDE8F08F0000080401400010024025
:10135000000001400004004800080048000C00485C
:1013600000100048001400480069084000D0012027
:101370007047426921EA02030A4043EA024181615F
:1013800070470AB181617047816270470148806887
:10139000704700002800002002488168426811441C
:1013A000816070472800002010B50024032000F061
:1013B00073F80F2000F008F808B1012401E000F0F4
:1013C00025F8204610BD000070B50E4E05460024DD
:1013D000706898B14FF47A71B1FBF0F00A4909686E
:1013E000B1FBF0F000F05EFD40B9102D06D20022F6
:1013F0002946501E00F030F8356000E001242046F8
:1014000070BD000028000020340000200A4882B08F
:10141000016E41F001010166016E01F001010091D0
:10142000816D41F080518165806D00F080500090A9
:1014300002B000F0A1B8000000100240002809DB53
:1014400000F01F02012191404009800000F1E020DE
:10145000C0F8001170470000F0B40E4B1B680C463A
:10146000C3F30223C3F10705042D00D90425191D78
:10147000072901D2002300E0DB1E012606FA05F150
:10148000491E214099409E40761E16403143F0BCD3
:1014900002F021BE0CED00E0064900F007020868EA
:1014A0004FF6FF03184040EA0220034A1043086049
:1014B000704700000CED00E00000FA052B492C4BB2
:1014C0000A6832214A432B4940B1B0F5007F0868D1
:1014D00029D020F4C06040F480602CE00868C0F39C
:1014E0004120022804D051F8800F20F4807022E0BF
:1014F000D1F8800020F48070C1F88000086820F4E2
:10150000C06040F400700860B2FBF3F0401C00E0E3
:10151000401E4A69520501D50028F9D148694005A5
:101520000AD503207047C0F34120022806D051F8A5
:10153000800F40F48070086000207047D1F8800070
:1015400040F48070C1F88000086820F4C06040F466
:1015500000700860B2FBF3F0401C00E0401E4A69D6
:101560005205DBD50028F9D1D8E70000340000206F
:1015700040420F00007000400248816841F4804101
:1015800081607047007000402DE9F8430446006810
:1015900000269D4D00035ED5A86D0027C00008D42D
:1015A000A86D40F08050A865A86D012700F080501C
:1015B0000090DFF85892D9F8001041F48071C9F812
:1015C0000010FFF7E3FE804606E000BFFFF7DEFEF7
:1015D000A0EB080002282BD8D9F80000C005F5D5EB
:1015E000D5F8900010F4407014D0216C814211D0D5
:1015F000D5F89000D5F8901020F4407041F4803177
:10160000C5F89010D5F8901021F48031C5F89010ED
:10161000C5F89000C00711D0FFF7B8FE804641F230
:10162000883907E0FFF7B2FEA0EB0801494501D970
:1016300003260BE0D5F890008007F3D5D5F890008D
:10164000216C20F440700843C5F890001FB1A86DCC
:1016500020F08050A8652078C00707D0D5F8880012
:10166000616820F003000843C5F8880020788007EF
:1016700007D5D5F88800A16820F00C000843C5F80C
:1016800088002078400707D5D5F88800E16820F069
:1016900030000843C5F888002078000707D5D5F842
:1016A0008800216920F0C0000843C5F88800207830
:1016B000800607D5D5F88800616920F440600843AA
:1016C000C5F888002078400607D5D5F88800A169BC
:1016D00020F440500843C5F888002078000607D55C
:1016E000D5F88800E16920F440400843C5F8880037
:1016F0002088C00507D5D5F88800216A20F440303D
:101700000843C5F888002088800507D5D5F88800EB
:10171000616A20F440200843C5F88800208840050D
:101720000FD5D5F88800A16A20F440100843C5F809
:101730008800A06AB0F5801F03D1E86840F48010EB
:10174000E860208800050FD5D5F88800E16A20F40C
:1017500040000843C5F88800E06AB0F5800F03D167
:10176000E86840F48010E8602088C0040FD5D5F800
:101770008800216B20F040700843C5F88800206B7A
:10178000B0F1807F03D1E86840F48010E8602088E1
:101790004FF0006180040ED5D5F88800626B20F010
:1017A00040601043C5F88800606B884203D1E86848
:1017B00040F48010E860208840040ED5D5F88800F9
:1017C000A26B20F040601043C5F88800A06B8842EF
:1017D00003D1E86840F48010E860208800040FD549
:1017E000D5F88800E16B20F040500843C5F8880028
:1017F000E06BB0F1805F03D1E86840F48030E860CE
:101800003046BDE8F8830000001002400070004040
:101810002DE9F0470E4605004FF0000725D0DFF810
:10182000AC81D8F8000000F00F00B0420CD2D8F81C
:10183000001021F00F013143C8F80010D8F8000063
:1018400000F00F00B04210D12968614CC80741F286
:10185000883A5AD06868DFF87C91032808D00228BB
:1018600020682DD0400500282CDB0120BDE8F08742
:1018700020688001F9D5E06800F00302E068C0F359
:101880000310401C032A19D0534A00BFB2FBF0F0EA
:10189000E268C2F306225043E268C2F34162521C7E
:1018A0005200B0FBF2F0484517D9A06810F0F00FD5
:1018B0000CD0880711D5A86840B10EE0474AE5E78B
:1018C0008003D0E700F0B6F8484506D9A06820F0BC
:1018D000F00040F08000A0608027A068696820F0D8
:1018E00003000843A060FFF751FD814606E000BFFA
:1018F000FFF74CFDA0EB090151453AD8A068696893
:1019000000F00C00B0EB810FF2D12868810714D5EC
:10191000400703D5A06840F4E060A0602878000785
:1019200005D5A06820F4605040F4E060A060A06895
:10193000A96820F0F000084304E0802F03D1A068DC
:1019400020F0F000A060D8F80010404601F00F0130
:10195000B14216D9016821F00F0131430160FFF750
:1019600015FD074607E000BFFFF710FDC11B5145FD
:1019700001D903207AE7D8F8000000F00F00B04248
:10198000F2D12878400705D5A068E96820F4E06026
:101990000843A0602878000706D5A068296920F4CC
:1019A000605040EAC100A06000F044F8A1680C4A11
:1019B000C1F30311515C01F01F01C84009490860DF
:1019C00009480068BDE8F047FFF7FEBC0020024070
:1019D0000010024000B4C4040024F40000127A0095
:1019E0001AB70008340000202800002005480649E6
:1019F00000688968054AC1F30221515C01F01F01AA
:101A0000C840704734000020001002402AB7000888
:101A10000548064900688968054AC1F3C221515C3E
:101A200001F01F01C8407047340000200010024040
:101A30002AB70008184910B58868C0F38102174812
:101A4000012A0BD08A684310C2F38102022A06D011
:101A50008A68C2F38102032A03D0002010BD184611
:101A600010BDCA6802F00304CA68C2F30312521C14
:101A7000032C02D0B0FBF2F001E0B3FBF2F0CA6835
:101A8000C968C2F306225043C1F34161491C4900B1
:101A9000B0FBF1F010BD0000001002400024F40083
:101AA0002DE9F84304007AD02078F84DC00747D0DC
:101AB000A868E96800F00C0001F003010C2802D0CE
:101AC000082817D001E0032914D06068B0F5803FE2
:101AD00017D0B0F5A02F286817D020F480302860E8
:101AE000286820F4802028606068E0B1FFF74EFC91
:101AF000064614E02868800322D560680028D2D00A
:101B00001EE0286840F48030EDE740F48020286033
:101B1000F7E700BFFFF73AFC801B642870D82868FD
:101B20008003F7D50CE0FFF731FC064605E000BF67
:101B3000FFF72CFC801B6428F0D828688003F7D4BA
:101B4000207880074CD5A868E96800F00C0001F007
:101B500003010C2802D004280DD001E002290AD08C
:101B6000E068002828682BD040F480702860FFF7D8
:101B70000DFC064619E02868400502D5E0680028FB
:101B800091D06868217C20F0FE4040EA01606860E6
:101B9000BF480068FFF718FC002800D120E072E180
:101BA000FFF7F4FB801B0228B8D828684005F7D55A
:101BB0006868217C20F0FE4040EA016068600FE028
:101BC00020F480702860FFF7E1FB064605E000BFC7
:101BD000FFF7DCFB801B0228A0D828684005F7D45B
:101BE0002078000729D560690028D5F8940013D023
:101BF00040F00100C5F89400FFF7C8FB064606E078
:101C000090E000BFFFF7C2FB801B022886D8D5F802
:101C100094008007F6D510E020F00100C5F894008C
:101C2000FFF7B4FB064604E0FFF7B0FB801B022879
:101C300078D8D5F894008007F6D42078400761D58D
:101C4000A86D0026C00008D4A86D40F08050A8659B
:101C5000A86D012600F0805000908E480168C905EB
:101C600011D40168804641F480710160FFF78EFB5A
:101C7000074604E0FFF78AFBC01B022852D8D8F8B9
:101C80000000C005F6D5A068012815D00528D5F8B4
:101C9000900016D020F00100C5F89000D5F8900013
:101CA00020F00400C5F89000A06841F28838B8B16F
:101CB000FFF76CFB07460EE0D5F8900040F00100FE
:101CC000F0E740F00400C5F89000F5E7FFF75EFB91
:101CD000C11B414526D8D5F890008007F6D50CE009
:101CE000FFF754FB074604E0FFF750FBC11B4145DB
:101CF00018D8D5F890008007F6D41EB1A86D20F052
:101D00008050A8652078800629D5A0690028D5F8DC
:101D1000980013D040F00100C5F89800FFF736FB9B
:101D2000064606E075E000BFFFF730FB801B022887
:101D30006FD8D5F898008007F6D510E020F00100A4
:101D4000C5F89800FFF722FB064604E0FFF71EFBEC
:101D5000801B02285DD8D5F898008007F6D4E0698A
:101D6000F0B3A968C1F3810103295DD00228286876
:101D700020F08070286003D0FFF708FB04464BE09A
:101D8000FFF704FB064604E0FFF700FB801B022878
:101D90003FD828688001F7D4F4E908016FF00F02FA
:101DA00002EB01110843218A5204490802EB415118
:101DB000A26841EA02210843217D4FF07E42490892
:101DC00002EB41610843217B40EAC160E968324A85
:101DD00011400843E860286840F08070286000E007
:101DE0005EE0E86840F08070E860FFF7CFFA0446F4
:101DF00005E000BFFFF7CAFA001B022809D82868CF
:101E00008001F7D54CE000BFFFF7C0FA001B0228A5
:101E100002D90320BDE8F88328688001F4D4E8687B
:101E20001E490840E8603BE00128F3D0E868226AD8
:101E300000F00301914226D1616A00F0F00209012D
:101E4000103991421FD1A26A00F4FE41B1EB022F7A
:101E500019D194F82C2000F07841B1EBC26F12D167
:101E6000218E00F4C00249084905A1F500119142F4
:101E700009D194F8341000F0C06049084906A1F176
:101E8000007181420CD00120C4E700000010024024
:101E900028000020007000400C809F01FCFFEEFE37
:101EA0000020B7E710B5401EB0F1807F01D30120BC
:101EB00010BD4FF0E02460610F21601702F00BF9B4
:101EC0000020A06107202061002010BD70477047EE
:101ED0007047704770477047F0B590F83C20012A72
:101EE0003AD0012580F83C50022280F83D2003685A
:101EF0005A689C68194E1A4FB34201D0BB4204D1B4
:101F000022F4700C4A6842EA0C02DFF858C002EA78
:101F10000C02D1F800C04CEA020CC3F804C00268FD
:101F2000B2420DD0B2F1804F0AD00F4B9A4207D087
:101F30000E4B9A4204D0BA4202D00D4B9A4204D1C1
:101F4000896824F080031943916080F83D50002196
:101F500080F83C100846F0BD0220F0BD002C014086
:101F6000003401408FFFFFFD0004004000080040E6
:101F700000400140704710B5040003D094F83D00C4
:101F800010B107E0012010BD002084F83C0020467D
:101F900000F022F8022084F83D00211D206801F0A5
:101FA000E3FB012084F8480084F83E0084F83F00F9
:101FB00084F8400084F8410084F8420084F843002B
:101FC00084F8440084F8450084F8460084F847000B
:101FD00084F83D00002010BD38B50546006818495A
:101FE00088422BD11748016E41F400610166006EF2
:101FF000164C00F400600090134820602E206060B2
:1020000000208021A060C4E90301490061618900CA
:10201000C4E90610880020622046FEF7C9FF08B117
:10202000FEF7F5FE2C62002211461920A562FFF78B
:1020300013FABDE838401920FFF700BA38BD000098
:10204000002C0140001002401C0002408C010020C6
:1020500070B5044690F83C000025012814D00126F4
:1020600084F83C60022084F83D0022689068364B7A
:10207000184020F47F409060086870282ED010DC53
:1020800010F00F0F03D021E04FF0020070BD4FEAB7
:102090002012072A1AD2DFE802F0525252524A386E
:1020A00040002A4BC21A984249D009DCB0F5805F43
:1020B0000DD0B0F5005F1CD0B0F1101F06D13EE08E
:1020C000102A3CD0202A3AD0502A38D0012584F852
:1020D0003D60002084F83C00284670BDCB68D1E903
:1020E0000121206801F09EFB2068816841F07701A2
:1020F00009E0CB68D1E90121206801F093FB206859
:10210000816841F480418160E1E7CA6849682068DC
:1021100001F09CFB5021206806E0CA6849682068ED
:1021200001F0A5FB6021206801F086FBCFE7CA68BB
:102130004968206801F08AFB40212068F4E72268A2
:1021400001461046F0E7000088FFCEFF2000100097
:1021500070472DE9F04104460068C66805694FF0F4
:102160000007A90713D5B10711D5F91E0161012098
:102170002077206880698007204602D0FFF7E8FFBB
:1021800004E000F0B7F8204600F0B5F827776807BC
:1021900016D5700714D521686FF00400086102207D
:1021A00020772068806910F4407F204602D0FFF736
:1021B000CFFF04E000F09EF8204600F09CF827775F
:1021C000280715D5300713D521686FF0080008617E
:1021D000042020772068C0698007204602D0FFF7DE
:1021E000B7FF04E000F086F8204600F084F8277777
:1021F000E80616D5F00614D521686FF010000861C6
:10220000082020772068C06910F4407F204602D063
:10221000FFF79EFF04E000F06DF8204600F06BF839
:102220002777E80708D0F00706D021686FF0010093
:102230000861204600F060F8280601D4A80408D5FB
:10224000300606D521686FF4025008612046FFF77A
:102250003EFEE80508D5300606D521686FF480708B
:1022600008612046FFF732FE680608D5700606D5DD
:1022700021686FF040000861204600F03EF8A80693
:1022800008D5B00606D521686FF020000861204609
:10229000FFF71EFEE80208D5F00206D521686FF4AC
:1022A000801008612046FFF715FEA80208D5B0028D
:1022B00006D521686FF4001008612046FFF709FE7B
:1022C000680208D5700206D521686FF480000861A5
:1022D0002046FFF700FE28020AD5300208D5216803
:1022E0006FF4000008612046BDE8F041FFF742BEF0
:1022F000BDE8F081704770477047704790F88410D0
:10230000012918D0012180F884102421C0F88810F8
:1023100001680A680B6823F001030B6022F000518A
:1023200000224266036819602021C0F8881080F8F6
:10233000842010467047022070477047704770B580
:10234000044690F8840001281DD0012084F8840000
:102350002420C4F8880020680568026822F0010281
:1023600002602068826822F060620A438260204630
:1023700001F0A4FA206805602020C4F8880000203D
:1023800084F8840070BD022070BD70B5044690F8DA
:10239000840001281DD0012084F884002420C4F882
:1023A000880020680568026822F001020260206847
:1023B000826822F060420A438260204601F07EFA81
:1023C000206805602020C4F88800002084F884007C
:1023D00070BD022070BD7047704770472DE9F04115
:1023E00003680446D86919689A6840F60F052842C0
:1023F0004FF000054FF002060AD187067ED501F0A6
:10240000200702F0805C57EA0C0777D0616F42E149
:10241000B64FDFF8DCC2174001EA0C0C57EA0C0C8F
:102420006CD05FEAC07C0CD05FEAC15C09D54FF08C
:10243000010CC3F820C0D4F8903043F00103C4F875
:102440009030830709D5D30707D023681E62D4F8DC
:10245000903043F00403C4F8903043070AD5D30703
:1024600008D0266804233362D4F8903043F0020386
:10247000C4F8903003070CD501F020033B4308D08B
:10248000266808233362D4F8903043F00803C4F878
:10249000903003050BD54B0109D526684FF4006336
:1024A0003362D4F8903043F02003C4F89030D4F86D
:1024B0009030002B3DD0800609D501F0200002F0BD
:1024C0008051084303D0616F09B120468847D4F892
:1024D000900021688968490602D410F0280F2AD09C
:1024E000204601F073FB2068806840061ED52068F6
:1024F000083050E8001F21F0400100E021E040E8F2
:102500000012002AF3D1D4F8800078B179498163B0
:10251000D4F88000FEF7B2FC00280AD0D4F880007E
:10252000816B00E02046BDE8F04108472046FFF7F8
:1025300054FFBDE8F0812046FFF74FFFC4F89050EC
:10254000F7E7D4F86CC02027BCF1010F7ED15FEA19
:10255000C06C7BD55FEAC16C78D51020186220680A
:102560008068400651D5D4F880100A68506800048D
:10257000000C3ED0B4F85C3083423AD9A4F85E0037
:102580000868006880062CD4216851E8000F20F408
:10259000807041E80002002AF6D12068083050E837
:1025A000001F21F0010140E80012002AF5D1206847
:1025B000083050E8001F21F0400140E80012002AD6
:1025C000F5D1C4F88C70E566216851E8000F20F061
:1025D000100041E80002002AF6D1D4F88000FEF78E
:1025E00018FC2667B4F85C00B4F85E10401A81B29B
:1025F00007E0B4F85C1081429BD11068800698D542
:1026000026672046FFF799FE93E7B4F85C00B4F81C
:102610005E10401A81B2B4F85E00002889D000290B
:1026200087D0226852E8000F20F4907042E800033F
:10263000002BF6D12D4BDB432068083050E8002FEB
:102640001A4040E8002CBCF1000F00E00EE0F3D18E
:10265000C4F88C70E5666567206850E8002F22F0AA
:10266000100240E80023002BF6D1C9E7C60209D5C5
:10267000560207D54FF4801018622046BDE8F0419D
:10268000FFF7AABE03060AD501F0800302F4000298
:10269000134304D0A16F00297FF444AF49E74206F9
:1026A00011D54A060FD52046016851E8002F22F0C7
:1026B000400241E80023002BF6D1C0F888708567FE
:1026C00000F094F935E7020206D54A0004D5204609
:1026D000BDE8F041FFF77FBEC00195D5002993DA30
:1026E0002046BDE8F041FFF729BE000001000010C0
:1026F00020010004753A000810B5040003D0D4F896
:10270000880010B107E0012010BD002084F884008B
:10271000204600F027F82420C4F8880020680168CB
:1027200021F001010160A06A10B1204601F0E8F833
:10273000204601F08DFA0128E6D02068416821F496
:10274000904141602068816821F02A018160206801
:10275000016841F0010101602046BDE8104001F030
:1027600033B900002DE9F04198B00646142111A8B4
:10277000FDF798FD44216846FDF794FD3449306823
:10278000884261D101200024CDE900046846FEF7AB
:10279000FBFE08B1FEF73BFB2E48016E41F4804181
:1027A0000166016E01F480411691C16C41F0010196
:1027B000C164C06C11A900F0010016904FF4C06014
:1027C00011900220CDE912040720CDE914404FF00A
:1027D0009040FEF7A5FC214D1F484FF0800828606F
:1027E0001820C5E90104C5E903486C614FF480571E
:1027F000AC61C5E907472846FEF7DAFB08B1FEF7EA
:1028000006FBC6F88050AE62144D13486035283080
:1028100028601920686005F10801102081E8110185
:102820006C61AC61C5E907472846FEF7C1FB08B1FA
:10283000FEF7EDFAF567002211462520AE62FEF79D
:102840000BFE2520FEF7FAFD18B0BDE8F081000070
:1028500000380140001002400800024080020020C1
:1028600030B4D0F88C30202B02D0022030BC70471E
:10287000A9B1A2B10023C3660A4C0368A3420BD0DE
:102880005B681B0208D5046854E8003F43F080638E
:1028900044E80035002DF6D130BC01F013BB012017
:1028A000E4E7000000800040704770472DE9F843DE
:1028B0000446D0F88800984616460D46202802D0D7
:1028C0000220BDE8F883A5B19EB10020C4F89000B5
:1028D0002120C4F888001834FEF758FDA6878146E9
:1028E000E68754F8100C2027183CB0F5805F02D022
:1028F00003E00120E5E7206910B12E46002510E035
:1029000000260EE08021204601F030FBC0B9DEB188
:1029100016F8010B21688862B4F85600401EA4F82E
:102920005600B4F856004B464FF00002CDF8008038
:102930000028E7D14FF04001204601F017FB40B1DD
:10294000C4F888700320BCE735F8020BC0F3080018
:10295000E0E7C4F888700020B3E7000070B50446D3
:10296000D0F88800202801D0022070BD39B332B3DE
:102970002165A4F85420A4F856200021C4F8901032
:102980002120C4F88800E06FD8B1154BC362E36F13
:1029900014481863E36F14485863E06F134681636B
:1029A0002068E56F00F128022846216DFEF760FBE4
:1029B00038B11020C4F890002020C4F8880001200D
:1029C00070BD2168402008622068083050E8001F70
:1029D00041F0800140E80012002AF5D1002070BDCE
:1029E0007F3B0008C13B0008893A000807498A6814
:1029F000904209D18888CA881044C0F308008880B2
:102A00000020087008F01CBC704700004C0000203B
:102A10007047FEE710B5134C002210212046FEF748
:102A2000B0FC4FF09040016821F440310160016832
:102A300041F48031016000224FF48071FEF7A1FC67
:102A4000022005F093FE012210212046FEF799FC9A
:102A5000022005F08BFE20460022BDE81040102128
:102A6000FEF78FBC0008004870B586B01421684698
:102A7000FDF718FC1948C16C41F00401C164C16C38
:102A800001F004010591C16C41F00101C164C06C09
:102A9000134D00F0010005901020009011200190CE
:102AA000012002900220039069462846FEF738FB79
:102AB0004FF480744FF09046694630460094FEF71C
:102AC0002FFB012210212846FEF75BFC0122214644
:102AD0003046FEF756FC06B070BD00000010024004
:102AE0000008004810B5134C002210212046FEF7C4
:102AF00048FC4FF09040016821F4403101600168CA
:102B000041F48031016001221102FEF73AFC0220FB
:102B100005F02CFE012210212046FEF732FC022097
:102B200005F024FE20460022BDE810401021FEF7EB
:102B300028BC0000000800482DE9F04706464FF089
:102B400090400024016821F440310160154F254672
:102B500080464FF48079002210213846FEF711FCA0
:102B6000022005F003FE012210213846FEF709FC81
:102B70006006040E49464046FEF7F6FB08B1641CA9
:102B8000E4B2012005F0F2FD6D1CEDB2082DE2D398
:102B900026B1FFF73FFF2046BDE8F087FFF7A2FF11
:102BA000F9E70000000800482DE9F0411D461446F1
:102BB0000F46064600F06AF87006000E00F02AF88C
:102BC00000F0BCF880B9384600F024F800F0B6F800
:102BD00050B900F05BF8012000EB4600C0B200F0F5
:102BE00019F800F0ABF868B100F07CF80120BDE8FE
:102BF000F081012C0CD00120FFF79EFF641E05F828
:102C0000010BA4B2002CF4D100F06CF80020EEE728
:102C10000020F1E72DE9F0414FF09044064620688E
:102C200020F440302060206840F480302060164F4F
:102C3000002210213846FEF7A4FB00254FF48078CF
:102C4000300601D5012200E0002241462046FEF771
:102C500098FB7006060E022005F088FD0122102167
:102C60003846FEF78EFB022005F080FD0022102181
:102C70003846FEF786FB022005F078FD6D1CEDB2AC
:102C8000082DDDD3BDE8F0810008004870B54FF095
:102C90009044206820F440302060206840F4803068
:102CA00020600122150229462046FEF76AFB0C4EE1
:102CB000012210213046FEF764FB042005F056FD8A
:102CC000002229462046FEF75CFB042005F04EFD5D
:102CD0003046BDE8704000221021FEF752BB0000D4
:102CE0000008004870B54FF09044206820F4403050
:102CF0002060206840F4803020600F4D00221021B9
:102D00002846FEF73EFB4FF48076002231462046EF
:102D1000FEF737FB042005F029FD0122102128468B
:102D2000FEF72FFB012231462046FEF72AFBBDE8C5
:102D30007040042005F01ABD000800482DE9F0415C
:102D40004FF0904500242968284621F4403129603D
:102D5000012216023146FEF714FB012005F006FDA4
:102D60000F4F012210213846FEF70BFB012005F022
:102D7000FDFC08E0641CE4B2FA2C04D9FFF7B2FFB2
:102D80000120BDE8F08131462846FEF7EDFA002823
:102D9000F0D1002210213846FEF7F3FA0020F0E7C8
:102DA000000800482DE9F0411C4615460F4606462E
:102DB000FFF76CFF7006000EFFF72CFFFFF7BEFF5A
:102DC00048B9384602E000BF14F8010BFFF722FFB4
:102DD000FFF7B4FF20B1FFF785FF0120BDE8F081C8
:102DE0006D1EADB2F0D2FFF77DFF0020F6E70000C8
:102DF00010B5002000F060FC0C48016821F440414F
:102E00000160016841F480410160002000F05EFC37
:102E1000022005F0ABFC012000F04EFC022005F082
:102E2000A5FCBDE81040002000F046BC00040048AE
:102E300070B5164886B0C16C41F00101C164C16C27
:102E400001F001010591C16C41F00201C164C06C47
:102E5000112400F0020005904FF4004001250226E5
:102E60008DE8710069464FF09040FEF759F98020D7
:102E70008DE8710069460648FEF752F9012000F01E
:102E800025FC012000F018FC06B070BD00100240C7
:102E90000004004810B5002000F00EFC0C4801684A
:102EA00021F440410160016841F48041016001204A
:102EB00000F00CFC022005F059FC012000F0FCFBA6
:102EC000022005F053FCBDE81040002000F0F4BBE8
:102ED000000400482DE9F041064615480024016829
:102EE00021F44041016001680160114F254610370F
:102EF000002000F0E1FB022005F038FC012000F08A
:102F0000DBFB6006040E3868000601D5641CE4B2E1
:102F1000012005F02BFC6D1CEDB2082DE8D326B185
:102F2000FFF766FF2046BDE8F081FFF7B3FFF9E742
:102F3000000400482DE9F0411D4614460F460646A0
:102F400000F05CF87006000E00F02AF800F096F829
:102F500020B100F073F80120BDE8F081384600F0A0
:102F60001FF800F08BF800F049F8012000EB460054
:102F7000C0B200F015F800F081F809E0012C0DD086
:102F80005FF00100FFF7A6FF641E05F8010BA4B275
:102F9000002CF3D100F052F80020DDE70020F1E72B
:102FA00070B505461448016821F44041016001688C
:102FB00041F480410160002000F07EFB00242806DF
:102FC00001D5012000E0002000F080FB6806050E1E
:102FD000022005F0CBFB012000F06EFB022005F083
:102FE000C5FB002000F068FB022005F0BFFB641C5D
:102FF000E4B2082CE3D370BD000400480E4810B5BD
:10300000016821F440410160016841F480410160A0
:10301000012000F05BFB012000F04EFB042005F0D6
:10302000A5FB002000F052FB042005F09FFBBDE84B
:103030001040002000F040BB000400480E4810B5CE
:10304000016821F440410160016841F48041016060
:10305000002000F031FB002000F038FB042005F0D8
:1030600085FB012000F028FB012000F02FFBBDE8CC
:103070001040042005F07ABB00040048134810B546
:103080000168002421F440410160016801600120D1
:1030900000F01CFB012005F069FB012000F00CFB97
:1030A000012005F063FB0948103007E0641CE4B21E
:1030B000FA2C03D9FFF7C2FF012010BD01680906F1
:1030C000F4D4002000F0F8FA002010BD00040048FD
:1030D0002DE9F0411C4615460F460646FFF78EFFC8
:1030E0007006000EFFF75CFFFFF7C8FF20B1FFF787
:1030F000A5FF0120BDE8F081384601E014F8010B7E
:10310000FFF74EFFFFF7BAFF6D1EADB2F6D2FFF725
:1031100095FF0020EEE700001CB537A00068019085
:1031200036A000F089FF01213E4803F001FF0400B2
:1031300001D03DA00FE03B483A49B0380160434917
:1031400081604349C16043490161B03003F0B6FA80
:10315000040006D040A000F06FFF204603F000FC02
:103160001EE002208DF800002E4B012269466820E7
:1031700004F080F8040001D03FA0ECE7294803F0F8
:10318000D7FA040001D044A008E0264A0820A2F1A2
:10319000B00103F003FB040004D048A000F04CFF92
:1031A00020461CBD1F4A032101A804F01DF804009D
:1031B00001D04CA0CFE71B4A0121042003F004FFFB
:1031C000040001D04EA0C6E7164CB03C217933294B
:1031D00005D054A000F030FF6FF002001CBD5D4927
:1031E000012008705CA000F027FF217962A000F0A8
:1031F00023FF00201CBD000000010200496E69741D
:1032000069616C697A696E6720494D5520776974E8
:10321000682049324320496E746572666163650AAD
:1032200000000000080600204661696C6564207497
:103230006F20696E697469616C697A6520493243EF
:1032400020696E746572666163650A0051690008E1
:10325000576900084D6900084661696C656420740F
:103260006F20696E697469616C697A6520424D49A5
:103270003237300A000000004661696C65642074D2
:103280006F207365742070756C6C2D75702072657D
:10329000736973746F720A004661696C65642074A7
:1032A0006F20636F6E666967757265206163636521
:1032B0006C20616E64206779726F0A004661696CE8
:1032C000656420746F20636F6E6669677572652030
:1032D000617578696C696172792073656E736F725C
:1032E0000A0000004661696C656420746F20656E99
:1032F00061626C652073656E736F72730A00000003
:103300004661696C656420746F206D617020646132
:10331000746120726561647920696E74657272757A
:1033200070740A000A496E76616C696420424D4DE2
:103330003335302028417578292073656E736F729C
:10334000202D2043686970204944203A2030782598
:10335000780A0000620000200A494D5520696E6914
:103360007469616C697A65642073756363657373EE
:1033700066756C6C790A0000424D49323730206125
:103380006E6420424D4D33353020284368697020EB
:1033900049443A2030782578292061726520726589
:1033A0006164790A0000000030B504462DED028BFF
:1033B0008FB028216846FCF775FF4C48007800283C
:1033C00068D0002C6CD034212046FCF76BFF4849B4
:1033D000684603F061FD00285ED19DF8240084F862
:1033E00030009DF82400424D000623D5BDF80000B2
:1033F000A084BDF80200E084BDF804002085297B8C
:10340000BDF90000B0EE000A05F07EFD84ED000A73
:10341000297BBDF90200B0EE000A05F075FD84EDD0
:10342000010A297BBDF90400B0EE000A05F06CFD2D
:1034300084ED020A9DF82400400625D5BDF80C0055
:103440006085BDF80E00A085BDF810009FED298AAB
:10345000E085297BBDF90C00B0EE480A05F022FD9D
:1034600084ED030A297BBDF90E00B0EE480A05F091
:1034700019FD84ED040A297BBDF91000B0EE480A5D
:1034800005F010FD84ED050A1948B038007933289D
:1034900009D017E06FF014000FB0BDEC028B30BD07
:1034A0004FF0FF30F8E712490AA8B03904F0F2F8FB
:1034B00070B19FED110A84ED060A84ED070A00BF82
:1034C00084ED080A9DF8240080090CD00020E3E771
:1034D0009DED0A0A84ED060A9DED0B0A84ED070AAC
:1034E0009DED0C0AECE70120D6E700006200002009
:1034F000080600200000FA4400000000154808B546
:10350000816C41F004018164816C01F0040100913F
:10351000816C41F001018164806C002200F00100A7
:10352000009011460B20FDF797FF0B20FDF786FF5B
:10353000002211460C20FDF78FFF0C20FDF77EFFC7
:10354000002211460D20FDF787FFBDE808400D2041
:10355000FDF774BF0010024030B587B014216846F3
:10356000FCF7A0FE1A48C16C41F00401C164C16CB3
:1035700001F004010591C16C41F02001C164C16CEE
:1035800001F020010591C16C41F00101C164C06CE2
:10359000104D00F001000590002240212846FDF763
:1035A000F0FE4FF400500024CDE900040220029008
:1035B00069462846FDF7B4FD402000900120CDE982
:1035C0000104694628460394FDF7AAFD07B030BD03
:1035D000001002400008004810B588B000241948C7
:1035E000059406940394049400940194144902945D
:1035F000016044F26721C0E9011442F20F71C0E991
:10360000031444618461FEF7B6FC08B1FDF7FFFBCB
:103610004FF48050039003A90A48FEF719FD08B142
:10362000FDF7F5FB00940194694606480294FEF705
:1036300053FC002801D0FDF7EAFB08B010BD0000E4
:10364000002C014040010020184810B516490160C7
:103650004FF4E1314160002181600C22C160C0E97A
:1036600004128161C161016241628162FFF744F825
:1036700008B1FDF7CCFB00210C48FEF786FE08B12F
:10368000FDF7C5FB00210948FEF759FE08B1FDF71B
:10369000BEFB0648FEF732FE002803D0BDE810400E
:1036A000FDF7B5BB10BD000000380140EC01002063
:1036B000FEE7FEE7704770474FF400414FF090423D
:1036C00008B191617047916270470000802108B194
:1036D000024801E0014810300160704718040048BA
:1036E000FDF75ABE00B593B038216846FCF7DAFD05
:1036F00014210EA8FCF7D6FD0020FDF7DFFE022006
:10370000C1010391402104910421CDE908010090F9
:103710005521CDE90A1007900C900D906846FEF7F0
:10372000BFF908B172B6FEE70F200E9003200F908C
:10373000002010901190129004210EA8FEF768F856
:10374000002801D072B6FEE713B000BD0248016840
:1037500041F470010160704788ED00E00148FEF718
:10376000F8BC0000400100202DE9F0430268264B20
:10377000264D274E274C4FF08049984207D04845A8
:1037800005D0A84203D0B04201D0A04203D122F01C
:1037900070074A683A43204FDFF880C0DFF8808026
:1037A00098420DD048450BD0A84209D0B04207D06E
:1037B000A04205D0B84203D0604501D0404503D1B6
:1037C00022F44075CA682A434D6922F080022A43D8
:1037D00002608A68C2620A688262984207D0A04288
:1037E00005D0B84203D0604501D0404501D10969F8
:1037F0000163012141610169C90703D0016921F019
:1038000001010161BDE8F083002C0140000400408B
:1038100000080040003401400040014000440140E5
:103820000048014010B5846842EA032224F47F4432
:103830000A432243826010BD8268034B1A400A4348
:1038400042F00701816070478FFFCFFF10B5036A18
:10385000046A24F001040462846924F0F00444EA58
:10386000021423F00A020A438461026210BD10B5FB
:10387000036A046A24F010040462846923F0A0033C
:1038800024F4704444EA023243EA01118261016285
:1038900010BD000010B500280BD002466423054976
:1038A0000548FFF703F8BDE8104040210148FCF748
:1038B000F9BC10BD00010020EC01002030B5416EC4
:1038C000B9B1026891689268C1F342610B4B520F23
:1038D0009C5CE50003F10804A25CB5FBF2F2A0F8E1
:1038E0006A205A5C615CD200B2FBF1F1A0F868106A
:1038F00030BD0121A0F86A10F8E700000AB70008FF
:1039000090F82810090706D501684A68836B22F4ED
:1039100000421A434A6090F82810C90706D001688F
:103920004A68C36A22F400321A434A6090F82810A9
:10393000890706D501684A68036B22F480321A436E
:103940004A6090F82810490706D501684A68436B19
:1039500022F480221A434A6090F82810C90606D53E
:1039600001688A68C36B22F480521A438A6090F817
:103970002810890606D501688A68036C22F4005273
:103980001A438A6090F82810490611D501684A68E0
:10399000436C22F480121A434A60416CB1F5801FD7
:1039A00006D101684A68836C22F4C0021A434A6057
:1039B00090F82810090606D501684A68C06C22F400
:1039C000002202434A6070472DE9F843002604466E
:1039D000C0F89060FDF7DAFC8046206800684FF080
:1039E000200500076FF07E4713D5434600222904C7
:1039F0002046009700F0BAFA58B1216851E8000F4C
:103A000020F0800041E80002002AF6D1C4F8885076
:103A100021E020680068400722D5434600224FF489
:103A200080012046009700F0A1FAC8B1216851E852
:103A3000000F20F4907041E80002002AF6D12068BF
:103A4000083050E8001F21F0010140E80012002A70
:103A5000F5D1C4F88C5084F884600320BDE8F88365
:103A6000C4F88850C4F88C5044F86C6F66602676B1
:103A70000020F3E710B5806A0021A0F85E10A0F8DE
:103A80005610FEF7AAFC10BD70B5846AD4F8880001
:103A9000D4F88C50216889684FF00006090606D5D5
:103AA000212804D1A4F85660204600F0B9F8206817
:103AB0008068400606D5222D04D1A4F85E60204619
:103AC00000F084F8D4F8900040F01000C4F89000A2
:103AD0002046FEF782FC70BD10B50146806A096879
:103AE00009684FF0000289062DD4A0F85E20036813
:103AF00053E8001F21F4807143E80014002CF6D134
:103B00000168083151E8003F23F0010341E8003427
:103B1000002CF5D10168083151E8003F23F0400343
:103B200041E80034002CF5D12021C0F88C10C16E82
:103B3000012908D1016851E8003F23F0100341E852
:103B40000034002CF6D10267C16E012902D0FEF7C5
:103B5000ABFE10BDB0F85C10FEF7EFFB10BD10B56A
:103B6000806A01210167C16E012902D0FEF79DFE26
:103B700010BDB0F85C104908FEF7DFFB10BD10B5B2
:103B80000146806A09680968890616D40021A0F8F0
:103B900056100168083151E8002F22F0800241E8F8
:103BA0000023002BF5D1026852E8001F41F04001CC
:103BB00042E80013002BF6D110BDFEF717FF10BD31
:103BC00010B5806AFEF724FF10BD000010B5026832
:103BD00052E8001F21F4907142E80013002BF6D147
:103BE0000E4B0268083252E8001F194042E80014E8
:103BF000002CF6D1C16E012908D1016851E8002FCF
:103C000022F0100241E80023002BF6D12021C0F859
:103C10008C100021C166416710BD0000FEFFFFEF60
:103C2000026852E8001F21F0C00142E80013002B97
:103C3000F6D10168083151E8002F22F4000241E872
:103C40000023002BF5D12021C0F888107047000018
:103C50002DE9F0410446016880682269E369104358
:103C6000626900251A431043DFF82CC20A688B4BA7
:103C70001A4002430A6020684168E26821F440511A
:103C8000114341602168A069614501D0226A104357
:103C90008A68834B1A4002438A602068C16A626A5C
:103CA00021F00F011143C1627E4923687E488B4297
:103CB0000DD1D0F8880010F0030006D0012855D0AF
:103CC000022842D003283FD152E001203DE077494D
:103CD0008B420BD1D0F8880010F00C0035D00428AE
:103CE00033D0082840D00C282ED141E070498B42B7
:103CF0000BD1D0F8880010F0300026D0102835D035
:103D0000202831D030281FD132E06A498B420BD1B4
:103D1000D0F8880010F0C00017D0402826D08028A6
:103D200022D0C02810D123E063450DD1D0F88800FF
:103D300010F4406009D0B0F5806F17D0B0F5006F77
:103D400012D0B0F5406F13D010205B495B4F0026B6
:103D50004FF4004263453BD160B1022813D00428E0
:103D60000BD0082872D10DE00220EEE70420ECE72A
:103D70000820EAE7FDF73AFE01E0FDF75BFE0100EF
:103D800001D17CE01146606A37F810206768B1FB0A
:103D9000F2F007EB4703834270D8B0EB073F6DD8D2
:103DA000002308461946FCF733FA090241EA10617C
:103DB00002027808101871413A460023FCF728FAED
:103DC0003F4AA0F54071914258D82168C86056E03A
:103DD000E3694FF6EF7893422CD109284ED2DFE801
:103DE00000F00508114D0D4D4D4D1000FDF7FEFD85
:103DF00001E0FDF70DFE010004D140E0FDF71AFEE1
:103E0000F9E71146606A37F81000B1FBF0F04100A5
:103E1000606801EB5001B1FBF0F0A0F110014145E9
:103E20002CD84FF6F0710140C0F3420001432068E6
:103E3000C16024E0092821D2DFE800F00509122042
:103E40000E2020201100FDF7D1FD02E016E0FDF765
:103E5000DFFD010004D112E0FDF7ECFDF9E71146AA
:103E6000606A37F81000B1FBF0F1606801EB5001B7
:103E7000B1FBF0F0A0F1100141450AD90125012064
:103E8000A4F86A0024F8680F2846E6602661BDE8B9
:103E9000F08180B299E7000000800040F369FFCF15
:103EA000FFF4FF11003801400010024000440040C0
:103EB00000480040004C00400024F400F2B6000826
:103EC000FFFC0F0070B58165A0F85C20002104465E
:103ED000C0F890102220C4F88C00D4F88000F0B113
:103EE0001F4BC362D4F880301E481863D4F880306A
:103EF0001D485863D4F8800013468163A56D21687E
:103F00002A462431D4F88000FDF7B2F838B11020E9
:103F1000C4F890002020C4F88C00012070BD2069F6
:103F200040B1216851E8000F40F4807041E8000280
:103F3000002AF6D12068083050E8001F41F0010146
:103F400040E80012002AF5D12068083050E8001F30
:103F500041F0400140E80012002AF5D1002070BD78
:103F6000D93A00085F3B0008893A00082DE9F0477C
:103F7000994617460D4604464FF00008089E33E068
:103F8000701C31D0FDF702FAA0EB0900B04218D83E
:103F9000BEB120680168490726D5802D24D0402D68
:103FA00022D0C169C94309070DD4082505622046FE
:103FB000FFF70CFEC4F8905084F884800120BDE81F
:103FC000F0870320FBE7C069C04300050CD42168DB
:103FD0004FF4006008622046FFF7F8FD2020C4F887
:103FE000900084F88480ECE72068C06935EA00001E
:103FF00004D00020B842C3D00020E0E70120F9E758
:1040000010B50B48FEF7EAF909490868C269D243BE
:10401000D2060CD410220262D1F8800000684068F9
:10402000BDE81040C0F1400080B2FFF733BC10BDC6
:10403000EC010020FEE700000FB4054B10B503A90A
:10404000044A029801F09EFF10BC5DF814FB0000CA
:1040500025880008580000200FB4084B10B504A9AB
:1040600002AA039801F08EFF044602A9002002F084
:1040700020FB204610BC5DF814FB0000B36600086E
:1040800003B401984100009850EAC12018BF0420F1
:104090004A0D18BF40F0010040F2FF72B2EB515FD1
:1040A00008BF40F00200012808BF052002B0704799
:1040B0004100080218BF04200A0E18BF40F001009A
:1040C0004FF07F4232EA010108BF40F002000128B0
:1040D00008BF052070470907090E002804DB00F11E
:1040E000E02080F80014704700F00F0000F1E0209D
:1040F00080F8141D7047000010B54FF00E402DEDF4
:10410000028BB0EE408A18EE104A00EB4400B0F18A
:10411000506F4AD84FF0FC40B0EB440F22D2B0EEC3
:10412000C80AF7EE000A30EEC00AF6EE000A60EEAA
:10413000208A18EE900A07F064F801EE100A14F0D5
:10414000004F1DBFDFED2D0A9FED2D0AB1EE411A84
:10415000DFED2C0A08BF9FED2C0AF8EE001A21EEC5
:10416000218A05E0DFED290A68EE088AB0EE600AD0
:104170009FED271ADFED271A30EE080A48EE811A64
:104180009FED251A08EEA11ADFED241A48EE811AD8
:104190009FED231A08EEA11A68EE281ABDEC028BD7
:1041A00001EE810A30EE200A10BD4FF0E440B0EB82
:1041B000440F0CD918EE100AFFF77AFF042808BF45
:1041C00001F056FDB0EE480ABDEC028B10BD4FF079
:1041D0007F40B0EB440F07D2B0EE480ABDEC028B33
:1041E000BDE8104001F02EBD012001F003FEBDEC42
:1041F000028BBDE8104001F02BBD00000000C9BFDC
:1042000022AAFDB90000C93F22AAFD390000000022
:1042100024FE1C3DC78AD83C1E67383D1B93993D40
:10422000AFAA2A3E10EE100A10B510EE901A4FF009
:10423000684202EB40032DED028BB3F1654F3CBFAA
:1042400002EB4102B2F1654F7CD200BFC0F3C7530D
:10425000C1F3C7529A1A1B2A09DD10F0004F14BF90
:104260009FED6E0A9FED6E0ABDEC028B10BD12F140
:104270001A0F1BDA11F0004F09D010F0004F0CBFDD
:104280009FED680A9FED680ABDEC028B10BD80EEC1
:10429000208A18EE100AFFF70BFF042808BF01F070
:1042A000E7FCB0EE480ABDEC028B10BD4200B2EB59
:1042B000410F37D910F0004F19BFDFED5C1A9FEDA9
:1042C0005C1ADFED5C1A9FED5C1AB0EE602A0A46BC
:1042D000F1EE400A80F00041B0EE420A10460A1AA0
:1042E0005200B2F1807F34D2484010F0004FDFED31
:1042F000532A9FED533A1DBFBEEE002A71EEE21A1B
:1043000031EE431AB6EE002A04BF71EEA21A31EE66
:10431000031AF0EE402A42EE602A40EE020A82EED4
:10432000A02A18E011F0004F04BF9FED461AF0EEEE
:10433000411AD4D010F0004F1CBFDFED431A9FED9F
:10434000431A00E026E004BFDFED411A9FED411A59
:10435000C5E780EE202A22EE020ADFED3F0ADFEDFC
:104360003F2ABDEC028B40EE202ADFED3D0A40EEF5
:10437000220ADFED3C2A40EE202ADFED3B0A40EE28
:10438000220A22EE000A00EE201A31EE020A30EE76
:10439000210A10BD4FF07F42B2EB400F28BFB2EBB5
:1043A000410F05D2BDEC028BBDE8104001F04DBCC1
:1043B00040EA01035B0008BF41F0FF410BD0B2EBC4
:1043C000400F08BFB2EB410F08D120F0804000EE53
:1043D000100A21F0804100EE901A37E7B2EB400F4F
:1043E00012BF5FEA410240F0FF4001F000413FF49C
:1043F0002DAF4A0092EA40033FF528AF002AACBF38
:104400009FED1A1A9FED1A1A20EE010A60EE810A3A
:1044100010EE100A10EE901A18E70000DB0FC9BF6B
:10442000DB0FC93FDB0F4940DB0F49C00000C9BFAC
:1044300022AAFDB90000C93F22AAFD390060ED3E65
:10444000C30ACE3700000000000049C022AA7DBA8E
:104450000000494022AA7D3A2DAD65BD8FB8D53DFB
:104460000FB511BE61C84C3EA8AAAABE0000804F7D
:104470000000802F10EE101A08B5444A6846B2EBCF
:10448000410F28D94FF0E640B0EB410F94BF002018
:104490004FF0FF3000900098002861DB60EE000ACA
:1044A00010F0010F45D010F0020FDFED391A9FED2B
:1044B000391A00EEE11ADFED381A40EE811A21EECA
:1044C000A01AF0EE400A40EE010A08BFF1EE600AC1
:1044D000B0EE600A08BD314B21F0004293423CD956
:1044E00011F0004FDFED2E0A20EE201ADFED2D0A2D
:1044F00019BF31EE601A71EE200A31EE201A71EE0A
:10450000600ABDEEE01A11EE100A9FED271A00F0C6
:10451000030000EEC10A9FED251A009000EEC10ACB
:104520009FED231A00EEC10A9FED221A00EEC10A88
:10453000B1E79FED211A9FED210A10F0020F00EE66
:10454000810A9FED1F1A00EE801AB7EE000A00EEF6
:10455000810A18BFB1EE400A08BD01F091FB9AE74D
:1045600010EE100A4000B0F17F4F3CBFB7EE000ADA
:1045700008BD07D14FF0010001F03CFCBDE8084048
:1045800001F066BBBDE8084001F05CBBB61F927E3F
:10459000336D4C39DA82083CA0AA2ABE490E49463E
:1045A00083F9223F0000004B0000C93F00A0FD3905
:1045B0000020A2331A61342CB93AB2BACA9F2A3DFC
:1045C000DDFFFFBE10B52DED028BB0EE608AF0EE80
:1045D000408A18EE101A18EE900AFCF765F900F000
:1045E0007040B0F1004F0CD018EE100A20F00040DF
:1045F000C0F1FF40C00F02BFB0EE480ABDEC028B15
:1046000010BDB0EE680ABDEC028B10BD00000000CA
:104610002DE9F04D2DED040B2DED0E8B96B0DDE95F
:104620002550279CDDF890A025F0004624F0004896
:10463000BAF1000F14BF0121002101EB4502FC4932
:1046400053184A1093422AD3002814BF0123002391
:1046500003EB44030B44F7498B4220D358EA000193
:104660009FEDF59B76D0DFF8D8B35D4503D1BAF165
:10467000000F05D188E0BAF1000F08BF002100D07B
:10468000012101EB450111F5001F08D8002814BFD6
:104690000121002101EB440111F5001F0BD99DED13
:1046A000261B9DED240B16B0BDEC0E8B04B0BDE8AF
:1046B000F04D01F081BA0027002DBCBFE1498845CB
:1046C00021DAE1498845A8BF02271CDAC3451ADC74
:1046D000DE4901EB2851142908DDC1F1340220FA2A
:1046E00002F101FA02F282420DD108E058B9C1F19B
:1046F000140228FA02F101FA02F2424503D101F054
:104700000101C1F1020756EA0A0124D1002C22DA84
:10471000002D18BF022F01D0012F0AD0022001F076
:1047200069FB16B0BDEC0E8B04B0BDE8F04D01F096
:104730002BBA022001F05EFB01F026FA51EC100BBF
:1047400081F0004141EC100B16B0BDEC0E8B04B0B3
:10475000BDE8F08D18E09FEDBEAB9FEDBF8B00284C
:1047600071D1B848804522D105F1804010F5801004
:1047700008BFBAF1000F07D0B3450ADC002CA8BF70
:104780009DED260BE0DA0DE0B0EE490AF0EE690A85
:10479000DAE7002C06DA9DED260B51EC100B81F0C8
:1047A00000416FE0AE48784490ED000BCCE7D8456F
:1047B0004DD1002C48DA2EB186423AD1BAF1000F21
:1047C00042D126E0BAF1000F13D0022001F012FB13
:1047D00001F00EFA8DED020B9DED240B8DED000B1B
:1047E00010EE900A039961F31E0003909DED020BF9
:1047F000AAE78DED02AB9DED240B1AEE901A10EE98
:10480000900A8DED000B61F31E0003909DED020BED
:104810009AE78DED028B9DED240B18EE901A10EEA9
:10482000900A8DED000B61F31E0003909DED020BCD
:104830008AE709DA9DED240B51EC190B53EC102B90
:10484000FBF77CFF1EE020E09DED240B7CE7864219
:104850001BDAB4F1804F0DD0A4F10050B0F1FF503D
:1048600013D1002D11DB9DED240B51EC100B06F044
:1048700091FC07E09DED240B53EC102B51EC100B39
:1048800000F0C2BC41EC100B5EE79DED240B51EC37
:10489000100B03F09AFFBAF1000FCDE90E0142D1DF
:1048A0009FED710B46B3A6F1E040B0F17F600CD0F4
:1048B0005E4538D1002D00DAA7B3022F0CBF0120CE
:1048C0004FF0FF30FBF712FEDCE7002D01DD002C7E
:1048D0000DDA002D01DD002C1FDB002D16DA002C77
:1048E00014DB012F08BF9FED620B3FF42DAFB0EE3C
:1048F0004A0AF0EE6A0A27E7022F18BF002D0CD0F3
:10490000012F0AD1002DFFF61FAF06E0002DB8BF22
:10491000002C08DA012F3FF417AFB0EE480AF0EE92
:10492000680A11E71BE0012000EBE57050EA07017F
:1049300015D0791EB0EE498AF0EE698A084308BFA7
:104940009FED4D8B4E480025804570DD4D494E480A
:10495000884514DDB0420DDB002C19DB2FE001206F
:1049600001F048FA16B0BDEC0E8B04B0BDE8F04D76
:1049700001F02EB9B34502DC002C09DC1FE08642B1
:1049800002DA002C1BDA03E05E452BDD002C16DD7D
:10499000022001F02FFA01F02BF98DED020B53EC00
:1049A0001A2B51EC180BFBF72FFDCDE900010399F1
:1049B000019861F31E0003909DED020BC4E60220F6
:1049C00001F018FA01F024F910EE901A18EE900A8E
:1049D0008DED020B8DED008B61F31E0003909DEDBC
:1049E000020BB1E69DED0E0B53EC192B51EC100BA5
:1049F000FBF704FD9FED260BCDE9080153EC102BCE
:104A00009DED080B51EC100BFBF7FEFC9FED221BFC
:104A100053EC112BFBF7F5FC9DED081B53EC112B10
:104A2000FBF7F2FC9FED1E1B53EC112B3CE08CE0DE
:104A3000FFFF1F00FFFF0F00000000000000F03F1D
:104A40000000F03F0000F07F0000404301FCFFFF4A
:104A5000000000000000F07F0000000000000000E7
:104A600066920000000000000000000000000080CE
:104A7000000000000000F0FF000000000000F0BF98
:104A80000000E0410000F043FFFFEF3F00000000A6
:104A9000000000000000D03F555555555555D53FF5
:104AA000000000000000E03FFBF7ABFC9DED080BB1
:104AB00041EC1A0B53EC102B51EC100BFBF7A4FC40
:104AC00053EC1A2BFBF7A0FC41EC1A0B9FEDFE0BED
:104AD00053EC102B9DED080B51EC100BFBF794FCE5
:104AE00041EC1B0B9FEDFA0B51EC1A0B53EC102B06
:104AF000FBF78AFC41EC1A0B9FEDF70B53EC102BE4
:104B00009DED080B51EC100BFBF77EFC53EC1A2BC0
:104B1000FBF774FC41EC1A0B51EC1B0B53EC1A2BFA
:104B2000FBF7CBFB0690CDE906519DED060B53EC50
:104B30001B2B51EC100BFBF761FC53EC1A2BFBF712
:104B400060FC41EC100B00F0A1B90020B6F5801F0D
:104B50000EDA9FEDE30B53EC102B9DED0E0B51EC99
:104B6000100BFBF751FCCDE90E016FF034000E463F
:104B700000EB2650A0F2FF37C6F31300DA4940F0ED
:104B80007F6646F040568842D8BF002408DDD749EA
:104B90008142C8BF012403DC0024A6F580167F1CD7
:104BA000D348784400EBC4000F9690ED00CB9DED08
:104BB0000E0B53EC1C2B51EC100BFBF71FFC9DED67
:104BC0000E0B41EC1B0B53EC1C2B51EC100BFBF7A9
:104BD00074FB41EC100B51EC190B53EC102BFBF751
:104BE000ADFD41EC1D0B51EC1B0B53EC1D2BFBF7EA
:104BF0000BFC41EC1A0BBF488DED10AB78441095BF
:104C000090ED000B4FF0005040EA660000EB84404E
:104C10008DED080B00F5002009909DED080B53EC7D
:104C20001C2B51EC100BFBF7E9FB9DED0E1B53EC1D
:104C3000112BFBF7E6FB41EC100B53EC102B9DED19
:104C4000100B51EC100BFBF7DFFB9DED080B41EC5B
:104C50001C0B53EC102B9DED100B51EC100BFBF7C4
:104C6000D3FB53EC1B2BFBF7CCFB53EC1C2BFBF7C0
:104C7000C5FB53EC1D2BFBF7C7FB41EC1C0B53ECA6
:104C80001A2B51EC1A0BFBF7BFFB41EC1B0B9A489C
:104C90000621B0EE4B0AF0EE6B0A784400F0F7FE06
:104CA000B0EE401AF0EE601AB0EE41DAF0EE61DAE2
:104CB00053EC1B2B51EC1B0BFBF7A6FB53EC1D2BF2
:104CC000FBF7A2FB9DED100B41EC1B0B53EC1A2BD9
:104CD00051EC100BFBF7F1FA53EC1C2BFBF794FB98
:104CE00053EC1B2BFBF7E9FA9DED100B41EC1B0B72
:104CF00053EC102B51EC100BFBF786FB41EC1D0B1A
:104D00009FED7FEB53EC1E2BFBF7D7FA53EC1B2BDD
:104D1000FBF7D3FA0890CDE908519DED080B53EC51
:104D20001E2B51EC100BFBF769FB53EC1D2BFBF713
:104D300065FB53EC1B2BFBF764FB9DED080B41EC73
:104D40001D0B53EC102B9DED100B51EC100BFBF7D2
:104D50005BFB41EC1B0B53EC1A2B51EC1D0BFBF7CF
:104D600053FB9DED080B41EC1A0B53EC102B51EC4F
:104D70001C0BFBF749FB53EC1A2BFBF79EFA41EC9B
:104D80001A0B51EC1B0B53EC1A2BFBF796FA0C90F9
:104D9000CDE90C519DED0C0B53EC1B2B51EC100B82
:104DA000FBF72CFB53EC1A2BFBF72BFB41EC1B0BFB
:104DB0009FED550B53EC102B9DED0C0B51EC100B94
:104DC000FBF722FB41EC1A0B9FED510B51EC1B0B37
:104DD00053EC102BFBF718FB41EC1B0B9FED4E0B1C
:104DE00053EC102B9DED0C0B51EC100BFBF70CFB57
:104DF00053EC1B2BFBF761FA41EC100B484878444D
:104E000000EBC40090ED001B51EC100B53EC112B88
:104E1000FBF753FA41EC1B0B3846FBF767FBCDE978
:104E2000080153EC1B2B51EC1A0BFBF746FA41EC33
:104E3000100B3C48784400EBC40090ED00CB51ECE3
:104E4000100B53EC1C2BFBF738FA9DED081B53ECB1
:104E5000112BFBF732FA0690CDE906519DED080BB8
:104E600053EC102B9DED060B51EC100BFBF7C6FA23
:104E700053EC1C2BFBF7C2FA53EC1A2BFBF7BEFAD0
:104E800053EC1B2BFBF7BDFA41EC100B9DED261BE1
:104E900053EC102B8DED001B00959DED260B51EC76
:104EA000100BFBF7B1FA9DED000B41EC1A0B53EC24
:104EB000102B9DED260B51EC100BFBF79FFA9DED8F
:104EC000061B53EC112B2FE0000000604715F73F45
:104ED000FE822B654715F73F44DF5DF80BAE543E6D
:104EE00000000000000040438E9803007AB60B00DB
:104EF000A28C0000108E0000DA8B00000000000081
:104F00000000000000000840000000E009C7EE3F7C
:104F1000FD033ADC09C7EE3FF5015B14E02F3EBE0E
:104F2000668A0000208A0000FBF76EFA53EC1A2B09
:104F3000FBF7C3F99DED060B41EC1A0B53EC102B5C
:104F40009DED000B51EC100BFBF75EFACDE90C0167
:104F50009DED0C0B51EC1A0B53EC102BFBF7ADF93C
:104F6000CDE902010C46AA498C422FDB611A0843A5
:104F700018D19DED0C0B53EC102B9DED020B51EC59
:104F8000100BFBF73BFA41EC1B0B9FEDA30B51EC15
:104F90001A0B53EC102BFBF790F953EC1B2BFBF780
:104FA0006BFC2DD2022000F025FF00F021FE10EE58
:104FB000901A18EE900A8DED020B8DED008B61F3C7
:104FC0001E0003909DED020BFFF7BEBB944A24F038
:104FD0000041914214D39349214408437FF4EFAC3C
:104FE0009DED0C0B53EC102B9DED020B51EC100BB7
:104FF000FBF704FA53EC1A2BFBF73EFC7FF6DFAC11
:1050000024F000408849894A002601EB2051824261
:105010002BDA481C4FF4801121FA00F02044844A16
:10502000C0F30A517A44A1F2FF3192ED000B814A9C
:105030008DED080BCA4020EA0202C0F3130040F4D1
:105040008010C1F1140120FA01F60992002CB8BFBA
:1050500076429DED080B53EC102B9DED0C0B51ECA3
:10506000100BFBF7CBF9CDE90C019DED0C0B51ECCE
:105070001A0B53EC102BFBF720F99FED6F0B0890E8
:10508000CDE9085153EC102B9DED080B51EC100BA2
:10509000FBF7BAF941EC1B0B9FED690B53EC102B9E
:1050A0009DED080B51EC100BFBF7AEF99DED0C0BD1
:1050B00041EC1C0B53EC102B9DED080B51EC100B2D
:1050C000FBF79CF953EC1A2BFBF79BF99FED5E1B4A
:1050D00053EC112BFBF798F953EC1C2BFBF7EDF875
:1050E00041EC1A0B51EC1B0B53EC1A2BFBF7E5F8B8
:1050F000CDE902019DED020B53EC1B2B51EC100B83
:10510000FBF77CF953EC1A2BFBF77BF99DED020BB7
:1051100041EC1A0B53EC102B51EC100BFBF774F90C
:10512000CDE908014A489DED080B0521784400F0BF
:10513000AEFC9DED081B51EC100B53EC112BFBF753
:1051400063F99DED021B53EC112BFBF75AF9CDE9E6
:1051500006019DED020B53EC1A2B51EC100BFBF7E3
:1051600053F953EC1A2BFBF7A8F89FED3B0B41ECDE
:105170001A0B53EC102B9DED060B51EC100BFBF7AB
:105180003DF99DED060B41EC1B0B53EC102B9DEDF7
:10519000020B51EC100BFBF737F953EC1B2BFBF711
:1051A000CDFA53EC1A2BFBF729F99DED021B53ECBA
:1051B000112BFBF723F953EC192BFBF722F9CDE95F
:1051C000020101EB065001150029C8BF039015DC50
:1051D0009DED020B324651EC100BFBF71EFBFEF768
:1051E0004FFF042808BF00F013FD32469DED020B6F
:1051F00051EC100BFBF711FBCDE902019DED020B09
:1052000051EC180B53EC102BFBF7FEF8FFF73ABBF1
:105210000000904000000000FE822B654715973C7F
:1052200000CC904000346F3F01FCFFFF0000E03FE6
:10523000E8890000FFFF0F0000000000432EE63F5A
:10524000396CA80C615C20BEEF39FAFE422EE63FB5
:10525000788700000000000000000000000000400F
:1052600010B510EE100A2DED068BB7EE001A10EEF9
:10527000901AB0EE418A0022A0F5000CDFEDFE9AF4
:105280004FF00073BCF1FE4F4FF07F4403EB410C35
:1052900080F0B481BCF1804FC0F02082F749014416
:1052A0009FEDF73AB1F5005F40F2D48200F580211E
:1052B000CB0C03F00F0101EE901AC3F307137F3BF1
:1052C000A0EBC350B8EEE12A00EE100A1A44DFED5D
:1052D000ED2AF0EE411A42EE221AF0EE613A70EE3B
:1052E000232A30EE632A12EE900A00F500606FF375
:1052F0000B0001EE900A73EEE13A33EE804AC1EE04
:10530000223A22EE230A10EE100A00F500606FF335
:105310000B0000EE100A00EE612A00EE442A62EE55
:10532000232A70EE221A21EEA12ADFEDD73A02EEEF
:10533000233A23EE023A20EE012A22EE811A03EEEE
:10534000211A32EE010A10EE100A00F500606FF328
:105350000B0000EE100A72EE401A31EE812A9FED2A
:10536000CB1A60EE011A9FEDCA1A20EE011A9FEDCA
:10537000C90A02EE001A31EE810A10EE100A00F599
:1053800000606FF30B0000EE100AC34871EEC01A04
:1053900031EE812A784400EBC10090ED003AD0ED67
:1053A000011A100101EE100AF8EEC12A32EE211A9C
:1053B00031EE001A31EE031A31EE221A11EE100A04
:1053C00000F500606FF30B0009EE100A39EE621A67
:1053D00031EE431A31EE400A30EE610A32EE40AA55
:1053E00010EE900A002100F500606FF30B0008EE4C
:1053F000900A084670EEE8AAFBF771FA29EE280A2F
:1054000000F00C01F0EEC00A10EE900AB0F18B4FE4
:105410000DDD10EE900AB4EB400F08D310EE100A29
:105420004FF08B4262F31E0008EE900A13E069EE23
:105430002A0A38EEAA1A4AEE010A30EE201A11EEB4
:10544000100A00F500606FF30B0008EE900A30EED2
:10545000680A70EE209A0C20FBF741FA38EEA90A90
:10546000B5EEC00AF1EE10FA34BFFEEE000AF6EE19
:10547000000A30EE800ABDEEC00A10EE100A0111DB
:1054800000EE101AF8EEC00A00EE100AB8EEC00ADC
:1054900038EEC00A30EE290ADFED801A9FED801A3F
:1054A00000EE211ADFED7F1A7F4900F00F0040EE79
:1054B000011A21EE800A794401EB800191ED001A76
:1054C0007A49794401EB8001D1ED001A784901EE67
:1054D000801A794401EB8000764990ED000A31EEA4
:1054E000001AB0EEE00A10EE100A884215DA10EE4B
:1054F000100AB4EB400F10D39FED6F0A30EE800A14
:10550000DFED6E0A20EE200A68EE010ABDEC068B84
:10551000BCEEC00A20EE200A10BD10EE100A684949
:10552000884243DA10EE100AB4EB400F3ED3BDEED2
:10553000E00A68EE010A10EE100A00EBD07251107A
:10554000C90501F17E5100EE101AA0EB6200C00502
:1055500060EE200A00F17E5000EE100A60EE808AB4
:1055600018EE900AB4EB400F0FD1022000F042FC7D
:1055700000F076FB10EE101A18EE100ABDEC068B48
:1055800061F31E0000EE100A10BD18EE900A4000F4
:1055900011D018EE900AFEF78BFD042808BF00F02A
:1055A00067FBB0EE680ABDEC068B10BDF5EEC00AD5
:1055B000F1EE10FA0FD2022000F01CFC00F058FBB4
:1055C00010EE101A18EE100ABDEC068B61F31E00E7
:1055D00000EE100A10BD022000F00CFC00F040FBB1
:1055E00010EE101AB0EE480A10EE100ABDEC068B51
:1055F00061F31E0000EE100A10BD00BFBCF1804F29
:105600006CD300BF00F1FF43B3F1FE4F24D200BFC3
:10561000B0EEC00A10EE100AC1F3C7537F2B0DDBAA
:10562000972BBFF63BAEC3F196034FF0010C0CFA7B
:1056300003F3A3F1010C1CEA010F08D0012000F0D4
:10564000D9FBBDEC068BBDE8104000F001BB0B425E
:1056500018BFBFEE008A21E643001CBF4FF08073E5
:10566000B3EB400F34D96FF01A02DFED161A20EEBB
:10567000210A10EE100A27E000000000001080C090
:10568000ABAAAA3E0000803D7EE24C3E00B038420C
:10569000D49AB8BB3BAA384238850000FC5963371E
:1056A000C9FF753A1872313DD68400000A850000A2
:1056B0007A8400000000FC420000FE420000004B23
:1056C000000040430000004D10F0004FA0D1E5E580
:1056D000A0F50003B3F1FE4F21D2DFE503EB410358
:1056E000B3F1007F11D3F5EEC00AF1EE10FA05D147
:1056F000430018BFB4EB400F76D883E701F00041B8
:1057000041F0FC5100EE901A7CE7B3F1807F06D2A5
:1057100010EE903AA3F5000300EE903A72E720F005
:1057200000426FF0FF4C604C02EB0C03A34210D31D
:1057300021F000439C44A4450BD3B0F17E5F18BF19
:105740005FEA410C50D0B2F1FF4F98BFB3F1FF4F69
:1057500005D9BDEC068BBDE8104000F076BAB0F17B
:10576000FF4F0FD0C1F3C7527F2A09DB972A11DA06
:10577000C2F19602012303FA02F2531E0B4205D036
:10578000002208E011F0004F55D128E00A4218BF6E
:10579000012200D1022210F5000F13D028B3B0F17E
:1057A000004F26D010F1814F4FD04FF0FE42B2EBA8
:1057B000400F94BF01200020012202EBE1718842DA
:1057C00039D10CE011F0004F02D0012A38D032E07C
:1057D000012A02BF9FED350ABDEC068B10BD9FED7F
:1057E000340ABDEC068B10BD2FE011F0004F0CD138
:1057F00021E0B1F1FF4F1ED011F5000F05D011F0DF
:10580000004F15D00AB1012A08D0022000F0F2FAA8
:10581000BDEC068BBDE8104000F00ABA022000F093
:10582000E9FA00F005FABDEC068BB1EE400A10BDB6
:105830000AB1012A04D0B0EE690ABDEC068B10BD96
:10584000BDEC068B9FED1B0A10BDBDEC068BB7EEC1
:10585000000A10BD30EE410AB5EE001A9FED172A7E
:1058600000EE413AB6EE001A60EE001A00EE431A5E
:1058700061EEC11A9FED101A20EE011A20EE020A05
:105880009FED0F2A01EE820A71EE001A11EE900AC6
:1058900000F500606FF30B0009EE100A31EE491AB3
:1058A00031EE00AA9CE50000FFFF3F00000080FFF2
:1058B0000000807F0000008000B0B841D49A38BB5F
:1058C0003BAAB84100B510EE101A2DED028B81B045
:1058D000524A6846B2EB410F2ED94FF0E640B0EB8A
:1058E000410F94BF00204FF0FF3000900098B0EEC1
:1058F000408A00286ADB10F0010F4BD068EE080ADE
:105900009FED471A9FED470A00EE810A9FED461A68
:1059100010F0020F00EE801AB7EE000A00EE810AC6
:1059200002BF01B0BDEC028B00BD00BF01B0B1EE03
:10593000400ABDEC028B00BD3C4B21F0004293427B
:1059400041D911F0004FDFED3A0A20EE201ADFEDC9
:10595000390A19BF31EE601A71EE200A31EE201AB1
:1059600071EE600ABDEEE01A11EE100A9FED321AD8
:1059700000F0030000EEC10A9FED301A009000EE27
:10598000C10A9FED2F1A00EEC10A9FED2E1A00EEFC
:10599000C10AABE728EE080A9FED2B1ADFED2B0AB0
:1059A00010F0020F40EE410A9FED291A00EE201A76
:1059B00061EE000AB0EE480A08EE200AB6D101B046
:1059C000BDEC028B00BD00F05BF98FE718EE100A0A
:1059D0004000B0F17F4F0DD218EE100AFEF768FBC1
:1059E000042808BF00F044F9B0EE480A01B0BDEC4D
:1059F000028B00BD09D1012000F0FCF901B0BDEC23
:105A0000028B5DF804EB00F023B901B0B0EE480A58
:105A1000BDEC028B5DF804EB00F014B9B61F927E6A
:105A2000B93AB2BACA9F2A3DDDFFFFBE490E4946C8
:105A300083F9223F0000004B0000C93F00A0FD3960
:105A40000020A2331A61342C336D4C39DA82083CC1
:105A5000A0AA2ABE10B52DED028BB1EEC08A18EEB9
:105A6000100A20F00040C0F1FF40C00F0AD010EE35
:105A7000100A20F00040C0F1FF40C00F04BF012019
:105A800000F0B8F9B0EE480ABDEC028B10BD70B55D
:105A900004462DED028B4D1E00EBC500B0EE408A92
:105AA000F0EE608A90ED000B35F0060017D053EC55
:105AB000182B51EC100BFAF7A7FC41EC100B6D1EE4
:105AC00004EBC50090ED001B51EC100B53EC112BB7
:105AD000FAF7F3FB41EC100B35F00600E7D1022D8D
