:020000040800F2
:10000000A00B0020A9020008EF4700080B3C0008E5
:10001000ED470008D1190008495100080000000010
:10002000000000000000000000000000F34700088E
:10003000CD1A000800000000F1470008F54700084D
:10004000C3020008C3020008C3020008C30200087C
:10005000C3020008C3020008C3020008C30200086C
:10006000C3020008C3020008C3020008D519000833
:10007000E1190008ED190008C3020008C3020008D6
:10008000C302000800000000C3020008C302000809
:10009000C3020008C3020008C3020008C30200082C
:1000A000C302000871480008C3020008C302000828
:1000B000C3020008C3020008C3020008C30200080C
:1000C000C3020008C3020008C3020008C3020008FC
:1000D000C302000815510008C3020008C30200084B
:1000E000C3020008C3020008C3020008C3020008DC
:1000F000C3020008C3020008C30200080000000099
:1001000000000000C302000800000000C302000855
:10011000C302000800000000C3020008C302000878
:10012000C3020008C3020008C3020008C30200089B
:10013000C30200080000000000000000C302000825
:10014000C3020008C3020008000000000000000015
:10015000000000000000000000000000000000009F
:10016000000000000000000000000000C3020008C2
:10017000C3020008000000000000000000000000B2
:1001800000000000C30200080000000000000000A2
:10019000000000000000000000000000000000005F
:1001A0000000000000000000C3020008C3020008B5
:1001B000C3020008C3020008C302000800000000D8
:1001C00000000000C3020008000000000000000062
:1001D000C3020008C302000800F002F800F055F85E
:1001E0000AA090E8000C82448344AAF10107DA4592
:1001F00001D100F04AF8AFF2090EBAE80F0013F08F
:10020000010F18BFFB1A43F001031847E0BE0000BE
:1002100000BF0000103A24BF78C878C1FAD852074E
:1002200024BF30C830C144BF04680C607047000070
:100230000023002400250026103A28BF78C1FBD8EF
:10024000520728BF30C148BF0B607047662909F0CC
:100250007A84642900F0F680752900F0F38078290B
:1002600000F02C81732900F0F384002070471FB543
:1002700009F05FFC00F034FD04000020002108F0CC
:1002800023FEE0601FBD10B510BD00F049FE114611
:10029000FFF7EDFF07F0ACFF00F067FE03B4FFF7D8
:1002A000F2FF03BC06F081F809488047094800477F
:1002B000FEE7FEE7FEE7FEE7FEE7FEE7FEE7FEE716
:1002C000FEE7FEE704480549054A064B7047000073
:1002D00061480008D9010008A0050020A00B0020FB
:1002E000A0070020A0070020704753EA020C00F08E
:1002F00069802DE9F04B4FF00006002B1FBFB3FAC9
:1003000083F503FA05F424FA05F65E4012BF16439E
:10031000B2FA82F502FA05F4C5F120051EBF22FAF1
:1003200005FC44EA0C04203556EA044C4FEA144418
:1003300018BF641C4FF000084FF00009904271EBA9
:10034000030C39D3002919BFB1FA81F701FA07F676
:10035000B0FA80F700FA07F6C7F120071EBF20FAAF
:1003600007FC46EA0C062037B6FBF4FCA7EB0507B2
:10037000103F07F01F0BCBF120060CFA0BFB2CFAF9
:1003800006F644BFB3460026202FA4BF5E464FF0BA
:10039000000B5BEA060C08BF4FF0010B19EB0B09D1
:1003A000ABFB027C48EB0608C01B06FB02CC0BFB38
:1003B00003CC71EB0C01C1E70B46024641464846AF
:1003C000BDE8F08B13B54FF000004FF00001AFF324
:1003D0000080BDE81C4070470FB4044910B503AA63
:1003E000029800F039FC10BC5DF814FB34000020CA
:1003F00070B50C460546012A05D02878800600D540
:10040000EA69002302E0012305E05B1C934202D26B
:10041000E05C0028F9D1A869E618C01AA861286A2A
:10042000184428622846AFF3008004E0D5E9012192
:1004300014F8010B9047B442F8D32846AFF300807C
:1004400070BD00002DE9F0410646002410687529B2
:10045000314616A510D0AFF30080002802DA4042E2
:1004600013A507E031688A0701D512A502E0490704
:1004700004D511A5012401E0AFF3008000210A2278
:1004800006F1240709E0B0FBF2FCB0FBF2F302FB3B
:100490001C00303078541846491C0028F3D12346FC
:1004A0002A463046BDE8F04100F058B9000000008F
:1004B0002D0000002B0000002000000070B5044655
:1004C0000D4621461068AFF300802188090502D54A
:1004D0000F4A7A4402E00E4A7A440E32002104F1B7
:1004E000240305E000F00F060009965D5E54491CE8
:1004F0000028F7D120780023000704D5702D02D002
:1005000009B1022311322046BDE8704000F026B93F
:1005100016B800002DE9F0474FF0000A894604465E
:10052000C0F820A02046E1688847002876D025281A
:1005300006D0D4E901219047206A401C2062F1E7EF
:10054000E168204600258847C4F81CA0064600271D
:10055000C4F818A02A2E09D0304605F01FFF38B382
:1005600004EB8708303EC8F8186019E059F8041BFE
:10057000204604EB87029161E1688847012F064617
:1005800018D1E069002820DA25F020051DE0D8F810
:10059000180000EB800006EB40003038C8F8180067
:1005A0002046E1688847064605F0F8FE0028EED1AF
:1005B000012F0AD02E2E08D12046E16888477F1CE3
:1005C0000646022F45F02005C4DBA069002803DAA7
:1005D000404245F00105A061E80701D025F0100573
:1005E000B6B1A6F14100192802D8203645F40065BD
:1005F0004A463146204625604D46FFF727FE58B152
:10060000012806D0ED1D25F0070000F1080989E753
:1006100004E005F1040985E730468AE7206ABDE871
:10062000F087032A40F2308010F0030C00F01580B0
:1006300011F8013BBCF1020F624498BF11F801CBE5
:1006400000F8013B38BF11F8013BA2F1040298BF4A
:1006500000F801CB38BF00F8013B11F0030300F0B4
:100660000D83083AC0F0088051F8043B083A51F86D
:1006700004CBA0E80810F5E7121D5CBF51F8043B5D
:1006800040F8043BAFF30080D20724BF11F8013BD0
:1006900011F801CB48BF11F8012B24BF00F8013B32
:1006A00000F801CB48BF00F8012B70474FF0000263
:1006B0000429C0F0128010F0030C00F01B80CCF174
:1006C000040CBCF1020F18BF00F8012BA8BF20F8E2
:1006D000022BA1EB0C0100F00DB85FEAC17C24BF36
:1006E00000F8012B00F8012B48BF00F8012B7047E0
:1006F0004FF0000200B5134694469646203922BFBB
:10070000A0E80C50A0E80C50B1F12001BFF4F7AF05
:10071000090728BFA0E80C5048BF0CC05DF804EBE7
:10072000890028BF40F8042B08BF704748BF20F855
:10073000022B11F0804F18BF00F8012B7047704753
:1007400070477047704710B500F0CEFA006810BDD2
:1007500010B5044600F0C8FA046010BD2DE9F0475A
:100760000D4699469246044600F124080168880621
:1007700004D5E06921F01001216000E00120A842C9
:1007800001DD471B00E00027A1697A1902EB09008F
:10079000081AA0612078C00602D42046AFF300807A
:1007A000002608E0D4E901211AF806009047206AE3
:1007B000401C761C20624E45F4DB2078C0060AD52A
:1007C0002046AFF3008006E0D4E9012130209047B5
:1007D000206A401C2062381EA7F10107F4DC07E004
:1007E000D4E9012118F805009047206A401C2062D6
:1007F000281EA5F10105F3DC2046AFF30080207828
:10080000000602D50220BDE8F0870120FBE7704713
:100810002DE9FF4F0C461E464FF0FF378BB0D2E953
:100820000001DDF860800A908A46C1F30A5505B9D7
:100830003D46002108464FF00000BAF1000F00F4D9
:10084000400005DA00EB80004FF4400101EA50005F
:100850004FEA9059B9F1010F00DDB9460A9850EA04
:100860004A000ED044F61050A5F2FF3545432F1430
:10087000B8F1000F1ED07542291E1EDDC9F100021D
:100880001CE0B8F1010F4FF0000001D0302103E06F
:10089000F24305E02154401CB042FBDB304600220D
:1008A000002121540B99C1F80880C1E900200FB044
:1008B000BDE8F08FBD1B6D1CDEE74A4600DA6942D9
:1008C00006A800F0B3FA06AB93E8070003AB83E891
:1008D000070050460A9900F091FB8DE80700A0F54B
:1008E00000501F3800900398002D0ADD42F21F01CE
:1008F0004A460844002303A90390684600F0FAFD25
:1009000009E0A0F500504A461F38002303A90390D0
:10091000684600F004FE8DE807000004000C03D0D8
:100920004FF0FF30410800E01046B8F1000F03D04F
:100930000022009215461EE0751E05D400F0D8F97D
:10094000303262556D1EF9D5B3460122084302D0FC
:1009500000227F1C04E02078302801D100227F1E75
:10096000002A099784D01DE0112D07DA00F0C0F9A4
:10097000303262556D1C50EA0102F5D1084302D0B5
:100980000098C8B10EE00021681E05E0235C625C9F
:1009900063542254401E491C8142F7DBAB46A81B1E
:1009A000401E0990002004F80B000B98099AC0F82B
:1009B0000880C0E9002B7AE711264FF0000857E7BE
:1009C0002DE9F04F88460446D21D22F0070191B070
:1009D000D1E90001CDE90A0104F0B7FB02460B980A
:1009E000C00F01D02D2007E02068810701D52B2002
:1009F00002E0202101EAC000032A099001D0072A61
:100A000005DB03464146204600F0D0F90BE1207893
:100A1000800601D5E06900E00620B8F1650F814647
:100A200006D0B8F1660F18D0B8F1670F70D131E079
:100A30000020B9F1110F009001DB112301E009F151
:100A400001030AAA01A90CA8FFF7E2FEDDE90C7078
:100A5000002609F10105834647E001204B4600903E
:100A60004FF000470AAA01A90CA8FFF7D1FEDDE963
:100A70000DB00C995D46002610B909F101000D1862
:100A8000B9EB050003D4C0F1FF3609F10105A5EB70
:100A900009002BE0B9F1010F01DA4FF00109002044
:100AA000B9F1110F0090484601DD112300E0034623
:100AB0000AAA01A90CA8FFF7ABFEDDE90C704D46B0
:100AC00000268346207800070AD4AB4500DA5D464D
:100AD00001A8012D04DD411911F8011C302907D0AE
:100AE0004F4502DA17F1040F04DA012082460FE0C5
:100AF0006D1EEEE7002F02DCED1B3E4403E0781C88
:100B0000A84200DD7D1CB81B00F1010A4FF0004730
:100B10002078000703D4AA4501DB4FF0FF3A0021FB
:100B2000B7F1004F0DF143088DF8431024D0022097
:100B30002B23002F01DA7F422D230A21021EA0F170
:100B4000010000DC5FB197FBF1FC97FBF1F201FBC8
:100B50001C7C17460CF1300C08F801CDEEE7A8F12B
:100B6000010003702188090501D5452100E06521B8
:100B7000A0F1010800F8011C09980FA9A1EB0807D2
:100B8000FF1D00B10120411901EBEA70A169384451
:100B9000081A401EA0612078C00602D42046AFF398
:100BA0000080099828B1D4E901219047206A401CAF
:100BB00020622078C00622D52046AFF300801EE0D8
:100BC000002E04DBB34502DD01A8805D00E030208B
:100BD000D4E901219047206A401C2062761CAAF1CA
:100BE00001005FEA000A0AD100F07AF8C0680168E3
:100BF000405CD4E901219047206A401C2062281EF5
:100C0000A5F10105DCDC07E0D4E9012118F8010BAE
:100C10009047206A401C2062381EA7F10107F3DCD0
:100C20002046AFF30080032011B041E610B54369C0
:100C300013B1AFF3008001E0FFF7DAFB012010BD34
:100C4000127800F124010A7000224A700122EDE7B7
:100C500011684FF0FF32E9E7074B70B50D467B4452
:100C600000F091F80446284600F052F910B14FF018
:100C7000FF3070BD204670BDA36D000010B5203A56
:100C8000C0F00B80B1E81850203AA0E81850B1E845
:100C90001850A0E81850BFF4F5AF5FEA027C24BFFB
:100CA000B1E81850A0E8185044BF18C918C0BDE8F2
:100CB00010405FEA827C24BF51F8043B40F8043BBB
:100CC00008BF7047D20728BF31F8023B48BF11F870
:100CD000012B28BF20F8023B48BF00F8012B7047CA
:100CE000004870476005002000487047400500201C
:100CF00030B5B0F10A024FEA900E71F100034EEAEE
:100D0000817EB0EB0E0061EB91014FEA101E4EEABE
:100D1000017E10EB0E0041EB11114FEA102E4EEA4E
:100D2000016E10EB0E0041EB11214FEA104E4EEA1E
:100D3000014E10EB0E0041EB1141401841F1000152
:100D40004FEAD00040EA41704FEAD10110EB800534
:100D50004FEA810444EA907444EB01046D1944EBBA
:100D60000404521BA3414FF0000348BF0A3200D5D0
:100D700030BD401C41F1000130BD000001694A1C3A
:100D800002610878704700B58FB0CDE901310021CC
:100D9000059105497944CDE9031011466846FFF7EE
:100DA000B9FB0FB000BD0000E5FFFFFF2DE9F041EA
:100DB0001F46044603260168072A01F4006004DB8D
:100DC00008B116A505E016A503E008B115A500E0D9
:100DD00015A521F010002060A069C01EA0610FB110
:100DE000401EA0612046AFF300804FB1D4E901213D
:100DF00038469047206A401C2062C01C206206E0F2
:100E0000206AFAE7D4E9012115F8010B9047761E14
:100E1000F8D22046AFF30080BDE8F0814E414E008D
:100E20006E616E00494E4600696E66002DE9F0471E
:100E3000814616468AB0354878440DC88DE80D00C5
:100E400032487844801C03AC0DC884E80D0041F69C
:100E50009B300844372190FBF1F290FBF1F5A5F1AE
:100E6000800501FB12041B3C02D56442012000E016
:100E70000020DFF898A080460027FA44AAF1BE0AB5
:100E80000EE0E0070AD03246684607EB470101232F
:100E90000AEB810100F043FB8DE8070064107F1C22
:100EA000002CEED1194F7F44AE3F19E0E80715D072
:100EB00007EB04100DF1180A90E80E008AE80E0006
:100EC000C068F04201D1981908903246012306A962
:100ED00003A800F024FB03AB83E807006D10641C3B
:100EE000002DE3D14FF0010332466946B8F1000FFF
:100EF00003A802D000F0FEFA01E000F010FBC9E9FF
:100F00000001C9F808200AB0BDE8F087E8AF00008A
:100F1000007B00F0800070470048704740050020CB
:100F20007546FFF7F9FFAE4605006946534620F0C7
:100F30000700854618B020B5FFF7C4F9BDE820408A
:100F40004FF000064FF000074FF000084FF0000B85
:100F500021F00701AC46ACE8C009ACE8C009ACE838
:100F6000C009ACE8C0098D46704710B50446AFF320
:100F700000802046BDE81040FFF790B94FF0013CDB
:100F800050F8042B51F8043B9A4221D1A2EB0C03F8
:100F9000934313EACC1317D150F8042B51F8043BB8
:100FA0009A4215D1A2EB0C03934313EACC130BD155
:100FB00050F8042B51F8043B9A4209D1A2EB0C03E0
:100FC000934313EACC13DBD04FF00000704700BF0F
:100FD000D01A01BAB1FA81F101F0180122FA01F038
:100FE000CB40C1F12001DBB2C0B2C01A2CFA01F330
:100FF000D11A914311EAC311E6D170475FEA400C60
:1010000008BF91F0000F4FEA8C234FEAC12243EA58
:1010100051514FEA1C5018BF00F5F0404FEA300024
:1010200018BF41F000415FEA6C5C00F02980BCF120
:10103000FF3F08BF40F080407047130C06BF12040A
:101040004FF0100C4FF0000C130E04BF12020CF105
:10105000080C130F04BF12010CF1040C930F04BF12
:1010600092000CF1020CD30F04BF52000CF1010CE2
:1010700011464FF00002A0F11F00A0EB0C007047DA
:1010800011F0004F08BF704731F000413FF4D5AF79
:101090000B0C06BF09044FF0100C4FF0000C0B0EA8
:1010A00004BF09020CF1080C0B0F04BF09010CF17D
:1010B000040C8B0F04BF89000CF1020CCB0F04BF92
:1010C00049000CF1010CCCF12003A0EB0C0022FA3A
:1010D00003F302FA0CF241EA030100F10100704748
:1010E00020F07F4C80EA030023F07F47ACEB07033E
:1010F00003F57C5300F0004003F1FF032DE9804924
:101100004FEA154B09B44FEA144325EA0B4E24EA83
:1011100003480FF2042606EB132749083E785FEADE
:10112000320203FB0667C7F5000707FB06F64FEA26
:1011300054374FEAD64606F1020607FB066CCCF19F
:10114000005C4FEA1C472CEA074C07FB06F40CFB3B
:1011500006F504EB15464FEA961634BF00204FF013
:1011600000404FEAD13706FB07FC4FEA1C4C0CFB52
:101170000BF7D21B03FB0CF761EB07010CFB0EF71F
:10118000B0EB074072EB17420CFB08F734BFA2EB41
:101190000742B2EB074261EB17414FEA0C444FEABA
:1011A000910706FB07FC4FEA1C4C0CFB0BF7B0EB5E
:1011B000C74072EB573203FB0CF734BFA2EBC742B8
:1011C000B2EBC74261EB57310CFB0EF7B0EBC70037
:1011D00072EB57720CFB08F734BFA2EBC702B2EBFD
:1011E000C70261EB5771039F4FEA816141EA921197
:1011F00004EBCC044FEAD1374FEA826206FB07FCCE
:1012000042EA90124FEA80604FEA1C4C0CFB0BF74D
:10121000D21B03FB0CF761EB07010CFB0EF7B0EBE5
:10122000074072EB17420CFB08F734BFA2EB0742F2
:10123000B2EB074261EB17414FEA8C554FEA910739
:1012400004EB9C2406FB07FC4FEA1C4C0CFB0BF741
:10125000B0EBC74072EB573203FB0CF734BFA2EB85
:10126000C742B2EBC74261EB57310CFB0EF7B0EB54
:10127000C70072EB57720CFB08F734BFA2EBC70232
:10128000B2EBC70261EB577115EB4C254FEA816158
:1012900041EA92114FEA82624FEAD13742EA901254
:1012A00006FB07FC44F100044FEA80604FEA1C4C47
:1012B0000CFB0BF7D21B03FB0CF761EB07010CFBDC
:1012C0000EF7B0EB074072EB17420CFB08F734BF88
:1012D000A2EB0742B2EB074261EB174115EB1C157D
:1012E0004FEA813141EA92414FEA823242EA90422A
:1012F0004FEA80304FEA0C7644F1000448EA034399
:101300004EEA0B484FF0000EB2EB080C71EB0307EE
:1013100024BF624639464EEB0E0E4FF0000B00180C
:10132000524149414BEB0B0BB2EB080C71EB03073D
:101330007BF1000B24BF624639464EEB0E0E4FF098
:10134000000B0018524149414BEB0B0BB2EB080C60
:1013500071EB03077BF1000B24BF624639464EEB6D
:101360000E0E51EA020718BF46F0010616EB0E7684
:1013700055F1000254F1000103D5BDE88901BDE833
:101380000088BDE88901BDE80048B619524141EB2B
:101390000101A3F10103704780807F7E7D7C7B7A11
:1013A0007978777676757473727171706F6E6E6D11
:1013B0006C6C6B6A6A6968686766666564646363B7
:1013C00062616160605F5F5E5E5D5D5C5C5B5B5A3D
:1013D0005A595958585757565655555554545353AA
:1013E00052525251515050504F4F4F4E4E4D4D4D05
:1013F0004C4C4C4B4B4B4A4A4A4949494848484750
:10140000474747464646454545444444444343438D
:101410004342424242414141002B9C4630D4770036
:101420002BD01CB54FEA370703B44FF010004FF034
:101430001001BAF1000F06D0BCF1000FDCBF40F084
:10144000080040F008014FF000000FBCBDE810405C
:101450000BF1010BBBF1010F08BF5FEA170722BFB9
:1014600012F1010211F101014FF0004143F10003BB
:1014700000F0004043EA00007047F9D35708D0E776
:1014800046EA064613F1400F4FEA16461FDD13F1F8
:10149000200FDFBF16430A46002120335B42BED037
:1014A000C3F1200746EA064602FA07F74FEA164656
:1014B00046EA0706C3F1200722FA03F201FA07F70A
:1014C00021FA03F14FF0000342EA0702A7E746EAD8
:1014D000020646EA06464FEA164646EA0106BCBF41
:1014E00046EA0646360C4FF000034FF000024FF07C
:1014F000000194E72DE9804C9A46934670B491E838
:10150000380007C831EA400C48BF34EA430C03D521
:10151000FFF7E6FDFFF780FFF0BCBDE8008C2DE98A
:10152000804C9A46934670B491E8380007C810F092
:10153000804F08BF13F0804F03D100F005F8FFF78C
:101540006BFFF0BCBDE8008C20F07F4780EA030011
:1015500023F07F4C07EB0C03A3F57C5300F0004015
:10156000A3F1FE0392F0000F00F0B38095F0000F9E
:1015700000F077802DE901494FEA11404FEA144607
:1015800021EA004800FB06FC24EA064708FB06F6B1
:1015900007FB08F800FB07F718EB06484CEB164C66
:1015A0004FEA124B18EB07484FEA15464CEB174031
:1015B00022EA0B4E0BFB06FC25EA06470EFB06F65D
:1015C00007FB0EFE0BFB07F71EEB064E4CEB164C13
:1015D0004FF000061EEB074E4CEB174B18EB0B08B9
:1015E00040F1000018EB0E0B58EB000840F1000032
:1015F0008F1A4FF000013CBFC943661B14BFB5EB07
:10160000040C00213CBFC943F61B4FEA17444EEAC5
:101610008E0E27EA04454FEA1C4704FB07622CEABA
:10162000074C05FB07F70CFB05F604FB0CFC16EB5F
:10163000074642EB174216EB0C4642EB1C421BEBF3
:10164000060658EB0202414146EA9E0601D5BDE876
:101650000189B619524141EB0101A3F10103BDE833
:1016600001894FEA14454FEA114724EA054621EA69
:10167000074C05FB07F406FB07F70CFB06F105FB1F
:101680000CFC11EB074144EB17444FEA124711EBF6
:101690000C4144EB1C4422EA074C05FB07F206FB15
:1016A00007F70CFB06F605FB0CFC16EB074642EBB6
:1016B000174216EB0C4642EB1C456A1854F1000128
:1016C00048BF7047B619524141EB0101A3F1010334
:1016D000704795F0000F37D04FEA11424FEA144798
:1016E00021EA024624EA074C02FB07F106FB07F752
:1016F0000CFB06F402FB0CFC14EB074441EB174116
:101700004FEA154714EB0C4441EB1C4125EA074C0A
:1017100002FB07F506FB07F70CFB06F602FB0CFCC9
:1017200016EB074645EB174516EB0C4645EB1C42FE
:10173000121951F1000148BF7047B619524141EBEF
:101740000101A3F1010370474FEA14454FEA114725
:1017500024EA054621EA074C05FB07F106FB07F7DB
:101760000CFB06F24FF0000605FB0CFC12EB0742E7
:1017700041EB174112EB0C4251EB1C4148BF704743
:10178000921841EB0101A3F1010370472DE9FC41DF
:101790001646DDE90824AB2727706070951DA170FF
:1017A000E6702271100AADB2607123B11AB1194608
:1017B000A01DFEF736FF00216E4601AB0A46084623
:1017C00006E0275C401C3944C9B20A44D2B280B258
:1017D0002F46A842F5D331701A709DF8000060556D
:1017E00061199DF804004870BD1CAAB2642321460B
:1017F000024802F057F9BDE8FC810000E00100203A
:10180000DFED191A00B520EE210A89B004A902AB58
:10181000BDEEC00A032210EE100A20EEA10A8DF8D8
:101820000800000A8DF80900BDEEC00A10EE100A8B
:1018300021EE210A8DF80A00000A8DF80B00BDEE9A
:10184000C00A10EE100A8DF80C00000A8DF80D0089
:1018500001208DF80E000720CDE90001FE21DD20DA
:10186000FFF794FF09B000BD0000C84270B58CB00E
:101870000DF1400C9CE870008DF80800000A8DF80E
:1018800009008DF80A10080A8DF80B008DF80C205D
:10189000100A8DF80D008DF80E30180A8DF80F0023
:1018A0008DF81040200A8DF811008DF81250280A8A
:1018B0008DF813008DF8146006A90D20CDE9000104
:1018C00002AB0122FE21DD20FFF760FF0CB070BDEE
:1018D00000B587B003A98DF808000120CDE900010B
:1018E00002ABA022FE21DD20FFF750FF07B000BDB4
:1018F00010B58AB00C9C8DF80800000A8DF809001C
:101900008DF80A10080A8DF80B008DF80C20100ACB
:101910008DF80D008DF80E30180A8DF80F0005A90E
:101920000920CDE900018DF8104002AB0222FE2112
:10193000DD20FFF72BFF0AB010BD0000DFED232AEA
:1019400000B520EE220A8BB005A902ABBDEEC00A9D
:10195000F12210EE100A20EEA20A8DF80800000A0B
:101960008DF80900BDEEC00A10EE100A21EE220A21
:101970008DF80A00000A8DF80B00BDEEC00A10EECB
:10198000100A21EEA20A8DF80C00000A8DF80D0055
:10199000BDEEC00A10EE100A22EE220A8DF80E00EB
:1019A000000A8DF80F00BDEEC00A10EE100A8DF887
:1019B0001000000A8DF811000A20CDE90001FE2177
:1019C000DD20FFF7E3FE0BB000BD00000000C842C1
:1019D000FEE70000014800F0EDB8000074020020AE
:1019E000014800F0E7B8000080010020014800F045
:1019F000E1B80000D40200200D4902688A4201D2F9
:101A00000C4901E00B492031D2B21423083AB2FB51
:101A1000F3F2436C02F01F0223F0030319448164C4
:101A200004498031C1640121914001657047000083
:101A300008040240000802400179074A02EB8102D3
:101A40004265054A4432491E826501F01F020121A8
:101A50009140C16570470000FC08024030B5D0E9F4
:101A600013456560446D14B1D0E91645656090F882
:101A7000444004F01F050124AC40056C6C60046810
:101A800063608368102B036803D099600068C260AC
:101A900030BD9A600068C16030BD0000094801682F
:101AA00041F080710160084800214160016841F007
:101AB000010101600068C00701D0002070470120CB
:101AC00070470000FCED00E0001000E0704772B6C7
:101AD000FEE710B590F8253000210122022B03D03B
:101AE0000421C163012122E003681C6824F00E0474
:101AF0001C60836C1C6824F480741C6003681C6880
:101B000024F001041C6090F84430046C03F01F03BF
:101B100002FA03F36360D0E913345C60436D33B1C0
:101B20001C6824F480741C60D0E916345C6080F872
:101B30002520002280F82420084610BD70B590F8BA
:101B40002520002401212346022A07D00422C26353
:101B500080F8251080F82430012429E002681568F7
:101B600025F00E0515600268156825F00105156061
:101B7000826C156825F48075156090F84420056C1A
:101B800002F01F0201FA02F26A60D0E913255560E3
:101B9000426D32B1156825F480751560D0E91625BF
:101BA000556080F8251080F82430816B01B188479A
:101BB000204670BDF0B4016C0C6801680D6890F8A7
:101BC000442002F01F06042202FA06F3234211D039
:101BD0006B070FD50B689B0603D40B6823F0040337
:101BE0000B6090F8441001F01F018A40016C4A60BC
:101BF000016B1DE0022303FA06F727424FF0000CA9
:101C00004FF0010218D0AF0716D50C68A40605D412
:101C10000C6824F00A040C6080F8252090F8441029
:101C200001F01F018B40016C4B6080F824C0C16A39
:101C300000291AD0F0BC08470823B340234214D02F
:101C40002B0712D50B6823F00E030B6090F844109D
:101C5000036C01F01F0102FA01F15960C26380F8C0
:101C6000252080F824C0416BE2E7F0BC70470000FB
:101C700070B504000CD02B4A21681420914209D27F
:101C8000294A0A44B2FBF0F08000606427480AE069
:101C9000012070BD234A52420A44B2FBF0F080009A
:101CA0006064204808382064022084F825000A680F
:101CB00047F6F0708243D4E902031843D4E90435AF
:101CC0002B431843A3691843E3691843236A184355
:101CD000104308602046FFF78FFEA0680025B0F58E
:101CE000804F00D16560A16C20790860D4E91301B0
:101CF00041606068401E032808D82046FFF79CFE1C
:101D0000606D0560D4E91601416002E06565A56576
:101D1000E565E563012084F8250084F8245000205F
:101D200070BD000008040240F8FFFDBF0000024043
:101D300070B5044690F82400002501280CD001203D
:101D400084F8240094F825600020012E06D084F841
:101D500024000225284670BD022070BD022684F8AA
:101D60002560E0632068066826F0010606602046CC
:101D7000FFF774FE206B00282068016802D041F054
:101D80000E0106E021F0040101602068016841F0C5
:101D90000A010160A06C0168C90303D5016841F420
:101DA00080710160606D18B1016841F4807101605B
:101DB0002068016841F001010160CBE770B504467D
:101DC00000F038F90546601C02D00448406804441D
:101DD00000F030F9401BA042FAD370BD0000002093
:101DE0002DE9F04FDFF82092002301260324A9F10A
:101DF000040B85B00F2709F1040AABF1040EFAE0D9
:101E000006FA03F52A407CD091F804C00CF0030CCC
:101E1000BCF1010F02D0BCF1020F26D1D0F808C0EE
:101E2000CDF800C04FEA430C04FA0CF8CDF810C00E
:101E3000DDF800C02CEA080CCDF800C0D1F80C8009
:101E4000DDF810C008FA0CF8DDF800C048EA0C080C
:101E5000C0F80880D0F804C02CEA050C0D79C5F351
:101E600000159D4045EA0C0545600D79ED43AD0731
:101E70000ED0C5684FEA430804FA08FC25EA0C05B1
:101E8000D1F808C00CFA08FC4CEA050CC0F80CC0EC
:101E90000D7905F00305022D16D1DD0800EB850C48
:101EA000CDF808C0DCF820805D074FEAD56C07FA52
:101EB0000CF528EA05080D6905FA0CF5DDF808C0EF
:101EC00045EA0805CCF8205005684FEA430CCDF8E8
:101ED00008C004FA0CFC25EA0C0591F804C00CF0CB
:101EE0000308DDF808C008FA0CF848EA0508C0F84D
:101EF00000804D6815F4403F7CD0444DD5F860C05B
:101F000000E077E04CF0010CC5F860C02D6E23F0C6
:101F1000030C05F0010500953D4D65440295AD6843
:101F20004FEA837C4FEA1C7807FA08FC25EA0C0587
:101F3000B0F1904F06D0DFF8DCC0604505D14FF01E
:101F4000010C20E04FF0000C1DE0DFF8CCC0604534
:101F500002D14FF0020C16E0DFF8C0C0604502D19C
:101F60004FF0030C0FE0DFF8B8C0604502D14FF02E
:101F7000040C08E0DFF8ACC0604502D14FF0050C5E
:101F800001E04FF0060C0CFA08FC4CEA050C029D2F
:101F9000C5F808C0D9F80050CC46D1F80480954364
:101FA0005FEAC82800D51543CCF80050DAF8005095
:101FB000D446D1F8048095435FEA882800D51543BC
:101FC000CCF80050DBF80050DC46D1F80480954393
:101FD0005FEA883800D51543CCF80050DEF8005091
:101FE000F446D1F8048095435FEAC83800D515431C
:101FF000CCF800505B1C0A6832FA03F57FF400AF9E
:1020000005B0BDE8F08F0000080401400010024058
:10201000000001400004004800080048000C00488F
:1020200000100048001400480AB1816170478162C5
:1020300070470000014880687047000000000020E1
:1020400090F84120202A24D190F84020012A20D065
:10205000012280F84020242280F841200268136881
:1020600023F0010313600268136823F480531360A4
:10207000026813680B43136001680A6842F00102AA
:102080000A60202180F84110002180F840100846A5
:1020900070470220704790F84120202A22D190F802
:1020A0004020012A1ED0012280F84020242280F8FE
:1020B00041200268136823F001031360026813686B
:1020C00023F4706343EA0121116001680A6842F059
:1020D00001020A60202180F84110002180F84010A0
:1020E000084670470220704770B5040004D094F889
:1020F0004100002510B106E0012070BD84F8405079
:10210000204600F0ADF9242084F8410020680168E1
:1021100021F0010101606068216820F070600861B1
:102120002068816821F400418160E0680128A0688E
:1021300030D040F4044021688860E06802282068BC
:1021400041682AD021F40061416020684168144A46
:10215000114341602068C16821F40041C160D4E9A5
:1021600004010843A16940EA01202168C860D4E95C
:1021700007010843216808602068016841F00101F7
:1021800001606564202084F84100256384F8425092
:10219000002070BD40F40040CDE741F40061D3E77A
:1021A000008000022DE9FF4F83B00446DDE910876F
:1021B00090F84100DDF848909A469346202874D163
:1021C0005FEA080014D09FB194F8400001286CD059
:1021D000012084F84000FFF72DFF06460122009001
:1021E0001923D103204601F025FE002871D103E018
:1021F0004FF4007060646CE0222084F841004020BD
:1022000084F8420000256564C4F82480678565630E
:10221000CDE9009653465A462046049901F08EFDBA
:1022200010B184F8405054E0618D3548FF274FF0DD
:1022300080784FF0007AFF2904D927853A46434633
:10224000009005E0618D2185009094F82820534688
:102250002046049901F0D6FD4B4600220421204679
:10226000009601F0E7FDA0BB2068406A616A087033
:10227000606A401C6062208D401E81B22185608DA5
:10228000401E6085608DD8B1D1B94B4600228021B7
:102290002046009601F0CEFDD8B9608DFF2805D903
:1022A00027853A464346009506E026E0608D208566
:1022B000009594F8282053462046049901F0A2FD89
:1022C000608D0028C8D132464946204601F0EFFD16
:1022D00018B1012007B0BDE8F08F21682020C86147
:1022E00021684A68074B1A404A6084F8410084F824
:1022F000425084F840500020ECE70220EAE700005A
:102300000024008000E800FE2DE9FF4F83B0044662
:10231000DDE9108790F84100DDF848909A46934631
:10232000202871D15FEA080014D09FB194F84000D2
:10233000012869D0012084F84000FFF77BFE0646A3
:10234000012200901923D103204601F073FD0028DB
:102350006ED103E04FF40070606469E0212084F8DE
:102360004100402084F8420000256564C4F82480C0
:1023700067856563CDE9009653465A462046049921
:1023800001F00EFD10B184F8405051E0608DFF2740
:102390004FF080784FF0007AFF2804D927853A461D
:1023A0004346009505E0608D2085009594F828202F
:1023B00053462046049901F025FD32464946204601
:1023C00001F0A0FDA0BB606A216800788862606AA5
:1023D000401C6062608D401E6085208D401E80B272
:1023E0002085618DD9B1D0B94B460022802120468D
:1023F000009601F01FFDD8B9608DFF2805D927850B
:102400003A464346009506E026E0608D208500951B
:1024100094F8282053462046049901F0F3FC608D7F
:102420000028CAD132464946204601F040FD18B185
:10243000012007B0BDE8F08F20682021C16120682D
:102440004268064B1A40426084F8411084F84250BA
:1024500084F840500020ECE70220EAE700E800FEA4
:10246000F0B597B00446142111A8FEF741F94421B4
:102470006846FEF73DF920492068884239D140205E
:10248000002500900695684600F034F908B1FFF782
:102490001EFB1A4CE06C40F00100E064E06C00F0C0
:1024A00001001690E06C40F00200E064E06C12263F
:1024B00000F00200169004274FF40040CDE91265A9
:1024C000CDE91457119011A9B006FFF789FC8020BF
:1024D000CDE91265CDE91457119011A90848FFF70D
:1024E0007FFCA06D40F40010A065A06D00F400100A
:1024F000169017B0F0BD00000054004000100240DC
:1025000000040048024881684268114481607047B5
:102510000000002010B50024032000F073F80F2005
:1025200000F008F808B1012401E000F025F8204689
:1025300010BD000070B50E4E05460024706898B1BD
:102540004FF47A71B1FBF0F00A490968B1FBF0F081
:1025500000F05EFD40B9102D06D200222946501E23
:1025600000F030F8356000E00124204670BD000026
:10257000000000200C0000200A4882B0016E41F0EB
:1025800001010166016E01F001010091816D41F0D0
:1025900080518165806D00F08050009002B000F0A5
:1025A000A1B8000000100240002809DB00F01F0263
:1025B000012191404009800000F1E020C0F80011A5
:1025C00070470000F0B40E4B1B680C46C3F30223A7
:1025D000C3F10705042D00D90425191D072901D2CF
:1025E000002300E0DB1E012606FA05F1491E21400A
:1025F00099409E40761E16403143F0BC02F0D0BD9B
:102600000CED00E0064900F0070208684FF6FF03F2
:10261000184040EA0220034A104308607047000057
:102620000CED00E00000FA052B492C4B0A68322122
:102630004A432B4940B1B0F5007F086829D020F407
:10264000C06040F480602CE00868C0F3412002289C
:1026500004D051F8800F20F4807022E0D1F880007F
:1026600020F48070C1F88000086820F4C06040F455
:1026700000700860B2FBF3F0401C00E0401E4A69A5
:10268000520501D50028F9D1486940050AD5032033
:102690007047C0F34120022806D051F8800F40F463
:1026A0008070086000207047D1F8800040F480708E
:1026B000C1F88000086820F4C06040F40070086031
:1026C000B2FBF3F0401C00E0401E4A695205DBD526
:1026D0000028F9D1D8E700000C00002040420F008C
:1026E000007000400248816841F480418160704779
:1026F000007000402DE9F8430446006800269D4D17
:1027000000035ED5A86D0027C00008D4A86D40F076
:102710008050A865A86D012700F080500090DFF878
:102720005892D9F8001041F48071C9F80010FFF7F1
:1027300081FC804606E000BFFFF77CFCA0EB0800B0
:1027400002282BD8D9F80000C005F5D5D5F890009F
:1027500010F4407014D0216C814211D0D5F8900053
:10276000D5F8901020F4407041F48031C5F89010F5
:10277000D5F8901021F48031C5F89010C5F890007C
:10278000C00711D0FFF756FC804641F2883907E0B8
:10279000FFF750FCA0EB0801494501D903260BE0E7
:1027A000D5F890008007F3D5D5F89000216C20F47F
:1027B00040700843C5F890001FB1A86D20F080500C
:1027C000A8652078C00707D0D5F88800616820F098
:1027D00003000843C5F888002078800707D5D5F89E
:1027E0008800A16820F00C000843C5F88800207814
:1027F000400707D5D5F88800E16820F0300008438D
:10280000C5F888002078000707D5D5F88800216929
:1028100020F0C0000843C5F888002078800607D55E
:10282000D5F88800616920F440600843C5F8880045
:102830002078400607D5D5F88800A16920F44050DB
:102840000843C5F888002078000607D5D5F8880029
:10285000E16920F440400843C5F888002088C0059D
:1028600007D5D5F88800216A20F440300843C5F820
:1028700088002088800507D5D5F88800616A20F493
:1028800040200843C5F88800208840050FD5D5F8BA
:102890008800A16A20F440100843C5F88800A06AA7
:1028A000B0F5801F03D1E86840F48010E86020880C
:1028B00000050FD5D5F88800E16A20F440000843F0
:1028C000C5F88800E06AB0F5800F03D1E86840F4ED
:1028D0008010E8602088C0040FD5D5F88800216BEF
:1028E00020F040700843C5F88800206BB0F1807F6D
:1028F00003D1E86840F48010E86020884FF0006160
:1029000080040ED5D5F88800626B20F0406010433B
:10291000C5F88800606B884203D1E86840F48010F5
:10292000E860208840040ED5D5F88800A26B20F01E
:1029300040601043C5F88800A06B884203D1E86866
:1029400040F48010E860208800040FD5D5F8880096
:10295000E16B20F040500843C5F88800E06BB0F10F
:10296000805F03D1E86840F48030E8603046BDE81D
:10297000F883000000100240007000402DE9F0478D
:102980000E4605004FF0000725D0DFF8AC81D8F8DF
:10299000000000F00F00B0420CD2D8F8001021F077
:1029A0000F013143C8F80010D8F8000000F00F0004
:1029B000B04210D12968614CC80741F2883A5AD018
:1029C0006868DFF87C91032808D0022820682DD0A1
:1029D000400500282CDB0120BDE8F087206880013D
:1029E000F9D5E06800F00302E068C0F30310401C72
:1029F000032A19D0534A00BFB2FBF0F0E268C2F3D9
:102A000006225043E268C2F34162521C5200B0FBFE
:102A1000F2F0484517D9A06810F0F00F0CD08807E5
:102A200011D5A86840B10EE0474AE5E78003D0E73A
:102A300000F0B6F8484506D9A06820F0F00040F054
:102A40008000A0608027A068696820F00300084328
:102A5000A060FFF7EFFA814606E000BFFFF7EAFA51
:102A6000A0EB090151453AD8A068696800F00C0054
:102A7000B0EB810FF2D12868810714D5400703D548
:102A8000A06840F4E060A0602878000705D5A06841
:102A900020F4605040F4E060A060A068A96820F0D5
:102AA000F000084304E0802F03D1A06820F0F0007C
:102AB000A060D8F80010404601F00F01B14216D9CD
:102AC000016821F00F0131430160FFF7B3FA0746B7
:102AD00007E000BFFFF7AEFAC11B514501D9032043
:102AE0007AE7D8F8000000F00F00B042F2D1287861
:102AF000400705D5A068E96820F4E0600843A060BD
:102B00002878000706D5A068296920F4605040EABB
:102B1000C100A06000F044F8A1680C4AC1F30311A1
:102B2000515C01F01F01C84009490860094800686C
:102B3000BDE8F047FFF7FEBC002002400010024055
:102B400000B4C4040024F40000127A00629C00085F
:102B50000C00002000000020054806490068896834
:102B6000054AC1F30221515C01F01F01C8407047C2
:102B70000C00002000100240729C00080548064925
:102B800000688968054AC1F3C221515C01F01F0148
:102B9000C84070470C00002000100240729C0008E2
:102BA000184910B58868C0F381021748012A0BD074
:102BB0008A684310C2F38102022A06D08A68C2F3EF
:102BC0008102032A03D0002010BD184610BDCA6838
:102BD00002F00304CA68C2F30312521C032C02D091
:102BE000B0FBF2F001E0B3FBF2F0CA68C968C2F3CF
:102BF00006225043C1F34161491C4900B0FBF1F08A
:102C000010BD0000001002400024F4002DE9F8433C
:102C100004007AD02078F84DC00747D0A868E9684A
:102C200000F00C0001F003010C2802D0082817D096
:102C300001E0032914D06068B0F5803F17D0B0F5EB
:102C4000A02F286817D020F480302860286820F44E
:102C5000802028606068E0B1FFF7ECF9064614E0D8
:102C60002868800322D560680028D2D01EE028683A
:102C700040F48030EDE740F480202860F7E700BFA3
:102C8000FFF7D8F9801B642870D828688003F7D52F
:102C90000CE0FFF7CFF9064605E000BFFFF7CAF9E1
:102CA000801B6428F0D828688003F7D42078800738
:102CB0004CD5A868E96800F00C0001F003010C286D
:102CC00002D004280DD001E002290AD0E0680028D3
:102CD00028682BD040F480702860FFF7ABF90646D7
:102CE00019E02868400502D5E068002891D068689E
:102CF000217C20F0FE4040EA01606860BF48006827
:102D0000FFF718FC002800D120E072E1FFF792F9EC
:102D1000801B0228B8D828684005F7D56868217C50
:102D200020F0FE4040EA016068600FE020F480700F
:102D30002860FFF77FF9064605E000BFFFF77AF944
:102D4000801B0228A0D828684005F7D42078000707
:102D500029D560690028D5F8940013D040F001000F
:102D6000C5F89400FFF766F9064606E090E000BF5C
:102D7000FFF760F9801B022886D8D5F894008007F9
:102D8000F6D510E020F00100C5F89400FFF752F9E5
:102D9000064604E0FFF74EF9801B022878D8D5F8E4
:102DA00094008007F6D42078400761D5A86D0026EE
:102DB000C00008D4A86D40F08050A865A86D012619
:102DC00000F0805000908E480168C90511D4016858
:102DD000804641F480710160FFF72CF9074604E05A
:102DE000FFF728F9C01B022852D8D8F80000C00508
:102DF000F6D5A068012815D00528D5F8900016D082
:102E000020F00100C5F89000D5F8900020F00400F3
:102E1000C5F89000A06841F28838B8B1FFF70AF908
:102E200007460EE0D5F8900040F00100F0E740F0D2
:102E30000400C5F89000F5E7FFF7FCF8C11B414519
:102E400026D8D5F890008007F6D50CE0FFF7F2F809
:102E5000074604E0FFF7EEF8C11B414518D8D5F846
:102E600090008007F6D41EB1A86D20F08050A865B0
:102E70002078800629D5A0690028D5F8980013D0BD
:102E800040F00100C5F89800FFF7D4F8064606E0C8
:102E900075E000BFFFF7CEF8801B02286FD8D5F889
:102EA00098008007F6D510E020F00100C5F89800E2
:102EB000FFF7C0F8064604E0FFF7BCF8801B0228C5
:102EC0005DD8D5F898008007F6D4E069F0B3A9681A
:102ED000C1F3810103295DD00228286820F08070A9
:102EE000286003D0FFF7A6F804464BE0FFF7A2F8EE
:102EF000064604E0FFF79EF8801B02283FD82868AA
:102F00008001F7D4F4E908016FF00F0202EB011120
:102F10000843218A5204490802EB4151A26841EA60
:102F200002210843217D4FF07E42490802EB4161B6
:102F30000843217B40EAC160E968324A11400843F6
:102F4000E860286840F08070286000E05EE0E86893
:102F500040F08070E860FFF76DF8044605E000BFC0
:102F6000FFF768F8001B022809D828688001F7D508
:102F70004CE000BFFFF75EF8001B022802D90320D7
:102F8000BDE8F88328688001F4D4E8681E49084049
:102F9000E8603BE00128F3D0E868226A00F0030112
:102FA000914226D1616A00F0F00209011039914284
:102FB0001FD1A26A00F4FE41B1EB022F19D194F89F
:102FC0002C2000F07841B1EBC26F12D1218E00F4B9
:102FD000C00249084905A1F50011914209D194F8B0
:102FE000341000F0C06049084906A1F10071814227
:102FF0000CD00120C4E700000010024000000020B7
:10300000007000400C809F01FCFFEEFE0020B7E73F
:1030100010B5401EB0F1807F01D3012010BD4FF0EC
:10302000E02460610F21601702F0BAF80020A0616F
:1030300007202061002010BD70477047704770471F
:1030400070477047F0B590F83C20012A3AD001252E
:1030500080F83C50022280F83D2003685A689C6842
:10306000194E1A4FB34201D0BB4204D122F4700C66
:103070004A6842EA0C02DFF858C002EA0C02D1F8B2
:1030800000C04CEA020CC3F804C00268B2420DD082
:10309000B2F1804F0AD00F4B9A4207D00E4B9A42A2
:1030A00004D0BA4202D00D4B9A4204D1896824F070
:1030B00080031943916080F83D50002180F83C1056
:1030C0000846F0BD0220F0BD002C01400034014054
:1030D0008FFFFFFD00040040000800400040014059
:1030E000704710B5040003D094F83D0010B107E01C
:1030F000012010BD002084F83C00204600F022F89A
:10310000022084F83D00211D206801F0B7FB01205A
:1031100084F8480084F83E0084F83F0084F84000BA
:1031200084F8410084F8420084F8430084F84400A5
:1031300084F8450084F8460084F8470084F83D0090
:10314000002010BD38B5054600681D4A1D49904253
:103150002AD1086E40F400600866086E1B4C00F42B
:1031600000600090184820602E20606000208021C0
:10317000A060C4E90301490061618900C4E9061047
:10318000880020622046FEF773FD08B1FEF79FFC21
:103190002C62002211461920A562FFF713FABDE840
:1031A00038401920FFF700BAB0F1804F07D1886D81
:1031B00040F001008865886D00F00100009038BD86
:1031C000002C0140001002401C0002408001002041
:1031D00090F83D10012901D001207047022180F8AC
:1031E0003D100168CA6842F00102CA6000681049D7
:1031F00088420ED0B0F1804F0BD00E49884208D0E3
:103200000D49884205D00D49884202D00C498842B8
:1032100007D181680B4A1140062906D0B1F5803FDD
:1032200003D0016841F001010160002070470000F7
:10323000002C014000040040000800400034014020
:10324000004001400700010070B5044690F83C00C2
:103250000025012814D0012684F83C60022084F85F
:103260003D0022689068364B184020F47F40906003
:10327000086870282ED010DC10F00F0F03D021E06A
:103280004FF0020070BD4FEA2012072A1AD2DFE881
:1032900002F0525252524A3840002A4BC21A984207
:1032A00049D009DCB0F5805F0DD0B0F5005F1CD0CF
:1032B000B0F1101F06D13EE0102A3CD0202A3AD0AF
:1032C000502A38D0012584F83D60002084F83C0065
:1032D000284670BDCB68D1E90121206801F02CFBA4
:1032E0002068816841F0770109E0CB68D1E90121CC
:1032F000206801F021FB2068816841F480418160F1
:10330000E1E7CA684968206801F02AFB502120687B
:1033100006E0CA684968206801F033FB6021206834
:1033200001F014FBCFE7CA684968206801F018FB78
:1033300040212068F4E7226801461046F0E70000CB
:1033400088FFCEFF2000100070472DE9F0410446B1
:103350000068C66805694FF00007A90713D5B107D3
:1033600011D5F91E0161012020772068806980074E
:10337000204602D0FFF7E8FF04E000F0B7F820464F
:1033800000F0B5F82777680716D5700714D52168BF
:103390006FF004000861022020772068806910F433
:1033A000407F204602D0FFF7CFFF04E000F09EF8F8
:1033B000204600F09CF82777280715D5300713D54D
:1033C00021686FF008000861042020772068C06938
:1033D0008007204602D0FFF7B7FF04E000F086F830
:1033E000204600F084F82777E80616D5F00614D5B5
:1033F00021686FF010000861082020772068C069FC
:1034000010F4407F204602D0FFF79EFF04E000F05A
:103410006DF8204600F06BF82777E80708D0F00732
:1034200006D021686FF001000861204600F060F8C6
:10343000280601D4A80408D5300606D521686FF403
:10344000025008612046FFF7F8FDE80508D5300670
:1034500006D521686FF4807008612046FFF7ECFD07
:10346000680608D5700606D521686FF0400008612F
:10347000204600F03EF8A80608D5B00606D521681B
:103480006FF0200008612046FFF7D8FDE80208D55C
:10349000F00206D521686FF4801008612046FFF71E
:1034A000CFFDA80208D5B00206D521686FF4001040
:1034B00008612046FFF7C3FD680208D5700206D5F3
:1034C00021686FF4800008612046FFF7BAFD2802EA
:1034D0000AD5300208D521686FF400000861204643
:1034E000BDE8F041FFF7FCBDBDE8F08170477047D3
:1034F0007047704790F88410012918D0012180F896
:1035000084102421C0F8881001680A680B6823F031
:1035100001030B6022F0005100224266036819602B
:103520002021C0F8881080F88420104670470220BF
:1035300070477047704770B5044690F884000128C2
:103540001DD0012084F884002420C4F8880020685D
:103550000568026822F0010202602068826822F099
:1035600060620A438260204601F032FA20680560FA
:103570002020C4F88800002084F8840070BD022058
:1035800070BD70B5044690F8840001281DD001205C
:1035900084F884002420C4F8880020680568026844
:1035A00022F0010202602068826822F060420A4331
:1035B0008260204601F00CFA206805602020C4F8E3
:1035C0008800002084F8840070BD022070BD704720
:1035D000704770472DE9F04103680446D8691968BF
:1035E0009A6840F60F0528424FF000054FF002069A
:1035F0000AD187067ED501F0200702F0805C57EAE9
:103600000C0777D0616F42E1B64FDFF8DCC217409C
:1036100001EA0C0C57EA0C0C6CD05FEAC07C0CD0B1
:103620005FEAC15C09D54FF0010CC3F820C0D4F8A3
:10363000903043F00103C4F89030830709D5D307D5
:1036400007D023681E62D4F8903043F00403C4F816
:10365000903043070AD5D30708D026680423336285
:10366000D4F8903043F00203C4F8903003070CD52F
:1036700001F020033B4308D0266808233362D4F8C6
:10368000903043F00803C4F8903003050BD54B018C
:1036900009D526684FF400633362D4F8903043F0C4
:1036A0002003C4F89030D4F89030002B3DD0800631
:1036B00009D501F0200002F08051084303D0616F6A
:1036C00009B120468847D4F89000216889684906E6
:1036D00002D410F0280F2AD0204601F001FB206808
:1036E000806840061ED52068083050E8001F21F091
:1036F000400100E021E040E80012002AF3D1D4F8B4
:10370000800078B179498163D4F88000FEF716FA19
:1037100000280AD0D4F88000816B00E02046BDE884
:10372000F04108472046FFF754FFBDE8F0812046EE
:10373000FFF74FFFC4F89050F7E7D4F86CC020278C
:10374000BCF1010F7ED15FEAC06C7BD55FEAC16C32
:1037500078D51020186220688068400651D5D4F8CA
:1037600080100A6850680004000C3ED0B4F85C3049
:1037700083423AD9A4F85E000868006880062CD419
:10378000216851E8000F20F4807041E80002002A0F
:10379000F6D12068083050E8001F21F0010140E810
:1037A0000012002AF5D12068083050E8001F21F0EF
:1037B000400140E80012002AF5D1C4F88C70E5669B
:1037C000216851E8000F20F0100041E80002002AB3
:1037D000F6D1D4F88000FEF77CF92667B4F85C00D7
:1037E000B4F85E10401A81B207E0B4F85C10814270
:1037F0009BD11068800698D526672046FFF799FE72
:1038000093E7B4F85C00B4F85E10401A81B2B4F8E3
:103810005E00002889D0002987D0226852E8000F76
:1038200020F4907042E80003002BF6D12D4BDB43CF
:103830002068083050E8002F1A4040E8002CBCF106
:10384000000F00E00EE0F3D1C4F88C70E566656708
:10385000206850E8002F22F0100240E80023002BDF
:10386000F6D1C9E7C60209D5560207D54FF4801034
:1038700018622046BDE8F041FFF7AABE03060AD54C
:1038800001F0800302F40002134304D0A16F002969
:103890007FF444AF49E7420611D54A060FD52046CA
:1038A000016851E8002F22F0400241E80023002B7C
:1038B000F6D1C0F88870856700F094F935E7020208
:1038C00006D54A0004D52046BDE8F041FFF77FBE8B
:1038D000C00195D5002993DA2046BDE8F041FFF7F5
:1038E00029BE00000100001020010004894B0008DF
:1038F00010B5040003D0D4F8880010B107E001200F
:1039000010BD002084F88400204600F027F8242011
:10391000C4F888002068016821F001010160A06AF4
:1039200010B1204601F076F8204601F01BFA01287C
:10393000E6D02068416821F49041416020688168A8
:1039400021F02A0181602068016841F001010160D5
:103950002046BDE8104001F0C1B800002DE9F0415B
:1039600098B00646142111A8FCF7C2FE442168460F
:10397000FCF7BEFE34493068884261D10120002442
:10398000CDE900046846FEF7B5FE08B1FEF79FF8E2
:103990002E48016E41F480410166016E01F48041C0
:1039A0001691C16C41F00101C164C06C11A900F015
:1039B000010016904FF4C06011900220CDE912046E
:1039C0000720CDE914404FF09040FEF709FA214D51
:1039D0001F484FF0800828601820C5E90104C5E998
:1039E00003486C614FF48057AC61C5E9074728462E
:1039F000FEF73EF908B1FEF76AF8C6F88050AE62ED
:103A0000144D13486035283028601920686005F18E
:103A10000801102081E811016C61AC61C5E907471C
:103A20002846FEF725F908B1FEF751F8F5670022A0
:103A300011462520AE62FEF7C5FD2520FEF7B4FD38
:103A400018B0BDE8F08100000038014000100240CD
:103A5000080002407402002030B4D0F88C30202BD3
:103A600002D0022030BC7047A9B1A2B10023C366C6
:103A70000A4C0368A3420BD05B681B0208D504689C
:103A800054E8003F43F0806344E80035002DF6D150
:103A900030BC01F0A1BA0120E4E700000080004042
:103AA000704770472DE9F8430446D0F888009846DF
:103AB00016460D46202802D00220BDE8F883A5B1A5
:103AC0009EB10020C4F890002120C4F8880018346A
:103AD000FEF7B0FAA6878146E68754F8100C202737
:103AE000183CB0F5805F02D003E00120E5E72069D3
:103AF00010B12E46002510E000260EE08021204661
:103B000001F0BEFAC0B9DEB116F8010B2168886277
:103B1000B4F85600401EA4F85600B4F856004B46C0
:103B20004FF00002CDF800800028E7D14FF04001AF
:103B3000204601F0A5FA40B1C4F888700320BCE724
:103B400035F8020BC0F30800E0E7C4F888700020E5
:103B5000B3E7000070B50446D0F88800202801D0F3
:103B6000022070BD39B332B32165A4F85420A4F803
:103B700056200021C4F890102120C4F88800E06F7E
:103B8000D8B1154BC362E36F14481863E36F144850
:103B90005863E06F134681632068E56F00F12802E7
:103BA0002846216DFEF7C4F838B11020C4F8900003
:103BB0002020C4F88800012070BD216840200862E0
:103BC0002068083050E8001F41F0800140E80012F2
:103BD000002AF5D1002070BD934C0008D54C000898
:103BE0009D4B000807498A68904209D18888CA8895
:103BF0001044C0F3080088800020087004F074BFEF
:103C000070470000280000207047FEE701688A69BD
:103C1000D243920701D400228A6200688169C943B5
:103C2000C90703D0816941F001018161704700003B
:103C30002DE9F0470446006889460026816935462B
:103C40001746C9064FF0200841D51021C1612FE069
:103C5000B9F1FF3F2CD0FEF7EDF9C11B494502D861
:103C6000B9F1000F24D12068416894F8422001F492
:103C700080418369DB431B0415D4B1F5804F12D01A
:103C8000202A10D0416841F480414160FEF7D2F90A
:103C9000074608E0FEF7CEF9C01B192803D945F006
:103CA0002005012604E020688069C0438006F1D425
:103CB00020688069C043800602D5002EC8D003E08A
:103CC00016B92168C1F81C8045F004050126216859
:103CD0008869C20505D54FF4807245F00105CA61B7
:103CE0000126410509D522684FF4806145F0080599
:103CF000D1610126800502D40AE0800507D521683C
:103D00004FF4007045F00205C861012600E086B15D
:103D10002046FFF77BFF54F8240B4168064A114008
:103D20004160206A2843206284F81D800020A0772B
:103D300020773046BDE8F08700E800FE2DE9F84323
:103D400004461646DDE9089714489846DAB2009012
:103D50000023204600F056F83A464946204600F037
:103D6000D1F8B8B9F5B2B8F1010F08D02168300A1E
:103D700088623A464946204600F0C4F850B92068A7
:103D800085624B46002240212046009700F052F801
:103D9000002800D00120BDE8F8830000002000804A
:103DA0002DE9F8430446164615489846DDE908977C
:103DB000DAB2C3020090204600F024F83A464946A1
:103DC000204600F09FF8B8B9F5B2B8F1010F08D05D
:103DD0002168300A88623A464946204600F092F847
:103DE00050B9206885624B4600228021204600970A
:103DF00000F020F8002800D00120BDE8F883000082
:103E00000020008010B5C1F3090141EA02410268B7
:103E1000029C19432143506821F000414FF4806314
:103E200003EA5453024C234398430843506010BDA7
:103E3000FF63FF032DE9F0411D4617460E46044679
:103E4000DDF8188027E0424629462046FFF7F0FEBD
:103E500010B10120BDE8F081681C1CD0FEF7EAF823
:103E6000A0EB0800A84200D8ADB92068806936EA06
:103E700000000ED00020B8420DD154F8440F40F09D
:103E8000200044F80409202060700020A0702070F9
:103E9000DFE70120EFE72068806936EA000004D000
:103EA0000020B842CFD00020D4E70120F9E770B558
:103EB00016460D4604461EE0324629462046FFF7C8
:103EC000B7FE08B1012070BDFEF7B4F8801BA84210
:103ED00000D885B920688069C04380060BD554F8A6
:103EE000440F40F0200044F80409202060700020B6
:103EF000A0702070E6E720688069C0438006DBD4AC
:103F0000002070BD70B516460D46044620E03246CE
:103F100029462046FFF78CFE08B1012070BD681CC1
:103F200016D0FEF787F8801BA84200D885B9206814
:103F30008069C04380070BD554F8440F40F020003F
:103F400044F80409202060700020A0702070E4E78D
:103F500020688069C0438007D9D4002070BD00006C
:103F60002DE9F04F2DED108B0025FFB02C46DFED35
:103F7000F7BAF7A0AC2100687E900CA8FCF7B8FB5C
:103F800028216EA8FCF7B4FBDFEDF29AB0EE699A37
:103F9000F0EE698AB0EE698A03F0EAFEEEA0FCF763
:103FA0001BFA0120FDF794FC012138A802F052FD14
:103FB000010001D0F04806E038A90CA802F0FCFA94
:103FC00001000AD0ED48FCF707FA6420FDF7F6FE81
:103FD000641CE4B2032CE7D34CE038A802F0E6F905
:103FE000010001D0E6A0EEE702208DF8F40138AB25
:103FF00001227DA9682002F0D3FE02F0F3FA0DF150
:10400000E008002701268DF848718DF8806142464E
:10401000022152A802F036FC02F0E4FA08208DF8E2
:104020004E618DF84D618DF84C018DF886618DF8EB
:1040300085618DF84F718DF884018DF889718DF847
:1040400088718DF887614246022152A802F0F6FE7F
:1040500002F0C8FA38AA0CA9082002F0E1F938AA3F
:1040600003217EA802F056FE010001D0D2A0AAE7EB
:10407000032C09D3E048FCF7AFF94FF0FF307FB0D5
:10408000BDEC108BBDE8F08F38AA0121042002F0AE
:1040900031FD074602F0A6FAD8A0FCF79DF99DF87D
:1040A0003410332904D0E4A0FCF796F93846E6E74B
:1040B000ED48FCF791F9FDF7BDFF0446A2469FEDE0
:1040C000EBEADFF8AC939FEDEBBADFF8ACB300BFDF
:1040D000FDF7B0FF0646001B00EE100AB8EE400ADE
:1040E00080EE0EAA1AEE100A484501DCB0EE6BAA6B
:1040F000344638A96EA802F04FFC07000ED00146E6
:10410000DEA0FCF769F93220FDF758FE6D1CEDB218
:10411000052DDDD9E8A0FCF75FF9C7E79DF8DC01C4
:10412000002501067DD54006FCD59DF8EC10BDF9B3
:10413000B801B0EE000A04F023F8F0EE40DA9DF882
:10414000EC10BDF9BA01B0EE000A04F019F8F0EE77
:1041500040CA9DF8EC10BDF9BC01B0EE000A04F0B5
:104160000FF8B0EE40CA9DF8EC10BDF9C401B0EEF6
:104170004B0A03F0D3FFDFEDE0AA9DF8EC10BDF988
:10418000C60160EE2AFAB0EE4B0A03F0C7FF20EE3C
:104190002AFA9DF8EC10BDF9C801B0EE4B0A03F005
:1041A000BDFF60EE2AEA9DF83400332815D10CA932
:1041B00078A803F005F850B10146D0A0FCF70CF93F
:1041C000B0EE698AF0EE488AB0EE489A05E09DEDBF
:1041D000789ADDED798A9DED7A8AF0EE4A4AF0EE22
:1041E000683AB0EE484AB0EE493AF0EE6E2AB0EEC8
:1041F0004F2AF0EE6F1AB0EE4C1AF0EE6C0AB0EEE9
:104200006D0A03F0D7FD03F0ADFDA6EB0A00B0EE9A
:1042100040AAF0EE60AAB0EE41DA142801D3B2460B
:1042200000E091E0CDED520A8DED030AB0EE4D1A9B
:10423000FDF7E6FA9FEDBF0A4FF00008CDF80880C1
:104240006DEE800AFDEEE00A10EE900A6CEE800A38
:104250002CEE000A00B2FDEEE00ABDEEC00A10EE40
:10426000901ADFEDB50A10EE102A9FEDB40A2FEE7A
:10427000A01A09B212B221EE001AC1EE0B1ABDEE5D
:10428000E11A11EE103A2FEE201A6EEEA00A1BB2C0
:1042900021EE001A20EE800AC1EE0B1AC0EE0B0AC6
:1042A000BDEEE11A11EE107A0FFA87FCBDEEE00ABE
:1042B00010EE107A3FB2CDE900C7FDF7D7FABDEE98
:1042C000C80A0120009010EE100ABDEEE80AFA2399
:1042D00002B210EE100ABDEEC90A01B210EE100AC9
:1042E00000B2FDF705FB2DEEAD0A0CEEAC0A0CEEAC
:1042F0000C0A01F04DFFF0EE401AB0EE692AB0EE64
:104300004D1ADDED520A9DED030AFDF717FBDBF8B0
:104310000010711AB1F57A7F16D31DEE100ACBF892
:10432000006005F095FB06460F461AEE900A05F070
:104330008FFBCDE900011AEE100A05F089FB41EC74
:10434000100B53EC102BFBE001E100000AD7233CDB
:104350000001020000000000494D55EFBFBDEFBF56
:10436000BDCABCEFBFBDEFBFBDEFBFBDEFBFBDCA94
:10437000BC2E2E2E0D0A00003CBE0008FCBE00081C
:10438000424D49323730EFBFBDEFBFBDCABCEFBFB2
:10439000BDEFBFBDCAA7EFBFBDDCA3EFBFBDEFBF81
:1043A000BDEFBFBDEFBFBDEFBFBDEFBFBDEFBFBD39
:1043B0003A2025640D0A0000EFBFBDEFBFBDEFBF7F
:1043C000BDEFBFBDEFBFBDEFBFBDCAB9EFBFBDEF12
:1043D000BFBDCAA7EFBFBDDCA3EFBFBDEFBFBDEF41
:1043E000BFBDEFBFBDEFBFBDEFBFBDEFBFBD3A204B
:1043F00025640D0A00000000A4C00008494D55EFD7
:10440000BFBDEFBFBDCABCEFBFBDEFBFBDEFBFBDFE
:10441000EFBFBDC9A3EFBFBDEFBFBDEFBFBDCABCFE
:10442000EFBFBDEFBFBDC8A1EFBFBDEFBFBDEFBFC9
:10443000BDEFBFBD5C720A000A496E76616C6964AB
:1044400020424D4D33353020284175782920736541
:104450006E736F72202D2043686970204944203AA2
:1044600020307825780A00005CC0000800007A44FB
:104470006F12833A0000FA4424000020EFBFBDEF22
:10448000BFBDEFBFBDDDB6EFBFBDC8A1EFBFBDEF84
:10449000BFBDEFBFBDEFBFBD3A2025642C20EFBFED
:1044A000BDEFBFBDEFBFBDEFBFBDEFBFBDEFBFBD38
:1044B0002E2E2E0D0A000000EFBFBDEFBFBDC8A11C
:1044C000CAA7EFBFBDDCB4EFBFBDEFBFBDEFBFBD3F
:1044D000EFBFBDEFBFBDEFBFBDE0A3ACEFBFBDEF12
:1044E000BFBDEFBFBDC2B3EFBFBDCABCEFBFBDEF25
:1044F000BFBD0D0A0000000039FA8E3CEFBFBDEFD2
:10450000BFBDEFBFBDEFBFBDEFBFBDEFBFBDEFBFD5
:10451000BDEFBFBDEFBFBDDDB6EFBFBDC8A1EFBFF3
:10452000BDEFBFBDEFBFBDEFBFBD3A2025640D0A93
:10453000000000000000C842E62E6542000000476F
:1045400005A0CDE90267FBF747FF04F0B9FA0120A7
:10455000FDF734FCBCE50000526F6C6C3A20252E50
:1045600032662C2050697463683A20252E32662CFE
:10457000205961773A20252E32660D0A000000008E
:10458000154808B5816C41F004018164816C01F02B
:1045900004010091816C41F001018164806C002272
:1045A00000F00100009011460B20FEF70BF80B20E5
:1045B000FDF7FAFF002211460C20FEF703F80C204D
:1045C000FDF7F2FF002211460D20FDF7FBFFBDE8CD
:1045D00008400D20FDF7E8BF0010024010B586B07E
:1045E00014216846FCF784F81948C16C41F0200199
:1045F000C164C16C01F020010591C16C41F004015E
:10460000C164C16C01F004010591C16C41F001016C
:10461000C164C16C01F001010591C16C41F002015E
:10462000C164C06C0B4C00F00200059000224021D8
:104630002046FDF7F9FC4020009001200021CDE943
:104640000101039169462046FDF7CAFB06B010BD83
:104650000010024000080048134810B511490160DD
:104660001249416000210122C0E902120161416149
:104670008161C1610162FDF737FD08B1FDF727FADD
:1046800000210948FDF7DCFC08B1FDF720FA002104
:104690000548FDF700FD002803D0BDE81040FDF7F8
:1046A00016BA10BD0054004094000020C285B240EC
:1046B00010B588B000241948059406940394049416
:1046C0000094019414490294016044F26721C0E906
:1046D000011442F20F71C0E9031444618461FEF7D2
:1046E00000FD08B1FDF7F3F94FF48050039003A9E2
:1046F0000A48FEF7A9FD08B1FDF7E9F90094019415
:10470000694606480294FEF79DFC002801D0FDF79B
:10471000DEF908B010BD0000002C0140E8000020C8
:1047200010B588B0002416480094019402940394B4
:10473000049405944FF0804106940160A921C0E9DA
:104740000114C46004618461FEF7CBFC08B1FDF77D
:10475000BEF94FF48050009069460948FEF774FD99
:1047600008B1FDF7B4F9049404A905480694FEF7CE
:1047700069FC002801D0FDF7AAF908B010BD0000BF
:1047800034010020184810B5164901604FF4E1319A
:104790004160002181600C22C160C0E90412816186
:1047A000C161016241628162FFF7A2F808B1FDF7C1
:1047B0008EF900210C48FEF7E4FE08B1FDF787F9F9
:1047C00000210948FEF7B7FE08B1FDF780F9064859
:1047D000FEF790FE002803D0BDE81040FDF777B942
:1047E00010BD000000380140E0010020FEE7FEE7B8
:1047F00070477047FDF786BE00B593B03821684614
:10480000FBF776FF14210EA8FBF772FF0020FDF7DF
:104810000BFF0220C1010391402104910421CDE945
:10482000080100905521CDE90A1007900C900D90D9
:104830006846FEF7EBF908B172B6FEE70F200E905E
:1048400003200F90002010901190129004210EA8C8
:10485000FEF794F8002801D072B6FEE713B000BD51
:104860000248016841F470010160704788ED00E082
:104870000148FEF76ABD0000E80000202DE9F04382
:104880000268264B264D274E274C4FF08049984210
:1048900007D0484505D0A84203D0B04201D0A0427D
:1048A00003D122F070074A683A43204FDFF880C0F6
:1048B000DFF8808098420DD048450BD0A84209D03F
:1048C000B04207D0A04205D0B84203D0604501D025
:1048D000404503D122F44075CA682A434D6922F04D
:1048E00080022A4302608A68C2620A688262984231
:1048F00007D0A04205D0B84203D0604501D0404562
:1049000001D109690163012141610169C90703D02E
:10491000016921F001010161BDE8F083002C014033
:104920000004004000080040003401400040014005
:10493000004401400048014010B5846842EA032267
:1049400024F47F440A432243826010BD8268034BF3
:104950001A400A4342F00701816070478FFFCFFF82
:1049600010B5036A046A24F001040462846924F027
:10497000F00444EA021423F00A020A43846102624A
:1049800010BD10B5036A046A24F01004046284693F
:1049900023F0A00324F4704444EA023243EA0111F4
:1049A0008261016210BD000010B500280BD00246E4
:1049B000642305490548FFF775F8BDE8104040211C
:1049C0000148FBF773BE10BD54000020E001002039
:1049D00030B5416EB9B1026891689268C1F3426125
:1049E0000B4B520F9C5CE50003F10804A25CB5FB85
:1049F000F2F2A0F86A205A5C615CD200B2FBF1F1DD
:104A0000A0F8681030BD0121A0F86A10F8E7000096
:104A1000529C000890F82810090706D501684A68DA
:104A2000836B22F400421A434A6090F82810C907A9
:104A300006D001684A68C36A22F400321A434A6009
:104A400090F82810890706D501684A68036B22F49C
:104A500080321A434A6090F82810490706D5016849
:104A60004A68436B22F480221A434A6090F8281067
:104A7000C90606D501688A68C36B22F480521A43BE
:104A80008A6090F82810890606D501688A68036C48
:104A900022F400521A438A6090F82810490611D572
:104AA00001684A68436C22F480121A434A60416CE0
:104AB000B1F5801F06D101684A68836C22F4C002F8
:104AC0001A434A6090F82810090606D501684A681A
:104AD000C06C22F4002202434A6070472DE9F8437B
:104AE00000260446C0F89060FDF7A4FA80462068CE
:104AF00000684FF0200500076FF07E4713D543464E
:104B0000002229042046009700F0BAFA58B1216823
:104B100051E8000F20F0800041E80002002AF6D1A1
:104B2000C4F8885021E020680068400722D5434639
:104B300000224FF480012046009700F0A1FAC8B18E
:104B4000216851E8000F20F4907041E80002002A2B
:104B5000F6D12068083050E8001F21F0010140E83C
:104B60000012002AF5D1C4F88C5084F88460032028
:104B7000BDE8F883C4F88850C4F88C5044F86C6FD2
:104B8000666026760020F3E710B5806A0021A0F861
:104B90005E10A0F85610FEF71CFD10BD70B5846ABB
:104BA000D4F88800D4F88C50216889684FF000064A
:104BB000090606D5212804D1A4F85660204600F045
:104BC000B9F820688068400606D5222D04D1A4F8E3
:104BD0005E60204600F084F8D4F8900040F01000A9
:104BE000C4F890002046FEF7F4FC70BD10B50146F5
:104BF000806A096809684FF0000289062DD4A0F880
:104C00005E20036853E8001F21F4807143E800141C
:104C1000002CF6D10168083151E8003F23F0010370
:104C200041E80034002CF5D10168083151E8003F1B
:104C300023F0400341E80034002CF5D12021C0F8D6
:104C40008C10C16E012908D1016851E8003F23F0A2
:104C5000100341E80034002CF6D10267C16E01292F
:104C600002D0FEF71DFF10BDB0F85C10FEF761FC2E
:104C700010BD10B5806A01210167C16E012902D003
:104C8000FEF70FFF10BDB0F85C104908FEF751FCAD
:104C900010BD10B50146806A09680968890616D4F6
:104CA0000021A0F856100168083151E8002F22F0C9
:104CB000800241E80023002BF5D1026852E8001F72
:104CC00041F0400142E80013002BF6D110BDFEF781
:104CD00089FF10BD10B5806AFEF796FF10BD000079
:104CE00010B5026852E8001F21F4907142E80013E9
:104CF000002BF6D10E4B0268083252E8001F194013
:104D000042E80014002CF6D1C16E012908D10168D7
:104D100051E8002F22F0100241E80023002BF6D1C9
:104D20002021C0F88C100021C166416710BD000031
:104D3000FEFFFFEF026852E8001F21F0C00142E8C9
:104D40000013002BF6D10168083151E8002F22F43E
:104D5000000241E80023002BF5D12021C0F8881083
:104D6000704700002DE9F04104460168806822691F
:104D7000E3691043626900251A431043DFF82CC22F
:104D80000A688B4B1A4002430A6020684168E26857
:104D900021F44051114341602168A069614501D06F
:104DA000226A10438A68834B1A4002438A60206853
:104DB000C16A626A21F00F011143C1627E49236812
:104DC0007E488B420DD1D0F8880010F0030006D049
:104DD000012855D0022842D003283FD152E00120BB
:104DE0003DE077498B420BD1D0F8880010F00C00E1
:104DF00035D0042833D0082840D00C282ED141E0EB
:104E000070498B420BD1D0F8880010F0300026D0CA
:104E1000102835D0202831D030281FD132E06A49FF
:104E20008B420BD1D0F8880010F0C00017D040287A
:104E300026D0802822D0C02810D123E063450DD190
:104E4000D0F8880010F4406009D0B0F5806F17D01A
:104E5000B0F5006F12D0B0F5406F13D010205B4951
:104E60005B4F00264FF4004263453BD160B10228FE
:104E700013D004280BD0082872D10DE00220EEE7F1
:104E80000420ECE70820EAE7FDF766FE01E0FDF705
:104E900087FE010001D17CE01146606A37F81020DE
:104EA0006768B1FBF2F007EB4703834270D8B0EBC1
:104EB000073F6DD8002308461946FBF716FA09028A
:104EC00041EA106102027808101871413A46002345
:104ED000FBF70BFA3F4AA0F54071914258D8216880
:104EE000C86056E0E3694FF6EF7893422CD1092869
:104EF0004ED2DFE800F00508114D0D4D4D4D10006C
:104F0000FDF72AFE01E0FDF739FE010004D140E083
:104F1000FDF746FEF9E71146606A37F81000B1FB6D
:104F2000F0F04100606801EB5001B1FBF0F0A0F13E
:104F3000100141452CD84FF6F0710140C0F34200FA
:104F400001432068C16024E0092821D2DFE800F095
:104F5000050912200E2020201100FDF7FDFD02E0C2
:104F600016E0FDF70BFE010004D112E0FDF718FE7C
:104F7000F9E71146606A37F81000B1FBF0F160689C
:104F800001EB5001B1FBF0F0A0F1100141450AD94D
:104F900001250120A4F86A0024F8680F2846E6607D
:104FA0002661BDE8F08180B299E7000000800040F2
:104FB000F369FFCFFFF4FF110038014000100240F9
:104FC0000044004000480040004C00400024F40031
:104FD0003A9C0008FFFC0F0070B58165A0F85C20CA
:104FE00000210446C0F890102220C4F88C00D4F8A8
:104FF0008000F0B11F4BC362D4F880301E481863A4
:10500000D4F880301D485863D4F88000134681637B
:10501000A56D21682A462431D4F88000FCF788FE6B
:1050200038B11020C4F890002020C4F88C00012072
:1050300070BD206940B1216851E8000F40F48070D4
:1050400041E80002002AF6D12068083050E8001F2D
:1050500041F0010140E80012002AF5D12068083033
:1050600050E8001F41F0400140E80012002AF5D14D
:10507000002070BDED4B0008734C00089D4B0008EC
:105080002DE9F047994617460D4604464FF00008B3
:10509000089E33E0701C31D0FCF7CCFFA0EB090078
:1050A000B04218D8BEB120680168490726D5802DC6
:1050B00024D0402D22D0C169C94309070DD4082549
:1050C00005622046FFF70CFEC4F8905084F88480F7
:1050D0000120BDE8F0870320FBE7C069C04300055D
:1050E0000CD421684FF4006008622046FFF7F8FDF9
:1050F0002020C4F8900084F88480ECE72068C06920
:1051000035EA000004D00020B842C3D00020E0E718
:105110000120F9E710B50B48FEF75CFA0949086869
:10512000C269D243D2060CD410220262D1F88000A8
:1051300000684068BDE81040C0F1400080B2FFF751
:1051400033BC10BDE0010020FEE703B4019841002C
:10515000009850EAC12018BF04204A0D18BF40F043
:10516000010040F2FF72B2EB515F08BF40F0020055
:10517000012808BF052002B070474100080218BF8F
:1051800004200A0E18BF40F001004FF07F4232EABF
:10519000010108BF40F00200012808BF0520704748
:1051A0000907090E002804DB00F1E02080F8001454
:1051B000704700F00F0000F1E02080F8141D7047E8
:1051C00010B54FF00E402DED028BB0EE408A18EE78
:1051D000104A00EB4400B0F1506F4AD84FF0FC4049
:1051E000B0EB440F22D2B0EEC80AF7EE000A30EE60
:1051F000C00AF6EE000A60EE208A18EE900A03F06C
:1052000040FC01EE100A14F0004F1DBFDFED2D0A27
:105210009FED2D0AB1EE411ADFED2C0A08BF9FED7C
:105220002C0AF8EE001A21EE218A05E0DFED290AAA
:1052300068EE088AB0EE600A9FED271ADFED271AA4
:1052400030EE080A48EE811A9FED251A08EEA11AE1
:10525000DFED241A48EE811A9FED231A08EEA11AF9
:1052600068EE281ABDEC028B01EE810A30EE200AAE
:1052700010BD4FF0E440B0EB440F0CD918EE100A0B
:10528000FFF77BFF042808BF01F080F8B0EE480A62
:10529000BDEC028B10BD4FF07F40B0EB440F07D246
:1052A000B0EE480ABDEC028BBDE8104001F060B8DA
:1052B0000120FBF74DFABDEC028BBDE8104001F078
:1052C0005DB800000000C9BF22AAFDB90000C93FB7
:1052D00022AAFD390000000024FE1C3DC78AD83CEC
:1052E0001E67383D1B93993DAFAA2A3E10EE100A67
:1052F00010B510EE901A4FF0684202EB40032DED0E
:10530000028BB3F1654F3CBF02EB4102B2F1654F36
:105310007CD200BFC0F3C753C1F3C7529A1A1B2AED
:1053200009DD10F0004F14BF9FED6E0A9FED6E0A6D
:10533000BDEC028B10BD12F11A0F1BDA11F0004FF9
:1053400009D010F0004F0CBF9FED680A9FED680A6E
:10535000BDEC028B10BD80EE208A18EE100AFFF71C
:105360000CFF042808BF01F011F8B0EE480ABDECAC
:10537000028B10BD4200B2EB410F37D910F0004F45
:1053800019BFDFED5C1A9FED5C1ADFED5C1A9FED33
:105390005C1AB0EE602A0A46F1EE400A80F0004145
:1053A000B0EE420A10460A1A5200B2F1807F34D29F
:1053B000484010F0004FDFED532A9FED533A1DBFD8
:1053C000BEEE002A71EEE21A31EE431AB6EE002A62
:1053D00004BF71EEA21A31EE031AF0EE402A42EE3B
:1053E000602A40EE020A82EEA02A18E011F0004F77
:1053F00004BF9FED461AF0EE411AD4D010F0004FD2
:105400001CBFDFED431A9FED431A00E026E004BF06
:10541000DFED411A9FED411AC5E780EE202A22EE0A
:10542000020ADFED3F0ADFED3F2ABDEC028B40EEC2
:10543000202ADFED3D0A40EE220ADFED3C2A40EE55
:10544000202ADFED3B0A40EE220A22EE000A00EE9F
:10545000201A31EE020A30EE210A10BD4FF07F42D1
:10546000B2EB400F28BFB2EB410F05D2BDEC028B6F
:10547000BDE8104000F07FBF40EA01035B0008BFB9
:1054800041F0FF410BD0B2EB400F08BFB2EB410F30
:1054900008D120F0804000EE100A21F0804100EE9B
:1054A000901A37E7B2EB400F12BF5FEA410240F0BB
:1054B000FF4001F000413FF42DAF4A0092EA400363
:1054C0003FF528AF002AACBF9FED1A1A9FED1A1ABC
:1054D00020EE010A60EE810A10EE100A10EE901A1A
:1054E00018E70000DB0FC9BFDB0FC93FDB0F4940E6
:1054F000DB0F49C00000C9BF22AAFDB90000C93FA7
:1055000022AAFD390060ED3EC30ACE37000000003C
:10551000000049C022AA7DBA0000494022AA7D3A73
:105520002DAD65BD8FB8D53D0FB511BE61C84C3EE0
:10553000A8AAAABE0000804F0000802F0000000033
:105540002DE9F04D2DED040B2DED0E8B96B0DDE920
:105550002550279CDDF890A025F0004624F0004857
:10556000BAF1000F14BF0121002101EB4502FC49F3
:1055700053184A1093422AD3002814BF0123002352
:1055800003EB44030B44F7498B4220D358EA000154
:105590009FEDF59B76D0DFF8D8B35D4503D1BAF126
:1055A000000F05D188E0BAF1000F08BF002100D03C
:1055B000012101EB450111F5001F08D8002814BF97
:1055C0000121002101EB440111F5001F0BD99DEDD4
:1055D000261B9DED240B16B0BDEC0E8B04B0BDE870
:1055E000F04D00F089BE0027002DBCBFE149884581
:1055F00021DAE1498845A8BF02271CDAC3451ADC35
:10560000DE4901EB2851142908DDC1F1340220FAEA
:1056100002F101FA02F282420DD108E058B9C1F15B
:10562000140228FA02F101FA02F2424503D101F014
:105630000101C1F1020756EA0A0124D1002C22DA45
:10564000002D18BF022F01D0012F0AD00220FBF736
:105650007FF816B0BDEC0E8B04B0BDE8F04D00F045
:1056600033BE0220FBF774F800F02EFE51EC100B55
:1056700003F040FC41EC100B16B0BDEC0E8B04B0F7
:10568000BDE8F08D18E09FEDBEAB9FEDBF8B00280D
:1056900071D1B848804522D105F1804010F58010C5
:1056A00008BFBAF1000F07D0B3450ADC002CA8BF31
:1056B0009DED260BE0DA0DE0B0EE490AF0EE690A46
:1056C000DAE7002C06DA9DED260B51EC100B03F007
:1056D00011FC6FE0AE48784490ED000BCCE7D84564
:1056E0004DD1002C48DA2EB186423AD1BAF1000FE2
:1056F00042D126E0BAF1000F13D00220FBF728F8C0
:1057000000F016FE8DED020B9DED240B8DED000BD0
:1057100010EE900A039961F31E0003909DED020BB9
:10572000AAE78DED02AB9DED240B1AEE901A10EE58
:10573000900A8DED000B61F31E0003909DED020BAE
:105740009AE78DED028B9DED240B18EE901A10EE6A
:10575000900A8DED000B61F31E0003909DED020B8E
:105760008AE709DA9DED240B51EC190B53EC102B51
:1057700003F0BAFC1EE020E09DED240B7CE786429E
:105780001BDAB4F1804F0DD0A4F10050B0F1FF50FE
:1057900013D1002D11DB9DED240B51EC100B03F008
:1057A00039F907E09DED240B53EC102B51EC100B55
:1057B00000F0C2BC41EC100B5EE79DED240B51ECF8
:1057C000100B02F0F2F8BAF1000FCDE90E0142D150
:1057D0009FED710B46B3A6F1E040B0F17F600CD0B5
:1057E0005E4538D1002D00DAA7B3022F0CBF01208F
:1057F0004FF0FF3003F0D0FDDCE7002D01DD002C81
:105800000DDA002D01DD002C1FDB002D16DA002C37
:1058100014DB012F08BF9FED620B3FF42DAFB0EEFC
:105820004A0AF0EE6A0A27E7022F18BF002D0CD0B3
:10583000012F0AD1002DFFF61FAF06E0002DB8BFE3
:10584000002C08DA012F3FF417AFB0EE480AF0EE53
:10585000680A11E71BE0012000EBE57050EA070140
:1058600015D0791EB0EE498AF0EE698A084308BF68
:105870009FED4D8B4E480025804570DD4D494E48CB
:10588000884514DDB0420DDB002C19DB2FE0012030
:10589000FAF75EFF16B0BDEC0E8B04B0BDE8F04D1C
:1058A00000F036BDB34502DC002C09DC1FE0864267
:1058B00002DA002C1BDA03E05E452BDD002C16DD3E
:1058C0000220FAF745FF00F033FD8DED020B53EC9B
:1058D0001A2B51EC180B03F0C5FDCDE9000103991B
:1058E000019861F31E0003909DED020BC4E60220B7
:1058F000FAF72EFF00F02CFD10EE901A18EE900A29
:105900008DED020B8DED008B61F31E0003909DED7C
:10591000020BB1E69DED0E0B53EC192B51EC100B65
:1059200003F0ACFF9FED260BCDE9080153EC102BE3
:105930009DED080B51EC100B03F094FD9FED221B25
:1059400053EC112B03F0C2FE9DED081B53EC112B01
:1059500003F088FD9FED1E1B53EC112B3CE08CE007
:10596000FFFF1F00FFFF0F00000000000000F03FDE
:105970000000F03F0000F07F0000404301FCFFFF0B
:10598000000000000000F07F0000000000000000A8
:10599000C66600000000000000000000000000805B
:1059A000000000000000F0FF000000000000F0BF59
:1059B0000000E0410000F043FFFFEF3F0000000067
:1059C000000000000000D03F555555555555D53FB6
:1059D000000000000000E03F03F078FE9DED080BA2
:1059E00041EC1A0B53EC102B51EC100B03F03AFD69
:1059F00053EC1A2B03F036FD41EC1A0B9FEDFE0B16
:105A000053EC102B9DED080B51EC100B03F02AFD0D
:105A100041EC1B0B9FEDFA0B51EC1A0B53EC102BC6
:105A200003F020FD41EC1A0B9FEDF70B53EC102B0C
:105A30009DED080B51EC100B03F014FD53EC1A2BE9
:105A400003F01CFF41EC1A0B51EC1B0B53EC1A2B0F
:105A500003F08EFA0690CDE906519DED060B53EC4E
:105A60001B2B51EC100B03F009FF53EC1A2B03F026
:105A70002DFE41EC100B00F0A1B90020B6F5801FFF
:105A80000EDA9FEDE30B53EC102B9DED0E0B51EC5A
:105A9000100B03F0E7FCCDE90E016FF034000E4669
:105AA00000EB2650A0F2FF37C6F31300DA4940F0AE
:105AB0007F6646F040568842D8BF002408DDD749AB
:105AC0008142C8BF012403DC0024A6F580167F1C98
:105AD000D348784400EBC4000F9690ED00CB9DEDC9
