:020000040800F2
:10000000800B00209D02000877420008BF3C0008DA
:1000100075420008151A0008D14B000800000000C6
:100020000000000000000000000000007B4200080B
:10003000111B000800000000794200087D42000802
:10004000B7020008B7020008B7020008B7020008AC
:10005000B7020008B7020008B7020008B70200089C
:10006000B7020008B7020008B7020008191A000812
:10007000251A0008311A0008B7020008B702000864
:10008000B702000800000000B7020008B70200082D
:10009000B7020008B7020008B7020008B70200085C
:1000A000B7020008F9420008B7020008B7020008CA
:1000B000B7020008B7020008B7020008B70200083C
:1000C000B7020008B7020008B7020008B70200082C
:1000D000B70200089D4B0008B7020008B7020008ED
:1000E000B7020008B7020008B7020008B70200080C
:1000F000B7020008B7020008B702000800000000BD
:1001000000000000B702000800000000B70200086D
:10011000B702000800000000B7020008B70200089C
:10012000B7020008B7020008B7020008B7020008CB
:10013000B70200080000000000000000B70200083D
:10014000B7020008B702000800000000000000002D
:10015000000000000000000000000000000000009F
:10016000000000000000000000000000B7020008CE
:10017000B7020008000000000000000000000000BE
:1001800000000000B70200080000000000000000AE
:10019000000000000000000000000000000000005F
:1001A0000000000000000000B7020008B7020008CD
:1001B000B7020008B7020008B702000800000000FC
:1001C00000000000B702000800000000000000006E
:1001D000B7020008B702000800F002F800F04FF87C
:1001E0000AA090E8000C82448344AAF10107DA4592
:1001F00001D100F044F8AFF2090EBAE80F0013F095
:10020000010F18BFFB1A43F0010318470457000001
:1002100024570000103A24BF78C878C1FAD8520792
:1002200024BF30C830C144BF04680C607047000070
:100230000023002400250026103A28BF78C1FBD8EF
:10024000520728BF30C148BF0B607047662905F0D0
:100250006482642900F0EE80782900F02781002074
:1002600070471FB505F04FFA00F0B0FC0400002005
:10027000002105F067F8E0601FBD10B510BD00F06B
:10028000C1FD1146FFF7EDFF04F060FF00F0DFFD58
:1002900003B4FFF7F2FF03BC04F0CAFC094880472F
:1002A00009480047FEE7FEE7FEE7FEE7FEE7FEE758
:1002B000FEE7FEE7FEE7FEE704480549054A064B70
:1002C00070470000E9420008D901000880050020BD
:1002D000800B00208007002080070020704753EA31
:1002E000020C00F069802DE9F04B4FF00006002B66
:1002F0001FBFB3FA83F503FA05F424FA05F65E404E
:1003000012BF1643B2FA82F502FA05F4C5F12005D0
:100310001EBF22FA05FC44EA0C04203556EA044CC0
:100320004FEA144418BF641C4FF000084FF0000956
:10033000904271EB030C39D3002919BFB1FA81F750
:1003400001FA07F6B0FA80F700FA07F6C7F12007BE
:100350001EBF20FA07FC46EA0C062037B6FBF4FC69
:10036000A7EB0507103F07F01F0BCBF120060CFA97
:100370000BFB2CFA06F644BFB3460026202FA4BF81
:100380005E464FF0000B5BEA060C08BF4FF0010B16
:1003900019EB0B09ABFB027C48EB0608C01B06FB04
:1003A00002CC0BFB03CC71EB0C01C1E70B46024600
:1003B00041464846BDE8F08B13B54FF000004FF0C2
:1003C0000001AFF30080BDE81C4070470FB4044942
:1003D00010B503AA029800F0E7FB10BC5DF814FB0F
:1003E0001C00002070B5044685690068C10601D56F
:1003F000302600E02026C00707D070BDD4E90121D7
:1004000030469047206A401C20626D1EF6D570BDB4
:1004100070B5044685690078C00707D170BDD4E97E
:10042000012120209047206A401C20626D1EF6D5D5
:1004300070BD00002DE9F0410646002410687529C2
:10044000314616A510D0AFF30080002802DA4042F2
:1004500013A507E031688A0701D512A502E0490714
:1004600004D511A5012401E0AFF3008000210A2288
:1004700006F1240709E0B0FBF2FCB0FBF2F302FB4B
:100480001C00303078541846491C0028F3D123460C
:100490002A463046BDE8F04100F01DB900000000DA
:1004A0002D0000002B0000002000000070B5044665
:1004B0000D4621461068AFF300802188090502D55A
:1004C0000F4A7A4402E00E4A7A440E32002104F1C7
:1004D000240305E000F00F060009965D5E54491CF8
:1004E0000028F7D120780023000704D5702D02D012
:1004F00009B1022311322046BDE8704000F0EBB88C
:10050000985200002DE9F05F894604464FF0000A3A
:10051000DFF824B1FB44C0F820A02046E1688847FA
:1005200000287DD0252806D0D4E901219047206AF3
:10053000401C2062F1E700255F462046E1688847BD
:100540002028064607DB312E05D2B81910F8200CFA
:1005500008B10543F1E7A80701D525F00405C4F863
:100560001CA00027C4F818A02A2E09D0304604F099
:1005700058FB38B304EB8708303EC8F8186019E020
:1005800059F8041B204604EB87029161E168884713
:10059000012F064618D1E069002820DA25F0200551
:1005A0001DE0D8F8180000EB800006EB4000303862
:1005B000C8F818002046E1688847064604F031FB79
:1005C0000028EED1012F0AD02E2E08D12046E16856
:1005D00088477F1C0646022F45F02005C4DBA06932
:1005E000002803DA404245F00105A061E80701D088
:1005F00025F01005A6B1A6F14100192802D8203631
:1006000045F400654A463146204625604D46FFF7D1
:100610001DFE60B1012807D0ED1D25F0070000E0A8
:1006200007E000F1080978E705F1040975E73046AD
:100630007AE7206ABDE8F09F6E5200004FF000029A
:100640000429C0F0128010F0030C00F01B80CCF1E4
:10065000040CBCF1020F18BF00F8012BA8BF20F852
:10066000022BA1EB0C0100F00DB85FEAC17C24BFA6
:1006700000F8012B00F8012B48BF00F8012B704750
:100680004FF0000200B5134694469646203922BF2B
:10069000A0E80C50A0E80C50B1F12001BFF4F7AF76
:1006A000090728BFA0E80C5048BF0CC05DF804EB58
:1006B000890028BF40F8042B08BF704748BF20F8C6
:1006C000022B11F0804F18BF00F8012B70477047C4
:1006D0007047704770472DE9F0470D46994692469E
:1006E000044600F124080168880604D5E06921F079
:1006F0001001216000E00120A84201DD471B00E05D
:100700000027A1697A1902EB0900081AA061207874
:10071000C00602D42046FFF765FE002608E0D4E9B3
:1007200001211AF806009047206A401C761C2062BE
:100730004E45F4DB2078C0060AD52046FFF752FE6E
:1007400006E0D4E9012130209047206A401C206255
:10075000381EA7F10107F4DC07E0D4E9012118F8FD
:1007600005009047206A401C2062281EA5F1010563
:10077000F3DC2046FFF74CFE2078000602D502206D
:10078000BDE8F0870120FBE770472DE9FF4F0C46DD
:100790001E464FF0FF378BB0D2E90001DDF86080D4
:1007A0000A908A46C1F30A5505B93D46002108461C
:1007B0004FF00000BAF1000F00F4400005DA00EB42
:1007C00080004FF4400101EA50004FEA9059B9F11E
:1007D000010F00DDB9460A9850EA4A000ED044F6EF
:1007E0001050A5F2FF3545432F14B8F1000F1ED06D
:1007F0007542291E1EDDC9F100021CE0B8F1010F8F
:100800004FF0000001D0302103E0F24305E0215415
:10081000401CB042FBDB30460022002121540B99E2
:10082000C1F80880C1E900200FB0BDE8F08FBD1B02
:100830006D1CDEE74A4600DA694206A800F068FA55
:1008400006AB93E8070003AB83E8070050460A991C
:1008500000F046FB8DE80700A0F500501F3800901F
:100860000398002D0ADD42F21F014A460844002386
:1008700003A90390684600F0AFFD09E0A0F5005021
:100880004A461F38002303A90390684600F0B9FDCB
:100890008DE807000004000C03D04FF0FF30410842
:1008A00000E01046B8F1000F03D000220092154678
:1008B0001EE0751E05D400F08DF9303262556D1EB4
:1008C000F9D5B3460122084302D000227F1C04E080
:1008D0002078302801D100227F1E002A099784D079
:1008E0001DE0112D07DA00F075F9303262556D1CEC
:1008F00050EA0102F5D1084302D00098C8B10EE0D9
:100900000021681E05E0235C625C63542254401E93
:10091000491C8142F7DBAB46A81B401E0990002012
:1009200004F80B000B98099AC0F80880C0E9002B66
:100930007AE711264FF0000857E72DE9F04F884677
:100940000446D21D22F0070191B0D1E90001CDE9A2
:100950000A0104F03EF902460B98C00F01D02D2089
:1009600007E02068810701D52B2002E0202101EA61
:10097000C000032A099001D0072A05DB034641463F
:10098000204600F085F90BE12078800601D5E0696A
:1009900000E00620B8F1650F814606D0B8F1660F79
:1009A00018D0B8F1670F70D131E00020B9F1110F04
:1009B000009001DB112301E009F101030AAA01A95A
:1009C0000CA8FFF7E2FEDDE90C70002609F1010535
:1009D000834647E001204B4600904FF000470AAAAB
:1009E00001A90CA8FFF7D1FEDDE90DB00C995D4619
:1009F000002610B909F101000D18B9EB050003D468
:100A0000C0F1FF3609F10105A5EB09002BE0B9F1B2
:100A1000010F01DA4FF001090020B9F1110F009028
:100A2000484601DD112300E003460AAA01A90CA8EB
:100A3000FFF7ABFEDDE90C704D46002683462078BB
:100A400000070AD4AB4500DA5D4601A8012D04DD9C
:100A5000411911F8011C302907D04F4502DA17F16E
:100A6000040F04DA012082460FE06D1EEEE7002F2E
:100A700002DCED1B3E4403E0781CA84200DD7D1C37
:100A8000B81B00F1010A4FF000472078000703D49B
:100A9000AA4501DB4FF0FF3A0021B7F1004F0DF1FD
:100AA00043088DF8431024D002202B23002F01DAB5
:100AB0007F422D230A21021EA0F1010000DC5FB15C
:100AC00097FBF1FC97FBF1F201FB1C7C17460CF144
:100AD000300C08F801CDEEE7A8F101000370218881
:100AE000090501D5452100E06521A0F1010800F8C4
:100AF000011C09980FA9A1EB0807FF1D00B10120F7
:100B0000411901EBEA70A1693844081A401EA0613E
:100B10002078C00602D42046FFF764FC099828B16B
:100B2000D4E901219047206A401C20622078C00649
:100B300022D52046FFF756FC1EE0002E04DBB3450D
:100B400002DD01A8805D00E03020D4E9012190475A
:100B5000206A401C2062761CAAF101005FEA000AAC
:100B60000AD100F033F8C0680168405CD4E9012183
:100B70009047206A401C2062281EA5F10105DCDC9C
:100B800007E0D4E9012118F8010B9047206A401CC6
:100B90002062381EA7F10107F3DC2046FFF738FC7E
:100BA000032011B041E60000074B70B50D467B44B1
:100BB00000F05BF80446284600F01CF910B14FF035
:100BC000FF3070BD204670BD0745000000487047EB
:100BD0004005002030B5B0F10A024FEA900E71F1E5
:100BE00000034EEA817EB0EB0E0061EB91014FEA0B
:100BF000101E4EEA017E10EB0E0041EB11114FEA80
:100C0000102E4EEA016E10EB0E0041EB11214FEA5F
:100C1000104E4EEA014E10EB0E0041EB1141401810
:100C200041F100014FEAD00040EA41704FEAD101A2
:100C300010EB80054FEA810444EA907444EB010410
:100C40006D1944EB0404521BA3414FF0000348BF4D
:100C50000A3200D530BD401C41F1000130BD00001A
:100C600001694A1C02610878704700B58FB0CDE970
:100C700001310021059105497944CDE90310114660
:100C80006846FFF73FFC0FB000BD0000E5FFFFFF27
:100C90002DE9F0411F46044603260168072A01F4A6
:100CA000006004DB08B116A505E016A503E008B155
:100CB00015A500E015A521F010002060A069C01E58
:100CC000A0610FB1401EA0612046FFF78BFB4FB122
:100CD000D4E9012138469047206A401C2062C01C9C
:100CE000206206E0206AFAE7D4E9012115F8010B39
:100CF0009047761EF8D22046FFF78AFBBDE8F081C8
:100D00004E414E006E616E00494E4600696E6600AF
:100D10002DE9F047814616468AB0354878440DC81B
:100D20008DE80D0032487844801C03AC0DC884E87F
:100D30000D0041F69B300844372190FBF1F290FB07
:100D4000F1F5A5F1800501FB12041B3C02D56442BC
:100D5000012000E00020DFF898A080460027FA4438
:100D6000AAF1BE0A0EE0E0070AD03246684607EB59
:100D7000470101230AEB810100F043FB8DE80700E6
:100D800064107F1C002CEED1194F7F44AE3F19E058
:100D9000E80715D007EB04100DF1180A90E80E00D3
:100DA0008AE80E00C068F04201D1981908903246D6
:100DB000012306A903A800F024FB03AB83E8070086
:100DC0006D10641C002DE3D14FF0010332466946DB
:100DD000B8F1000F03A802D000F0FEFA01E000F025
:100DE00010FBC9E90001C9F808200AB0BDE8F08786
:100DF000F44A0000007B00F0800070470048704714
:100E0000200500207546FFF7F9FFAE46050069464C
:100E1000534620F00700854618B020B5FFF74CFA7E
:100E2000BDE820404FF000064FF000074FF00008EB
:100E30004FF0000B21F00701AC46ACE8C009ACE86C
:100E4000C009ACE8C009ACE8C0098D46704710B5D0
:100E50000446AFF300802046BDE81040FFF718BA03
:100E60004FF0013C50F8042B51F8043B9A4221D139
:100E7000A2EB0C03934313EACC1317D150F8042BC5
:100E800051F8043B9A4215D1A2EB0C03934313EAA9
:100E9000CC130BD150F8042B51F8043B9A4209D1E2
:100EA000A2EB0C03934313EACC13DBD04FF000000A
:100EB000704700BFD01A01BAB1FA81F101F01801F0
:100EC00022FA01F0CB40C1F12001DBB2C0B2C01A5E
:100ED0002CFA01F3D11A914311EAC311E6D17047FC
:100EE0005FEA400C08BF91F0000F4FEA8C234FEAF5
:100EF000C12243EA51514FEA1C5018BF00F5F0409F
:100F00004FEA300018BF41F000415FEA6C5C00F02E
:100F10002980BCF1FF3F08BF40F080407047130CB0
:100F200006BF12044FF0100C4FF0000C130E04BF5C
:100F300012020CF1080C130F04BF12010CF1040C87
:100F4000930F04BF92000CF1020CD30F04BF5200A8
:100F50000CF1010C11464FF00002A0F11F00A0EBB4
:100F60000C00704711F0004F08BF704731F000418E
:100F70003FF4D5AF0B0C06BF09044FF0100C4FF037
:100F8000000C0B0E04BF09020CF1080C0B0F04BF80
:100F900009010CF1040C8B0F04BF89000CF1020C49
:100FA000CB0F04BF49000CF1010CCCF12003A0EBE6
:100FB0000C0022FA03F302FA0CF241EA030100F1F9
:100FC0000100704720F07F4C80EA030023F07F4748
:100FD000ACEB070303F57C5300F0004003F1FF0383
:100FE0002DE980494FEA154B09B44FEA144325EA2D
:100FF0000B4E24EA03480FF2042606EB1327490898
:101000003E785FEA320203FB0667C7F5000707FB7D
:1010100006F64FEA54374FEAD64606F1020607FBBA
:10102000066CCCF1005C4FEA1C472CEA074C07FB2E
:1010300006F40CFB06F504EB15464FEA961634BF92
:1010400000204FF000404FEAD13706FB07FC4FEA83
:101050001C4C0CFB0BF7D21B03FB0CF761EB0701DD
:101060000CFB0EF7B0EB074072EB17420CFB08F7D6
:1010700034BFA2EB0742B2EB074261EB17414FEAE4
:101080000C444FEA910706FB07FC4FEA1C4C0CFB93
:101090000BF7B0EBC74072EB573203FB0CF734BFD2
:1010A000A2EBC742B2EBC74261EB57310CFB0EF724
:1010B000B0EBC70072EB57720CFB08F734BFA2EB22
:1010C000C702B2EBC70261EB5771039F4FEA816120
:1010D00041EA921104EBCC044FEAD1374FEA826225
:1010E00006FB07FC42EA90124FEA80604FEA1C4C74
:1010F0000CFB0BF7D21B03FB0CF761EB07010CFB9E
:101100000EF7B0EB074072EB17420CFB08F734BF49
:10111000A2EB0742B2EB074261EB17414FEA8C5555
:101120004FEA910704EB9C2406FB07FC4FEA1C4C9A
:101130000CFB0BF7B0EBC74072EB573203FB0CF71D
:1011400034BFA2EBC742B2EBC74261EB57310CFB95
:101150000EF7B0EBC70072EB57720CFB08F734BF09
:10116000A2EBC702B2EBC70261EB577115EB4C253E
:101170004FEA816141EA92114FEA82624FEAD13728
:1011800042EA901206FB07FC44F100044FEA80603B
:101190004FEA1C4C0CFB0BF7D21B03FB0CF761EB6B
:1011A00007010CFB0EF7B0EB074072EB17420CFB8C
:1011B00008F734BFA2EB0742B2EB074261EB1741DD
:1011C00015EB1C154FEA813141EA92414FEA823218
:1011D00042EA90424FEA80304FEA0C7644F1000434
:1011E00048EA03434EEA0B484FF0000EB2EB080CFE
:1011F00071EB030724BF624639464EEB0E0E4FF0EB
:10120000000B0018524149414BEB0B0BB2EB080CA1
:1012100071EB03077BF1000B24BF624639464EEBAE
:101220000E0E4FF0000B0018524149414BEB0B0BD7
:10123000B2EB080C71EB03077BF1000B24BF624695
:1012400039464EEB0E0E51EA020718BF46F0010672
:1012500016EB0E7655F1000254F1000103D5BDE8FE
:101260008901BDE80088BDE88901BDE80048B619DC
:10127000524141EB0101A3F10103704780807F7E61
:101280007D7C7B7A797877767675747372717170FC
:101290006F6E6E6D6C6C6B6A6A69686867666665AE
:1012A0006464636362616160605F5F5E5E5D5D5C3C
:1012B0005C5B5B5A5A5959585857575656555555AD
:1012C0005454535352525251515050504F4F4F4E0D
:1012D0004E4D4D4D4C4C4C4B4B4B4A4A4A4949495B
:1012E000484848474747474646464545454444449D
:1012F000444343434342424242414141002B9C46C6
:1013000030D477002BD01CB54FEA370703B44FF029
:1013100010004FF01001BAF1000F06D0BCF1000F21
:10132000DCBF40F0080040F008014FF000000FBCA7
:10133000BDE810400BF1010BBBF1010F08BF5FEAE4
:10134000170722BF12F1010211F101014FF0004114
:1013500043F1000300F0004043EA00007047F9D376
:101360005708D0E746EA064613F1400F4FEA164603
:101370001FDD13F1200FDFBF16430A460021203383
:101380005B42BED0C3F1200746EA064602FA07F7E1
:101390004FEA164646EA0706C3F1200722FA03F28F
:1013A00001FA07F721FA03F14FF0000342EA0702BE
:1013B000A7E746EA020646EA06464FEA164646EA26
:1013C0000106BCBF46EA0646360C4FF000034FF05C
:1013D00000024FF0000194E72DE9804C9A469346B5
:1013E00070B491E8380007C831EA400C48BF34EACD
:1013F000430C03D5FFF7E6FDFFF780FFF0BCBDE827
:10140000008C2DE9804C9A46934670B491E83800E0
:1014100007C810F0804F08BF13F0804F03D100F0D1
:1014200005F8FFF76BFFF0BCBDE8008C20F07F47AC
:1014300080EA030023F07F4C07EB0C03A3F57C53F9
:1014400000F00040A3F1FE0392F0000F00F0B38023
:1014500095F0000F00F077802DE901494FEA114027
:101460004FEA144621EA004800FB06FC24EA06473E
:1014700008FB06F607FB08F800FB07F718EB064821
:101480004CEB164C4FEA124B18EB07484FEA154647
:101490004CEB174022EA0B4E0BFB06FC25EA0647F5
:1014A0000EFB06F607FB0EFE0BFB07F71EEB064EC8
:1014B0004CEB164C4FF000061EEB074E4CEB174B57
:1014C00018EB0B0840F1000018EB0E0B58EB00086E
:1014D00040F100008F1A4FF000013CBFC943661B6A
:1014E00014BFB5EB040C00213CBFC943F61B4FEA07
:1014F00017444EEA8E0E27EA04454FEA1C4704FBC8
:1015000007622CEA074C05FB07F70CFB05F604FB0A
:101510000CFC16EB074642EB174216EB0C4642EB6F
:101520001C421BEB060658EB0202414146EA9E06AE
:1015300001D5BDE80189B619524141EB0101A3F182
:101540000103BDE801894FEA14454FEA114724EA37
:10155000054621EA074C05FB07F406FB07F70CFBE1
:1015600006F105FB0CFC11EB074144EB17444FEA75
:10157000124711EB0C4144EB1C4422EA074C05FBDB
:1015800007F206FB07F70CFB06F605FB0CFC16EB57
:10159000074642EB174216EB0C4642EB1C456A1815
:1015A00054F1000148BF7047B619524141EB0101A7
:1015B000A3F10103704795F0000F37D04FEA1142B5
:1015C0004FEA144721EA024624EA074C02FB07F1DE
:1015D00006FB07F70CFB06F402FB0CFC14EB0744BC
:1015E00041EB17414FEA154714EB0C4441EB1C410A
:1015F00025EA074C02FB07F506FB07F70CFB06F68E
:1016000002FB0CFC16EB074645EB174516EB0C46A8
:1016100045EB1C42121951F1000148BF7047B61941
:10162000524141EB0101A3F1010370474FEA144518
:101630004FEA114724EA054621EA074C05FB07F16A
:1016400006FB07F70CFB06F24FF0000605FB0CFC4F
:1016500012EB074241EB174112EB0C4251EB1C41DC
:1016600048BF7047921841EB0101A3F10103704795
:1016700086B04CA0FEF7AAFE5A4C59480125A0603E
:101680005948E06059482061657559A0FEF79EFEF3
:10169000204603F0D5FC010002D06548FEF796FE17
:1016A000052003F0EAFC4F4803F0F0FB010003D0F3
:1016B00060A0FEF78BFEFEE721786BA0FEF786FEAA
:1016C000484904A803F0E3FA010001D073A00DE03B
:1016D0008DF8105003208DF811008DF812504149FB
:1016E00004A803F015FC010003D078A0FEF76EFEFD
:1016F00002E082A0FEF76AFE3A49002003F03FFCB8
:10170000010003D089A0FEF761FEFEE79448FEF7D2
:101710005DFE642000F074FB4FF47A7631490220BC
:1017200003F02DFC18B18FA0FEF750FE0CE0322024
:1017300000F066FB2B4A04A902A803F03FFB01005E
:1017400006D095A0FEF742FE304600F059FBE5E7D3
:101750009DED020AA04910EE100A88420BDA10EE45
:10176000100A03F05FFF41EC100B9C4853EC102B68
:10177000FEF72CFEE8E79FED9A1AC0EE010A10EE84
:10178000900A03F04FFF04460D46039803F04AFF0A
:1017900041EC100B93A053EC102BCDE90045FEF764
:1017A00015FED1E70D0A2D2D2D20424D5035383034
:1017B0002053656E736F7220546573742050726F7E
:1017C0006772616D2028466F72636564204D6F6497
:1017D0006520446562756729202D2D2D0D0A0000B6
:1017E0003D4E000808050020654E0008334C0008F7
:1017F000424D503538305F496E69743A20506572F9
:10180000666F726D696E67206120736F66742072F7
:101810006573657420746F20656E737572652063DF
:101820006C65616E2073746174652E2E2E0D0A0036
:10183000C05800084572726F723A20424D503538D8
:101840003020696E697469616C697A6174696F6E60
:10185000206661696C6564207769746820636F64D1
:10186000652025640D0A0000424D5035383020694E
:101870006E697469616C697A6174696F6E207375E1
:10188000636365737366756C2E20436869702049C5
:10189000443A203078253032580D0A004572726F74
:1018A000723A204661696C656420746F20676574C4
:1018B000204F535220636F6E6669672077697468A2
:1018C00020636F64652025640D0A00004572726F05
:1018D000723A204661696C656420746F2073657488
:1018E000204F535220636F6E666967207769746872
:1018F00020636F64652025640D0A00005365742021
:101900004F535220636F6E6669672073756363651A
:10191000737366756C202870726573735F656E3DB6
:10192000454E41424C45292E0D0A00004572726F0A
:10193000723A204661696C656420746F2073657427
:10194000205354414E444259206D6F64652077699D
:10195000746820636F64652025640D0A0000000030
:101960002C5800084572726F723A204661696C65A6
:101970006420746F207472696767657220612066E5
:101980006F72636564206D6561737572656D656EF8
:10199000742E0D0A000000004572726F723A2046E4
:1019A00061696C656420746F206765742073656E6F
:1019B000736F72206461746120696E20666F726358
:1019C0006564206D6F6465207769746820636F6457
:1019D000652025640D0A000000007A447058000854
:1019E0000000C84254656D70657261747572653A25
:1019F00020252E326620646567432C205072657363
:101A0000737572653A20252E3266206850610D0A82
:101A100000000000FEE70000014800F0EDB8000003
:101A200048020020014800F0E7B8000054010020FF
:101A3000014800F0E1B80000A80200200D4902684A
:101A40008A4201D20C4901E00B492031D2B2142361
:101A5000083AB2FBF3F2436C02F01F0223F00303D7
:101A60001944816404498031C164012191400165B8
:101A70007047000008040240000802400179074A4C
:101A800002EB81024265054A4432491E826501F03B
:101A90001F0201219140C16570470000FC0802400F
:101AA00030B5D0E913456560446D14B1D0E91645F1
:101AB000656090F8444004F01F050124AC40056CBB
:101AC0006C60046863608368102B036803D09960BE
:101AD0000068C26030BD9A600068C16030BD00001F
:101AE0000948016841F080710160084800214160A7
:101AF000016841F0010101600068C00701D00020C9
:101B00007047012070470000FCED00E0001000E08D
:101B1000704772B6FEE710B590F82530002101221B
:101B2000022B03D00421C163012122E003681C6859
:101B300024F00E041C60836C1C6824F480741C6008
:101B400003681C6824F001041C6090F84430046CA5
:101B500003F01F0302FA03F36360D0E913345C60FF
:101B6000436D33B11C6824F480741C60D0E91634D2
:101B70005C6080F82520002280F82420084610BDF3
:101B800070B590F82520002401212346022A07D0B1
:101B90000422C26380F8251080F82430012429E053
:101BA0000268156825F00E0515600268156825F0B5
:101BB00001051560826C156825F48075156090F834
:101BC0004420056C02F01F0201FA02F26A60D0E9BB
:101BD00013255560426D32B1156825F48075156086
:101BE000D0E91625556080F8251080F82430816BE7
:101BF00001B18847204670BDF0B4016C0C680168E3
:101C00000D6890F8442002F01F06042202FA06F341
:101C1000234211D06B070FD50B689B0603D40B68CA
:101C200023F004030B6090F8441001F01F018A4078
:101C3000016C4A60016B1DE0022303FA06F727429C
:101C40004FF0000C4FF0010218D0AF0716D50C680A
:101C5000A40605D40C6824F00A040C6080F8252042
:101C600090F8441001F01F018B40016C4B6080F82C
:101C700024C0C16A00291AD0F0BC08470823B34029
:101C8000234214D02B0712D50B6823F00E030B60F0
:101C900090F84410036C01F01F0102FA01F1596041
:101CA000C26380F8252080F824C0416BE2E7F0BCD5
:101CB0007047000070B504000CD02B4A2168142036
:101CC000914209D2294A0A44B2FBF0F080006064D4
:101CD00027480AE0012070BD234A52420A44B2FB61
:101CE000F0F080006064204808382064022084F806
:101CF00025000A6847F6F0708243D4E902031843CE
:101D0000D4E904352B431843A3691843E369184306
:101D1000236A1843104308602046FFF78FFEA0682F
:101D20000025B0F5804F00D16560A16C2079086076
:101D3000D4E9130141606068401E032808D820469A
:101D4000FFF79CFE606D0560D4E91601416002E07A
:101D50006565A565E565E563012084F8250084F8DF
:101D60002450002070BD000008040240F8FFFDBFB1
:101D70000000024070B5044690F8240000250128B8
:101D80000CD0012084F8240094F825600020012E56
:101D900006D084F824000225284670BD022070BDBC
:101DA000022684F82560E0632068066826F00106B4
:101DB00006602046FFF774FE206B0028206801684B
:101DC00002D041F00E0106E021F00401016020681C
:101DD000016841F00A010160A06C0168C90303D5E4
:101DE000016841F480710160606D18B1016841F4CF
:101DF000807101602068016841F001010160CBE75A
:101E000070B5044600F038F90546601C02D004485D
:101E10004068044400F030F9401BA042FAD370BD82
:101E2000000000202DE9F04FDFF82092002301266A
:101E30000324A9F1040B85B00F2709F1040AABF1C3
:101E4000040EFAE006FA03F52A407CD091F804C0AB
:101E50000CF0030CBCF1010F02D0BCF1020F26D133
:101E6000D0F808C0CDF800C04FEA430C04FA0CF8D3
:101E7000CDF810C0DDF800C02CEA080CCDF800C089
:101E8000D1F80C80DDF810C008FA0CF8DDF800C0BD
:101E900048EA0C08C0F80880D0F804C02CEA050C09
:101EA0000D79C5F300159D4045EA0C0545600D7997
:101EB000ED43AD070ED0C5684FEA430804FA08FCAD
:101EC00025EA0C05D1F808C00CFA08FC4CEA050C10
:101ED000C0F80CC00D7905F00305022D16D1DD0800
:101EE00000EB850CCDF808C0DCF820805D074FEAD8
:101EF000D56C07FA0CF528EA05080D6905FA0CF50A
:101F0000DDF808C045EA0805CCF8205005684FEA1E
:101F1000430CCDF808C004FA0CFC25EA0C0591F836
:101F200004C00CF00308DDF808C008FA0CF848EA11
:101F30000508C0F800804D6815F4403F7CD0444D42
:101F4000D5F860C000E077E04CF0010CC5F860C047
:101F50002D6E23F0030C05F0010500953D4D654401
:101F60000295AD684FEA837C4FEA1C7807FA08FCBB
:101F700025EA0C05B0F1904F06D0DFF8DCC06045D3
:101F800005D14FF0010C20E04FF0000C1DE0DFF810
:101F9000CCC0604502D14FF0020C16E0DFF8C0C0A3
:101FA000604502D14FF0030C0FE0DFF8B8C0604588
:101FB00002D14FF0040C08E0DFF8ACC0604502D15C
:101FC0004FF0050C01E04FF0060C0CFA08FC4CEA4F
:101FD000050C029DC5F808C0D9F80050CC46D1F8D0
:101FE000048095435FEAC82800D51543CCF800501B
:101FF000DAF80050D446D1F8048095435FEA882887
:1020000000D51543CCF80050DBF80050DC46D1F881
:10201000048095435FEA883800D51543CCF800501A
:10202000DEF80050F446D1F8048095435FEAC838E2
:1020300000D51543CCF800505B1C0A6832FA03F552
:102040007FF400AF05B0BDE8F08F00000804014048
:102050000010024000000140000400480008004851
:10206000000C004800100048001400480AB18161CB
:102070007047816270470000014880687047000027
:102080000000002090F84120202A24D190F8402020
:10209000012A20D0012280F84020242280F841200B
:1020A0000268136823F0010313600268136823F4C5
:1020B00080531360026813680B43136001680A6859
:1020C00042F001020A60202180F84110002180F8CE
:1020D0004010084670470220704790F84120202A9F
:1020E00022D190F84020012A1ED0012280F8402001
:1020F000242280F841200268136823F00103136052
:102100000268136823F4706343EA012111600168D7
:102110000A6842F001020A60202180F84110002183
:1021200080F84010084670470220704770B50400E0
:1021300004D094F84100002510B106E0012070BDE4
:1021400084F84050204600F0ADF9242084F8410086
:102150002068016821F0010101606068216820F0B9
:10216000706008612068816821F400418160E06846
:102170000128A06830D040F4044021688860E068FD
:102180000228206841682AD021F40061416020685B
:102190004168144A114341602068C16821F400413C
:1021A000C160D4E904010843A16940EA0120216823
:1021B000C860D4E907010843216808602068016805
:1021C00041F0010101606564202084F8410025632D
:1021D00084F84250002070BD40F40040CDE741F447
:1021E0000061D3E7008000022DE9FF4F83B0044671
:1021F000DDE9108790F84100DDF848909A46934653
:10220000202874D15FEA080014D09FB194F84000F0
:1022100001286CD0012084F84000FFF72DFF06460E
:10222000012200901923D103204601F05DFE002811
:1022300071D103E04FF4007060646CE0222084F8F8
:102240004100402084F8420000256564C4F82480E1
:1022500067856563CDE9009653465A462046049942
:1022600001F0C6FD10B184F8405054E0618D35484E
:10227000FF274FF080784FF0007AFF2904D9278597
:102280003A464346009005E0618D2185009094F820
:10229000282053462046049901F00EFE4B460022AA
:1022A00004212046009601F01FFEA0BB2068406A72
:1022B000616A0870606A401C6062208D401E81B2B5
:1022C0002185608D401E6085608DD8B1D1B94B46A7
:1022D000002280212046009601F006FED8B9608DCC
:1022E000FF2805D927853A464346009506E026E0B3
:1022F000608D2085009594F8282053462046049947
:1023000001F0DAFD608D0028C8D1324649462046EA
:1023100001F027FE18B1012007B0BDE8F08F216859
:102320002020C86121684A68074B1A404A6084F837
:10233000410084F8425084F840500020ECE702202D
:10234000EAE700000024008000E800FE2DE9FF4FCE
:1023500083B00446DDE9108790F84100DDF848902D
:102360009A469346202871D15FEA080014D09FB1A5
:1023700094F84000012869D0012084F84000FFF75C
:102380007BFE0646012200901923D103204601F06E
:10239000ABFD00286ED103E04FF40070606469E08B
:1023A000212084F84100402084F842000025656423
:1023B000C4F8248067856563CDE9009653465A4684
:1023C0002046049901F046FD10B184F8405051E0D8
:1023D000608DFF274FF080784FF0007AFF2804D9F6
:1023E00027853A464346009505E0608D2085009597
:1023F00094F8282053462046049901F05DFD3246AA
:102400004946204601F0D8FDA0BB606A21680078EB
:102410008862606A401C6062608D401E6085208D0D
:10242000401E80B22085618DD9B1D0B94B460022C3
:1024300080212046009601F057FDD8B9608DFF2815
:1024400005D927853A464346009506E026E0608D8B
:102450002085009594F8282053462046049901F0E1
:102460002BFD608D0028CAD132464946204601F036
:1024700078FD18B1012007B0BDE8F08F2068202159
:10248000C16120684268064B1A40426084F84110DE
:1024900084F8425084F840500020ECE70220EAE73C
:1024A00000E800FE2DE9F04397B004461421684689
:1024B000FEF7E6F8442105A8FEF7E2F83E49206859
:1024C0003E4C1226042700254FF090494FF080081B
:1024D000884235D1402005900B9505A800F06EF993
:1024E00008B1FFF716FBE06C40F00100E064E06C1F
:1024F00000F001001690E06C40F00200E064E06C37
:10250000694600F0020016904FF400400090CDE9BB
:102510000165CDE903574846FFF784FCCDF80080FC
:10252000CDE90165CDE9035769462548FFF77AFCF7
:10253000A06D40F40010A065A06D00F4001037E01D
:102540002049884235D105A8CDF814800C9500F0BB
:1025500035F908B1FFF7DDFAE06C40F00400E06403
:10256000E06C00F004001690E06C40F00100E064C4
:10257000E06C694600F00100169010200090CDE953
:102580000165CDE903571048FFF74CFC4FF480700C
:102590000090CDE90165CDE9035769464846FFF74C
:1025A00041FCA06D40F48000A065A06D00F48000A7
:1025B000169017B0BDE8F0830054004000100240B0
:1025C00000040048005800400008004802488168A4
:1025D00042681144816070470000002010B500245B
:1025E000032000F073F80F2000F008F808B1012470
:1025F00001E000F025F8204610BD000070B50E4E39
:1026000005460024706898B14FF47A71B1FBF0F080
:102610000A490968B1FBF0F000F05EFD40B9102DE9
:1026200006D200222946501E00F030F8356000E046
:102630000124204670BD0000000000200C00002096
:102640000A4882B0016E41F001010166016E01F09D
:1026500001010091816D41F080518165806D00F034
:102660008050009002B000F0A1B8000000100240BD
:10267000002809DB00F01F02012191404009800081
:1026800000F1E020C0F8001170470000F0B40E4BDC
:102690001B680C46C3F30223C3F10705042D00D9C0
:1026A0000425191D072901D2002300E0DB1E0126A5
:1026B00006FA05F1491E214099409E40761E1640BB
:1026C0003143F0BC02F09DBA0CED00E0064900F089
:1026D000070208684FF6FF03184040EA0220034A49
:1026E00010430860704700000CED00E00000FA05A0
:1026F0002B492C4B0A6832214A432B4940B1B0F593
:10270000007F086829D020F4C06040F480602CE08D
:102710000868C0F34120022804D051F8800F20F44B
:10272000807022E0D1F8800020F48070C1F8800031
:10273000086820F4C06040F400700860B2FBF3F059
:10274000401C00E0401E4A69520501D50028F9D11D
:10275000486940050AD503207047C0F3412002288C
:1027600006D051F8800F40F4807008600020704758
:10277000D1F8800040F48070C1F88000086820F42F
:10278000C06040F400700860B2FBF3F0401C00E051
:10279000401E4A695205DBD50028F9D1D8E7000070
:1027A0000C00002040420F00007000400248816889
:1027B00041F4804181607047007000402DE9F8438A
:1027C0000446006800269D4D00035ED5A86D0027D5
:1027D000C00008D4A86D40F08050A865A86D0127FE
:1027E00000F080500090DFF85892D9F8001041F4C2
:1027F0008071C9F80010FFF73FFC804606E000BF7B
:10280000FFF73AFCA0EB080002282BD8D9F800000B
:10281000C005F5D5D5F8900010F4407014D0216CA7
:10282000814211D0D5F89000D5F8901020F4407076
:1028300041F48031C5F89010D5F8901021F4803122
:10284000C5F89010C5F89000C00711D0FFF714FC30
:10285000804641F2883907E0FFF70EFCA0EB080143
:10286000494501D903260BE0D5F890008007F3D540
:10287000D5F89000216C20F440700843C5F8900012
:102880001FB1A86D20F08050A8652078C00707D040
:10289000D5F88800616820F003000843C5F8880077
:1028A0002078800707D5D5F88800A16820F00C00B3
:1028B0000843C5F888002078400707D5D5F8880078
:1028C000E16820F030000843C5F888002078000750
:1028D00007D5D5F88800216920F0C0000843C5F865
:1028E00088002078800607D5D5F88800616920F433
:1028F00040600843C5F888002078400607D5D5F821
:102900008800A16920F440500843C5F88800207869
:10291000000607D5D5F88800E16920F44040084357
:10292000C5F888002088C00507D5D5F88800216A39
:1029300020F440300843C5F888002088800507D57A
:10294000D5F88800616A20F440200843C5F8880063
:10295000208840050FD5D5F88800A16A20F44010E2
:102960000843C5F88800A06AB0F5801F03D1E86865
:1029700040F48010E860208800050FD5D5F8880065
:10298000E16A20F440000843C5F88800E06AB0F529
:10299000800F03D1E86840F48010E8602088C0040C
:1029A0000FD5D5F88800216B20F040700843C5F89A
:1029B0008800206BB0F1807F03D1E86840F480107C
:1029C000E86020884FF0006180040ED5D5F88800BB
:1029D000626B20F040601043C5F88800606B88424D
:1029E00003D1E86840F48010E860208840040ED5E8
:1029F000D5F88800A26B20F040601043C5F888002D
:102A0000A06B884203D1E86840F48010E860208819
:102A100000040FD5D5F88800E16B20F04050084342
:102A2000C5F88800E06BB0F1805F03D1E86840F43E
:102A30008030E8603046BDE8F883000000100240B6
:102A4000007000402DE9F0470E4605004FF00007EA
:102A500025D0DFF8AC81D8F8000000F00F00B042BC
:102A60000CD2D8F8001021F00F013143C8F8001043
:102A7000D8F8000000F00F00B04210D12968614C76
:102A8000C80741F2883A5AD06868DFF87C91032879
:102A900008D0022820682DD0400500282CDB01201A
:102AA000BDE8F08720688001F9D5E06800F00302F6
:102AB000E068C0F30310401C032A19D0534A00BF3A
:102AC000B2FBF0F0E268C2F306225043E268C2F3C0
:102AD0004162521C5200B0FBF2F0484517D9A06881
:102AE00010F0F00F0CD0880711D5A86840B10EE0A7
:102AF000474AE5E78003D0E700F0B6F8484506D935
:102B0000A06820F0F00040F08000A0608027A0685E
:102B1000696820F003000843A060FFF7ADFA814622
:102B200006E000BFFFF7A8FAA0EB090151453AD82B
:102B3000A068696800F00C00B0EB810FF2D1286842
:102B4000810714D5400703D5A06840F4E060A06079
:102B50002878000705D5A06820F4605040F4E060B4
:102B6000A060A068A96820F0F000084304E0802F6E
:102B700003D1A06820F0F000A060D8F80010404613
:102B800001F00F01B14216D9016821F00F01314364
:102B90000160FFF771FA074607E000BFFFF76CFA24
:102BA000C11B514501D903207AE7D8F8000000F095
:102BB0000F00B042F2D12878400705D5A068E96837
:102BC00020F4E0600843A0602878000706D5A068DC
:102BD000296920F4605040EAC100A06000F044F888
:102BE000A1680C4AC1F30311515C01F01F01C840F8
:102BF0000949086009480068BDE8F047FFF7FEBCD6
:102C0000002002400010024000B4C4040024F4007C
:102C100000127A00465700080C0000200000002037
:102C20000548064900688968054AC1F30221515CDC
:102C300001F01F01C84070470C0000200010024046
:102C4000565700080548064900688968054AC1F3D7
:102C5000C221515C01F01F01C84070470C000020E8
:102C60000010024056570008184910B58868C0F394
:102C700081021748012A0BD08A684310C2F38102EF
:102C8000022A06D08A68C2F38102032A03D00020F8
:102C900010BD184610BDCA6802F00304CA68C2F32A
:102CA0000312521C032C02D0B0FBF2F001E0B3FB84
:102CB000F2F0CA68C968C2F306225043C1F3416109
:102CC000491C4900B0FBF1F010BD000000100240AB
:102CD0000024F4002DE9F84304007AD02078F84D60
:102CE000C00747D0A868E96800F00C0001F00301B4
:102CF0000C2802D0082817D001E0032914D06068FE
:102D0000B0F5803F17D0B0F5A02F286817D020F479
:102D100080302860286820F4802028606068E0B156
:102D2000FFF7AAF9064614E02868800322D56068F8
:102D30000028D2D01EE0286840F48030EDE740F44F
:102D400080202860F7E700BFFFF796F9801B642812
:102D500070D828688003F7D50CE0FFF78DF9064698
:102D600005E000BFFFF788F9801B6428F0D82868C9
:102D70008003F7D4207880074CD5A868E96800F074
:102D80000C0001F003010C2802D004280DD001E052
:102D900002290AD0E068002828682BD040F480700F
:102DA0002860FFF769F9064619E02868400502D552
:102DB000E068002891D06868217C20F0FE4040EA5D
:102DC00001606860BF480068FFF718FC002800D168
:102DD00020E072E1FFF750F9801B0228B8D828687C
:102DE0004005F7D56868217C20F0FE4040EA01608C
:102DF00068600FE020F480702860FFF73DF9064618
:102E000005E000BFFFF738F9801B0228A0D828682A
:102E10004005F7D42078000729D560690028D5F847
:102E2000940013D040F00100C5F89400FFF724F996
:102E3000064606E090E000BFFFF71EF9801B02285F
:102E400086D8D5F894008007F6D510E020F0010070
:102E5000C5F89400FFF710F9064604E0FFF70CF9F7
:102E6000801B022878D8D5F894008007F6D4207803
:102E7000400761D5A86D0026C00008D4A86D40F0B9
:102E80008050A865A86D012600F0805000908E4803
:102E90000168C90511D40168804641F48071016060
:102EA000FFF7EAF8074604E0FFF7E6F8C01B022840
:102EB00052D8D8F80000C005F6D5A068012815D072
:102EC0000528D5F8900016D020F00100C5F8900034
:102ED000D5F8900020F00400C5F89000A06841F2F9
:102EE0008838B8B1FFF7C8F807460EE0D5F890006B
:102EF00040F00100F0E740F00400C5F89000F5E76D
:102F0000FFF7BAF8C11B414526D8D5F890008007D5
:102F1000F6D50CE0FFF7B0F8074604E0FFF7ACF891
:102F2000C11B414518D8D5F890008007F6D41EB1D2
:102F3000A86D20F08050A8652078800629D5A0696A
:102F40000028D5F8980013D040F00100C5F898008B
:102F5000FFF792F8064606E075E000BFFFF78CF831
:102F6000801B02286FD8D5F898008007F6D510E0AE
:102F700020F00100C5F89800FFF77EF8064604E04F
:102F8000FFF77AF8801B02285DD8D5F898008007F3
:102F9000F6D4E069F0B3A968C1F3810103295DD0DB
:102FA0000228286820F08070286003D0FFF764F8BA
:102FB00004464BE0FFF760F8064604E0FFF75CF8D4
:102FC000801B02283FD828688001F7D4F4E9080163
:102FD0006FF00F0202EB01110843218A52044908E5
:102FE00002EB4151A26841EA02210843217D4FF0E2
:102FF0007E42490802EB41610843217B40EAC160FF
:10300000E968324A11400843E860286840F080705F
:10301000286000E05EE0E86840F08070E860FFF75C
:103020002BF8044605E000BFFFF726F8001B022836
:1030300009D828688001F7D54CE000BFFFF71CF8DD
:10304000001B022802D90320BDE8F883286880010C
:10305000F4D4E8681E490840E8603BE00128F3D05A
:10306000E868226A00F00301914226D1616A00F00B
:10307000F0020901103991421FD1A26A00F4FE4109
:10308000B1EB022F19D194F82C2000F07841B1EB6C
:10309000C26F12D1218E00F4C00249084905A1F582
:1030A0000011914209D194F8341000F0C060490831
:1030B0004906A1F1007181420CD00120C4E7000053
:1030C0000010024000000020007000400C809F01B2
:1030D000FCFFEEFE0020B7E710B5401EB0F1807F88
:1030E00001D3012010BD4FF0E02460610F21601773
:1030F00001F087FD0020A06107202061002010BDA5
:10310000704770477047704770477047F0B590F848
:103110003C20012A3AD0012580F83C50022280F858
:103120003D2003685A689C68194E1A4FB34201D07B
:10313000BB4204D122F4700C4A6842EA0C02DFF868
:1031400058C002EA0C02D1F800C04CEA020CC3F8E5
:1031500004C00268B2420DD0B2F1804F0AD00F4BCA
:103160009A4207D00E4B9A4204D0BA4202D00D4B7D
:103170009A4204D1896824F080031943916080F851
:103180003D50002180F83C100846F0BD0220F0BD03
:10319000002C0140003401408FFFFFFD000400407F
:1031A0000008004000400140704710B5040003D003
:1031B00094F83D0010B107E0012010BD002084F814
:1031C0003C00204600F022F8022084F83D00211D3A
:1031D000206801F097F8012084F8480084F83E0048
:1031E00084F83F0084F8400084F8410084F84200ED
:1031F00084F8430084F8440084F8450084F84600CD
:1032000084F8470084F83D00002010BD38B505461D
:103210000068184988422BD11748016E41F40061BB
:103220000166006E164C00F40060009013482060A8
:103230002E20606000208021A060C4E903014900C5
:1032400061618900C4E90610880020622046FEF70B
:1032500031FD08B1FEF75DFC2C62002211461920F9
:10326000A562FFF713FABDE838401920FFF700BA4E
:1032700038BD0000002C0140001002401C0002403C
:103280005401002090F83D10012901D00120704721
:10329000022180F83D100168CA6842F00102CA604C
:1032A0000068104988420ED0B0F1804F0BD00E4913
:1032B000884208D00D49884205D00D49884202D085
:1032C0000C49884207D181680B4A1140062906D073
:1032D000B1F5803F03D0016841F001010160002099
:1032E00070470000002C014000040040000800402E
:1032F00000340140004001400700010070B5044661
:1033000090F83C000025012814D0012684F83C6088
:10331000022084F83D0022689068364B184020F463
:103320007F409060086870282ED010DC10F00F0FDE
:1033300003D021E04FF0020070BD4FEA2012072AAF
:103340001AD2DFE802F0525252524A3840002A4B59
:10335000C21A984249D009DCB0F5805F0DD0B0F5B3
:10336000005F1CD0B0F1101F06D13EE0102A3CD007
:10337000202A3AD0502A38D0012584F83D60002018
:1033800084F83C00284670BDCB68D1E90121206853
:1033900001F016F82068816841F0770109E0CB68F8
:1033A000D1E90121206801F00BF82068816841F41F
:1033B00080418160E1E7CA684968206801F014F83B
:1033C0005021206806E0CA684968206801F01DF8AD
:1033D0006021206800F0FEFFCFE7CA6849682068D6
:1033E00001F002F840212068F4E722680146104607
:1033F000F0E7000088FFCEFF2000100070472DE9A5
:10340000F04104460068C66805694FF00007A90747
:1034100013D5B10711D5F91E01610120207720686D
:1034200080698007204602D0FFF7E8FF04E000F043
:10343000B7F8204600F0B5F82777680716D570076B
:1034400014D521686FF004000861022020772068FD
:10345000806910F4407F204602D0FFF7CFFF04E0E0
:1034600000F09EF8204600F09CF82777280715D535
:10347000300713D521686FF0080008610420207719
:103480002068C0698007204602D0FFF7B7FF04E03C
:1034900000F086F8204600F084F82777E80616D575
:1034A000F00614D521686FF010000861082020771D
:1034B0002068C06910F4407F204602D0FFF79EFFCD
:1034C00004E000F06DF8204600F06BF82777E8077D
:1034D00008D0F00706D021686FF00100086120468F
:1034E00000F060F8280601D4A80408D5300606D5F7
:1034F00021686FF4025008612046FFF702FEE805DC
:1035000008D5300606D521686FF480700861204622
:10351000FFF7F6FD680608D5700606D521686FF03E
:1035200040000861204600F03EF8A80608D5B00625
:1035300006D521686FF0200008612046FFF7E2FD04
:10354000E80208D5F00206D521686FF48010086102
:103550002046FFF7D9FDA80208D5B00206D521689C
:103560006FF4001008612046FFF7CDFD680208D512
:10357000700206D521686FF4800008612046FFF7CD
:10358000C4FD28020AD5300208D521686FF4000076
:1035900008612046BDE8F041FFF706BEBDE8F081B6
:1035A000704770477047704790F88410012918D011
:1035B000012180F884102421C0F8881001680A686D
:1035C0000B6823F001030B6022F0005100224266D9
:1035D000036819602021C0F8881080F88420104604
:1035E0007047022070477047704770B5044690F8E6
:1035F000840001281DD0012084F884002420C4F810
:10360000880020680568026822F0010202602068D4
:10361000826822F060620A438260204600F01CFF4C
:10362000206805602020C4F88800002084F8840009
:1036300070BD022070BD70B5044690F8840001286A
:103640001DD0012084F884002420C4F8880020685C
:103650000568026822F0010202602068826822F098
:1036600060420A438260204600F0F6FE2068056052
:103670002020C4F88800002084F8840070BD022057
:1036800070BD7047704770472DE9F04103680446EC
:10369000D86919689A6840F60F0528424FF000056E
:1036A0004FF002060AD187067ED501F0200702F00E
:1036B000805C57EA0C0777D0616F42E1B64FDFF8C4
:1036C000DCC2174001EA0C0C57EA0C0C6CD05FEA24
:1036D000C07C0CD05FEAC15C09D54FF0010CC3F887
:1036E00020C0D4F8903043F00103C4F89030830731
:1036F00009D5D30707D023681E62D4F8903043F071
:103700000403C4F8903043070AD5D30708D02668CD
:1037100004233362D4F8903043F00203C4F89030AD
:1037200003070CD501F020033B4308D0266808238B
:103730003362D4F8903043F00803C4F890300305A6
:103740000BD54B0109D526684FF400633362D4F8DA
:10375000903043F02003C4F89030D4F89030002B20
:103760003DD0800609D501F0200002F080510843C9
:1037700003D0616F09B120468847D4F890002168D2
:103780008968490602D410F0280F2AD0204600F09C
:10379000EBFF2068806840061ED52068083050E89E
:1037A000001F21F0400100E021E040E80012002A63
:1037B000F3D1D4F8800078B179498163D4F88000DE
:1037C000FEF7DEF900280AD0D4F88000816B00E013
:1037D0002046BDE8F04108472046FFF754FFBDE80A
:1037E000F0812046FFF74FFFC4F89050F7E7D4F878
:1037F0006CC02027BCF1010F7ED15FEAC06C7BD585
:103800005FEAC16C78D51020186220688068400695
:1038100051D5D4F880100A6850680004000C3ED0DE
:10382000B4F85C3083423AD9A4F85E0008680068B6
:1038300080062CD4216851E8000F20F4807041E804
:103840000002002AF6D12068083050E8001F21F05D
:10385000010140E80012002AF5D12068083050E844
:10386000001F21F0400140E80012002AF5D1C4F801
:103870008C70E566216851E8000F20F0100041E8E7
:103880000002002AF6D1D4F88000FEF744F926673A
:10389000B4F85C00B4F85E10401A81B207E0B4F8E6
:1038A0005C1081429BD11068800698D5266720461F
:1038B000FFF799FE93E7B4F85C00B4F85E10401A85
:1038C00081B2B4F85E00002889D0002987D0226830
:1038D00052E8000F20F4907042E80003002BF6D16C
:1038E0002D4BDB432068083050E8002F1A4040E899
:1038F000002CBCF1000F00E00EE0F3D1C4F88C7096
:10390000E5666567206850E8002F22F0100240E865
:103910000023002BF6D1C9E7C60209D5560207D508
:103920004FF4801018622046BDE8F041FFF7AABEB0
:1039300003060AD501F0800302F40002134304D009
:10394000A16F00297FF444AF49E7420611D54A062A
:103950000FD52046016851E8002F22F0400241E8CF
:103960000023002BF6D1C0F88870856700F094F929
:1039700035E7020206D54A0004D52046BDE8F041ED
:10398000FFF77FBEC00195D5002993DA2046BDE838
:10399000F041FFF729BE00000100001020010004E3
:1039A0001146000810B5040003D0D4F8880010B107
:1039B00007E0012010BD002084F88400204600F0BC
:1039C00027F82420C4F888002068016821F001014C
:1039D0000160A06A10B1204600F060FD204600F0B2
:1039E00005FF0128E6D02068416821F4904141603C
:1039F0002068816821F02A0181602068016841F017
:103A0000010101602046BDE8104000F0ABBD0000A0
:103A10002DE9F04198B00646142111A8FCF730FEBC
:103A200044216846FCF72CFE34493068884261D155
:103A300001200024CDE900046846FEF7BFFE08B16E
:103A4000FEF767F82E48016E41F480410166016E71
:103A500001F480411691C16C41F00101C164C06C58
:103A600011A900F0010016904FF4C06011900220DF
:103A7000CDE912040720CDE914404FF09040FEF745
:103A8000D1F9214D1F484FF0800828601820C5E962
:103A90000104C5E903486C614FF48057AC61C5E986
:103AA00007472846FEF706F908B1FEF732F8C6F8D0
:103AB0008050AE62144D13486035283028601920BC
:103AC000686005F10801102081E811016C61AC61AA
:103AD000C5E907472846FEF7EDF808B1FEF719F8E3
:103AE000F567002211462520AE62FEF7CFFD2520A6
:103AF000FEF7BEFD18B0BDE8F081000000380140BF
:103B000000100240080002404802002030B4D0F803
:103B10008C30202B02D0022030BC7047A9B1A2B15A
:103B20000023C3660A4C0368A3420BD05B681B02E8
:103B300008D5046854E8003F43F0806344E800354A
:103B4000002DF6D130BC00F08BBF0120E4E700006F
:103B500000800040704770472DE9F8430446D0F8D4
:103B60008800984616460D46202802D00220BDE85F
:103B7000F883A5B19EB10020C4F890002120C4F8BC
:103B800088001834FEF778FAA6878146E68754F84D
:103B9000100C2027183CB0F5805F02D003E0012014
:103BA000E5E7206910B12E46002510E000260EE062
:103BB0008021204600F0A8FFC0B9DEB116F8010B45
:103BC00021688862B4F85600401EA4F85600B4F884
:103BD00056004B464FF00002CDF800800028E7D198
:103BE0004FF04001204600F08FFF40B1C4F88870CC
:103BF0000320BCE735F8020BC0F30800E0E7C4F887
:103C000088700020B3E7000070B50446D0F8880043
:103C1000202801D0022070BD39B332B32165A4F849
:103C20005420A4F856200021C4F890102120C4F894
:103C30008800E06FD8B1154BC362E36F1448186376
:103C4000E36F14485863E06F134681632068E56FA3
:103C500000F128022846216DFEF78CF838B11020BB
:103C6000C4F890002020C4F88800012070BD2168AD
:103C7000402008622068083050E8001F41F08001B1
:103C800040E80012002AF5D1002070BD1B47000853
:103C90005D4700082546000807498A68904209D117
:103CA0008888CA881044C0F3080088800020087003
:103CB00001F01ABB70470000100000207047FEE7BB
:103CC00001688A69D243920701D400228A6200689F
:103CD0008169C943C90703D0816941F0010181614C
:103CE000704700002DE9F047044600688946002629
:103CF000816935461746C9064FF0200841D5102185
:103D0000C1612FE0B9F1FF3F2CD0FEF7B5F9C11B1F
:103D1000494502D8B9F1000F24D12068416894F8D0
:103D2000422001F480418369DB431B0415D4B1F5C3
:103D3000804F12D0202A10D0416841F48041416068
:103D4000FEF79AF9074608E0FEF796F9C01B192816
:103D500003D945F02005012604E020688069C043AE
:103D60008006F1D420688069C043800602D5002E09
:103D7000C8D003E016B92168C1F81C8045F00405DD
:103D8000012621688869C20505D54FF4807245F087
:103D90000105CA610126410509D522684FF48061F9
:103DA00045F00805D1610126800502D40AE08005AE
:103DB00007D521684FF4007045F00205C86101265F
:103DC00000E086B12046FFF77BFF54F8240B4168E2
:103DD000064A11404160206A2843206284F81D8011
:103DE0000020A07720773046BDE8F08700E800FE8D
:103DF0002DE9F84304461646DDE90897144898462D
:103E0000DAB200900023204600F056F83A464946C0
:103E1000204600F0D1F8B8B9F5B2B8F1010F08D0DA
:103E20002168300A88623A464946204600F0C4F8C4
:103E300050B9206885624B460022402120460097F9
:103E400000F052F8002800D00120BDE8F8830000FF
:103E5000002000802DE9F843044616461548984690
:103E6000DDE90897DAB2C3020090204600F024F89A
:103E70003A464946204600F09FF8B8B9F5B2B8F185
:103E8000010F08D02168300A88623A464946204628
:103E900000F092F850B9206885624B4600228021DC
:103EA0002046009700F020F8002800D00120BDE84F
:103EB000F88300000020008010B5C1F3090141EA39
:103EC00002410268029C19432143506821F00041DD
:103ED0004FF4806303EA5453024C2343984308434E
:103EE000506010BDFF63FF032DE9F0411D461746EA
:103EF0000E460446DDF8188027E042462946204653
:103F0000FFF7F0FE10B10120BDE8F081681C1CD065
:103F1000FEF7B2F8A0EB0800A84200D8ADB92068BF
:103F2000806936EA00000ED00020B8420DD154F866
:103F3000440F40F0200044F8040920206070002065
:103F4000A0702070DFE70120EFE72068806936EA83
:103F5000000004D00020B842CFD00020D4E70120D8
:103F6000F9E770B516460D4604461EE0324629466E
:103F70002046FFF7B7FE08B1012070BDFEF77CF8C0
:103F8000801BA84200D885B920688069C04380069C
:103F90000BD554F8440F40F0200044F804092020C9
:103FA00060700020A0702070E6E720688069C04340
:103FB0008006DBD4002070BD70B516460D46044661
:103FC00020E0324629462046FFF78CFE08B101204A
:103FD00070BD681C16D0FEF74FF8801BA84200D8B1
:103FE00085B920688069C04380070BD554F8440F19
:103FF00040F0200044F80409202060700020A070E8
:104000002070E4E720688069C0438007D9D400208D
:1040100070BD0000154808B5816C41F00401816451
:10402000816C01F004010091816C41F00101816417
:10403000806C002200F00100009011460B20FEF77A
:1040400025FB0B20FEF714FB002211460C20FEF787
:104050001DFB0C20FEF70CFB002211460D20FEF785
:1040600015FBBDE808400D20FEF702BB0010024022
:1040700010B586B014216846FCF702FB1948C16CE4
:1040800041F02001C164C16C01F020010591C16CB7
:1040900041F00401C164C16C01F004010591C16CDF
:1040A00041F00101C164C16C01F001010591C16CD5
:1040B00041F00201C164C06C0B4C00F0020005909D
:1040C000002240212046FDF7D1FF40200090012032
:1040D0000021CDE90101039169462046FDF7A2FECA
:1040E00006B010BD0010024000080048134810B58B
:1040F000114901601249416000210122C0E9021208
:10410000016141618161C1610162FEF70FF808B18F
:10411000FDF7FFFC00210948FDF7B4FF08B1FDF7EA
:10412000F8FC00210548FDF7D8FF002803D0BDE8C2
:104130001040FDF7EEBC10BD0054004060000020B0
:10414000C285B240134810B511490160124941605F
:1041500000210122C0E90212016141618161C16156
:104160000162FDF7E3FF08B1FDF7D3FC0021094828
:10417000FDF788FF08B1FDF7CCFC00210548FDF7ED
:10418000ACFF002803D0BDE81040FDF7C2BC10BD55
:1041900000580040B4000020C285B24010B588B07D
:1041A00000241948059406940394049400940194FF
:1041B00014490294016044F26721C0E9011442F2FB
:1041C0000F71C0E9031444618461FEF7EEFF08B18A
:1041D000FDF79FFC4FF48050039003A90A48FFF7B6
:1041E0008DF808B1FDF795FC0094019469460648E6
:1041F0000294FEF78BFF002801D0FDF78AFC08B07F
:1042000010BD0000002C014008010020184810B526
:10421000164901604FF4E1314160002181600C22B8
:10422000C160C0E904128161C161016241628162C1
:10423000FFF7B8FB08B1FDF76CFC00210C48FFF755
:10424000FAF908B1FDF765FC00210948FFF7CDF93F
:1042500008B1FDF75EFC0648FFF7A6F9002803D079
:10426000BDE81040FDF755BC10BD0000003801400E
:10427000B4010020FEE7FEE770477047FEF7A6B9DD
:1042800000B593B038216846FCF7FAF914210EA85E
:10429000FCF7F6F90020FEF72BFA0220C10103918A
:1042A000402104910421CDE9080100905521CDE978
:1042B0000A1007900C900D906846FEF70BFD08B1B0
:1042C00072B6FEE70F200E9003200F900020109092
:1042D0001190129004210EA8FEF7B4FB002801D023
:1042E00072B6FEE713B000BD0248016841F47001E8
:1042F0000160704788ED00E00148FFF780B80000DA
:10430000080100202DE9F0430268264B264D274E78
:10431000274C4FF08049984207D0484505D0A84225
:1043200003D0B04201D0A04203D122F070074A6806
:104330003A43204FDFF880C0DFF8808098420DD0EC
:1043400048450BD0A84209D0B04207D0A04205D0C2
:10435000B84203D0604501D0404503D122F44075F6
:10436000CA682A434D6922F080022A4302608A68A3
:10437000C2620A688262984207D0A04205D0B84261
:1043800003D0604501D0404501D109690163012195
:1043900041610169C90703D0016921F0010101618F
:1043A000BDE8F083002C01400004004000080040FC
:1043B00000340140004001400044014000480140F9
:1043C00010B5846842EA032224F47F440A4322435E
:1043D000826010BD8268034B1A400A4342F0070115
:1043E000816070478FFFCFFF10B5036A046A24F025
:1043F00001040462846924F0F00444EA021423F006
:104400000A020A438461026210BD10B5036A046A9D
:1044100024F010040462846923F0A00324F470449F
:1044200044EA023243EA01118261016210BD0000D8
:1044300010B500280BD00246642305490548FFF754
:104440008BFBBDE8104040210148FCF7F7B810BDD8
:1044500020000020B401002030B5416EB9B10268DF
:1044600091689268C1F342610B4B520F9C5CE5006E
:1044700003F10804A25CB5FBF2F2A0F86A205A5CD2
:10448000615CD200B2FBF1F1A0F8681030BD0121EF
:10449000A0F86A10F8E700003657000890F82810D6
:1044A000090706D501684A68836B22F400421A4363
:1044B0004A6090F82810C90706D001684A68C36AA4
:1044C00022F400321A434A6090F82810890706D572
:1044D00001684A68036B22F480321A434A6090F8FC
:1044E0002810490706D501684A68436B22F48022E8
:1044F0001A434A6090F82810C90606D501688A68F0
:10450000C36B22F480521A438A6090F828108906FF
:1045100006D501688A68036C22F400521A438A6047
:1045200090F82810490611D501684A68436C22F4B6
:1045300080121A434A60416CB1F5801F06D10168B0
:104540004A68836C22F4C0021A434A6090F828102B
:10455000090606D501684A68C06C22F400220243AD
:104560004A6070472DE9F84300260446C0F8906081
:10457000FDF782FD8046206800684FF020050007A7
:104580006FF07E4713D5434600222904204600974A
:1045900000F0BAFA58B1216851E8000F20F080000D
:1045A00041E80002002AF6D1C4F8885021E02068D2
:1045B0000068400722D5434600224FF48001204680
:1045C000009700F0A1FAC8B1216851E8000F20F46B
:1045D000907041E80002002AF6D12068083050E8C7
:1045E000001F21F0010140E80012002AF5D1C4F8B3
:1045F0008C5084F884600320BDE8F883C4F88850A8
:10460000C4F88C5044F86C6F666026760020F3E79F
:1046100010B5806A0021A0F85E10A0F85610FFF7D0
:1046200032F810BD70B5846AD4F88800D4F88C5084
:10463000216889684FF00006090606D5212804D1B3
:10464000A4F85660204600F0B9F82068806840065B
:1046500006D5222D04D1A4F85E60204600F084F82F
:10466000D4F8900040F01000C4F890002046FFF706
:104670000AF870BD10B50146806A096809684FF0F4
:10468000000289062DD4A0F85E20036853E8001FBD
:1046900021F4807143E80014002CF6D10168083140
:1046A00051E8003F23F0010341E80034002CF5D12C
:1046B0000168083151E8003F23F0400341E800342D
:1046C000002CF5D12021C0F88C10C16E012908D131
:1046D000016851E8003F23F0100341E80034002C4A
:1046E000F6D10267C16E012902D0FFF733FA10BD7F
:1046F000B0F85C10FEF777FF10BD10B5806A01219D
:104700000167C16E012902D0FFF725FA10BDB0F88C
:104710005C104908FEF767FF10BD10B50146806ABE
:1047200009680968890616D40021A0F856100168A6
:10473000083151E8002F22F0800241E80023002BCD
:10474000F5D1026852E8001F41F0400142E8001331
:10475000002BF6D110BDFFF79FFA10BD10B5806A8F
:10476000FFF7ACFA10BD000010B5026852E8001F58
:1047700021F4907142E80013002BF6D10E4B026831
:10478000083252E8001F194042E80014002CF6D10C
:10479000C16E012908D1016851E8002F22F01002F2
:1047A00041E80023002BF6D12021C0F88C10002115
:1047B000C166416710BD0000FEFFFFEF026852E8CE
:1047C000001F21F0C00142E80013002BF6D1016860
:1047D000083151E8002F22F4000241E80023002BA9
:1047E000F5D12021C0F88810704700002DE9F04174
:1047F0000446016880682269E36910436269002504
:104800001A431043DFF82CC20A688B4B1A4002434C
:104810000A6020684168E26821F440511143416018
:104820002168A069614501D0226A10438A68834BE0
:104830001A4002438A602068C16A626A21F00F014F
:104840001143C1627E4923687E488B420DD1D0F866
:10485000880010F0030006D0012855D0022842D06D
:1048600003283FD152E001203DE077498B420BD134
:10487000D0F8880010F00C0035D0042833D0082878
:1048800040D00C282ED141E070498B420BD1D0F89A
:10489000880010F0300026D0102835D0202831D0E4
:1048A00030281FD132E06A498B420BD1D0F8880002
:1048B00010F0C00017D0402826D0802822D0C02871
:1048C00010D123E063450DD1D0F8880010F440608A
:1048D00009D0B0F5806F17D0B0F5006F12D0B0F5E9
:1048E000406F13D010205B495B4F00264FF400420D
:1048F00063453BD160B1022813D004280BD00828AF
:1049000072D10DE00220EEE70420ECE70820EAE790
:10491000FEF786F901E0FEF7A7F9010001D17CE07E
:104920001146606A37F810206768B1FBF2F007EBB8
:104930004703834270D8B0EB073F6DD80023084689
:104940001946FBF7CCFC090241EA10610202780823
:10495000101871413A460023FBF7C1FC3F4AA0F50D
:104960004071914258D82168C86056E0E3694FF61B
:10497000EF7893422CD109284ED2DFE800F00508E9
:10498000114D0D4D4D4D1000FEF74AF901E0FEF7B7
:1049900059F9010004D140E0FEF766F9F9E7114644
:1049A000606A37F81000B1FBF0F04100606801EB7D
:1049B0005001B1FBF0F0A0F1100141452CD84FF6A9
:1049C000F0710140C0F3420001432068C16024E05F
:1049D000092821D2DFE800F0050912200E2020204E
:1049E0001100FEF71DF902E016E0FEF72BF90100B9
:1049F00004D112E0FEF738F9F9E71146606A37F89A
:104A00001000B1FBF0F1606801EB5001B1FBF0F078
:104A1000A0F1100141450AD901250120A4F86A003E
:104A200024F8680F2846E6602661BDE8F08180B270
:104A300099E7000000800040F369FFCFFFF4FF1109
:104A4000003801400010024000440040004800408F
:104A5000004C00400024F4001E570008FFFC0F002B
:104A600070B58165A0F85C2000210446C0F8901064
:104A70002220C4F88C00D4F88000F0B11F4BC36230
:104A8000D4F880301E481863D4F880301D4858632D
:104A9000D4F8800013468163A56D21682A4624312D
:104AA000D4F88000FDF766F938B11020C4F8900002
:104AB0002020C4F88C00012070BD206940B121681D
:104AC00051E8000F40F4807041E80002002AF6D15E
:104AD0002068083050E8001F41F0010140E8001252
:104AE000002AF5D12068083050E8001F41F040014D
:104AF00040E80012002AF5D1002070BD754600087C
:104B0000FB460008254600082DE9F0479946174660
:104B10000D4604464FF00008089E33E0701C31D06B
:104B2000FDF7AAFAA0EB0900B04218D8BEB1206880
:104B30000168490726D5802D24D0402D22D0C16997
:104B4000C94309070DD4082505622046FFF70CFE6E
:104B5000C4F8905084F884800120BDE8F0870320D9
:104B6000FBE7C069C04300050CD421684FF4006026
:104B700008622046FFF7F8FD2020C4F8900084F872
:104B80008480ECE72068C06935EA000004D000208A
:104B9000B842C3D00020E0E70120F9E710B50B4888
:104BA000FEF772FD09490868C269D243D2060CD4E7
:104BB00010220262D1F8800000684068BDE8104011
:104BC000C0F1400080B2FFF733BC10BDB40100203B
:104BD000FEE703B401984100009850EAC12018BFD5
:104BE00004204A0D18BF40F0010040F2FF72B2EB02
:104BF000515F08BF40F00200012808BF052002B045
:104C000070470907090E002804DB00F1E02080F856
:104C10000014704700F00F0000F1E02080F8141D30
:104C2000704730380A2801D20120704700207047B1
:104C3000704700F02DBA38B504001BD00B46022295
:104C40006946302000F09AF89DF80010C1F3C002C8
:104C5000A270C1F34012E270C1F3800121719DF88E
:104C6000011001F0070121709DF80110C1F3C2018C
:104C7000617038BD4FF0FF3038BD28B10B460122BE
:104C80000146272000F07AB84FF0FF30704738B562
:104C900004001CD00B4602226946362000F06EF854
:104CA000002813D19DF8001001F0070121709DF834
:104CB0000010C1F3C20161709DF80010C1F38011B2
:104CC000A1709DF80110C1F38401E17038BD4FF06F
:104CD000FF3038BD30B587B004000D464BD00B46D1
:104CE000012206A9372000F049F800280BD19DF8D1
:104CF000181011F0030208D0012A36D0022A36D04B
:104D0000032A36D0C01F07B030BDCA094FF00001DA
:104D100029D10091019105912B46012202A9182069
:104D200000F02CF89DF8081001F003018DF8081030
:104D300040B9294605A8FFF7AAFF18B929466846D1
:104D4000FFF779FF9DF817101829DCD99DF8081096
:104D50000029D8D19DF800100029D4D19DF8011068
:104D60000029D0D104212170CDE70121FBE70221E8
:104D7000F9E70321F7E74FF0FF30C4E72DE9F041F1
:104D8000064690460F461C46184600F031FA0500CC
:104D90000FD177B1607D08B946F08006D4E9013CB7
:104DA000424639463046E047207520B16FF0010594
:104DB00001E04FF0FF352846BDE8F0817CB50446A0
:104DC00000200E46009013460190062269461D20E1
:104DD000FFF7D4FF050014D1009820F07F4000F0C9
:104DE000F8FA9FED111B53EC112B00F01DFB00F0A6
:104DF000BFFA6060B078012805D09FED0D0A84ED00
:104E0000000A28467CBDDDF8030020F07F4000F05A
:104E1000F7FA9FED081B53EC112B00F005FB00F097
:104E2000A7FA2060EDE70000000000000000F03E5F
:104E300000000000000000000000903F0EB54FF0A1
:104E4000FF3392B28DE80E00024601238E21044802
:104E5000FDF7CAF9002801D06FF001000EBD000077
:104E6000B40000200EB54FF0FF3392B28DE80E0073
:104E7000024601238E210448FDF768FA002801D07C
:104E80006FF001000EBD0000B40000207FB50446A5
:104E900000F0AEF9002831D1607D38B901222346F7
:104EA00003A91046FFF76AFF002827D101222346F5
:104EB00069461046FFF762FF00281FD19DF80000E9
:104EC00000B3214601A800F037F9002816D19DF85B
:104ED00004006FF00405810712D5400710D4214665
:104EE00002A8FFF7CAFE002808D19DF80800C006F6
:104EF00006D59DF80000502807D0681004B070BD9A
:104F00002846FBE76FF00300F8E720700020F5E784
:104F100038B504004FF000000D4600902CD0E0782A
:104F2000182804D2084600F0CEF9002823D12B46D9
:104F3000022269463620FFF721FF00281BD1217885
:104F40009DF800002B4661F302008DF800006178A7
:104F5000022261F3C500A17861F386108DF800008C
:104F6000E1789DF8010061F386008DF80100694643
:104F7000362000F02FF838BD4FF0FF3038BDF8B5BF
:104F800006460D466846FFF7A5FE040020D19DF8B1
:104F9000000050B12946002000F07BF9040017D131
:104FA0002A6940F6C41069689047052E0ED2DFE8E2
:104FB00006F00F0707070300284600F025F903E075
:104FC0002946304600F065F9044601E06FF006041A
:104FD0002046F8BD2DE9F047814690460F461C4615
:104FE0000025184600F004F9060024D11FB3607DA7
:104FF00020B1012813D0022811D017E0791909EB4C
:105000000500D4F80CC0C0B201226368E0476D1CF3
:10501000EDB22075454509D20028EFD008E0E568DB
:105020004246394648466368A8472075207D20B12E
:105030006FF0010601E04FF0FF363046BDE8F08723
:105040007CB50446B6208DF800002346012269464F
:105050007E20FFF7BFFF05000DD122694FF4FA60F3
:1050600061689047607D30B90122234601A910464E
:10507000FFF784FE054628467CBD30B504464FF454
:105080007A7502E0284600F003F8641EFAD230BDBB
:105090000649074A0968B1FBF2F1064A41435068E4
:1050A00053681B1A8B42FBD3704700000C00002092
:1050B00040420F00001000E0F8B51D4C0646A06805
:1050C000C8B10027EFF3108572B6F1B26088A288EC
:1050D000401CC0F30800904210D0164A6388D15497
:1050E00060800A2E1ED06088A188884211D3608813
:1050F000A188401A12E04FF0FF30F8BD00F0F4F83C
:1051000085F3108800970098401C00906428FADB13
:10511000D8E7A0886188C0F50070084480B2B0F577
:10512000C07F01D900F0E0F885F310883046F8BD63
:10513000100000200803002028B10B460122014680
:105140002820FFF71BBE4FF0FF307047FDF746FAEF
:10515000FFF796F814A0FBF739F94FF4FA70FCF753
:105160004FFEFEF785FFFEF755FFFFF74FF8FFF7FD
:1051700015F8FEF7BBFFFEF7E5FF402219491A4874
:10518000FEF7C4FC1948FEF77DF81748006801686F
:1051900041F010010160FCF7A3FC134800F0C8F8CF
:1051A000FCF766FAFEE70000506F7765722D6F6EB0
:1051B0002064656C61792E2E2E2077616974696E8A
:1051C0006720666F72207065726970686572616CC5
:1051D0007320746F2073746162696C697A652E0D37
:1051E0000A00000020000020B40100200801002077
:1051F00038B1816829B1C16819B1006908B10020CE
:1052000070474FF0FF30704738B50446034601221F
:1052100069463720FFF7B2FD002839D19DF800001C
:10522000234620F0FC0040F070008DF800000122C1
:1052300069463720FFF7CEFE002829D123460122F8
:1052400069463120FFF79AFD002821D19DF8000022
:10525000234600F0C0008DF800000122694631208D
:10526000FFF7B8FE002813D1234601226946182013
:10527000FFF784FD00280BD19DF80000234620F0A5
:1052800003008DF80000012269461820FFF7A2FEF6
:1052900038BD38B504460D460B4601226946372015
:1052A000FFF76CFD00280DD19DF800002B4640F063
:1052B000800064F301008DF8000001226946372068
:1052C000FFF788FE38BD38B5044601466846FFF74B
:1052D00001FD002806D19DF80010042902D12146C5
:1052E000FFF74DFE38BD00000F49087800281AD19D
:1052F00048888A88904216D08868002813D04A8847
:105300008B889A4203D34A888B88D21A02E08A8813
:10531000C2F5007292B2CA8001230B70034B8988D8
:105320001944FEF771BC70471000002008030020EC
:10533000034988600020488088800870704700001A
:105340001000002010B500290AD00878002807D0E6
:1053500005487844FBF784FD002801D0002010BDEB
:105360000248784410BD0000DE050000D6050000AC
:1053700021F00042A2F16052B2F5801F01F000431B
:1053800028BFD2F17F6C0BD95FEA001C43EAC2024E
:1053900042EB507018BF704728BF20F001007047E3
:1053A000B2F5801FBCBF184670474FEA410C1CF590
:1053B000001F02D2084600F0ABB970B500F0DEF86D
:1053C00000000089FFF7F6BF4FF00040A0F5800015
:1053D000704710F0004248BF4042B0FA80F310FA24
:1053E00003F10AD0C3F11D0303F580634FEA415076
:1053F00002EB035202EBD12170474FF000007047DF
:10540000B0FA80F310FA03F10AD0C3F11D0303F5DB
:1054100080634FEA41504FEA035202EBD1217047BB
:105420004FF0000070470000DFF848C170B51CEA7B
:10543000111E1EBF1CEA13159EEA0C0F95EA0C0FF5
:1054400000F06F8081EA030423EA4C134EEAD47E15
:1054500021EA4C1141F4801143F48013AE44A1FBC6
:10546000024CA0FB0365AEF17F7E361955EB0C05AF
:10547000A1FB034C4CF10003A0FB021C16EB0C0635
:10548000654153F10003094218BF46F0010613F4C9
:10549000007F0BD14FEA03314FEA0530340341EA74
:1054A000155140EA16506FF003020AE04FEAC3219B
:1054B0004FEAC520F40241EA555140EA56506FF0D8
:1054C000020202EB2E4201EB025585EACE710AD0B0
:1054D0005FEA440C18BF24F0004450F1000041F191
:1054E000000120EAD47040F2FE7C624500D270BD1B
:1054F000A84214BF4FF080444FF04044002E08BF34
:105500000024BEF1806FA8BFA1F1C041BDE870408A
:1055100080F282804FF0000001F1C04101F00041B3
:1055200070479EEA0C0F0CEA131518BF95EA0C0F92
:1055300006D04FF0000081EA030E0EF0004170BD6E
:1055400000F01CF88900013E00F007B800F009B82F
:105550004FEA430C5FEA5C5C08D081EA030100F08B
:105560005BB84FEA410C5FEA5C5CF6D14FF000009B
:10557000014970470000FF070000F87F0EF1020E9E
:105580002EF0030E5EF8046B364205D4012A43EB7D
:10559000030515F5001F12D8012841EB010C1CF57D
:1055A000001F0CD80ED14FEAD17C15F5001F0CEB73
:1055B0004C0C0CF1020C08BF4CEBD37C04E04FF018
:1055C000080C01E04FEAD37C0CEB4C0526FA05F6FB
:1055D00006F00706B6F1040C06D20EEB860CBDE809
:1055E00070404CF0010C6047DFE80CF0090B020240
:1055F0004FF000414FF00000A1F5002170BD1946A9
:105600001046012851EB010418BFD4F5001484BFE3
:10561000002001F0004170BD0808A0F500114FEA1C
:105620003101704743004FEAD30C4FEA3C0C434032
:105630001FBF40070CF1605113F0FE4F70471CF084
:10564000006F03D100200CF0004170470CF00043C4
:1056500043EA507010B540EACC0000F00EF800BFED
:10566000000000924FEA0001FFF7D6BF4FF0004163
:105670004FF00000A1F5002170470EF1020E2EF050
:10568000030E5EF8044B244204D44FEA4102B2F107
:105690007F4F11D84FEA4003B3F17F4F0CD80ED1A2
:1056A0004FEAD07CB2F17F4F0CEB4C0C0CF1020CAA
:1056B00008BF4CEBD17C04E04FF0080C01E04FEA4E
:1056C000D17C0CEB4C0324FA03F404F00704B4F18E
:1056D000040C06D20EEB840CBDE810404CF0010C1B
:1056E0006047DFE80CF0070802024FF00040A0F529
:1056F000800010BD0846420018BFD2F1807288BFFA
:1057000000F0004010BD4FF04070E1EE100A70470D
:10571000FF2141EAD050C0057047FBF70EB90100E8
:1057200002000400060008000A000C00100020001F
:10573000400080000001010101030701000008048E
:105740000204080101010000000000000000010245
:1057500003040607080900000000010203043031B9
:105760003233343536373839414243444546403088
:10577000580030313233343536373839616263643A
:10578000656640307800040000080000000000005A
:10579000000200010000100002400000000000A014
:1057A0000000000005400000000000C800000000EC
:1057B0000C4000000000409C000000001940000068
:1057C0000020BCBE0000000034400000BFC91B8E9A
:1057D00000000004B5400000504BCFD06607E2CF78
:1057E000010000006C4100003E8251AADFEEA734A8
:1057F00001000000D9420000DCB5A0E23A301F975A
:10580000FFFFFFFFB4450000FD25A0C8E9A3C14F7D
:10581000FFFFFFFFFF3F00000000008000000000CE
:10582000FF3F00000000008000000000536574206E
:10583000746F205354414E444259206D6F6465206B
:105840007375636365737366756C2E205374617230
:1058500074696E6720666F72636564206D6F64653E
:10586000206C6F6F702E2E2E0D0A0D0A00000000A6
:105870005761726E696E673A205072657373757204
:10588000652072656164696E6720697320252E3218
:10589000662050612C2077686963682069732069ED
:1058A0006E76616C69642E20436865636B696E6710
:1058B00020636F6E6669672E2E2E0D0A00000000B1
:1058C000424D503538305F496E69743A20576172E5
:1058D0006E696E67202D20536F6674207265736544
:1058E0007420636F6D6D616E642072657475726E85
:1058F0006564206572726F722025642E20436F6E7E
:1059000074696E75696E672E2E2E0D0A00000000F8
:105910004C5900080000002020000000140200087C
:105920006C59000820000020600B000030020008C5
:105930001C00000043000000F8FFFFFF0C00000007
:105940000E0000000F0000002E00000010000000FC
:1059500001000000000000000024F400000000002E
:0C5960000000000000000000000000003B
:04000005080001D915
:00000001FF
